{
  "contractName": "ACL",
  "abi": [
    {
      "constant": true,
      "inputs": [
        {
          "name": "account",
          "type": "address"
        }
      ],
      "name": "hasAdmin",
      "outputs": [
        {
          "name": "hasAdminAccess",
          "type": "bool"
        }
      ],
      "payable": false,
      "stateMutability": "view",
      "type": "function"
    },
    {
      "constant": false,
      "inputs": [
        {
          "name": "account",
          "type": "address"
        }
      ],
      "name": "grantAdmin",
      "outputs": [],
      "payable": false,
      "stateMutability": "nonpayable",
      "type": "function"
    },
    {
      "constant": false,
      "inputs": [],
      "name": "revokePublicAccess",
      "outputs": [],
      "payable": false,
      "stateMutability": "nonpayable",
      "type": "function"
    },
    {
      "constant": false,
      "inputs": [
        {
          "name": "account",
          "type": "address"
        }
      ],
      "name": "grantRead",
      "outputs": [],
      "payable": false,
      "stateMutability": "nonpayable",
      "type": "function"
    },
    {
      "constant": true,
      "inputs": [],
      "name": "getHubAddr",
      "outputs": [
        {
          "name": "",
          "type": "address"
        }
      ],
      "payable": false,
      "stateMutability": "view",
      "type": "function"
    },
    {
      "constant": false,
      "inputs": [
        {
          "name": "account",
          "type": "address"
        }
      ],
      "name": "grantWrite",
      "outputs": [],
      "payable": false,
      "stateMutability": "nonpayable",
      "type": "function"
    },
    {
      "constant": false,
      "inputs": [
        {
          "name": "context",
          "type": "bytes"
        }
      ],
      "name": "preRelayedCall",
      "outputs": [
        {
          "name": "",
          "type": "bytes32"
        }
      ],
      "payable": false,
      "stateMutability": "nonpayable",
      "type": "function"
    },
    {
      "constant": false,
      "inputs": [
        {
          "name": "account",
          "type": "address"
        }
      ],
      "name": "revokeAccess",
      "outputs": [],
      "payable": false,
      "stateMutability": "nonpayable",
      "type": "function"
    },
    {
      "constant": true,
      "inputs": [],
      "name": "getOwner",
      "outputs": [
        {
          "name": "",
          "type": "address"
        }
      ],
      "payable": false,
      "stateMutability": "view",
      "type": "function"
    },
    {
      "constant": true,
      "inputs": [],
      "name": "owner",
      "outputs": [
        {
          "name": "",
          "type": "address"
        }
      ],
      "payable": false,
      "stateMutability": "view",
      "type": "function"
    },
    {
      "constant": false,
      "inputs": [],
      "name": "grantPublicAccess",
      "outputs": [],
      "payable": false,
      "stateMutability": "nonpayable",
      "type": "function"
    },
    {
      "constant": true,
      "inputs": [],
      "name": "relayHubVersion",
      "outputs": [
        {
          "name": "",
          "type": "string"
        }
      ],
      "payable": false,
      "stateMutability": "view",
      "type": "function"
    },
    {
      "constant": true,
      "inputs": [
        {
          "name": "account",
          "type": "address"
        }
      ],
      "name": "hasRead",
      "outputs": [
        {
          "name": "hasReadAccess",
          "type": "bool"
        }
      ],
      "payable": false,
      "stateMutability": "view",
      "type": "function"
    },
    {
      "constant": true,
      "inputs": [],
      "name": "isPublic",
      "outputs": [
        {
          "name": "",
          "type": "bool"
        }
      ],
      "payable": false,
      "stateMutability": "view",
      "type": "function"
    },
    {
      "constant": false,
      "inputs": [
        {
          "name": "context",
          "type": "bytes"
        },
        {
          "name": "success",
          "type": "bool"
        },
        {
          "name": "actualCharge",
          "type": "uint256"
        },
        {
          "name": "preRetVal",
          "type": "bytes32"
        }
      ],
      "name": "postRelayedCall",
      "outputs": [],
      "payable": false,
      "stateMutability": "nonpayable",
      "type": "function"
    },
    {
      "constant": false,
      "inputs": [
        {
          "name": "_newOwner",
          "type": "address"
        }
      ],
      "name": "transferOwnership",
      "outputs": [],
      "payable": false,
      "stateMutability": "nonpayable",
      "type": "function"
    },
    {
      "inputs": [
        {
          "name": "_owner",
          "type": "address"
        },
        {
          "name": "_isPublic",
          "type": "bool"
        }
      ],
      "payable": false,
      "stateMutability": "nonpayable",
      "type": "constructor"
    },
    {
      "anonymous": false,
      "inputs": [
        {
          "indexed": false,
          "name": "account",
          "type": "address"
        },
        {
          "indexed": false,
          "name": "level",
          "type": "uint8"
        }
      ],
      "name": "PermissionGranted",
      "type": "event"
    },
    {
      "anonymous": false,
      "inputs": [
        {
          "indexed": true,
          "name": "oldRelayHub",
          "type": "address"
        },
        {
          "indexed": true,
          "name": "newRelayHub",
          "type": "address"
        }
      ],
      "name": "RelayHubChanged",
      "type": "event"
    },
    {
      "constant": false,
      "inputs": [],
      "name": "initialize",
      "outputs": [],
      "payable": false,
      "stateMutability": "nonpayable",
      "type": "function"
    },
    {
      "constant": false,
      "inputs": [
        {
          "name": "relayHub",
          "type": "address"
        }
      ],
      "name": "initialize",
      "outputs": [],
      "payable": false,
      "stateMutability": "nonpayable",
      "type": "function"
    },
    {
      "constant": true,
      "inputs": [
        {
          "name": "",
          "type": "address"
        },
        {
          "name": "",
          "type": "address"
        },
        {
          "name": "",
          "type": "bytes"
        },
        {
          "name": "",
          "type": "uint256"
        },
        {
          "name": "",
          "type": "uint256"
        },
        {
          "name": "",
          "type": "uint256"
        },
        {
          "name": "",
          "type": "uint256"
        },
        {
          "name": "",
          "type": "bytes"
        },
        {
          "name": "",
          "type": "uint256"
        }
      ],
      "name": "acceptRelayedCall",
      "outputs": [
        {
          "name": "",
          "type": "uint256"
        },
        {
          "name": "",
          "type": "bytes"
        }
      ],
      "payable": false,
      "stateMutability": "view",
      "type": "function"
    },
    {
      "constant": true,
      "inputs": [],
      "name": "getRecipientBalance",
      "outputs": [
        {
          "name": "",
          "type": "uint256"
        }
      ],
      "payable": false,
      "stateMutability": "view",
      "type": "function"
    },
    {
      "constant": true,
      "inputs": [],
      "name": "version",
      "outputs": [
        {
          "name": "",
          "type": "uint256"
        }
      ],
      "payable": false,
      "stateMutability": "pure",
      "type": "function"
    }
  ],
  "bytecode": "0x60806040526000603560006101000a81548160ff02191690831515021790555034801561002b57600080fd5b50604051604080611f3a8339810180604052604081101561004b57600080fd5b81019080805190602001909291908051906020019092919050505081818180603360006101000a81548173ffffffffffffffffffffffffffffffffffffffff021916908373ffffffffffffffffffffffffffffffffffffffff1602179055505080603560006101000a81548160ff02191690831515021790555060405180602001604052806003808111156100dc57fe5b815250603460008473ffffffffffffffffffffffffffffffffffffffff1673ffffffffffffffffffffffffffffffffffffffff16815260200190815260200160002060008201518160000160006101000a81548160ff0219169083600381111561014257fe5b021790555090505050505050611ddd8061015d6000396000f3fe608060405234801561001057600080fd5b5060043610610154576000357c01000000000000000000000000000000000000000000000000000000009004806385e68531116100d5578063ad61ccd511610099578063ad61ccd51461064b578063c30fc492146106ce578063c4d66de81461072a578063dc9a15351461076e578063e06e0e2214610790578063f2fde38b1461082957610154565b806385e685311461054b578063893d20e81461058f5780638da5cb5b146105d9578063a5bfa74614610623578063ac5704111461062d57610154565b806374e861d61161011c57806374e861d6146102655780637e048c21146102af57806380274db7146102f35780638129fc1c1461038057806383947ea01461038a57610154565b806335950fed1461015957806335bb3e16146101b55780633d0e4a1a146101f957806354fd4d501461020357806370b8cdd514610221575b600080fd5b61019b6004803603602081101561016f57600080fd5b81019080803573ffffffffffffffffffffffffffffffffffffffff16906020019092919050505061086d565b604051808215151515815260200191505060405180910390f35b6101f7600480360360208110156101cb57600080fd5b81019080803573ffffffffffffffffffffffffffffffffffffffff1690602001909291905050506108df565b005b610201610aa6565b005b61020b610b88565b6040518082815260200191505060405180910390f35b6102636004803603602081101561023757600080fd5b81019080803573ffffffffffffffffffffffffffffffffffffffff169060200190929190505050610b91565b005b61026d610d59565b604051808273ffffffffffffffffffffffffffffffffffffffff1673ffffffffffffffffffffffffffffffffffffffff16815260200191505060405180910390f35b6102f1600480360360208110156102c557600080fd5b81019080803573ffffffffffffffffffffffffffffffffffffffff169060200190929190505050610d68565b005b61036a6004803603602081101561030957600080fd5b810190808035906020019064010000000081111561032657600080fd5b82018360208201111561033857600080fd5b8035906020019184600183028401116401000000008311171561035a57600080fd5b9091929391929390505050610f30565b6040518082815260200191505060405180910390f35b610388611012565b005b6104c960048036036101208110156103a157600080fd5b81019080803573ffffffffffffffffffffffffffffffffffffffff169060200190929190803573ffffffffffffffffffffffffffffffffffffffff169060200190929190803590602001906401000000008111156103fe57600080fd5b82018360208201111561041057600080fd5b8035906020019184600183028401116401000000008311171561043257600080fd5b9091929391929390803590602001909291908035906020019092919080359060200190929190803590602001909291908035906020019064010000000081111561047b57600080fd5b82018360208201111561048d57600080fd5b803590602001918460018302840111640100000000831117156104af57600080fd5b909192939192939080359060200190929190505050611119565b6040518083815260200180602001828103825283818151815260200191508051906020019080838360005b8381101561050f5780820151818401526020810190506104f4565b50505050905090810190601f16801561053c5780820380516001836020036101000a031916815260200191505b50935050505060405180910390f35b61058d6004803603602081101561056157600080fd5b81019080803573ffffffffffffffffffffffffffffffffffffffff169060200190929190505050611139565b005b610597611301565b604051808273ffffffffffffffffffffffffffffffffffffffff1673ffffffffffffffffffffffffffffffffffffffff16815260200191505060405180910390f35b6105e161132b565b604051808273ffffffffffffffffffffffffffffffffffffffff1673ffffffffffffffffffffffffffffffffffffffff16815260200191505060405180910390f35b61062b611351565b005b610635611433565b6040518082815260200191505060405180910390f35b610653611515565b6040518080602001828103825283818151815260200191508051906020019080838360005b83811015610693578082015181840152602081019050610678565b50505050905090810190601f1680156106c05780820380516001836020036101000a031916815260200191505b509250505060405180910390f35b610710600480360360208110156106e457600080fd5b81019080803573ffffffffffffffffffffffffffffffffffffffff169060200190929190505050611552565b604051808215151515815260200191505060405180910390f35b61076c6004803603602081101561074057600080fd5b81019080803573ffffffffffffffffffffffffffffffffffffffff1690602001909291905050506115dc565b005b6107766116ed565b604051808215151515815260200191505060405180910390f35b610827600480360360808110156107a657600080fd5b81019080803590602001906401000000008111156107c357600080fd5b8201836020820111156107d557600080fd5b803590602001918460018302840111640100000000831117156107f757600080fd5b90919293919293908035151590602001909291908035906020019092919080359060200190929190505050611700565b005b61086b6004803603602081101561083f57600080fd5b81019080803573ffffffffffffffffffffffffffffffffffffffff1690602001909291905050506117e2565b005b600060038081111561087b57fe5b603460008473ffffffffffffffffffffffffffffffffffffffff1673ffffffffffffffffffffffffffffffffffffffff16815260200190815260200160002060000160009054906101000a900460ff1660038111156108d657fe5b10159050919050565b6003808111156108eb57fe5b603460006108f76118c1565b73ffffffffffffffffffffffffffffffffffffffff1673ffffffffffffffffffffffffffffffffffffffff16815260200190815260200160002060000160009054906101000a900460ff16600381111561094d57fe5b10156109a4576040517f08c379a000000000000000000000000000000000000000000000000000000000815260040180806020018281038252603b815260200180611cf2603b913960400191505060405180910390fd5b60405180602001604052806003808111156109bb57fe5b815250603460008373ffffffffffffffffffffffffffffffffffffffff1673ffffffffffffffffffffffffffffffffffffffff16815260200190815260200160002060008201518160000160006101000a81548160ff02191690836003811115610a2157fe5b02179055509050507f4bb8f5497a4d4a4036670dab8c94b028b3fedc11ce7fbf55f3f57b3a4d355dc7816003604051808373ffffffffffffffffffffffffffffffffffffffff1673ffffffffffffffffffffffffffffffffffffffff168152602001826003811115610a8f57fe5b60ff1681526020019250505060405180910390a150565b600380811115610ab257fe5b60346000610abe6118c1565b73ffffffffffffffffffffffffffffffffffffffff1673ffffffffffffffffffffffffffffffffffffffff16815260200190815260200160002060000160009054906101000a900460ff166003811115610b1457fe5b1015610b6b576040517f08c379a000000000000000000000000000000000000000000000000000000000815260040180806020018281038252603b815260200180611cf2603b913960400191505060405180910390fd5b6000603560006101000a81548160ff021916908315150217905550565b60006003905090565b600380811115610b9d57fe5b60346000610ba96118c1565b73ffffffffffffffffffffffffffffffffffffffff1673ffffffffffffffffffffffffffffffffffffffff16815260200190815260200160002060000160009054906101000a900460ff166003811115610bff57fe5b1015610c56576040517f08c379a000000000000000000000000000000000000000000000000000000000815260040180806020018281038252603b815260200180611cf2603b913960400191505060405180910390fd5b604051806020016040528060016003811115610c6e57fe5b815250603460008373ffffffffffffffffffffffffffffffffffffffff1673ffffffffffffffffffffffffffffffffffffffff16815260200190815260200160002060008201518160000160006101000a81548160ff02191690836003811115610cd457fe5b02179055509050507f4bb8f5497a4d4a4036670dab8c94b028b3fedc11ce7fbf55f3f57b3a4d355dc7816001604051808373ffffffffffffffffffffffffffffffffffffffff1673ffffffffffffffffffffffffffffffffffffffff168152602001826003811115610d4257fe5b60ff1681526020019250505060405180910390a150565b6000610d63611913565b905090565b600380811115610d7457fe5b60346000610d806118c1565b73ffffffffffffffffffffffffffffffffffffffff1673ffffffffffffffffffffffffffffffffffffffff16815260200190815260200160002060000160009054906101000a900460ff166003811115610dd657fe5b1015610e2d576040517f08c379a000000000000000000000000000000000000000000000000000000000815260040180806020018281038252603b815260200180611cf2603b913960400191505060405180910390fd5b604051806020016040528060026003811115610e4557fe5b815250603460008373ffffffffffffffffffffffffffffffffffffffff1673ffffffffffffffffffffffffffffffffffffffff16815260200190815260200160002060008201518160000160006101000a81548160ff02191690836003811115610eab57fe5b02179055509050507f4bb8f5497a4d4a4036670dab8c94b028b3fedc11ce7fbf55f3f57b3a4d355dc7816002604051808373ffffffffffffffffffffffffffffffffffffffff1673ffffffffffffffffffffffffffffffffffffffff168152602001826003811115610f1957fe5b60ff1681526020019250505060405180910390a150565b6000610f3a610d59565b73ffffffffffffffffffffffffffffffffffffffff163373ffffffffffffffffffffffffffffffffffffffff1614610fbd576040517f08c379a0000000000000000000000000000000000000000000000000000000008152600401808060200182810382526026815260200180611ccc6026913960400191505060405180910390fd5b61100a83838080601f016020809104026020016040519081016040528093929190818152602001838380828437600081840152601f19601f82011690508083019250505050505050611944565b905092915050565b600060019054906101000a900460ff1680611031575061103061194b565b5b8061104857506000809054906101000a900460ff16155b61109d576040517f08c379a000000000000000000000000000000000000000000000000000000000815260040180806020018281038252602e815260200180611d58602e913960400191505060405180910390fd5b60008060019054906101000a900460ff1615905080156110ed576001600060016101000a81548160ff02191690831515021790555060016000806101000a81548160ff0219169083151502179055505b6110f561195c565b80156111165760008060016101000a81548160ff0219169083151502179055505b50565b60006060611125611a78565b915091509b509b9950505050505050505050565b60038081111561114557fe5b603460006111516118c1565b73ffffffffffffffffffffffffffffffffffffffff1673ffffffffffffffffffffffffffffffffffffffff16815260200190815260200160002060000160009054906101000a900460ff1660038111156111a757fe5b10156111fe576040517f08c379a000000000000000000000000000000000000000000000000000000000815260040180806020018281038252603b815260200180611cf2603b913960400191505060405180910390fd5b60405180602001604052806000600381111561121657fe5b815250603460008373ffffffffffffffffffffffffffffffffffffffff1673ffffffffffffffffffffffffffffffffffffffff16815260200190815260200160002060008201518160000160006101000a81548160ff0219169083600381111561127c57fe5b02179055509050507f4bb8f5497a4d4a4036670dab8c94b028b3fedc11ce7fbf55f3f57b3a4d355dc7816000604051808373ffffffffffffffffffffffffffffffffffffffff1673ffffffffffffffffffffffffffffffffffffffff1681526020018260038111156112ea57fe5b60ff1681526020019250505060405180910390a150565b6000603360009054906101000a900473ffffffffffffffffffffffffffffffffffffffff16905090565b603360009054906101000a900473ffffffffffffffffffffffffffffffffffffffff1681565b60038081111561135d57fe5b603460006113696118c1565b73ffffffffffffffffffffffffffffffffffffffff1673ffffffffffffffffffffffffffffffffffffffff16815260200190815260200160002060000160009054906101000a900460ff1660038111156113bf57fe5b1015611416576040517f08c379a000000000000000000000000000000000000000000000000000000000815260040180806020018281038252603b815260200180611cf2603b913960400191505060405180910390fd5b6001603560006101000a81548160ff021916908315150217905550565b600061143d610d59565b73ffffffffffffffffffffffffffffffffffffffff166370a08231306040518263ffffffff167c0100000000000000000000000000000000000000000000000000000000028152600401808273ffffffffffffffffffffffffffffffffffffffff1673ffffffffffffffffffffffffffffffffffffffff16815260200191505060206040518083038186803b1580156114d557600080fd5b505afa1580156114e9573d6000803e3d6000fd5b505050506040513d60208110156114ff57600080fd5b8101908080519060200190929190505050905090565b60606040518060400160405280600581526020017f312e302e30000000000000000000000000000000000000000000000000000000815250905090565b6000603560009054906101000a900460ff16806115d557506001600381111561157757fe5b603460008473ffffffffffffffffffffffffffffffffffffffff1673ffffffffffffffffffffffffffffffffffffffff16815260200190815260200160002060000160009054906101000a900460ff1660038111156115d257fe5b10155b9050919050565b600060019054906101000a900460ff16806115fb57506115fa61194b565b5b8061161257506000809054906101000a900460ff16155b611667576040517f08c379a000000000000000000000000000000000000000000000000000000000815260040180806020018281038252602e815260200180611d58602e913960400191505060405180910390fd5b60008060019054906101000a900460ff1615905080156116b7576001600060016101000a81548160ff02191690831515021790555060016000806101000a81548160ff0219169083151502179055505b6116bf611012565b6116c882611a9c565b80156116e95760008060016101000a81548160ff0219169083151502179055505b5050565b603560009054906101000a900460ff1681565b611708610d59565b73ffffffffffffffffffffffffffffffffffffffff163373ffffffffffffffffffffffffffffffffffffffff161461178b576040517f08c379a0000000000000000000000000000000000000000000000000000000008152600401808060200182810382526026815260200180611ccc6026913960400191505060405180910390fd5b6117db85858080601f016020809104026020016040519081016040528093929190818152602001838380828437600081840152601f19601f82011690508083019250505050505050848484611c3d565b5050505050565b603360009054906101000a900473ffffffffffffffffffffffffffffffffffffffff1673ffffffffffffffffffffffffffffffffffffffff166118236118c1565b73ffffffffffffffffffffffffffffffffffffffff161461184357600080fd5b600073ffffffffffffffffffffffffffffffffffffffff168173ffffffffffffffffffffffffffffffffffffffff16141561187d57600080fd5b80603360006101000a81548173ffffffffffffffffffffffffffffffffffffffff021916908373ffffffffffffffffffffffffffffffffffffffff16021790555050565b60006118cb611913565b73ffffffffffffffffffffffffffffffffffffffff163373ffffffffffffffffffffffffffffffffffffffff161461190557339050611910565b61190d611c43565b90505b90565b6000807f06b7792c761dcc05af1761f0315ce8b01ac39c16cc934eb0b2f7a8e71414f2626001029050805491505090565b6000919050565b600080303b90506000811491505090565b600060019054906101000a900460ff168061197b575061197a61194b565b5b8061199257506000809054906101000a900460ff16155b6119e7576040517f08c379a000000000000000000000000000000000000000000000000000000000815260040180806020018281038252602e815260200180611d58602e913960400191505060405180910390fd5b60008060019054906101000a900460ff161590508015611a37576001600060016101000a81548160ff02191690831515021790555060016000806101000a81548160ff0219169083151502179055505b611a5473511bed1c29bc163c96b7d4dde28c7e0590aa44f5611a9c565b8015611a755760008060016101000a81548160ff0219169083151502179055505b50565b60006060611a9460405180602001604052806000815250611cbb565b915091509091565b6000611aa6611913565b9050600073ffffffffffffffffffffffffffffffffffffffff168273ffffffffffffffffffffffffffffffffffffffff161415611b2e576040517f08c379a000000000000000000000000000000000000000000000000000000000815260040180806020018281038252602c815260200180611d86602c913960400191505060405180910390fd5b8073ffffffffffffffffffffffffffffffffffffffff168273ffffffffffffffffffffffffffffffffffffffff161415611bb3576040517f08c379a000000000000000000000000000000000000000000000000000000000815260040180806020018281038252602b815260200180611d2d602b913960400191505060405180910390fd5b8173ffffffffffffffffffffffffffffffffffffffff168173ffffffffffffffffffffffffffffffffffffffff167fb9f84b8e65164b14439ae3620df0a4d8786d896996c0282b683f9d8c08f046e860405160405180910390a360007f06b7792c761dcc05af1761f0315ce8b01ac39c16cc934eb0b2f7a8e71414f2626001029050828155505050565b50505050565b600060606000368080601f016020809104026020016040519081016040528093929190818152602001838380828437600081840152601f19601f820116905080830192505050505050509050600080369050905073ffffffffffffffffffffffffffffffffffffffff81830151169250829250505090565b600060606000839150915091509156fe47534e426f756e636572426173653a2063616c6c6572206973206e6f742052656c61794875624f6e6c79207573657220776974682041646d696e207065726d697373696f6e206c766c2063616e2063616c6c20746869732066756e6374696f6e2e47534e436f6e746578743a206e65772052656c6179487562206973207468652063757272656e74206f6e65436f6e747261637420696e7374616e63652068617320616c7265616479206265656e20696e697469616c697a656447534e436f6e746578743a206e65772052656c617948756220697320746865207a65726f2061646472657373a165627a7a72305820f6996b53e3bacbb0286d4ce0563043acb57549a5887bcfc8b7bf59b16d40d6f80029",
  "source": "pragma solidity ^0.5.0;\n\nimport \"./utils/GSNOwnableRecipient.sol\";\nimport \"./utils/Initializable.sol\";\n\n/**\n * @title Permissioned manages access rights\n * @author Lukas Lukac, Lightstreams, 11.7.2018\n */\ncontract Permissioned is GSNOwnableRecipient {\n    /**\n     * The higher permission automatically contains all lower permissions.\n     *\n     * E.g, granting WRITE, automatically grants READ permission.\n     *\n     * Do NOT shuffle these values as business logic in Go codebase is based on their order.\n     *\n     * @see go-lightstreams/lethacl/permission.go\n     *\n     * NO_ACCESS uint value is 0\n     * READ      uint value is 1\n     * WRITE     uint value is 2\n     * ADMIN     uint value is 3\n    */\n    enum Level {NO_ACCESS, READ, WRITE, ADMIN}\n\n    struct Permission {\n        Level level;\n    }\n\n    mapping(address => Permission) permissions;\n    bool public isPublic = false;\n\n    event PermissionGranted(address account, Level level);\n\n    constructor(address _owner, bool _isPublic) GSNOwnableRecipient(_owner) public {\n        isPublic = _isPublic;\n\n        permissions[_owner] = Permission({\n            level: Level.ADMIN\n        });\n    }\n\n    modifier onlyAdmin {\n        require(permissions[_msgSender()].level >= Level.ADMIN, \"Only user with Admin permission lvl can call this function.\");\n        _;\n    }\n\n    function grantPublicAccess() onlyAdmin public {\n        isPublic = true;\n    }\n\n    function revokePublicAccess() onlyAdmin public {\n        isPublic = false;\n    }\n\n    function grantRead(address account) onlyAdmin public {\n        permissions[account] = Permission({\n            level: Level.READ\n        });\n\n        emit PermissionGranted(account, Level.READ);\n    }\n\n    function grantWrite(address account) onlyAdmin public {\n        permissions[account] = Permission({\n            level: Level.WRITE\n        });\n\n        emit PermissionGranted(account, Level.WRITE);\n    }\n\n    function grantAdmin(address account) onlyAdmin public {\n        permissions[account] = Permission({\n            level: Level.ADMIN\n        });\n\n        emit PermissionGranted(account, Level.ADMIN);\n    }\n\n    function revokeAccess(address account) onlyAdmin public {\n        permissions[account] = Permission({\n            level: Level.NO_ACCESS\n            });\n\n        emit PermissionGranted(account, Level.NO_ACCESS);\n    }\n\n    function hasRead(address account) public view returns (bool hasReadAccess) {\n        return isPublic || permissions[account].level >= Level.READ;\n    }\n\n    function hasAdmin(address account) public view returns (bool hasAdminAccess) {\n        return permissions[account].level >= Level.ADMIN;\n    }\n\n    function getOwner() public view returns (address) {\n        return owner;\n    }\n}\n\n/**\n * @title ACL enables access control and management for every Smart Vault file\n * @author Lukas Lukac, Lightstreams, 11.7.2018\n */\ncontract ACL is Initializable, Permissioned {\n    constructor(address _owner, bool _isPublic) public Permissioned(_owner, _isPublic) {\n    }\n\n    function initialize(address relayHub) public initializer {\n        GSNRecipient.initialize();\n        _upgradeRelayHub(relayHub);\n    }\n\n    function acceptRelayedCall(\n        address,\n        address,\n        bytes calldata,\n        uint256,\n        uint256,\n        uint256,\n        uint256,\n        bytes calldata,\n        uint256\n    ) external view returns (uint256, bytes memory) {\n        return _approveRelayedCall();\n    }\n\n    function getRecipientBalance() public view returns (uint) {\n        return IRelayHub(getHubAddr()).balanceOf(address(this));\n    }\n\n    function version() public pure returns (uint256) {\n        return 3;\n    }\n}\n",
  "sourcePath": "/Users/enchanterio/go/src/github.com/lightstreams-network/lightstreams-js-sdk/contracts/Acl.sol",
  "compiler": {
    "name": "solc",
    "version": "0.5.8+commit.23d335f2.Emscripten.clang"
  },
  "schemaVersion": "3.0.1",
  "updatedAt": "2019-09-17T13:41:08.803Z",
  "devdoc": {
    "author": "Lukas Lukac, Lightstreams, 11.7.2018",
    "methods": {
      "postRelayedCall(bytes,bool,uint256,bytes32)": {
        "details": "See `IRelayRecipient.postRelayedCall`.     * This function should not be overriden directly, use `_postRelayedCall` instead.     * * Requirements:     * - the caller must be the `RelayHub` contract."
      },
      "preRelayedCall(bytes)": {
        "details": "See `IRelayRecipient.preRelayedCall`.     * This function should not be overriden directly, use `_preRelayedCall` instead.     * * Requirements:     * - the caller must be the `RelayHub` contract."
      }
    },
    "title": "ACL enables access control and management for every Smart Vault file"
  },
  "userdoc": {
    "methods": {}
  }
}