{
  "contractName": "ACL",
  "abi": [
    {
      "constant": true,
      "inputs": [
        {
          "name": "account",
          "type": "address"
        }
      ],
      "name": "hasAdmin",
      "outputs": [
        {
          "name": "hasAdminAccess",
          "type": "bool"
        }
      ],
      "payable": false,
      "stateMutability": "view",
      "type": "function"
    },
    {
      "constant": false,
      "inputs": [
        {
          "name": "account",
          "type": "address"
        }
      ],
      "name": "grantAdmin",
      "outputs": [],
      "payable": false,
      "stateMutability": "nonpayable",
      "type": "function"
    },
    {
      "constant": false,
      "inputs": [],
      "name": "revokePublicAccess",
      "outputs": [],
      "payable": false,
      "stateMutability": "nonpayable",
      "type": "function"
    },
    {
      "constant": false,
      "inputs": [
        {
          "name": "account",
          "type": "address"
        }
      ],
      "name": "grantRead",
      "outputs": [],
      "payable": false,
      "stateMutability": "nonpayable",
      "type": "function"
    },
    {
      "constant": true,
      "inputs": [],
      "name": "getHubAddr",
      "outputs": [
        {
          "name": "",
          "type": "address"
        }
      ],
      "payable": false,
      "stateMutability": "view",
      "type": "function"
    },
    {
      "constant": false,
      "inputs": [
        {
          "name": "account",
          "type": "address"
        }
      ],
      "name": "grantWrite",
      "outputs": [],
      "payable": false,
      "stateMutability": "nonpayable",
      "type": "function"
    },
    {
      "constant": false,
      "inputs": [
        {
          "name": "context",
          "type": "bytes"
        }
      ],
      "name": "preRelayedCall",
      "outputs": [
        {
          "name": "",
          "type": "bytes32"
        }
      ],
      "payable": false,
      "stateMutability": "nonpayable",
      "type": "function"
    },
    {
      "constant": false,
      "inputs": [
        {
          "name": "account",
          "type": "address"
        }
      ],
      "name": "revokeAccess",
      "outputs": [],
      "payable": false,
      "stateMutability": "nonpayable",
      "type": "function"
    },
    {
      "constant": true,
      "inputs": [],
      "name": "getOwner",
      "outputs": [
        {
          "name": "",
          "type": "address"
        }
      ],
      "payable": false,
      "stateMutability": "view",
      "type": "function"
    },
    {
      "constant": true,
      "inputs": [],
      "name": "owner",
      "outputs": [
        {
          "name": "",
          "type": "address"
        }
      ],
      "payable": false,
      "stateMutability": "view",
      "type": "function"
    },
    {
      "constant": true,
      "inputs": [],
      "name": "isOwner",
      "outputs": [
        {
          "name": "",
          "type": "bool"
        }
      ],
      "payable": false,
      "stateMutability": "view",
      "type": "function"
    },
    {
      "constant": false,
      "inputs": [],
      "name": "grantPublicAccess",
      "outputs": [],
      "payable": false,
      "stateMutability": "nonpayable",
      "type": "function"
    },
    {
      "constant": true,
      "inputs": [],
      "name": "relayHubVersion",
      "outputs": [
        {
          "name": "",
          "type": "string"
        }
      ],
      "payable": false,
      "stateMutability": "view",
      "type": "function"
    },
    {
      "constant": true,
      "inputs": [
        {
          "name": "account",
          "type": "address"
        }
      ],
      "name": "hasRead",
      "outputs": [
        {
          "name": "hasReadAccess",
          "type": "bool"
        }
      ],
      "payable": false,
      "stateMutability": "view",
      "type": "function"
    },
    {
      "constant": true,
      "inputs": [],
      "name": "isPublic",
      "outputs": [
        {
          "name": "",
          "type": "bool"
        }
      ],
      "payable": false,
      "stateMutability": "view",
      "type": "function"
    },
    {
      "constant": false,
      "inputs": [
        {
          "name": "context",
          "type": "bytes"
        },
        {
          "name": "success",
          "type": "bool"
        },
        {
          "name": "actualCharge",
          "type": "uint256"
        },
        {
          "name": "preRetVal",
          "type": "bytes32"
        }
      ],
      "name": "postRelayedCall",
      "outputs": [],
      "payable": false,
      "stateMutability": "nonpayable",
      "type": "function"
    },
    {
      "constant": false,
      "inputs": [
        {
          "name": "_newOwner",
          "type": "address"
        }
      ],
      "name": "transferOwnership",
      "outputs": [],
      "payable": false,
      "stateMutability": "nonpayable",
      "type": "function"
    },
    {
      "inputs": [
        {
          "name": "_owner",
          "type": "address"
        },
        {
          "name": "_isPublic",
          "type": "bool"
        }
      ],
      "payable": false,
      "stateMutability": "nonpayable",
      "type": "constructor"
    },
    {
      "anonymous": false,
      "inputs": [
        {
          "indexed": true,
          "name": "oldRelayHub",
          "type": "address"
        },
        {
          "indexed": true,
          "name": "newRelayHub",
          "type": "address"
        }
      ],
      "name": "RelayHubChanged",
      "type": "event"
    },
    {
      "anonymous": false,
      "inputs": [
        {
          "indexed": false,
          "name": "account",
          "type": "address"
        },
        {
          "indexed": false,
          "name": "level",
          "type": "uint8"
        }
      ],
      "name": "PermissionGranted",
      "type": "event"
    },
    {
      "constant": false,
      "inputs": [],
      "name": "initialize",
      "outputs": [],
      "payable": false,
      "stateMutability": "nonpayable",
      "type": "function"
    },
    {
      "constant": false,
      "inputs": [
        {
          "name": "relayHub",
          "type": "address"
        }
      ],
      "name": "initialize",
      "outputs": [],
      "payable": false,
      "stateMutability": "nonpayable",
      "type": "function"
    },
    {
      "constant": true,
      "inputs": [
        {
          "name": "",
          "type": "address"
        },
        {
          "name": "",
          "type": "address"
        },
        {
          "name": "",
          "type": "bytes"
        },
        {
          "name": "",
          "type": "uint256"
        },
        {
          "name": "",
          "type": "uint256"
        },
        {
          "name": "",
          "type": "uint256"
        },
        {
          "name": "",
          "type": "uint256"
        },
        {
          "name": "",
          "type": "bytes"
        },
        {
          "name": "",
          "type": "uint256"
        }
      ],
      "name": "acceptRelayedCall",
      "outputs": [
        {
          "name": "",
          "type": "uint256"
        },
        {
          "name": "",
          "type": "bytes"
        }
      ],
      "payable": false,
      "stateMutability": "view",
      "type": "function"
    },
    {
      "constant": true,
      "inputs": [],
      "name": "getRecipientBalance",
      "outputs": [
        {
          "name": "",
          "type": "uint256"
        }
      ],
      "payable": false,
      "stateMutability": "view",
      "type": "function"
    },
    {
      "constant": true,
      "inputs": [],
      "name": "version",
      "outputs": [
        {
          "name": "",
          "type": "uint256"
        }
      ],
      "payable": false,
      "stateMutability": "pure",
      "type": "function"
    }
  ],
  "bytecode": "0x60806040526000600260006101000a81548160ff02191690831515021790555034801561002b57600080fd5b50604051604080611e768339810180604052604081101561004b57600080fd5b810190808051906020019092919080519060200190929190505050818181806000806101000a81548173ffffffffffffffffffffffffffffffffffffffff021916908373ffffffffffffffffffffffffffffffffffffffff1602179055505080600260006101000a81548160ff02191690831515021790555060405180602001604052806003808111156100db57fe5b815250600160008473ffffffffffffffffffffffffffffffffffffffff1673ffffffffffffffffffffffffffffffffffffffff16815260200190815260200160002060008201518160000160006101000a81548160ff0219169083600381111561014157fe5b021790555090505050505050611d1a8061015c6000396000f3fe608060405234801561001057600080fd5b506004361061015f576000357c010000000000000000000000000000000000000000000000000000000090048063893d20e8116100d5578063ad61ccd511610099578063ad61ccd514610678578063c30fc492146106fb578063c4d66de814610757578063dc9a15351461079b578063e06e0e22146107bd578063f2fde38b146108565761015f565b8063893d20e81461059a5780638da5cb5b146105e45780638f32d59b1461062e578063a5bfa74614610650578063ac5704111461065a5761015f565b806374e861d61161012757806374e861d6146102705780637e048c21146102ba57806380274db7146102fe5780638129fc1c1461038b57806383947ea01461039557806385e68531146105565761015f565b806335950fed1461016457806335bb3e16146101c05780633d0e4a1a1461020457806354fd4d501461020e57806370b8cdd51461022c575b600080fd5b6101a66004803603602081101561017a57600080fd5b81019080803573ffffffffffffffffffffffffffffffffffffffff16906020019092919050505061089a565b604051808215151515815260200191505060405180910390f35b610202600480360360208110156101d657600080fd5b81019080803573ffffffffffffffffffffffffffffffffffffffff16906020019092919050505061090c565b005b61020c610acc565b005b610216610ba7565b6040518082815260200191505060405180910390f35b61026e6004803603602081101561024257600080fd5b81019080803573ffffffffffffffffffffffffffffffffffffffff169060200190929190505050610bb0565b005b610278610d71565b604051808273ffffffffffffffffffffffffffffffffffffffff1673ffffffffffffffffffffffffffffffffffffffff16815260200191505060405180910390f35b6102fc600480360360208110156102d057600080fd5b81019080803573ffffffffffffffffffffffffffffffffffffffff169060200190929190505050610d80565b005b6103756004803603602081101561031457600080fd5b810190808035906020019064010000000081111561033157600080fd5b82018360208201111561034357600080fd5b8035906020019184600183028401116401000000008311171561036557600080fd5b9091929391929390505050610f41565b6040518082815260200191505060405180910390f35b610393611023565b005b6104d460048036036101208110156103ac57600080fd5b81019080803573ffffffffffffffffffffffffffffffffffffffff169060200190929190803573ffffffffffffffffffffffffffffffffffffffff1690602001909291908035906020019064010000000081111561040957600080fd5b82018360208201111561041b57600080fd5b8035906020019184600183028401116401000000008311171561043d57600080fd5b9091929391929390803590602001909291908035906020019092919080359060200190929190803590602001909291908035906020019064010000000081111561048657600080fd5b82018360208201111561049857600080fd5b803590602001918460018302840111640100000000831117156104ba57600080fd5b90919293919293908035906020019092919050505061112a565b6040518083815260200180602001828103825283818151815260200191508051906020019080838360005b8381101561051a5780820151818401526020810190506104ff565b50505050905090810190601f1680156105475780820380516001836020036101000a031916815260200191505b50935050505060405180910390f35b6105986004803603602081101561056c57600080fd5b81019080803573ffffffffffffffffffffffffffffffffffffffff16906020019092919050505061114a565b005b6105a261130b565b604051808273ffffffffffffffffffffffffffffffffffffffff1673ffffffffffffffffffffffffffffffffffffffff16815260200191505060405180910390f35b6105ec611334565b604051808273ffffffffffffffffffffffffffffffffffffffff1673ffffffffffffffffffffffffffffffffffffffff16815260200191505060405180910390f35b610636611359565b604051808215151515815260200191505060405180910390f35b6106586113b0565b005b61066261148b565b6040518082815260200191505060405180910390f35b61068061156d565b6040518080602001828103825283818151815260200191508051906020019080838360005b838110156106c05780820151818401526020810190506106a5565b50505050905090810190601f1680156106ed5780820380516001836020036101000a031916815260200191505b509250505060405180910390f35b61073d6004803603602081101561071157600080fd5b81019080803573ffffffffffffffffffffffffffffffffffffffff1690602001909291905050506115aa565b604051808215151515815260200191505060405180910390f35b6107996004803603602081101561076d57600080fd5b81019080803573ffffffffffffffffffffffffffffffffffffffff169060200190929190505050611634565b005b6107a3611745565b604051808215151515815260200191505060405180910390f35b610854600480360360808110156107d357600080fd5b81019080803590602001906401000000008111156107f057600080fd5b82018360208201111561080257600080fd5b8035906020019184600183028401116401000000008311171561082457600080fd5b90919293919293908035151590602001909291908035906020019092919080359060200190929190505050611758565b005b6108986004803603602081101561086c57600080fd5b81019080803573ffffffffffffffffffffffffffffffffffffffff16906020019092919050505061183a565b005b60006003808111156108a857fe5b600160008473ffffffffffffffffffffffffffffffffffffffff1673ffffffffffffffffffffffffffffffffffffffff16815260200190815260200160002060000160009054906101000a900460ff16600381111561090357fe5b10159050919050565b60038081111561091857fe5b600160003373ffffffffffffffffffffffffffffffffffffffff1673ffffffffffffffffffffffffffffffffffffffff16815260200190815260200160002060000160009054906101000a900460ff16600381111561097357fe5b10156109ca576040517f08c379a000000000000000000000000000000000000000000000000000000000815260040180806020018281038252603b815260200180611c2f603b913960400191505060405180910390fd5b60405180602001604052806003808111156109e157fe5b815250600160008373ffffffffffffffffffffffffffffffffffffffff1673ffffffffffffffffffffffffffffffffffffffff16815260200190815260200160002060008201518160000160006101000a81548160ff02191690836003811115610a4757fe5b02179055509050507f4bb8f5497a4d4a4036670dab8c94b028b3fedc11ce7fbf55f3f57b3a4d355dc7816003604051808373ffffffffffffffffffffffffffffffffffffffff1673ffffffffffffffffffffffffffffffffffffffff168152602001826003811115610ab557fe5b60ff1681526020019250505060405180910390a150565b600380811115610ad857fe5b600160003373ffffffffffffffffffffffffffffffffffffffff1673ffffffffffffffffffffffffffffffffffffffff16815260200190815260200160002060000160009054906101000a900460ff166003811115610b3357fe5b1015610b8a576040517f08c379a000000000000000000000000000000000000000000000000000000000815260040180806020018281038252603b815260200180611c2f603b913960400191505060405180910390fd5b6000600260006101000a81548160ff021916908315150217905550565b60006003905090565b600380811115610bbc57fe5b600160003373ffffffffffffffffffffffffffffffffffffffff1673ffffffffffffffffffffffffffffffffffffffff16815260200190815260200160002060000160009054906101000a900460ff166003811115610c1757fe5b1015610c6e576040517f08c379a000000000000000000000000000000000000000000000000000000000815260040180806020018281038252603b815260200180611c2f603b913960400191505060405180910390fd5b604051806020016040528060016003811115610c8657fe5b815250600160008373ffffffffffffffffffffffffffffffffffffffff1673ffffffffffffffffffffffffffffffffffffffff16815260200190815260200160002060008201518160000160006101000a81548160ff02191690836003811115610cec57fe5b02179055509050507f4bb8f5497a4d4a4036670dab8c94b028b3fedc11ce7fbf55f3f57b3a4d355dc7816001604051808373ffffffffffffffffffffffffffffffffffffffff1673ffffffffffffffffffffffffffffffffffffffff168152602001826003811115610d5a57fe5b60ff1681526020019250505060405180910390a150565b6000610d7b6118c8565b905090565b600380811115610d8c57fe5b600160003373ffffffffffffffffffffffffffffffffffffffff1673ffffffffffffffffffffffffffffffffffffffff16815260200190815260200160002060000160009054906101000a900460ff166003811115610de757fe5b1015610e3e576040517f08c379a000000000000000000000000000000000000000000000000000000000815260040180806020018281038252603b815260200180611c2f603b913960400191505060405180910390fd5b604051806020016040528060026003811115610e5657fe5b815250600160008373ffffffffffffffffffffffffffffffffffffffff1673ffffffffffffffffffffffffffffffffffffffff16815260200190815260200160002060008201518160000160006101000a81548160ff02191690836003811115610ebc57fe5b02179055509050507f4bb8f5497a4d4a4036670dab8c94b028b3fedc11ce7fbf55f3f57b3a4d355dc7816002604051808373ffffffffffffffffffffffffffffffffffffffff1673ffffffffffffffffffffffffffffffffffffffff168152602001826003811115610f2a57fe5b60ff1681526020019250505060405180910390a150565b6000610f4b610d71565b73ffffffffffffffffffffffffffffffffffffffff163373ffffffffffffffffffffffffffffffffffffffff1614610fce576040517f08c379a0000000000000000000000000000000000000000000000000000000008152600401808060200182810382526026815260200180611c096026913960400191505060405180910390fd5b61101b83838080601f016020809104026020016040519081016040528093929190818152602001838380828437600081840152601f19601f820116905080830192505050505050506118f9565b905092915050565b6002809054906101000a900460ff16806110415750611040611900565b5b806110595750600260019054906101000a900460ff16155b6110ae576040517f08c379a000000000000000000000000000000000000000000000000000000000815260040180806020018281038252602e815260200180611c95602e913960400191505060405180910390fd5b60006002809054906101000a900460ff1615905080156110fe5760016002806101000a81548160ff0219169083151502179055506001600260016101000a81548160ff0219169083151502179055505b611106611911565b80156111275760006002806101000a81548160ff0219169083151502179055505b50565b60006060611136611a2d565b915091509b509b9950505050505050505050565b60038081111561115657fe5b600160003373ffffffffffffffffffffffffffffffffffffffff1673ffffffffffffffffffffffffffffffffffffffff16815260200190815260200160002060000160009054906101000a900460ff1660038111156111b157fe5b1015611208576040517f08c379a000000000000000000000000000000000000000000000000000000000815260040180806020018281038252603b815260200180611c2f603b913960400191505060405180910390fd5b60405180602001604052806000600381111561122057fe5b815250600160008373ffffffffffffffffffffffffffffffffffffffff1673ffffffffffffffffffffffffffffffffffffffff16815260200190815260200160002060008201518160000160006101000a81548160ff0219169083600381111561128657fe5b02179055509050507f4bb8f5497a4d4a4036670dab8c94b028b3fedc11ce7fbf55f3f57b3a4d355dc7816000604051808373ffffffffffffffffffffffffffffffffffffffff1673ffffffffffffffffffffffffffffffffffffffff1681526020018260038111156112f457fe5b60ff1681526020019250505060405180910390a150565b60008060009054906101000a900473ffffffffffffffffffffffffffffffffffffffff16905090565b6000809054906101000a900473ffffffffffffffffffffffffffffffffffffffff1681565b60008060009054906101000a900473ffffffffffffffffffffffffffffffffffffffff1673ffffffffffffffffffffffffffffffffffffffff163373ffffffffffffffffffffffffffffffffffffffff1614905090565b6003808111156113bc57fe5b600160003373ffffffffffffffffffffffffffffffffffffffff1673ffffffffffffffffffffffffffffffffffffffff16815260200190815260200160002060000160009054906101000a900460ff16600381111561141757fe5b101561146e576040517f08c379a000000000000000000000000000000000000000000000000000000000815260040180806020018281038252603b815260200180611c2f603b913960400191505060405180910390fd5b6001600260006101000a81548160ff021916908315150217905550565b6000611495610d71565b73ffffffffffffffffffffffffffffffffffffffff166370a08231306040518263ffffffff167c0100000000000000000000000000000000000000000000000000000000028152600401808273ffffffffffffffffffffffffffffffffffffffff1673ffffffffffffffffffffffffffffffffffffffff16815260200191505060206040518083038186803b15801561152d57600080fd5b505afa158015611541573d6000803e3d6000fd5b505050506040513d602081101561155757600080fd5b8101908080519060200190929190505050905090565b60606040518060400160405280600581526020017f312e302e30000000000000000000000000000000000000000000000000000000815250905090565b6000600260009054906101000a900460ff168061162d5750600160038111156115cf57fe5b600160008473ffffffffffffffffffffffffffffffffffffffff1673ffffffffffffffffffffffffffffffffffffffff16815260200190815260200160002060000160009054906101000a900460ff16600381111561162a57fe5b10155b9050919050565b6002809054906101000a900460ff16806116525750611651611900565b5b8061166a5750600260019054906101000a900460ff16155b6116bf576040517f08c379a000000000000000000000000000000000000000000000000000000000815260040180806020018281038252602e815260200180611c95602e913960400191505060405180910390fd5b60006002809054906101000a900460ff16159050801561170f5760016002806101000a81548160ff0219169083151502179055506001600260016101000a81548160ff0219169083151502179055505b611717611023565b61172082611a51565b80156117415760006002806101000a81548160ff0219169083151502179055505b5050565b600260009054906101000a900460ff1681565b611760610d71565b73ffffffffffffffffffffffffffffffffffffffff163373ffffffffffffffffffffffffffffffffffffffff16146117e3576040517f08c379a0000000000000000000000000000000000000000000000000000000008152600401808060200182810382526026815260200180611c096026913960400191505060405180910390fd5b61183385858080601f016020809104026020016040519081016040528093929190818152602001838380828437600081840152601f19601f82011690508083019250505050505050848484611bf2565b5050505050565b611842611359565b61184b57600080fd5b600073ffffffffffffffffffffffffffffffffffffffff168173ffffffffffffffffffffffffffffffffffffffff16141561188557600080fd5b806000806101000a81548173ffffffffffffffffffffffffffffffffffffffff021916908373ffffffffffffffffffffffffffffffffffffffff16021790555050565b6000807f06b7792c761dcc05af1761f0315ce8b01ac39c16cc934eb0b2f7a8e71414f2626001029050805491505090565b6000919050565b600080303b90506000811491505090565b6002809054906101000a900460ff168061192f575061192e611900565b5b806119475750600260019054906101000a900460ff16155b61199c576040517f08c379a000000000000000000000000000000000000000000000000000000000815260040180806020018281038252602e815260200180611c95602e913960400191505060405180910390fd5b60006002809054906101000a900460ff1615905080156119ec5760016002806101000a81548160ff0219169083151502179055506001600260016101000a81548160ff0219169083151502179055505b611a0973511bed1c29bc163c96b7d4dde28c7e0590aa44f5611a51565b8015611a2a5760006002806101000a81548160ff0219169083151502179055505b50565b60006060611a4960405180602001604052806000815250611bf8565b915091509091565b6000611a5b6118c8565b9050600073ffffffffffffffffffffffffffffffffffffffff168273ffffffffffffffffffffffffffffffffffffffff161415611ae3576040517f08c379a000000000000000000000000000000000000000000000000000000000815260040180806020018281038252602c815260200180611cc3602c913960400191505060405180910390fd5b8073ffffffffffffffffffffffffffffffffffffffff168273ffffffffffffffffffffffffffffffffffffffff161415611b68576040517f08c379a000000000000000000000000000000000000000000000000000000000815260040180806020018281038252602b815260200180611c6a602b913960400191505060405180910390fd5b8173ffffffffffffffffffffffffffffffffffffffff168173ffffffffffffffffffffffffffffffffffffffff167fb9f84b8e65164b14439ae3620df0a4d8786d896996c0282b683f9d8c08f046e860405160405180910390a360007f06b7792c761dcc05af1761f0315ce8b01ac39c16cc934eb0b2f7a8e71414f2626001029050828155505050565b50505050565b600060606000839150915091509156fe47534e426f756e636572426173653a2063616c6c6572206973206e6f742052656c61794875624f6e6c79207573657220776974682041646d696e207065726d697373696f6e206c766c2063616e2063616c6c20746869732066756e6374696f6e2e47534e436f6e746578743a206e65772052656c6179487562206973207468652063757272656e74206f6e65436f6e747261637420696e7374616e63652068617320616c7265616479206265656e20696e697469616c697a656447534e436f6e746578743a206e65772052656c617948756220697320746865207a65726f2061646472657373a165627a7a723058205f20ee288d5fe85a1ffc2a00cfeaa0cd1871518207a089dbf56404af3015c10b0029",
  "source": "pragma solidity ^0.5.0;\n\nimport \"./utils/Ownable.sol\";\nimport \"./utils/Initializable.sol\";\nimport \"./utils/GSNRecipient.sol\";\n\n/**\n * @title Permissioned manages access rights\n * @author Lukas Lukac, Lightstreams, 11.7.2018\n */\ncontract Permissioned is Ownable {\n    /**\n     * The higher permission automatically contains all lower permissions.\n     *\n     * E.g, granting WRITE, automatically grants READ permission.\n     *\n     * Do NOT shuffle these values as business logic in Go codebase is based on their order.\n     *\n     * @see go-lightstreams/lethacl/permission.go\n     *\n     * NO_ACCESS uint value is 0\n     * READ      uint value is 1\n     * WRITE     uint value is 2\n     * ADMIN     uint value is 3\n    */\n    enum Level {NO_ACCESS, READ, WRITE, ADMIN}\n\n    struct Permission {\n        Level level;\n    }\n\n    mapping(address => Permission) permissions;\n    bool public isPublic = false;\n\n    event PermissionGranted(address account, Level level);\n\n    constructor(address _owner, bool _isPublic) Ownable(_owner) public {\n        isPublic = _isPublic;\n\n        permissions[_owner] = Permission({\n            level: Level.ADMIN\n        });\n    }\n\n    modifier onlyAdmin {\n        require(permissions[msg.sender].level >= Level.ADMIN, \"Only user with Admin permission lvl can call this function.\");\n        _;\n    }\n\n    function grantPublicAccess() onlyAdmin public {\n        isPublic = true;\n    }\n\n    function revokePublicAccess() onlyAdmin public {\n        isPublic = false;\n    }\n\n    function grantRead(address account) onlyAdmin public {\n        permissions[account] = Permission({\n            level: Level.READ\n        });\n\n        emit PermissionGranted(account, Level.READ);\n    }\n\n    function grantWrite(address account) onlyAdmin public {\n        permissions[account] = Permission({\n            level: Level.WRITE\n        });\n\n        emit PermissionGranted(account, Level.WRITE);\n    }\n\n    function grantAdmin(address account) onlyAdmin public {\n        permissions[account] = Permission({\n            level: Level.ADMIN\n        });\n\n        emit PermissionGranted(account, Level.ADMIN);\n    }\n\n    function revokeAccess(address account) onlyAdmin public {\n        permissions[account] = Permission({\n            level: Level.NO_ACCESS\n            });\n\n        emit PermissionGranted(account, Level.NO_ACCESS);\n    }\n\n    function hasRead(address account) public view returns (bool hasReadAccess) {\n        return isPublic || permissions[account].level >= Level.READ;\n    }\n\n    function hasAdmin(address account) public view returns (bool hasAdminAccess) {\n        return permissions[account].level >= Level.ADMIN;\n    }\n\n    function getOwner() public view returns (address) {\n        return owner;\n    }\n}\n\n/**\n * @title ACL enables access control and management for every Smart Vault file\n * @author Lukas Lukac, Lightstreams, 11.7.2018\n */\ncontract ACL is Permissioned, Initializable, GSNRecipient {\n    constructor(address _owner, bool _isPublic) public Permissioned(_owner, _isPublic) {\n    }\n\n    function initialize(address relayHub) public initializer {\n        GSNRecipient.initialize();\n        _upgradeRelayHub(relayHub);\n    }\n\n    function acceptRelayedCall(\n        address,\n        address,\n        bytes calldata,\n        uint256,\n        uint256,\n        uint256,\n        uint256,\n        bytes calldata,\n        uint256\n    ) external view returns (uint256, bytes memory) {\n        return _approveRelayedCall();\n    }\n\n    function getRecipientBalance() public view returns (uint) {\n        return IRelayHub(getHubAddr()).balanceOf(address(this));\n    }\n\n    function version() public pure returns (uint256) {\n        return 3;\n    }\n}\n",
  "sourcePath": "/Users/enchanterio/go/src/github.com/lightstreams-network/lightstreams-js-sdk/contracts/Acl.sol",
  "compiler": {
    "name": "solc",
    "version": "0.5.8+commit.23d335f2.Emscripten.clang"
  },
  "schemaVersion": "3.0.1",
  "updatedAt": "2019-09-12T14:45:56.360Z",
  "devdoc": {
    "author": "Lukas Lukac, Lightstreams, 11.7.2018",
    "methods": {
      "postRelayedCall(bytes,bool,uint256,bytes32)": {
        "details": "See `IRelayRecipient.postRelayedCall`.     * This function should not be overriden directly, use `_postRelayedCall` instead.     * * Requirements:     * - the caller must be the `RelayHub` contract."
      },
      "preRelayedCall(bytes)": {
        "details": "See `IRelayRecipient.preRelayedCall`.     * This function should not be overriden directly, use `_preRelayedCall` instead.     * * Requirements:     * - the caller must be the `RelayHub` contract."
      }
    },
    "title": "ACL enables access control and management for every Smart Vault file"
  },
  "userdoc": {
    "methods": {}
  }
}