{
  "contractName": "ArtistToken",
  "abi": [
    {
      "constant": true,
      "inputs": [],
      "name": "name",
      "outputs": [
        {
          "name": "",
          "type": "string"
        }
      ],
      "payable": false,
      "stateMutability": "view",
      "type": "function"
    },
    {
      "constant": false,
      "inputs": [
        {
          "name": "spender",
          "type": "address"
        },
        {
          "name": "value",
          "type": "uint256"
        }
      ],
      "name": "approve",
      "outputs": [
        {
          "name": "",
          "type": "bool"
        }
      ],
      "payable": false,
      "stateMutability": "nonpayable",
      "type": "function"
    },
    {
      "constant": true,
      "inputs": [],
      "name": "reserveRatio",
      "outputs": [
        {
          "name": "",
          "type": "uint32"
        }
      ],
      "payable": false,
      "stateMutability": "view",
      "type": "function"
    },
    {
      "constant": true,
      "inputs": [],
      "name": "totalSupply",
      "outputs": [
        {
          "name": "",
          "type": "uint256"
        }
      ],
      "payable": false,
      "stateMutability": "view",
      "type": "function"
    },
    {
      "constant": false,
      "inputs": [
        {
          "name": "from",
          "type": "address"
        },
        {
          "name": "to",
          "type": "address"
        },
        {
          "name": "value",
          "type": "uint256"
        }
      ],
      "name": "transferFrom",
      "outputs": [
        {
          "name": "",
          "type": "bool"
        }
      ],
      "payable": false,
      "stateMutability": "nonpayable",
      "type": "function"
    },
    {
      "constant": true,
      "inputs": [],
      "name": "p0",
      "outputs": [
        {
          "name": "",
          "type": "uint256"
        }
      ],
      "payable": false,
      "stateMutability": "view",
      "type": "function"
    },
    {
      "constant": true,
      "inputs": [
        {
          "name": "_supply",
          "type": "uint256"
        },
        {
          "name": "_connectorBalance",
          "type": "uint256"
        },
        {
          "name": "_connectorWeight",
          "type": "uint32"
        },
        {
          "name": "_depositAmount",
          "type": "uint256"
        }
      ],
      "name": "calculatePurchaseReturn",
      "outputs": [
        {
          "name": "",
          "type": "uint256"
        }
      ],
      "payable": false,
      "stateMutability": "view",
      "type": "function"
    },
    {
      "constant": true,
      "inputs": [],
      "name": "theta",
      "outputs": [
        {
          "name": "",
          "type": "uint256"
        }
      ],
      "payable": false,
      "stateMutability": "view",
      "type": "function"
    },
    {
      "constant": false,
      "inputs": [
        {
          "name": "spender",
          "type": "address"
        },
        {
          "name": "addedValue",
          "type": "uint256"
        }
      ],
      "name": "increaseAllowance",
      "outputs": [
        {
          "name": "",
          "type": "bool"
        }
      ],
      "payable": false,
      "stateMutability": "nonpayable",
      "type": "function"
    },
    {
      "constant": false,
      "inputs": [],
      "name": "unpause",
      "outputs": [],
      "payable": false,
      "stateMutability": "nonpayable",
      "type": "function"
    },
    {
      "constant": true,
      "inputs": [],
      "name": "hatchVestingDurationSeconds",
      "outputs": [
        {
          "name": "",
          "type": "uint256"
        }
      ],
      "payable": false,
      "stateMutability": "view",
      "type": "function"
    },
    {
      "constant": false,
      "inputs": [
        {
          "name": "_amount",
          "type": "uint256"
        }
      ],
      "name": "burn",
      "outputs": [
        {
          "name": "",
          "type": "uint256"
        }
      ],
      "payable": false,
      "stateMutability": "nonpayable",
      "type": "function"
    },
    {
      "constant": true,
      "inputs": [],
      "name": "feeRecipient",
      "outputs": [
        {
          "name": "",
          "type": "address"
        }
      ],
      "payable": false,
      "stateMutability": "view",
      "type": "function"
    },
    {
      "constant": true,
      "inputs": [
        {
          "name": "account",
          "type": "address"
        }
      ],
      "name": "isPauser",
      "outputs": [
        {
          "name": "",
          "type": "bool"
        }
      ],
      "payable": false,
      "stateMutability": "view",
      "type": "function"
    },
    {
      "constant": false,
      "inputs": [],
      "name": "claimTokens",
      "outputs": [],
      "payable": false,
      "stateMutability": "nonpayable",
      "type": "function"
    },
    {
      "constant": true,
      "inputs": [
        {
          "name": "_supply",
          "type": "uint256"
        },
        {
          "name": "_connectorBalance",
          "type": "uint256"
        },
        {
          "name": "_connectorWeight",
          "type": "uint32"
        },
        {
          "name": "_sellAmount",
          "type": "uint256"
        }
      ],
      "name": "calculateSaleReturn",
      "outputs": [
        {
          "name": "",
          "type": "uint256"
        }
      ],
      "payable": false,
      "stateMutability": "view",
      "type": "function"
    },
    {
      "constant": true,
      "inputs": [],
      "name": "raisedExternal",
      "outputs": [
        {
          "name": "",
          "type": "uint256"
        }
      ],
      "payable": false,
      "stateMutability": "view",
      "type": "function"
    },
    {
      "constant": true,
      "inputs": [],
      "name": "version",
      "outputs": [
        {
          "name": "",
          "type": "string"
        }
      ],
      "payable": false,
      "stateMutability": "view",
      "type": "function"
    },
    {
      "constant": false,
      "inputs": [],
      "name": "refund",
      "outputs": [],
      "payable": false,
      "stateMutability": "nonpayable",
      "type": "function"
    },
    {
      "constant": true,
      "inputs": [],
      "name": "paused",
      "outputs": [
        {
          "name": "",
          "type": "bool"
        }
      ],
      "payable": false,
      "stateMutability": "view",
      "type": "function"
    },
    {
      "constant": true,
      "inputs": [
        {
          "name": "amount",
          "type": "uint256"
        }
      ],
      "name": "calculateCurvedBurnReturn",
      "outputs": [
        {
          "name": "",
          "type": "uint256"
        }
      ],
      "payable": false,
      "stateMutability": "view",
      "type": "function"
    },
    {
      "constant": false,
      "inputs": [],
      "name": "renouncePauser",
      "outputs": [],
      "payable": false,
      "stateMutability": "nonpayable",
      "type": "function"
    },
    {
      "constant": true,
      "inputs": [
        {
          "name": "owner",
          "type": "address"
        }
      ],
      "name": "balanceOf",
      "outputs": [
        {
          "name": "",
          "type": "uint256"
        }
      ],
      "payable": false,
      "stateMutability": "view",
      "type": "function"
    },
    {
      "constant": true,
      "inputs": [],
      "name": "minExternalContribution",
      "outputs": [
        {
          "name": "",
          "type": "uint256"
        }
      ],
      "payable": false,
      "stateMutability": "view",
      "type": "function"
    },
    {
      "constant": false,
      "inputs": [
        {
          "name": "account",
          "type": "address"
        }
      ],
      "name": "addPauser",
      "outputs": [],
      "payable": false,
      "stateMutability": "nonpayable",
      "type": "function"
    },
    {
      "constant": false,
      "inputs": [],
      "name": "pause",
      "outputs": [],
      "payable": false,
      "stateMutability": "nonpayable",
      "type": "function"
    },
    {
      "constant": true,
      "inputs": [],
      "name": "getOwner",
      "outputs": [
        {
          "name": "",
          "type": "address"
        }
      ],
      "payable": false,
      "stateMutability": "view",
      "type": "function"
    },
    {
      "constant": true,
      "inputs": [],
      "name": "hatchVestingDeadline",
      "outputs": [
        {
          "name": "",
          "type": "uint256"
        }
      ],
      "payable": false,
      "stateMutability": "view",
      "type": "function"
    },
    {
      "constant": true,
      "inputs": [],
      "name": "owner",
      "outputs": [
        {
          "name": "",
          "type": "address"
        }
      ],
      "payable": false,
      "stateMutability": "view",
      "type": "function"
    },
    {
      "constant": true,
      "inputs": [],
      "name": "isOwner",
      "outputs": [
        {
          "name": "",
          "type": "bool"
        }
      ],
      "payable": false,
      "stateMutability": "view",
      "type": "function"
    },
    {
      "constant": true,
      "inputs": [],
      "name": "symbol",
      "outputs": [
        {
          "name": "",
          "type": "string"
        }
      ],
      "payable": false,
      "stateMutability": "view",
      "type": "function"
    },
    {
      "constant": true,
      "inputs": [],
      "name": "poolBalance",
      "outputs": [
        {
          "name": "",
          "type": "uint256"
        }
      ],
      "payable": false,
      "stateMutability": "view",
      "type": "function"
    },
    {
      "constant": true,
      "inputs": [
        {
          "name": "amount",
          "type": "uint256"
        }
      ],
      "name": "calculateCurvedMintReturn",
      "outputs": [
        {
          "name": "",
          "type": "uint256"
        }
      ],
      "payable": false,
      "stateMutability": "view",
      "type": "function"
    },
    {
      "constant": true,
      "inputs": [],
      "name": "friction",
      "outputs": [
        {
          "name": "",
          "type": "uint256"
        }
      ],
      "payable": false,
      "stateMutability": "view",
      "type": "function"
    },
    {
      "constant": false,
      "inputs": [
        {
          "name": "_amount",
          "type": "uint256"
        }
      ],
      "name": "mint",
      "outputs": [],
      "payable": false,
      "stateMutability": "nonpayable",
      "type": "function"
    },
    {
      "constant": true,
      "inputs": [],
      "name": "hatchDeadline",
      "outputs": [
        {
          "name": "",
          "type": "uint256"
        }
      ],
      "payable": false,
      "stateMutability": "view",
      "type": "function"
    },
    {
      "constant": false,
      "inputs": [
        {
          "name": "spender",
          "type": "address"
        },
        {
          "name": "subtractedValue",
          "type": "uint256"
        }
      ],
      "name": "decreaseAllowance",
      "outputs": [
        {
          "name": "",
          "type": "bool"
        }
      ],
      "payable": false,
      "stateMutability": "nonpayable",
      "type": "function"
    },
    {
      "constant": true,
      "inputs": [
        {
          "name": "",
          "type": "address"
        }
      ],
      "name": "initialContributions",
      "outputs": [
        {
          "name": "paidExternal",
          "type": "uint256"
        },
        {
          "name": "lockedInternal",
          "type": "uint256"
        }
      ],
      "payable": false,
      "stateMutability": "view",
      "type": "function"
    },
    {
      "constant": false,
      "inputs": [
        {
          "name": "to",
          "type": "address"
        },
        {
          "name": "value",
          "type": "uint256"
        }
      ],
      "name": "transfer",
      "outputs": [
        {
          "name": "",
          "type": "bool"
        }
      ],
      "payable": false,
      "stateMutability": "nonpayable",
      "type": "function"
    },
    {
      "constant": false,
      "inputs": [
        {
          "name": "_value",
          "type": "uint256"
        }
      ],
      "name": "hatchContribute",
      "outputs": [],
      "payable": false,
      "stateMutability": "nonpayable",
      "type": "function"
    },
    {
      "constant": true,
      "inputs": [],
      "name": "externalToken",
      "outputs": [
        {
          "name": "",
          "type": "address"
        }
      ],
      "payable": false,
      "stateMutability": "view",
      "type": "function"
    },
    {
      "constant": true,
      "inputs": [
        {
          "name": "owner",
          "type": "address"
        },
        {
          "name": "spender",
          "type": "address"
        }
      ],
      "name": "allowance",
      "outputs": [
        {
          "name": "",
          "type": "uint256"
        }
      ],
      "payable": false,
      "stateMutability": "view",
      "type": "function"
    },
    {
      "constant": true,
      "inputs": [],
      "name": "isHatched",
      "outputs": [
        {
          "name": "",
          "type": "bool"
        }
      ],
      "payable": false,
      "stateMutability": "view",
      "type": "function"
    },
    {
      "constant": true,
      "inputs": [],
      "name": "initialRaise",
      "outputs": [
        {
          "name": "",
          "type": "uint256"
        }
      ],
      "payable": false,
      "stateMutability": "view",
      "type": "function"
    },
    {
      "constant": false,
      "inputs": [
        {
          "name": "_externalAllocated",
          "type": "uint256"
        }
      ],
      "name": "fundsAllocated",
      "outputs": [],
      "payable": false,
      "stateMutability": "nonpayable",
      "type": "function"
    },
    {
      "constant": false,
      "inputs": [
        {
          "name": "_newOwner",
          "type": "address"
        }
      ],
      "name": "transferOwnership",
      "outputs": [],
      "payable": false,
      "stateMutability": "nonpayable",
      "type": "function"
    },
    {
      "constant": true,
      "inputs": [],
      "name": "fundingPool",
      "outputs": [
        {
          "name": "",
          "type": "address"
        }
      ],
      "payable": false,
      "stateMutability": "view",
      "type": "function"
    },
    {
      "constant": true,
      "inputs": [],
      "name": "gasPrice",
      "outputs": [
        {
          "name": "",
          "type": "uint256"
        }
      ],
      "payable": false,
      "stateMutability": "view",
      "type": "function"
    },
    {
      "inputs": [
        {
          "name": "_name",
          "type": "string"
        },
        {
          "name": "_symbol",
          "type": "string"
        },
        {
          "name": "_addresses",
          "type": "address[4]"
        },
        {
          "name": "_settings",
          "type": "uint256[8]"
        },
        {
          "name": "_reserveRatio",
          "type": "uint32"
        }
      ],
      "payable": false,
      "stateMutability": "nonpayable",
      "type": "constructor"
    },
    {
      "anonymous": false,
      "inputs": [
        {
          "indexed": false,
          "name": "account",
          "type": "address"
        }
      ],
      "name": "Paused",
      "type": "event"
    },
    {
      "anonymous": false,
      "inputs": [
        {
          "indexed": false,
          "name": "account",
          "type": "address"
        }
      ],
      "name": "Unpaused",
      "type": "event"
    },
    {
      "anonymous": false,
      "inputs": [
        {
          "indexed": true,
          "name": "account",
          "type": "address"
        }
      ],
      "name": "PauserAdded",
      "type": "event"
    },
    {
      "anonymous": false,
      "inputs": [
        {
          "indexed": true,
          "name": "account",
          "type": "address"
        }
      ],
      "name": "PauserRemoved",
      "type": "event"
    },
    {
      "anonymous": false,
      "inputs": [
        {
          "indexed": false,
          "name": "sender",
          "type": "address"
        },
        {
          "indexed": false,
          "name": "amount",
          "type": "uint256"
        },
        {
          "indexed": false,
          "name": "deposit",
          "type": "uint256"
        }
      ],
      "name": "CurvedMint",
      "type": "event"
    },
    {
      "anonymous": false,
      "inputs": [
        {
          "indexed": false,
          "name": "sender",
          "type": "address"
        },
        {
          "indexed": false,
          "name": "amount",
          "type": "uint256"
        },
        {
          "indexed": false,
          "name": "reimbursement",
          "type": "uint256"
        }
      ],
      "name": "CurvedBurn",
      "type": "event"
    },
    {
      "anonymous": false,
      "inputs": [
        {
          "indexed": true,
          "name": "from",
          "type": "address"
        },
        {
          "indexed": true,
          "name": "to",
          "type": "address"
        },
        {
          "indexed": false,
          "name": "value",
          "type": "uint256"
        }
      ],
      "name": "Transfer",
      "type": "event"
    },
    {
      "anonymous": false,
      "inputs": [
        {
          "indexed": true,
          "name": "owner",
          "type": "address"
        },
        {
          "indexed": true,
          "name": "spender",
          "type": "address"
        },
        {
          "indexed": false,
          "name": "value",
          "type": "uint256"
        }
      ],
      "name": "Approval",
      "type": "event"
    }
  ],
  "bytecode": "0x60806040526040518060400160405280600381526020017f302e3300000000000000000000000000000000000000000000000000000000008152506035908051906020019062000051929190620018a5565b506040518060400160405280600381526020017f302e33000000000000000000000000000000000000000000000000000000000081525060b690805190602001906200009f929190620018a5565b50348015620000ad57600080fd5b50604051620071cb380380620071cb83398101806040526101e0811015620000d457600080fd5b810190808051640100000000811115620000ed57600080fd5b828101905060208101848111156200010457600080fd5b81518560018202830111640100000000821117156200012257600080fd5b505092919060200180516401000000008111156200013f57600080fd5b828101905060208101848111156200015657600080fd5b81518560018202830111640100000000821117156200017457600080fd5b505092919060200191908260800191908261010001805190602001909291905050503383838382600360048110620001a857fe5b6020020151808284600060088110620001bd57fe5b6020020151701c35fedd14ffffffffffffffffffffffff6036602060808110620001e357fe5b0181905550701b0ce43b323fffffffffffffffffffffff60366021608081106200020957fe5b01819055507019f0028ec1ffffffffffffffffffffffff60366022608081106200022f57fe5b01819055507018ded91f0e7fffffffffffffffffffffff60366023608081106200025557fe5b01819055507017d8ec7f0417ffffffffffffffffffffff60366024608081106200027b57fe5b01819055507016ddc6556cdbffffffffffffffffffffff6036602560808110620002a157fe5b01819055507015ecf52776a1ffffffffffffffffffffff6036602660808110620002c757fe5b01819055507015060c256cb2ffffffffffffffffffffff6036602760808110620002ed57fe5b0181905550701428a2f98d72ffffffffffffffffffffff60366028608081106200031357fe5b01819055507013545598e5c23fffffffffffffffffffff60366029608081106200033957fe5b0181905550701288c4161ce1dfffffffffffffffffffff6036602a608081106200035f57fe5b01819055507011c592761c666fffffffffffffffffffff6036602b608081106200038557fe5b018190555070110a688680a757ffffffffffffffffffff6036602c60808110620003ab57fe5b0181905550701056f1b5bedf77ffffffffffffffffffff6036602d60808110620003d157fe5b0181905550700faadceceeff8bffffffffffffffffffff6036602e60808110620003f757fe5b0181905550700f05dc6b27edadffffffffffffffffffff6036602f608081106200041d57fe5b0181905550700e67a5a25da4107fffffffffffffffffff60366030608081106200044357fe5b0181905550700dcff115b14eedffffffffffffffffffff60366031608081106200046957fe5b0181905550700d3e7a392431239fffffffffffffffffff60366032608081106200048f57fe5b0181905550700cb2ff529eb71e4fffffffffffffffffff6036603360808110620004b557fe5b0181905550700c2d415c3db974afffffffffffffffffff6036603460808110620004db57fe5b0181905550700bad03e7d883f69bffffffffffffffffff60366035608081106200050157fe5b0181905550700b320d03b2c343d5ffffffffffffffffff603680608081106200052657fe5b0181905550700abc25204e02828dffffffffffffffffff60366037608081106200054c57fe5b0181905550700a4b16f74ee4bb207fffffffffffffffff60366038608081106200057257fe5b01819055507009deaf736ac1f569ffffffffffffffffff60366039608081106200059857fe5b0181905550700976bd9952c7aa957fffffffffffffffff6036603a60808110620005be57fe5b01819055507009131271922eaa606fffffffffffffffff6036603b60808110620005e457fe5b01819055507008b380f3558668c46fffffffffffffffff6036603c608081106200060a57fe5b0181905550700857ddf0117efa215bffffffffffffffff6036603d608081106200063057fe5b01819055507007ffffffffffffffffffffffffffffffff6036603e608081106200065657fe5b01819055507007abbf6f6abb9d087fffffffffffffffff6036603f608081106200067c57fe5b018190555070075af62cbac95f7dfa7fffffffffffffff6036604060808110620006a257fe5b018190555070070d7fb7452e187ac13fffffffffffffff6036604160808110620006c857fe5b01819055507006c3390ecc8af379295fffffffffffffff6036604260808110620006ee57fe5b018190555070067c00a3b07ffc01fd6fffffffffffffff60366043608081106200071457fe5b0181905550700637b647c39cbb9d3d27ffffffffffffff60366044608081106200073a57fe5b01819055507005f63b1fc104dbd39587ffffffffffffff60366045608081106200076057fe5b01819055507005b771955b36e12f7235ffffffffffffff60366046608081106200078657fe5b018190555070057b3d49dda84556d6f6ffffffffffffff6036604760808110620007ac57fe5b018190555070054183095b2c8ececf30ffffffffffffff6036604860808110620007d257fe5b018190555070050a28be635ca2b888f77fffffffffffff6036604960808110620007f857fe5b01819055507004d5156639708c9db33c3fffffffffffff6036604a608081106200081e57fe5b01819055507004a23105873875bd52dfdfffffffffffff6036604b608081106200084457fe5b0181905550700471649d87199aa990756fffffffffffff6036604c608081106200086a57fe5b01819055507004429a21a029d4c1457cfbffffffffffff6036604d608081106200089057fe5b0181905550700415bc6d6fb7dd71af2cb3ffffffffffff6036604e60808110620008b657fe5b01819055507003eab73b3bbfe282243ce1ffffffffffff6036604f60808110620008dc57fe5b01819055507003c1771ac9fb6b4c18e229ffffffffffff60366050608081106200090257fe5b0181905550700399e96897690418f785257fffffffffff60366051608081106200092857fe5b0181905550700373fc456c53bb779bf0ea9fffffffffff60366052608081106200094e57fe5b018190555070034f9e8e490c48e67e6ab8bfffffffffff60366053608081106200097457fe5b018190555070032cbfd4a7adc790560b3337ffffffffff60366054608081106200099a57fe5b018190555070030b50570f6e5d2acca94613ffffffffff6036605560808110620009c057fe5b01819055507002eb40f9f620fda6b56c2861ffffffffff6036605660808110620009e657fe5b01819055507002cc8340ecb0d0f520a6af58ffffffffff603660576080811062000a0c57fe5b01819055507002af09481380a0a35cf1ba02ffffffffff603660586080811062000a3257fe5b0181905550700292c5bdd3b92ec810287b1b3fffffffff603660596080811062000a5857fe5b0181905550700277abdcdab07d5a77ac6d6b9fffffffff6036605a6080811062000a7e57fe5b018190555070025daf6654b1eaa55fd64df5efffffffff6036605b6080811062000aa457fe5b0181905550700244c49c648baa98192dce88b7ffffffff6036605c6080811062000aca57fe5b018190555070022ce03cd5619a311b2471268bffffffff6036605d6080811062000af057fe5b0181905550700215f77c045fbe885654a44a0fffffffff6036605e6080811062000b1657fe5b01819055507001ffffffffffffffffffffffffffffffff6036605f6080811062000b3c57fe5b01819055507001eaefdbdaaee7421fc4d3ede5ffffffff603660606080811062000b6257fe5b01819055507001d6bd8b2eb257df7e8ca57b09bfffffff603660616080811062000b8857fe5b01819055507001c35fedd14b861eb0443f7f133fffffff603660626080811062000bae57fe5b01819055507001b0ce43b322bcde4a56e8ada5afffffff603660636080811062000bd457fe5b018190555070019f0028ec1fff007f5a195a39dfffffff603660646080811062000bfa57fe5b018190555070018ded91f0e72ee74f49b15ba527ffffff603660656080811062000c2057fe5b018190555070017d8ec7f04136f4e5615fd41a63ffffff603660666080811062000c4657fe5b018190555070016ddc6556cdb84bdc8d12d22e6fffffff603660676080811062000c6c57fe5b018190555070015ecf52776a1155b5bd8395814f7fffff603660686080811062000c9257fe5b018190555070015060c256cb23b3b3cc3754cf40ffffff603660696080811062000cb857fe5b01819055507001428a2f98d728ae223ddab715be3fffff6036606a6080811062000cde57fe5b018190555070013545598e5c23276ccf0ede68034fffff6036606b6080811062000d0457fe5b01819055507001288c4161ce1d6f54b7f61081194fffff6036606c6080811062000d2a57fe5b018190555070011c592761c666aa641d5a01a40f17ffff6036606d6080811062000d5057fe5b0181905550700110a688680a7530515f3e6e6cfdcdffff6036606e6080811062000d7657fe5b01819055507001056f1b5bedf75c6bcb2ce8aed428ffff6036606f6080811062000d9c57fe5b01819055506ffaadceceeff8a0890f3875f008277fff603660706080811062000dc157fe5b01819055506ff05dc6b27edad306388a600f6ba0bfff603660716080811062000de657fe5b01819055506fe67a5a25da41063de1495d5b18cdbfff603660726080811062000e0b57fe5b01819055506fdcff115b14eedde6fc3aa5353f2e4fff603660736080811062000e3057fe5b01819055506fd3e7a3924312399f9aae2e0f868f8fff603660746080811062000e5557fe5b01819055506fcb2ff529eb71e41582cccd5a1ee26fff603660756080811062000e7a57fe5b01819055506fc2d415c3db974ab32a51840c0b67edff603660766080811062000e9f57fe5b01819055506fbad03e7d883f69ad5b0a186184e06bff603660776080811062000ec457fe5b01819055506fb320d03b2c343d4829abd6075f0cc5ff603660786080811062000ee957fe5b01819055506fabc25204e02828d73c6e80bcdb1a95bf603660796080811062000f0e57fe5b01819055506fa4b16f74ee4bb2040a1ec6c15fbbf2df6036607a6080811062000f3357fe5b01819055506f9deaf736ac1f569deb1b5ae3f36c130f6036607b6080811062000f5857fe5b01819055506f976bd9952c7aa957f5937d790ef650376036607c6080811062000f7d57fe5b01819055506f9131271922eaa6064b73a22d0bd4f2bf6036607d6080811062000fa257fe5b01819055506f8b380f3558668c46c91c49a2f8e967b96036607e6080811062000fc757fe5b01819055506f857ddf0117efa215952912839f6473e66036607f6080811062000fec57fe5b01819055508160b760006101000a81548163ffffffff021916908363ffffffff1602179055508060b88190555050506200102c81620016fb60201b60201c565b50600060ba60006101000a81548160ff02191690831515021790555050826000600481106200105757fe5b6020020151600073ffffffffffffffffffffffffffffffffffffffff168173ffffffffffffffffffffffffffffffffffffffff16141562001100576040517f08c379a00000000000000000000000000000000000000000000000000000000081526004018080602001828103825260188152602001807f41646472657373206d757374206e6f74206265207a65726f000000000000000081525060200191505060405180910390fd5b836001600481106200110e57fe5b6020020151600073ffffffffffffffffffffffffffffffffffffffff168173ffffffffffffffffffffffffffffffffffffffff161415620011b7576040517f08c379a00000000000000000000000000000000000000000000000000000000081526004018080602001828103825260188152602001807f41646472657373206d757374206e6f74206265207a65726f000000000000000081525060200191505060405180910390fd5b84600260048110620011c557fe5b6020020151600073ffffffffffffffffffffffffffffffffffffffff168173ffffffffffffffffffffffffffffffffffffffff1614156200126e576040517f08c379a00000000000000000000000000000000000000000000000000000000081526004018080602001828103825260188152602001807f41646472657373206d757374206e6f74206265207a65726f000000000000000081525060200191505060405180910390fd5b856003600481106200127c57fe5b6020020151600073ffffffffffffffffffffffffffffffffffffffff168173ffffffffffffffffffffffffffffffffffffffff16141562001325576040517f08c379a00000000000000000000000000000000000000000000000000000000081526004018080602001828103825260188152602001807f41646472657373206d757374206e6f74206265207a65726f000000000000000081525060200191505060405180910390fd5b8463ffffffff16620f4240811115620013a6576040517f08c379a00000000000000000000000000000000000000000000000000000000081526004018080602001828103825260148152602001807f56616c7565206d75737420626520696e2050504d00000000000000000000000081525060200191505060405180910390fd5b86600160088110620013b457fe5b6020020151620f424081111562001433576040517f08c379a00000000000000000000000000000000000000000000000000000000081526004018080602001828103825260148152602001807f56616c7565206d75737420626520696e2050504d00000000000000000000000081525060200191505060405180910390fd5b876004600881106200144157fe5b6020020151620f4240811115620014c0576040517f08c379a00000000000000000000000000000000000000000000000000000000081526004018080602001828103825260148152602001807f56616c7565206d75737420626520696e2050504d00000000000000000000000081525060200191505060405180910390fd5b88600160088110620014ce57fe5b602002015160bd8190555088600260088110620014e757fe5b602002015160be81905550886003600881106200150057fe5b602002015160bf81905550896001600481106200151957fe5b602002015160bb60006101000a81548173ffffffffffffffffffffffffffffffffffffffff021916908373ffffffffffffffffffffffffffffffffffffffff160217905550896002600481106200156c57fe5b602002015160bc60006101000a81548173ffffffffffffffffffffffffffffffffffffffff021916908373ffffffffffffffffffffffffffffffffffffffff16021790555088600460088110620015bf57fe5b602002015160c08190555088600560088110620015d857fe5b6020020151420160c581905550600060c68190555088600660088110620015fb57fe5b602002015160c781905550886007600881106200161457fe5b602002015160c181905550896000600481106200162d57fe5b602002015160ba60016101000a81548173ffffffffffffffffffffffffffffffffffffffff021916908373ffffffffffffffffffffffffffffffffffffffff160217905550505050505050505050508060c960006101000a81548173ffffffffffffffffffffffffffffffffffffffff021916908373ffffffffffffffffffffffffffffffffffffffff160217905550508460ca9080519060200190620016d6929190620018a5565b508360cb9080519060200190620016ef929190620018a5565b50505050505062001954565b620017168160b96200175c60201b620051ad1790919060201c565b8073ffffffffffffffffffffffffffffffffffffffff167f6719d08c1888103bea251a4ed56406bd0c3e69723c8a1686e017e7bbe159b6f860405160405180910390a250565b600073ffffffffffffffffffffffffffffffffffffffff168173ffffffffffffffffffffffffffffffffffffffff1614156200179757600080fd5b620017a982826200181260201b60201c565b15620017b457600080fd5b60018260000160008373ffffffffffffffffffffffffffffffffffffffff1673ffffffffffffffffffffffffffffffffffffffff16815260200190815260200160002060006101000a81548160ff0219169083151502179055505050565b60008073ffffffffffffffffffffffffffffffffffffffff168273ffffffffffffffffffffffffffffffffffffffff1614156200184e57600080fd5b8260000160008373ffffffffffffffffffffffffffffffffffffffff1673ffffffffffffffffffffffffffffffffffffffff16815260200190815260200160002060009054906101000a900460ff16905092915050565b828054600181600116156101000203166002900490600052602060002090601f016020900481019282601f10620018e857805160ff191683800117855562001919565b8280016001018555821562001919579182015b8281111562001918578251825591602001919060010190620018fb565b5b5090506200192891906200192c565b5090565b6200195191905b808211156200194d57600081600090555060010162001933565b5090565b90565b61586780620019646000396000f3fe608060405234801561001057600080fd5b50600436106102a05760003560e01c806382dc1ec411610167578063a457c2d7116100ce578063df39e6e111610087578063df39e6e114610cfd578063dff0c89814610d1f578063ec8585ab14610d3d578063f2fde38b14610d6b578063f6a1fe9414610daf578063fe173b9714610df9576102a0565b8063a457c2d714610ae2578063a544e52114610b48578063a9059cbb14610ba7578063c576a45b14610c0d578063c9828ae014610c3b578063dd62ed3e14610c85576102a0565b806395d89b411161012057806395d89b411461099557806396365d4414610a185780639a4f318b14610a365780639bae668714610a78578063a0712d6814610a96578063a0b78dbe14610ac4576102a0565b806382dc1ec4146108735780638456cb59146108b7578063893d20e8146108c15780638a835a351461090b5780638da5cb5b146109295780638f32d59b14610973576102a0565b8063469048401161020b578063590e1ae3116101c4578063590e1ae3146107855780635c975abb1461078f5780636d6f1e01146107b15780636ef8d66d146107f357806370a08231146107fd57806371645ca014610855576102a0565b806346904840146105ce57806346fbf68e1461061857806348c54b9d1461067457806349f9b0f71461067e5780635377d9d5146106e457806354fd4d5014610702576102a0565b806329a00e7c1161025d57806329a00e7c1461047a578063309bbc6d146104e057806339509351146104fe5780633f4ba83a1461056457806342461bac1461056e57806342966c681461058c576102a0565b806306fdde03146102a5578063095ea7b3146103285780630c7d5cd81461038e57806318160ddd146103b857806323b872dd146103d6578063264e49db1461045c575b600080fd5b6102ad610e17565b6040518080602001828103825283818151815260200191508051906020019080838360005b838110156102ed5780820151818401526020810190506102d2565b50505050905090810190601f16801561031a5780820380516001836020036101000a031916815260200191505b509250505060405180910390f35b6103746004803603604081101561033e57600080fd5b81019080803573ffffffffffffffffffffffffffffffffffffffff16906020019092919080359060200190929190505050610eb5565b604051808215151515815260200191505060405180910390f35b610396610f4c565b604051808263ffffffff1663ffffffff16815260200191505060405180910390f35b6103c0610f62565b6040518082815260200191505060405180910390f35b610442600480360360608110156103ec57600080fd5b81019080803573ffffffffffffffffffffffffffffffffffffffff169060200190929190803573ffffffffffffffffffffffffffffffffffffffff16906020019092919080359060200190929190505050610f6c565b604051808215151515815260200191505060405180910390f35b610464611005565b6040518082815260200191505060405180910390f35b6104ca6004803603608081101561049057600080fd5b810190808035906020019092919080359060200190929190803563ffffffff1690602001909291908035906020019092919050505061100b565b6040518082815260200191505060405180910390f35b6104e8611257565b6040518082815260200191505060405180910390f35b61054a6004803603604081101561051457600080fd5b81019080803573ffffffffffffffffffffffffffffffffffffffff1690602001909291908035906020019092919050505061125d565b604051808215151515815260200191505060405180910390f35b61056c611492565b005b6105766115f2565b6040518082815260200191505060405180910390f35b6105b8600480360360208110156105a257600080fd5b81019080803590602001909291905050506115f8565b6040518082815260200191505060405180910390f35b6105d6611718565b604051808273ffffffffffffffffffffffffffffffffffffffff1673ffffffffffffffffffffffffffffffffffffffff16815260200191505060405180910390f35b61065a6004803603602081101561062e57600080fd5b81019080803573ffffffffffffffffffffffffffffffffffffffff16906020019092919050505061173e565b604051808215151515815260200191505060405180910390f35b61067c61175b565b005b6106ce6004803603608081101561069457600080fd5b810190808035906020019092919080359060200190929190803563ffffffff16906020019092919080359060200190929190505050611ae9565b6040518082815260200191505060405180910390f35b6106ec611db6565b6040518082815260200191505060405180910390f35b61070a611dbc565b6040518080602001828103825283818151815260200191508051906020019080838360005b8381101561074a57808201518184015260208101905061072f565b50505050905090810190601f1680156107775780820380516001836020036101000a031916815260200191505b509250505060405180910390f35b61078d611e5a565b005b610797612193565b604051808215151515815260200191505060405180910390f35b6107dd600480360360208110156107c757600080fd5b81019080803590602001909291905050506121aa565b6040518082815260200191505060405180910390f35b6107fb6121df565b005b61083f6004803603602081101561081357600080fd5b81019080803573ffffffffffffffffffffffffffffffffffffffff1690602001909291905050506121ea565b6040518082815260200191505060405180910390f35b61085d612232565b6040518082815260200191505060405180910390f35b6108b56004803603602081101561088957600080fd5b81019080803573ffffffffffffffffffffffffffffffffffffffff169060200190929190505050612238565b005b6108bf6122a2565b005b6108c9612403565b604051808273ffffffffffffffffffffffffffffffffffffffff1673ffffffffffffffffffffffffffffffffffffffff16815260200191505060405180910390f35b61091361242d565b6040518082815260200191505060405180910390f35b610931612433565b604051808273ffffffffffffffffffffffffffffffffffffffff1673ffffffffffffffffffffffffffffffffffffffff16815260200191505060405180910390f35b61097b612459565b604051808215151515815260200191505060405180910390f35b61099d6124b1565b6040518080602001828103825283818151815260200191508051906020019080838360005b838110156109dd5780820151818401526020810190506109c2565b50505050905090810190601f168015610a0a5780820380516001836020036101000a031916815260200191505b509250505060405180910390f35b610a2061254f565b6040518082815260200191505060405180910390f35b610a6260048036036020811015610a4c57600080fd5b8101908080359060200190929190505050612630565b6040518082815260200191505060405180910390f35b610a80612665565b6040518082815260200191505060405180910390f35b610ac260048036036020811015610aac57600080fd5b810190808035906020019092919050505061266b565b005b610acc612786565b6040518082815260200191505060405180910390f35b610b2e60048036036040811015610af857600080fd5b81019080803573ffffffffffffffffffffffffffffffffffffffff1690602001909291908035906020019092919050505061278c565b604051808215151515815260200191505060405180910390f35b610b8a60048036036020811015610b5e57600080fd5b81019080803573ffffffffffffffffffffffffffffffffffffffff1690602001909291905050506129c1565b604051808381526020018281526020019250505060405180910390f35b610bf360048036036040811015610bbd57600080fd5b81019080803573ffffffffffffffffffffffffffffffffffffffff169060200190929190803590602001909291905050506129e5565b604051808215151515815260200191505060405180910390f35b610c3960048036036020811015610c2357600080fd5b8101908080359060200190929190505050612a7c565b005b610c43612e46565b604051808273ffffffffffffffffffffffffffffffffffffffff1673ffffffffffffffffffffffffffffffffffffffff16815260200191505060405180910390f35b610ce760048036036040811015610c9b57600080fd5b81019080803573ffffffffffffffffffffffffffffffffffffffff169060200190929190803573ffffffffffffffffffffffffffffffffffffffff169060200190929190505050612e6c565b6040518082815260200191505060405180910390f35b610d05612ef3565b604051808215151515815260200191505060405180910390f35b610d27612f06565b6040518082815260200191505060405180910390f35b610d6960048036036020811015610d5357600080fd5b8101908080359060200190929190505050612f0c565b005b610dad60048036036020811015610d8157600080fd5b81019080803573ffffffffffffffffffffffffffffffffffffffff1690602001909291905050506130fb565b005b610db761318a565b604051808273ffffffffffffffffffffffffffffffffffffffff1673ffffffffffffffffffffffffffffffffffffffff16815260200191505060405180910390f35b610e016131b0565b6040518082815260200191505060405180910390f35b60ca8054600181600116156101000203166002900480601f016020809104026020016040519081016040528092919081815260200182805460018160011615610100020316600290048015610ead5780601f10610e8257610100808354040283529160200191610ead565b820191906000526020600020905b815481529060010190602001808311610e9057829003601f168201915b505050505081565b600060ba60009054906101000a900460ff1615610f3a576040517f08c379a00000000000000000000000000000000000000000000000000000000081526004018080602001828103825260108152602001807f5061757361626c653a207061757365640000000000000000000000000000000081525060200191505060405180910390fd5b610f4483836131b6565b905092915050565b60b760009054906101000a900463ffffffff1681565b6000600254905090565b600060ba60009054906101000a900460ff1615610ff1576040517f08c379a00000000000000000000000000000000000000000000000000000000081526004018080602001828103825260108152602001807f5061757361626c653a207061757365640000000000000000000000000000000081525060200191505060405180910390fd5b610ffc8484846132e1565b90509392505050565b60be5481565b6000808511611082576040517f08c379a000000000000000000000000000000000000000000000000000000000815260040180806020018281038252601e8152602001807f42616e636f72466f726d756c613a20537570706c79206e6f74203e20302e000081525060200191505060405180910390fd5b600084116110db576040517f08c379a00000000000000000000000000000000000000000000000000000000081526004018080602001828103825260278152602001806157396027913960400191505060405180910390fd5b60008363ffffffff161161113a576040517f08c379a000000000000000000000000000000000000000000000000000000000815260040180806020018281038252602781526020018061579a6027913960400191505060405180910390fd5b620f424063ffffffff168363ffffffff1611156111a2576040517f08c379a000000000000000000000000000000000000000000000000000000000815260040180806020018281038252603181526020018061580b6031913960400191505060405180910390fd5b60008214156111b4576000905061124f565b620f424063ffffffff168363ffffffff1614156111f7576111f0846111e284886134e990919063ffffffff16565b61352390919063ffffffff16565b905061124f565b600080600061120f878661354990919063ffffffff16565b9050611220818888620f4240613568565b809350819450505060008260ff16611241858b6134e990919063ffffffff16565b901c90508881039450505050505b949350505050565b60bd5481565b60008073ffffffffffffffffffffffffffffffffffffffff168373ffffffffffffffffffffffffffffffffffffffff16141561129857600080fd5b61132782600160003373ffffffffffffffffffffffffffffffffffffffff1673ffffffffffffffffffffffffffffffffffffffff16815260200190815260200160002060008673ffffffffffffffffffffffffffffffffffffffff1673ffffffffffffffffffffffffffffffffffffffff1681526020019081526020016000205461354990919063ffffffff16565b600160003373ffffffffffffffffffffffffffffffffffffffff1673ffffffffffffffffffffffffffffffffffffffff16815260200190815260200160002060008573ffffffffffffffffffffffffffffffffffffffff1673ffffffffffffffffffffffffffffffffffffffff168152602001908152602001600020819055508273ffffffffffffffffffffffffffffffffffffffff163373ffffffffffffffffffffffffffffffffffffffff167f8c5be1e5ebec7d5bd14f71427d1e84f3dd0314c0f7b2291e5b200ac8c7c3b925600160003373ffffffffffffffffffffffffffffffffffffffff1673ffffffffffffffffffffffffffffffffffffffff16815260200190815260200160002060008773ffffffffffffffffffffffffffffffffffffffff1673ffffffffffffffffffffffffffffffffffffffff168152602001908152602001600020546040518082815260200191505060405180910390a36001905092915050565b61149b3361173e565b6114f0576040517f08c379a00000000000000000000000000000000000000000000000000000000081526004018080602001828103825260308152602001806157096030913960400191505060405180910390fd5b60ba60009054906101000a900460ff16611572576040517f08c379a00000000000000000000000000000000000000000000000000000000081526004018080602001828103825260148152602001807f5061757361626c653a206e6f742070617573656400000000000000000000000081525060200191505060405180910390fd5b600060ba60006101000a81548160ff0219169083151502179055507f5db9ee0a495bf2e6ff9c91a7834c1ba4fdd244a5e8aa4e537bd38aeae4b073aa33604051808273ffffffffffffffffffffffffffffffffffffffff1673ffffffffffffffffffffffffffffffffffffffff16815260200191505060405180910390a1565b60c75481565b6000600180151560c460009054906101000a900460ff16151514611684576040517f08c379a00000000000000000000000000000000000000000000000000000000081526004018080602001828103825260158152602001807f4375727665206d7573742062652068617463686564000000000000000000000081525060200191505060405180910390fd5b60ba60009054906101000a900460ff1615611707576040517f08c379a00000000000000000000000000000000000000000000000000000000081526004018080602001828103825260108152602001807f5061757361626c653a207061757365640000000000000000000000000000000081525060200191505060405180910390fd5b611710836136d0565b915050919050565b60bc60009054906101000a900473ffffffffffffffffffffffffffffffffffffffff1681565b60006117548260b961397e90919063ffffffff16565b9050919050565b600180151560c460009054906101000a900460ff161515146117e5576040517f08c379a00000000000000000000000000000000000000000000000000000000081526004018080602001828103825260158152602001807f4375727665206d7573742062652068617463686564000000000000000000000081525060200191505060405180910390fd5b600060c860003373ffffffffffffffffffffffffffffffffffffffff1673ffffffffffffffffffffffffffffffffffffffff16815260200190815260200160002060000154141561189e576040517f08c379a000000000000000000000000000000000000000000000000000000000815260040180806020018281038252601b8152602001807f4d7573742062652063616c6c656420627920612068617463686572000000000081525060200191505060405180910390fd5b60c6544210156118f9576040517f08c379a000000000000000000000000000000000000000000000000000000000815260040180806020018281038252603a815260200180615760603a913960400191505060405180910390fd5b60ba60009054906101000a900460ff161561197c576040517f08c379a00000000000000000000000000000000000000000000000000000000081526004018080602001828103825260108152602001807f5061757361626c653a207061757365640000000000000000000000000000000081525060200191505060405180910390fd5b600060c860003373ffffffffffffffffffffffffffffffffffffffff1673ffffffffffffffffffffffffffffffffffffffff16815260200190815260200160002060010154116119cb57600080fd5b600060c860003373ffffffffffffffffffffffffffffffffffffffff1673ffffffffffffffffffffffffffffffffffffffff168152602001908152602001600020600001549050600060c860003373ffffffffffffffffffffffffffffffffffffffff1673ffffffffffffffffffffffffffffffffffffffff168152602001908152602001600020600101549050600060bf5460c354840281611a6a57fe5b04905060008260be548581611a7b57fe5b04039050600081830390508060c860003373ffffffffffffffffffffffffffffffffffffffff1673ffffffffffffffffffffffffffffffffffffffff16815260200190815260200160002060010160008282540392505081905550611ae1303383613a10565b505050505050565b6000808511611b60576040517f08c379a000000000000000000000000000000000000000000000000000000000815260040180806020018281038252601e8152602001807f42616e636f72466f726d756c613a20537570706c79206e6f74203e20302e000081525060200191505060405180910390fd5b60008411611bb9576040517f08c379a00000000000000000000000000000000000000000000000000000000081526004018080602001828103825260278152602001806157396027913960400191505060405180910390fd5b60008363ffffffff1611611c18576040517f08c379a000000000000000000000000000000000000000000000000000000000815260040180806020018281038252602781526020018061579a6027913960400191505060405180910390fd5b620f424063ffffffff168363ffffffff161115611c80576040517f08c379a000000000000000000000000000000000000000000000000000000000815260040180806020018281038252603181526020018061580b6031913960400191505060405180910390fd5b84821115611cd9576040517f08c379a00000000000000000000000000000000000000000000000000000000081526004018080602001828103825260288152602001806157e36028913960400191505060405180910390fd5b6000821415611ceb5760009050611dae565b84821415611cfb57839050611dae565b620f424063ffffffff168363ffffffff161415611d3e57611d3785611d2984876134e990919063ffffffff16565b61352390919063ffffffff16565b9050611dae565b60008060008488039050611d578882620f424089613568565b80935081945050506000611d7484896134e990919063ffffffff16565b905060008360ff1689901b9050611da685611d988385613bda90919063ffffffff16565b61352390919063ffffffff16565b955050505050505b949350505050565b60c25481565b60b68054600181600116156101000203166002900480601f016020809104026020016040519081016040528092919081815260200182805460018160011615610100020316600290048015611e525780601f10611e2757610100808354040283529160200191611e52565b820191906000526020600020905b815481529060010190602001808311611e3557829003601f168201915b505050505081565b600080151560c460009054906101000a900460ff16151514611ee4576040517f08c379a00000000000000000000000000000000000000000000000000000000081526004018080602001828103825260158152602001807f4375727665206d7573742062652068617463686564000000000000000000000081525060200191505060405180910390fd5b6001600060c55442111590508115611f6b578015611f6a576040517f08c379a000000000000000000000000000000000000000000000000000000000815260040180806020018281038252601c8152602001807f43757276652068617463682074696d652068617320657870697265640000000081525060200191505060405180910390fd5b5b80611fde576040517f08c379a000000000000000000000000000000000000000000000000000000000815260040180806020018281038252601c8152602001807f43757276652068617463682074696d652068617320657870697265640000000081525060200191505060405180910390fd5b60ba60009054906101000a900460ff1615612061576040517f08c379a00000000000000000000000000000000000000000000000000000000081526004018080602001828103825260108152602001807f5061757361626c653a207061757365640000000000000000000000000000000081525060200191505060405180910390fd5b600060c860003373ffffffffffffffffffffffffffffffffffffffff1673ffffffffffffffffffffffffffffffffffffffff16815260200190815260200160002060000154905060ba60019054906101000a900473ffffffffffffffffffffffffffffffffffffffff1673ffffffffffffffffffffffffffffffffffffffff1663a9059cbb33836040518363ffffffff1660e01b8152600401808373ffffffffffffffffffffffffffffffffffffffff1673ffffffffffffffffffffffffffffffffffffffff16815260200182815260200192505050602060405180830381600087803b15801561215157600080fd5b505af1158015612165573d6000803e3d6000fd5b505050506040513d602081101561217b57600080fd5b81019080805190602001909291905050505050505050565b600060ba60009054906101000a900460ff16905090565b60006121d86121b7610f62565b6121bf61254f565b60b760009054906101000a900463ffffffff1685611ae9565b9050919050565b6121e833613bfa565b565b60008060008373ffffffffffffffffffffffffffffffffffffffff1673ffffffffffffffffffffffffffffffffffffffff168152602001908152602001600020549050919050565b60c15481565b6122413361173e565b612296576040517f08c379a00000000000000000000000000000000000000000000000000000000081526004018080602001828103825260308152602001806157096030913960400191505060405180910390fd5b61229f81613c54565b50565b6122ab3361173e565b612300576040517f08c379a00000000000000000000000000000000000000000000000000000000081526004018080602001828103825260308152602001806157096030913960400191505060405180910390fd5b60ba60009054906101000a900460ff1615612383576040517f08c379a00000000000000000000000000000000000000000000000000000000081526004018080602001828103825260108152602001807f5061757361626c653a207061757365640000000000000000000000000000000081525060200191505060405180910390fd5b600160ba60006101000a81548160ff0219169083151502179055507f62e78cea01bee320cd4e420270b5ea74000d11b0c9f74754ebdbfc544b05a25833604051808273ffffffffffffffffffffffffffffffffffffffff1673ffffffffffffffffffffffffffffffffffffffff16815260200191505060405180910390a1565b600060c960009054906101000a900473ffffffffffffffffffffffffffffffffffffffff16905090565b60c65481565b60c960009054906101000a900473ffffffffffffffffffffffffffffffffffffffff1681565b600060c960009054906101000a900473ffffffffffffffffffffffffffffffffffffffff1673ffffffffffffffffffffffffffffffffffffffff163373ffffffffffffffffffffffffffffffffffffffff1614905090565b60cb8054600181600116156101000203166002900480601f0160208091040260200160405190810160405280929190818152602001828054600181600116156101000203166002900480156125475780601f1061251c57610100808354040283529160200191612547565b820191906000526020600020905b81548152906001019060200180831161252a57829003601f168201915b505050505081565b600060ba60019054906101000a900473ffffffffffffffffffffffffffffffffffffffff1673ffffffffffffffffffffffffffffffffffffffff166370a08231306040518263ffffffff1660e01b8152600401808273ffffffffffffffffffffffffffffffffffffffff1673ffffffffffffffffffffffffffffffffffffffff16815260200191505060206040518083038186803b1580156125f057600080fd5b505afa158015612604573d6000803e3d6000fd5b505050506040513d602081101561261a57600080fd5b8101908080519060200190929190505050905090565b600061265e61263d610f62565b61264561254f565b60b760009054906101000a900463ffffffff168561100b565b9050919050565b60c05481565b600180151560c460009054906101000a900460ff161515146126f5576040517f08c379a00000000000000000000000000000000000000000000000000000000081526004018080602001828103825260158152602001807f4375727665206d7573742062652068617463686564000000000000000000000081525060200191505060405180910390fd5b60ba60009054906101000a900460ff1615612778576040517f08c379a00000000000000000000000000000000000000000000000000000000081526004018080602001828103825260108152602001807f5061757361626c653a207061757365640000000000000000000000000000000081525060200191505060405180910390fd5b61278182613cae565b505050565b60c55481565b60008073ffffffffffffffffffffffffffffffffffffffff168373ffffffffffffffffffffffffffffffffffffffff1614156127c757600080fd5b61285682600160003373ffffffffffffffffffffffffffffffffffffffff1673ffffffffffffffffffffffffffffffffffffffff16815260200190815260200160002060008673ffffffffffffffffffffffffffffffffffffffff1673ffffffffffffffffffffffffffffffffffffffff16815260200190815260200160002054613bda90919063ffffffff16565b600160003373ffffffffffffffffffffffffffffffffffffffff1673ffffffffffffffffffffffffffffffffffffffff16815260200190815260200160002060008573ffffffffffffffffffffffffffffffffffffffff1673ffffffffffffffffffffffffffffffffffffffff168152602001908152602001600020819055508273ffffffffffffffffffffffffffffffffffffffff163373ffffffffffffffffffffffffffffffffffffffff167f8c5be1e5ebec7d5bd14f71427d1e84f3dd0314c0f7b2291e5b200ac8c7c3b925600160003373ffffffffffffffffffffffffffffffffffffffff1673ffffffffffffffffffffffffffffffffffffffff16815260200190815260200160002060008773ffffffffffffffffffffffffffffffffffffffff1673ffffffffffffffffffffffffffffffffffffffff168152602001908152602001600020546040518082815260200191505060405180910390a36001905092915050565b60c86020528060005260406000206000915090508060000154908060010154905082565b600060ba60009054906101000a900460ff1615612a6a576040517f08c379a00000000000000000000000000000000000000000000000000000000081526004018080602001828103825260108152602001807f5061757361626c653a207061757365640000000000000000000000000000000081525060200191505060405180910390fd5b612a748383613de0565b905092915050565b8060008160c860003373ffffffffffffffffffffffffffffffffffffffff1673ffffffffffffffffffffffffffffffffffffffff1681526020019081526020016000206000015401905060c154811015612b3e576040517f08c379a00000000000000000000000000000000000000000000000000000000081526004018080602001828103825260198152602001807f496e73756666696369656e7420636f6e747269627574696f6e0000000000000081525060200191505060405180910390fd5b600080151560c460009054906101000a900460ff16151514612bc8576040517f08c379a00000000000000000000000000000000000000000000000000000000081526004018080602001828103825260158152602001807f4375727665206d7573742062652068617463686564000000000000000000000081525060200191505060405180910390fd5b60008060c55442111590508115612c4e578015612c4d576040517f08c379a000000000000000000000000000000000000000000000000000000000815260040180806020018281038252601c8152602001807f43757276652068617463682074696d652068617320657870697265640000000081525060200191505060405180910390fd5b5b80612cc1576040517f08c379a000000000000000000000000000000000000000000000000000000000815260040180806020018281038252601c8152602001807f43757276652068617463682074696d652068617320657870697265640000000081525060200191505060405180910390fd5b60ba60009054906101000a900460ff1615612d44576040517f08c379a00000000000000000000000000000000000000000000000000000000081526004018080602001828103825260108152602001807f5061757361626c653a207061757365640000000000000000000000000000000081525060200191505060405180910390fd5b600086905060bf548160c254011015612d75578060c260008282540192505081905550612d7081613df7565b612d99565b60c25460bf5403905060bf5460c281905550612d9081613df7565b612d98613f13565b5b8060c860003373ffffffffffffffffffffffffffffffffffffffff1673ffffffffffffffffffffffffffffffffffffffff1681526020019081526020016000206000016000828254019250508190555060be54810260c860003373ffffffffffffffffffffffffffffffffffffffff1673ffffffffffffffffffffffffffffffffffffffff1681526020019081526020016000206001016000828254019250508190555050505050505050565b60ba60019054906101000a900473ffffffffffffffffffffffffffffffffffffffff1681565b6000600160008473ffffffffffffffffffffffffffffffffffffffff1673ffffffffffffffffffffffffffffffffffffffff16815260200190815260200160002060008373ffffffffffffffffffffffffffffffffffffffff1673ffffffffffffffffffffffffffffffffffffffff16815260200190815260200160002054905092915050565b60c460009054906101000a900460ff1681565b60bf5481565b60bb60009054906101000a900473ffffffffffffffffffffffffffffffffffffffff1673ffffffffffffffffffffffffffffffffffffffff163373ffffffffffffffffffffffffffffffffffffffff1614612fb2576040517f08c379a00000000000000000000000000000000000000000000000000000000081526004018080602001828103825260228152602001806157c16022913960400191505060405180910390fd5b600180151560c460009054906101000a900460ff1615151461303c576040517f08c379a00000000000000000000000000000000000000000000000000000000081526004018080602001828103825260158152602001807f4375727665206d7573742062652068617463686564000000000000000000000081525060200191505060405180910390fd5b60ba60009054906101000a900460ff16156130bf576040517f08c379a00000000000000000000000000000000000000000000000000000000081526004018080602001828103825260108152602001807f5061757361626c653a207061757365640000000000000000000000000000000081525060200191505060405180910390fd5b60be5482816130ca57fe5b0460c36000828254019250508190555060be5460bf540260c354106130f75760be5460bf540260c3819055505b5050565b613103612459565b61310c57600080fd5b600073ffffffffffffffffffffffffffffffffffffffff168173ffffffffffffffffffffffffffffffffffffffff16141561314657600080fd5b8060c960006101000a81548173ffffffffffffffffffffffffffffffffffffffff021916908373ffffffffffffffffffffffffffffffffffffffff16021790555050565b60bb60009054906101000a900473ffffffffffffffffffffffffffffffffffffffff1681565b60b85481565b60008073ffffffffffffffffffffffffffffffffffffffff168373ffffffffffffffffffffffffffffffffffffffff1614156131f157600080fd5b81600160003373ffffffffffffffffffffffffffffffffffffffff1673ffffffffffffffffffffffffffffffffffffffff16815260200190815260200160002060008573ffffffffffffffffffffffffffffffffffffffff1673ffffffffffffffffffffffffffffffffffffffff168152602001908152602001600020819055508273ffffffffffffffffffffffffffffffffffffffff163373ffffffffffffffffffffffffffffffffffffffff167f8c5be1e5ebec7d5bd14f71427d1e84f3dd0314c0f7b2291e5b200ac8c7c3b925846040518082815260200191505060405180910390a36001905092915050565b600061337282600160008773ffffffffffffffffffffffffffffffffffffffff1673ffffffffffffffffffffffffffffffffffffffff16815260200190815260200160002060003373ffffffffffffffffffffffffffffffffffffffff1673ffffffffffffffffffffffffffffffffffffffff16815260200190815260200160002054613bda90919063ffffffff16565b600160008673ffffffffffffffffffffffffffffffffffffffff1673ffffffffffffffffffffffffffffffffffffffff16815260200190815260200160002060003373ffffffffffffffffffffffffffffffffffffffff1673ffffffffffffffffffffffffffffffffffffffff168152602001908152602001600020819055506133fd848484613a10565b3373ffffffffffffffffffffffffffffffffffffffff168473ffffffffffffffffffffffffffffffffffffffff167f8c5be1e5ebec7d5bd14f71427d1e84f3dd0314c0f7b2291e5b200ac8c7c3b925600160008873ffffffffffffffffffffffffffffffffffffffff1673ffffffffffffffffffffffffffffffffffffffff16815260200190815260200160002060003373ffffffffffffffffffffffffffffffffffffffff1673ffffffffffffffffffffffffffffffffffffffff168152602001908152602001600020546040518082815260200191505060405180910390a3600190509392505050565b6000808314156134fc576000905061351d565b600082840290508284828161350d57fe5b041461351857600080fd5b809150505b92915050565b600080821161353157600080fd5b600082848161353c57fe5b0490508091505092915050565b60008082840190508381101561355e57600080fd5b8091505092915050565b600080700200000000000000000000000000000000861061358557fe5b848610156135fb576040517f08c379a000000000000000000000000000000000000000000000000000000000815260040180806020018281038252601c8152602001807f4261736573203c203120617265206e6f7420737570706f727465642e0000000081525060200191505060405180910390fd5b600080866f8000000000000000000000000000000089028161361957fe5b04905070015bf0a8b1457695355fb8ac404e7a79e38110156136455761363e8161406a565b9150613651565b61364e816145fa565b91505b60008563ffffffff168763ffffffff1684028161366a57fe5b04905070080000000000000000000000000000000081101561369d5761368f81614722565b607f945094505050506136c7565b60006136a882614c9c565b90506136bd81607f0360ff1683901c82614d51565b8195509550505050505b94509492505050565b6000806136dc836150ef565b90506000620f42408260c05402816136f057fe5b04905060ba60019054906101000a900473ffffffffffffffffffffffffffffffffffffffff1673ffffffffffffffffffffffffffffffffffffffff1663a9059cbb338385036040518363ffffffff1660e01b8152600401808373ffffffffffffffffffffffffffffffffffffffff1673ffffffffffffffffffffffffffffffffffffffff16815260200182815260200192505050602060405180830381600087803b15801561379e57600080fd5b505af11580156137b2573d6000803e3d6000fd5b505050506040513d60208110156137c857600080fd5b81019080805190602001909291905050505060ba60019054906101000a900473ffffffffffffffffffffffffffffffffffffffff1673ffffffffffffffffffffffffffffffffffffffff1663a9059cbb60bc60009054906101000a900473ffffffffffffffffffffffffffffffffffffffff16836040518363ffffffff1660e01b8152600401808373ffffffffffffffffffffffffffffffffffffffff1673ffffffffffffffffffffffffffffffffffffffff16815260200182815260200192505050602060405180830381600087803b1580156138a557600080fd5b505af11580156138b9573d6000803e3d6000fd5b505050506040513d60208110156138cf57600080fd5b81019080805190602001909291905050505060bb60009054906101000a900473ffffffffffffffffffffffffffffffffffffffff1673ffffffffffffffffffffffffffffffffffffffff1660bc60009054906101000a900473ffffffffffffffffffffffffffffffffffffffff1673ffffffffffffffffffffffffffffffffffffffff16146139745760be54818161396357fe5b0460c3600082825401925050819055505b8192505050919050565b60008073ffffffffffffffffffffffffffffffffffffffff168273ffffffffffffffffffffffffffffffffffffffff1614156139b957600080fd5b8260000160008373ffffffffffffffffffffffffffffffffffffffff1673ffffffffffffffffffffffffffffffffffffffff16815260200190815260200160002060009054906101000a900460ff16905092915050565b600073ffffffffffffffffffffffffffffffffffffffff168273ffffffffffffffffffffffffffffffffffffffff161415613a4a57600080fd5b613a9b816000808673ffffffffffffffffffffffffffffffffffffffff1673ffffffffffffffffffffffffffffffffffffffff16815260200190815260200160002054613bda90919063ffffffff16565b6000808573ffffffffffffffffffffffffffffffffffffffff1673ffffffffffffffffffffffffffffffffffffffff16815260200190815260200160002081905550613b2e816000808573ffffffffffffffffffffffffffffffffffffffff1673ffffffffffffffffffffffffffffffffffffffff1681526020019081526020016000205461354990919063ffffffff16565b6000808473ffffffffffffffffffffffffffffffffffffffff1673ffffffffffffffffffffffffffffffffffffffff168152602001908152602001600020819055508173ffffffffffffffffffffffffffffffffffffffff168373ffffffffffffffffffffffffffffffffffffffff167fddf252ad1be2c89b69c2b068fc378daa952ba7f163c4a11628f55a4df523b3ef836040518082815260200191505060405180910390a3505050565b600082821115613be957600080fd5b600082840390508091505092915050565b613c0e8160b961510290919063ffffffff16565b8073ffffffffffffffffffffffffffffffffffffffff167fcd265ebaf09df2871cc7bd4133404a235ba12eff2041bb89d9c714a2621c7c7e60405160405180910390a250565b613c688160b96151ad90919063ffffffff16565b8073ffffffffffffffffffffffffffffffffffffffff167f6719d08c1888103bea251a4ed56406bd0c3e69723c8a1686e017e7bbe159b6f860405160405180910390a250565b600060ba60019054906101000a900473ffffffffffffffffffffffffffffffffffffffff1673ffffffffffffffffffffffffffffffffffffffff166323b872dd3330856040518463ffffffff1660e01b8152600401808473ffffffffffffffffffffffffffffffffffffffff1673ffffffffffffffffffffffffffffffffffffffff1681526020018373ffffffffffffffffffffffffffffffffffffffff1673ffffffffffffffffffffffffffffffffffffffff1681526020018281526020019350505050602060405180830381600087803b158015613d8d57600080fd5b505af1158015613da1573d6000803e3d6000fd5b505050506040513d6020811015613db757600080fd5b8101908080519060200190929190505050613dd157600080fd5b613dda82615259565b50919050565b6000613ded338484613a10565b6001905092915050565b60ba60019054906101000a900473ffffffffffffffffffffffffffffffffffffffff1673ffffffffffffffffffffffffffffffffffffffff166323b872dd3330846040518463ffffffff1660e01b8152600401808473ffffffffffffffffffffffffffffffffffffffff1673ffffffffffffffffffffffffffffffffffffffff1681526020018373ffffffffffffffffffffffffffffffffffffffff1673ffffffffffffffffffffffffffffffffffffffff1681526020018281526020019350505050602060405180830381600087803b158015613ed457600080fd5b505af1158015613ee8573d6000803e3d6000fd5b505050506040513d6020811015613efe57600080fd5b81019080805190602001909291905050505050565b6000620f424060bd5460bf540281613f2757fe5b04905060ba60019054906101000a900473ffffffffffffffffffffffffffffffffffffffff1673ffffffffffffffffffffffffffffffffffffffff1663a9059cbb60bb60009054906101000a900473ffffffffffffffffffffffffffffffffffffffff16836040518363ffffffff1660e01b8152600401808373ffffffffffffffffffffffffffffffffffffffff1673ffffffffffffffffffffffffffffffffffffffff16815260200182815260200192505050602060405180830381600087803b158015613ff557600080fd5b505af1158015614009573d6000803e3d6000fd5b505050506040513d602081101561401f57600080fd5b8101908080519060200190929190505050506140413060be5460bf540261526c565b600160c460006101000a81548160ff02191690831515021790555060c754420160c68190555050565b6000806000905060008060006fd3094c70f034de4b96ff7d5b6f99fcd886106140d1576f40000000000000000000000000000000840193506fd3094c70f034de4b96ff7d5b6f99fcd86f800000000000000000000000000000008702816140cd57fe5b0495505b6fa45af1e1f40c333b3de1db4dd55f29a7861061412c576f20000000000000000000000000000000840193506fa45af1e1f40c333b3de1db4dd55f29a76f8000000000000000000000000000000087028161412857fe5b0495505b6f910b022db7ae67ce76b441c27035c6a18610614187576f10000000000000000000000000000000840193506f910b022db7ae67ce76b441c27035c6a16f8000000000000000000000000000000087028161418357fe5b0495505b6f88415abbe9a76bead8d00cf112e4d4a886106141e2576f08000000000000000000000000000000840193506f88415abbe9a76bead8d00cf112e4d4a86f800000000000000000000000000000008702816141de57fe5b0495505b6f84102b00893f64c705e841d5d4064bd3861061423d576f04000000000000000000000000000000840193506f84102b00893f64c705e841d5d4064bd36f8000000000000000000000000000000087028161423957fe5b0495505b6f8204055aaef1c8bd5c3259f4822735a28610614298576f02000000000000000000000000000000840193506f8204055aaef1c8bd5c3259f4822735a26f8000000000000000000000000000000087028161429457fe5b0495505b6f810100ab00222d861931c15e39b44e9986106142f3576f01000000000000000000000000000000840193506f810100ab00222d861931c15e39b44e996f800000000000000000000000000000008702816142ef57fe5b0495505b6f808040155aabbbe9451521693554f733861061434d576e800000000000000000000000000000840193506f808040155aabbbe9451521693554f7336f8000000000000000000000000000000087028161434957fe5b0495505b6f80000000000000000000000000000000860392508291506f800000000000000000000000000000008384028161438057fe5b04905070010000000000000000000000000000000083700100000000000000000000000000000000038302816143b257fe5b04840193506f80000000000000000000000000000000818302816143d257fe5b049150700200000000000000000000000000000000836faaaaaaaaaaaaaaaaaaaaaaaaaaaaaaaa0383028161440357fe5b04840193506f800000000000000000000000000000008183028161442357fe5b049150700300000000000000000000000000000000836f999999999999999999999999999999990383028161445457fe5b04840193506f800000000000000000000000000000008183028161447457fe5b049150700400000000000000000000000000000000836f92492492492492492492492492492492038302816144a557fe5b04840193506f80000000000000000000000000000000818302816144c557fe5b049150700500000000000000000000000000000000836f8e38e38e38e38e38e38e38e38e38e38e038302816144f657fe5b04840193506f800000000000000000000000000000008183028161451657fe5b049150700600000000000000000000000000000000836f8ba2e8ba2e8ba2e8ba2e8ba2e8ba2e8b0383028161454757fe5b04840193506f800000000000000000000000000000008183028161456757fe5b049150700700000000000000000000000000000000836f89d89d89d89d89d89d89d89d89d89d890383028161459857fe5b04840193506f80000000000000000000000000000000818302816145b857fe5b049150700800000000000000000000000000000000836f88888888888888888888888888888888038302816145e957fe5b048401935083945050505050919050565b60008060009050600083905070010000000000000000000000000000000081106146675760006146426f80000000000000000000000000000000838161463c57fe5b046153be565b90508060ff1682901c91506f800000000000000000000000000000008160ff16029250505b6f800000000000000000000000000000008111156146ed576000607f90505b60008160ff1611156146eb576f80000000000000000000000000000000828302816146ad57fe5b04915070010000000000000000000000000000000082106146df57600182901c91506001810360ff166001901b830192505b80600190039050614686565b505b6f05b9de1d10bf4103d647b0955897ba806f03f80fe03f80fe03f80fe03f80fe03f883028161471857fe5b0492505050919050565b600080600090506000806f10000000000000000000000000000000858161474557fe5b0691508190506f800000000000000000000000000000008282028161476657fe5b0490506710e1b3be415a00008102830192506f800000000000000000000000000000008282028161479357fe5b0490506705a0913f6b1e00008102830192506f80000000000000000000000000000000828202816147c057fe5b049050670168244fdac780008102830192506f80000000000000000000000000000000828202816147ed57fe5b049050664807432bc180008102830192506f800000000000000000000000000000008282028161481957fe5b049050660c0135dca040008102830192506f800000000000000000000000000000008282028161484557fe5b0490506601b707b1cdc0008102830192506f800000000000000000000000000000008282028161487157fe5b0490506536e0f639b8008102830192506f800000000000000000000000000000008282028161489c57fe5b049050650618fee9f8008102830192506f80000000000000000000000000000000828202816148c757fe5b049050649c197dcc008102830192506f80000000000000000000000000000000828202816148f157fe5b049050640e30dce4008102830192506f800000000000000000000000000000008282028161491b57fe5b04905064012ebd13008102830192506f800000000000000000000000000000008282028161494557fe5b0490506317499f008102830192506f800000000000000000000000000000008282028161496e57fe5b0490506301a9d4808102830192506f800000000000000000000000000000008282028161499757fe5b049050621c63808102830192506f80000000000000000000000000000000828202816149bf57fe5b0490506201c6388102830192506f80000000000000000000000000000000828202816149e757fe5b049050611ab88102830192506f8000000000000000000000000000000082820281614a0e57fe5b04905061017c8102830192506f8000000000000000000000000000000082820281614a3557fe5b04905060148102830192506f8000000000000000000000000000000082820281614a5b57fe5b04905060018102830192506f80000000000000000000000000000000826721c3677c82b400008581614a8957fe5b040101925060006f10000000000000000000000000000000861614614ad95770018ebef9eac820ae8682b9793ac6d1e7767001c3d6a24ed82218787d624d3e5eba95f9840281614ad557fe5b0492505b60006f20000000000000000000000000000000861614614b24577001368b2fc6f9609fe7aceb46aa619baed470018ebef9eac820ae8682b9793ac6d1e778840281614b2057fe5b0492505b60006f40000000000000000000000000000000861614614b6e576fbc5ab1b16779be3575bd8f0520a9f21f7001368b2fc6f9609fe7aceb46aa619baed5840281614b6a57fe5b0492505b60006f80000000000000000000000000000000861614614bb7576f454aaa8efe072e7f6ddbab84b40a55c96fbc5ab1b16779be3575bd8f0520a9f21e840281614bb357fe5b0492505b6000700100000000000000000000000000000000861614614c01576f0960aadc109e7a3bf4578099615711ea6f454aaa8efe072e7f6ddbab84b40a55c5840281614bfd57fe5b0492505b6000700200000000000000000000000000000000861614614c4a576e2bf84208204f5977f9a8cf01fdce3d6f0960aadc109e7a3bf4578099615711d7840281614c4657fe5b0492505b6000700400000000000000000000000000000000861614614c91576d03c6ab775dd0b95b4cbee7e65d116e2bf84208204f5977f9a8cf01fdc307840281614c8d57fe5b0492505b829350505050919050565b600080602090506000607f90505b8060ff166001830160ff161015614cf9576000600282840160ff1681614ccc57fe5b0490508460368260ff1660808110614ce057fe5b015410614cef57809250614cf3565b8091505b50614caa565b8360368260ff1660808110614d0a57fe5b015410614d1b578092505050614d4c565b8360368360ff1660808110614d2c57fe5b015410614d3d578192505050614d4c565b6000614d4557fe5b6000925050505b919050565b60008083905060008090508360ff16858302901c91506f03442c4e6074a82f1797f72ac00000008202810190508360ff16858302901c91506f0116b96f757c380fb287fd0e400000008202810190508360ff16858302901c91506e45ae5bdd5f0e03eca1ff43900000008202810190508360ff16858302901c91506e0defabf91302cd95b9ffda500000008202810190508360ff16858302901c91506e02529ca9832b22439efff9b80000008202810190508360ff16858302901c91506d54f1cf12bd04e516b6da880000008202810190508360ff16858302901c91506d0a9e39e257a09ca2d6db510000008202810190508360ff16858302901c91506d012e066e7b839fa050c3090000008202810190508360ff16858302901c91506c1e33d7d926c329a1ad1a8000008202810190508360ff16858302901c91506c02bee513bdb4a6b19b5f8000008202810190508360ff16858302901c91506b3a9316fa79b88eccf2a000008202810190508360ff16858302901c91506b048177ebe1fa8123752000008202810190508360ff16858302901c91506a5263fe90242dcbacf000008202810190508360ff16858302901c91506a057e22099c030d941000008202810190508360ff16858302901c91506957e22099c030d94100008202810190508360ff16858302901c915069052b6b545699763100008202810190508360ff16858302901c9150684985f67696bf7480008202810190508360ff16858302901c91506803dea12ea99e4980008202810190508360ff16858302901c91506731880f2214b6e0008202810190508360ff16858302901c915067025bcff56eb360008202810190508360ff16858302901c9150661b722e10ab10008202810190508360ff16858302901c91506601317c700770008202810190508360ff16858302901c9150650cba84aafa008202810190508360ff16858302901c91506482573a0a008202810190508360ff16858302901c91506405035ad9008202810190508360ff16858302901c9150632f881b008202810190508360ff16858302901c91506301b293408202810190508360ff16858302901c9150620efc408202810190508360ff16858302901c9150617fe08202810190508360ff16858302901c91506104208202810190508360ff16858302901c915060218202810190508360ff16858302901c915060018202810190508360ff166001901b856f0688589cc0e9505e2f2fee558000000083816150e257fe5b0401019250505092915050565b60006150fb3383615440565b9050919050565b600073ffffffffffffffffffffffffffffffffffffffff168173ffffffffffffffffffffffffffffffffffffffff16141561513c57600080fd5b615146828261397e565b61514f57600080fd5b60008260000160008373ffffffffffffffffffffffffffffffffffffffff1673ffffffffffffffffffffffffffffffffffffffff16815260200190815260200160002060006101000a81548160ff0219169083151502179055505050565b600073ffffffffffffffffffffffffffffffffffffffff168173ffffffffffffffffffffffffffffffffffffffff1614156151e757600080fd5b6151f1828261397e565b156151fb57600080fd5b60018260000160008373ffffffffffffffffffffffffffffffffffffffff1673ffffffffffffffffffffffffffffffffffffffff16815260200190815260200160002060006101000a81548160ff0219169083151502179055505050565b60006152653383615505565b9050919050565b600073ffffffffffffffffffffffffffffffffffffffff168273ffffffffffffffffffffffffffffffffffffffff1614156152a657600080fd5b6152bb8160025461354990919063ffffffff16565b600281905550615312816000808573ffffffffffffffffffffffffffffffffffffffff1673ffffffffffffffffffffffffffffffffffffffff1681526020019081526020016000205461354990919063ffffffff16565b6000808473ffffffffffffffffffffffffffffffffffffffff1673ffffffffffffffffffffffffffffffffffffffff168152602001908152602001600020819055508173ffffffffffffffffffffffffffffffffffffffff16600073ffffffffffffffffffffffffffffffffffffffff167fddf252ad1be2c89b69c2b068fc378daa952ba7f163c4a11628f55a4df523b3ef836040518082815260200191505060405180910390a35050565b6000806000905060008390506101008110156153f5575b60018111156153f057600181901c90506001820191506153d5565b615436565b6000608090505b60008160ff161115615434578060ff166001901b8210615425578060ff1682901c915080831792505b60018160ff16901c90506153fc565b505b8192505050919050565b600060b8543a111561544e57fe5b81600081118015615467575080615464336121ea565b10155b61547057600080fd5b600061547b846121aa565b905061548785856155b6565b7f14feb1b32dbb3ebf172a72bc6b201cb3ddcd8dd148da8b8ac41207f2d69bdd32858583604051808473ffffffffffffffffffffffffffffffffffffffff1673ffffffffffffffffffffffffffffffffffffffff168152602001838152602001828152602001935050505060405180910390a1809250505092915050565b600060b8543a111561551357fe5b816000811161552157600080fd5b600061552c84612630565b9050615538858261526c565b7f65ab8b57af027ad387b3f608b0745de61b7dc81d07be6ded03736db32fe46bd9858286604051808473ffffffffffffffffffffffffffffffffffffffff1673ffffffffffffffffffffffffffffffffffffffff168152602001838152602001828152602001935050505060405180910390a1809250505092915050565b600073ffffffffffffffffffffffffffffffffffffffff168273ffffffffffffffffffffffffffffffffffffffff1614156155f057600080fd5b61560581600254613bda90919063ffffffff16565b60028190555061565c816000808573ffffffffffffffffffffffffffffffffffffffff1673ffffffffffffffffffffffffffffffffffffffff16815260200190815260200160002054613bda90919063ffffffff16565b6000808473ffffffffffffffffffffffffffffffffffffffff1673ffffffffffffffffffffffffffffffffffffffff16815260200190815260200160002081905550600073ffffffffffffffffffffffffffffffffffffffff168273ffffffffffffffffffffffffffffffffffffffff167fddf252ad1be2c89b69c2b068fc378daa952ba7f163c4a11628f55a4df523b3ef836040518082815260200191505060405180910390a3505056fe506175736572526f6c653a2063616c6c657220646f6573206e6f742068617665207468652050617573657220726f6c6542616e636f72466f726d756c613a20436f6e6e6563746f7242616c616e6365206e6f74203e2030756e61626c6520746f20636c61696d20616e7920746f6b656e7320626563617573652076657374696e67206973206e6f74206f7665722079657442616e636f72466f726d756c613a20436f6e6e6563746f7220576569676874206e6f74203e20304d7573742062652063616c6c6564206279207468652066756e64696e6720706f6f6c42616e636f72466f726d756c613a2053656c6c20416d6f756e74206e6f74203c3d20537570706c7942616e636f72466f726d756c613a20436f6e6e6563746f7220576569676874206e6f74203c3d204d41585f574549474854a165627a7a723058201e53bdba6079643ddf869dc088904ef1d389b3e78d7defa312371bf0d0407e390029",
  "source": "pragma solidity ^0.5.0;\n\nimport \"./CommonsToken.sol\";\nimport \"../utils/Ownable.sol\";\n\ncontract ArtistToken is CommonsToken, Ownable {\n    string public name;   // e.g: Armin Van Lightstreams\n    string public symbol; // e.g: AVL\n\n    /*\n    * @param _addresses [0] externalToken [1] fundingPool [2] feeRecipient [3] pauser\n    * @param _settings [0] _gasPrice [1] _theta [2] _p0 [3] _initialRaise [4] _friction [5] _hatchDurationSeconds [6] _hatchVestingDurationSeconds [7] _minExternalContribution\n    * @param _reserveRatio\n    */\n    constructor (\n        string memory _name,\n        string memory _symbol,\n        address[4] memory _addresses,\n        uint256[8] memory _settings,\n        uint32 _reserveRatio\n    ) public\n    CommonsToken(\n        _addresses,\n        _settings,\n        _reserveRatio\n    )\n    Ownable(msg.sender)\n    {\n        name = _name;\n        symbol = _symbol;\n    }\n}\n",
  "sourcePath": "/home/ggarrido/lightstreams/workspace/lightstreams-js-sdk/contracts/bondingcurve/ArtistToken.sol",
  "compiler": {
    "name": "solc",
    "version": "0.5.8+commit.23d335f2.Emscripten.clang"
  },
  "schemaVersion": "3.0.15",
  "updatedAt": "2019-11-27T18:50:06.660Z",
  "devdoc": {
    "methods": {
      "allowance(address,address)": {
        "details": "Function to check the amount of tokens that an owner allowed to a spender.",
        "params": {
          "owner": "address The address which owns the funds.",
          "spender": "address The address which will spend the funds."
        },
        "return": "A uint256 specifying the amount of tokens still available for the spender."
      },
      "balanceOf(address)": {
        "details": "Gets the balance of the specified address.",
        "params": {
          "owner": "The address to query the balance of."
        },
        "return": "An uint256 representing the amount owned by the passed address."
      },
      "calculatePurchaseReturn(uint256,uint256,uint32,uint256)": {
        "details": "given a token supply, connector balance, weight and a deposit amount (in the connector token), calculates the return for a given conversion (in the main token)  * Formula: Return = _supply * ((1 + _depositAmount / _connectorBalance) ^ (_connectorWeight / 1000000) - 1)",
        "params": {
          "_connectorBalance": "total connector balance",
          "_connectorWeight": "connector weight, represented in ppm, 1-1000000",
          "_depositAmount": "deposit amount, in connector token",
          "_supply": "token total supply"
        },
        "return": "purchase return amount"
      },
      "calculateSaleReturn(uint256,uint256,uint32,uint256)": {
        "details": "given a token supply, connector balance, weight and a sell amount (in the main token), calculates the return for a given conversion (in the connector token)  * Formula: Return = _connectorBalance * (1 - (1 - _sellAmount / _supply) ^ (1 / (_connectorWeight / 1000000)))",
        "params": {
          "_connectorBalance": "total connector",
          "_connectorWeight": "constant connector Weight, represented in ppm, 1-1000000",
          "_sellAmount": "sell amount, in the token itself",
          "_supply": "token total supply"
        },
        "return": "sale return amount"
      },
      "decreaseAllowance(address,uint256)": {
        "details": "Decrease the amount of tokens that an owner allowed to a spender. approve should be called when allowed_[_spender] == 0. To decrement allowed value is better to use this function to avoid 2 calls (and wait until the first transaction is mined) From MonolithDAO Token.sol Emits an Approval event.",
        "params": {
          "spender": "The address which will spend the funds.",
          "subtractedValue": "The amount of tokens to decrease the allowance by."
        }
      },
      "increaseAllowance(address,uint256)": {
        "details": "Increase the amount of tokens that an owner allowed to a spender. approve should be called when allowed_[_spender] == 0. To increment allowed value is better to use this function to avoid 2 calls (and wait until the first transaction is mined) From MonolithDAO Token.sol Emits an Approval event.",
        "params": {
          "addedValue": "The amount of tokens to increase the allowance by.",
          "spender": "The address which will spend the funds."
        }
      },
      "pause()": {
        "details": "Called by a pauser to pause, triggers stopped state."
      },
      "paused()": {
        "details": "Returns true if the contract is paused, and false otherwise."
      },
      "totalSupply()": {
        "details": "Total number of tokens in existence"
      },
      "unpause()": {
        "details": "Called by a pauser to unpause, returns to normal state."
      }
    }
  },
  "userdoc": {
    "methods": {}
  }
}