{
  "contractName": "ArtistToken",
  "abi": [
    {
      "constant": true,
      "inputs": [],
      "name": "name",
      "outputs": [
        {
          "name": "",
          "type": "string"
        }
      ],
      "payable": false,
      "stateMutability": "view",
      "type": "function"
    },
    {
      "constant": false,
      "inputs": [
        {
          "name": "spender",
          "type": "address"
        },
        {
          "name": "value",
          "type": "uint256"
        }
      ],
      "name": "approve",
      "outputs": [
        {
          "name": "",
          "type": "bool"
        }
      ],
      "payable": false,
      "stateMutability": "nonpayable",
      "type": "function"
    },
    {
      "constant": true,
      "inputs": [],
      "name": "reserveRatio",
      "outputs": [
        {
          "name": "",
          "type": "uint32"
        }
      ],
      "payable": false,
      "stateMutability": "view",
      "type": "function"
    },
    {
      "constant": true,
      "inputs": [],
      "name": "totalSupply",
      "outputs": [
        {
          "name": "",
          "type": "uint256"
        }
      ],
      "payable": false,
      "stateMutability": "view",
      "type": "function"
    },
    {
      "constant": false,
      "inputs": [
        {
          "name": "from",
          "type": "address"
        },
        {
          "name": "to",
          "type": "address"
        },
        {
          "name": "value",
          "type": "uint256"
        }
      ],
      "name": "transferFrom",
      "outputs": [
        {
          "name": "",
          "type": "bool"
        }
      ],
      "payable": false,
      "stateMutability": "nonpayable",
      "type": "function"
    },
    {
      "constant": true,
      "inputs": [],
      "name": "p0",
      "outputs": [
        {
          "name": "",
          "type": "uint256"
        }
      ],
      "payable": false,
      "stateMutability": "view",
      "type": "function"
    },
    {
      "constant": true,
      "inputs": [
        {
          "name": "_supply",
          "type": "uint256"
        },
        {
          "name": "_connectorBalance",
          "type": "uint256"
        },
        {
          "name": "_connectorWeight",
          "type": "uint32"
        },
        {
          "name": "_depositAmount",
          "type": "uint256"
        }
      ],
      "name": "calculatePurchaseReturn",
      "outputs": [
        {
          "name": "",
          "type": "uint256"
        }
      ],
      "payable": false,
      "stateMutability": "view",
      "type": "function"
    },
    {
      "constant": true,
      "inputs": [],
      "name": "theta",
      "outputs": [
        {
          "name": "",
          "type": "uint256"
        }
      ],
      "payable": false,
      "stateMutability": "view",
      "type": "function"
    },
    {
      "constant": false,
      "inputs": [
        {
          "name": "spender",
          "type": "address"
        },
        {
          "name": "addedValue",
          "type": "uint256"
        }
      ],
      "name": "increaseAllowance",
      "outputs": [
        {
          "name": "",
          "type": "bool"
        }
      ],
      "payable": false,
      "stateMutability": "nonpayable",
      "type": "function"
    },
    {
      "constant": false,
      "inputs": [],
      "name": "unpause",
      "outputs": [],
      "payable": false,
      "stateMutability": "nonpayable",
      "type": "function"
    },
    {
      "constant": true,
      "inputs": [],
      "name": "hatchVestingDurationSeconds",
      "outputs": [
        {
          "name": "",
          "type": "uint256"
        }
      ],
      "payable": false,
      "stateMutability": "view",
      "type": "function"
    },
    {
      "constant": false,
      "inputs": [
        {
          "name": "_amount",
          "type": "uint256"
        }
      ],
      "name": "burn",
      "outputs": [
        {
          "name": "",
          "type": "uint256"
        }
      ],
      "payable": false,
      "stateMutability": "nonpayable",
      "type": "function"
    },
    {
      "constant": true,
      "inputs": [],
      "name": "feeRecipient",
      "outputs": [
        {
          "name": "",
          "type": "address"
        }
      ],
      "payable": false,
      "stateMutability": "view",
      "type": "function"
    },
    {
      "constant": true,
      "inputs": [
        {
          "name": "account",
          "type": "address"
        }
      ],
      "name": "isPauser",
      "outputs": [
        {
          "name": "",
          "type": "bool"
        }
      ],
      "payable": false,
      "stateMutability": "view",
      "type": "function"
    },
    {
      "constant": false,
      "inputs": [],
      "name": "claimTokens",
      "outputs": [
        {
          "name": "",
          "type": "uint256"
        }
      ],
      "payable": false,
      "stateMutability": "nonpayable",
      "type": "function"
    },
    {
      "constant": true,
      "inputs": [
        {
          "name": "_supply",
          "type": "uint256"
        },
        {
          "name": "_connectorBalance",
          "type": "uint256"
        },
        {
          "name": "_connectorWeight",
          "type": "uint32"
        },
        {
          "name": "_sellAmount",
          "type": "uint256"
        }
      ],
      "name": "calculateSaleReturn",
      "outputs": [
        {
          "name": "",
          "type": "uint256"
        }
      ],
      "payable": false,
      "stateMutability": "view",
      "type": "function"
    },
    {
      "constant": true,
      "inputs": [],
      "name": "raisedExternal",
      "outputs": [
        {
          "name": "",
          "type": "uint256"
        }
      ],
      "payable": false,
      "stateMutability": "view",
      "type": "function"
    },
    {
      "constant": true,
      "inputs": [],
      "name": "version",
      "outputs": [
        {
          "name": "",
          "type": "string"
        }
      ],
      "payable": false,
      "stateMutability": "view",
      "type": "function"
    },
    {
      "constant": false,
      "inputs": [],
      "name": "refund",
      "outputs": [
        {
          "name": "",
          "type": "uint256"
        }
      ],
      "payable": false,
      "stateMutability": "nonpayable",
      "type": "function"
    },
    {
      "constant": true,
      "inputs": [],
      "name": "paused",
      "outputs": [
        {
          "name": "",
          "type": "bool"
        }
      ],
      "payable": false,
      "stateMutability": "view",
      "type": "function"
    },
    {
      "constant": true,
      "inputs": [
        {
          "name": "amount",
          "type": "uint256"
        }
      ],
      "name": "calculateCurvedBurnReturn",
      "outputs": [
        {
          "name": "",
          "type": "uint256"
        }
      ],
      "payable": false,
      "stateMutability": "view",
      "type": "function"
    },
    {
      "constant": false,
      "inputs": [],
      "name": "renouncePauser",
      "outputs": [],
      "payable": false,
      "stateMutability": "nonpayable",
      "type": "function"
    },
    {
      "constant": true,
      "inputs": [
        {
          "name": "owner",
          "type": "address"
        }
      ],
      "name": "balanceOf",
      "outputs": [
        {
          "name": "",
          "type": "uint256"
        }
      ],
      "payable": false,
      "stateMutability": "view",
      "type": "function"
    },
    {
      "constant": true,
      "inputs": [],
      "name": "minExternalContribution",
      "outputs": [
        {
          "name": "",
          "type": "uint256"
        }
      ],
      "payable": false,
      "stateMutability": "view",
      "type": "function"
    },
    {
      "constant": false,
      "inputs": [
        {
          "name": "account",
          "type": "address"
        }
      ],
      "name": "addPauser",
      "outputs": [],
      "payable": false,
      "stateMutability": "nonpayable",
      "type": "function"
    },
    {
      "constant": false,
      "inputs": [],
      "name": "pause",
      "outputs": [],
      "payable": false,
      "stateMutability": "nonpayable",
      "type": "function"
    },
    {
      "constant": true,
      "inputs": [],
      "name": "getOwner",
      "outputs": [
        {
          "name": "",
          "type": "address"
        }
      ],
      "payable": false,
      "stateMutability": "view",
      "type": "function"
    },
    {
      "constant": true,
      "inputs": [],
      "name": "hatchVestingDeadline",
      "outputs": [
        {
          "name": "",
          "type": "uint256"
        }
      ],
      "payable": false,
      "stateMutability": "view",
      "type": "function"
    },
    {
      "constant": true,
      "inputs": [],
      "name": "owner",
      "outputs": [
        {
          "name": "",
          "type": "address"
        }
      ],
      "payable": false,
      "stateMutability": "view",
      "type": "function"
    },
    {
      "constant": true,
      "inputs": [],
      "name": "isOwner",
      "outputs": [
        {
          "name": "",
          "type": "bool"
        }
      ],
      "payable": false,
      "stateMutability": "view",
      "type": "function"
    },
    {
      "constant": true,
      "inputs": [],
      "name": "symbol",
      "outputs": [
        {
          "name": "",
          "type": "string"
        }
      ],
      "payable": false,
      "stateMutability": "view",
      "type": "function"
    },
    {
      "constant": true,
      "inputs": [],
      "name": "poolBalance",
      "outputs": [
        {
          "name": "",
          "type": "uint256"
        }
      ],
      "payable": false,
      "stateMutability": "view",
      "type": "function"
    },
    {
      "constant": true,
      "inputs": [
        {
          "name": "amount",
          "type": "uint256"
        }
      ],
      "name": "calculateCurvedMintReturn",
      "outputs": [
        {
          "name": "",
          "type": "uint256"
        }
      ],
      "payable": false,
      "stateMutability": "view",
      "type": "function"
    },
    {
      "constant": true,
      "inputs": [],
      "name": "friction",
      "outputs": [
        {
          "name": "",
          "type": "uint256"
        }
      ],
      "payable": false,
      "stateMutability": "view",
      "type": "function"
    },
    {
      "constant": false,
      "inputs": [
        {
          "name": "_amount",
          "type": "uint256"
        }
      ],
      "name": "mint",
      "outputs": [
        {
          "name": "",
          "type": "uint256"
        }
      ],
      "payable": false,
      "stateMutability": "nonpayable",
      "type": "function"
    },
    {
      "constant": true,
      "inputs": [],
      "name": "hatchDeadline",
      "outputs": [
        {
          "name": "",
          "type": "uint256"
        }
      ],
      "payable": false,
      "stateMutability": "view",
      "type": "function"
    },
    {
      "constant": false,
      "inputs": [
        {
          "name": "spender",
          "type": "address"
        },
        {
          "name": "subtractedValue",
          "type": "uint256"
        }
      ],
      "name": "decreaseAllowance",
      "outputs": [
        {
          "name": "",
          "type": "bool"
        }
      ],
      "payable": false,
      "stateMutability": "nonpayable",
      "type": "function"
    },
    {
      "constant": true,
      "inputs": [
        {
          "name": "",
          "type": "address"
        }
      ],
      "name": "initialContributions",
      "outputs": [
        {
          "name": "paidExternal",
          "type": "uint256"
        },
        {
          "name": "lockedInternal",
          "type": "uint256"
        }
      ],
      "payable": false,
      "stateMutability": "view",
      "type": "function"
    },
    {
      "constant": false,
      "inputs": [
        {
          "name": "to",
          "type": "address"
        },
        {
          "name": "value",
          "type": "uint256"
        }
      ],
      "name": "transfer",
      "outputs": [
        {
          "name": "",
          "type": "bool"
        }
      ],
      "payable": false,
      "stateMutability": "nonpayable",
      "type": "function"
    },
    {
      "constant": false,
      "inputs": [
        {
          "name": "_value",
          "type": "uint256"
        }
      ],
      "name": "hatchContribute",
      "outputs": [
        {
          "name": "",
          "type": "uint256"
        }
      ],
      "payable": false,
      "stateMutability": "nonpayable",
      "type": "function"
    },
    {
      "constant": true,
      "inputs": [],
      "name": "externalToken",
      "outputs": [
        {
          "name": "",
          "type": "address"
        }
      ],
      "payable": false,
      "stateMutability": "view",
      "type": "function"
    },
    {
      "constant": true,
      "inputs": [
        {
          "name": "owner",
          "type": "address"
        },
        {
          "name": "spender",
          "type": "address"
        }
      ],
      "name": "allowance",
      "outputs": [
        {
          "name": "",
          "type": "uint256"
        }
      ],
      "payable": false,
      "stateMutability": "view",
      "type": "function"
    },
    {
      "constant": true,
      "inputs": [],
      "name": "isHatched",
      "outputs": [
        {
          "name": "",
          "type": "bool"
        }
      ],
      "payable": false,
      "stateMutability": "view",
      "type": "function"
    },
    {
      "constant": true,
      "inputs": [],
      "name": "initialRaise",
      "outputs": [
        {
          "name": "",
          "type": "uint256"
        }
      ],
      "payable": false,
      "stateMutability": "view",
      "type": "function"
    },
    {
      "constant": false,
      "inputs": [
        {
          "name": "_externalAllocated",
          "type": "uint256"
        }
      ],
      "name": "fundsAllocated",
      "outputs": [],
      "payable": false,
      "stateMutability": "nonpayable",
      "type": "function"
    },
    {
      "constant": false,
      "inputs": [
        {
          "name": "_newOwner",
          "type": "address"
        }
      ],
      "name": "transferOwnership",
      "outputs": [],
      "payable": false,
      "stateMutability": "nonpayable",
      "type": "function"
    },
    {
      "constant": true,
      "inputs": [],
      "name": "fundingPool",
      "outputs": [
        {
          "name": "",
          "type": "address"
        }
      ],
      "payable": false,
      "stateMutability": "view",
      "type": "function"
    },
    {
      "constant": true,
      "inputs": [],
      "name": "gasPrice",
      "outputs": [
        {
          "name": "",
          "type": "uint256"
        }
      ],
      "payable": false,
      "stateMutability": "view",
      "type": "function"
    },
    {
      "inputs": [
        {
          "name": "_name",
          "type": "string"
        },
        {
          "name": "_symbol",
          "type": "string"
        },
        {
          "name": "_addresses",
          "type": "address[4]"
        },
        {
          "name": "_settings",
          "type": "uint256[8]"
        },
        {
          "name": "_reserveRatio",
          "type": "uint32"
        }
      ],
      "payable": false,
      "stateMutability": "nonpayable",
      "type": "constructor"
    },
    {
      "anonymous": false,
      "inputs": [
        {
          "indexed": false,
          "name": "account",
          "type": "address"
        }
      ],
      "name": "Paused",
      "type": "event"
    },
    {
      "anonymous": false,
      "inputs": [
        {
          "indexed": false,
          "name": "account",
          "type": "address"
        }
      ],
      "name": "Unpaused",
      "type": "event"
    },
    {
      "anonymous": false,
      "inputs": [
        {
          "indexed": true,
          "name": "account",
          "type": "address"
        }
      ],
      "name": "PauserAdded",
      "type": "event"
    },
    {
      "anonymous": false,
      "inputs": [
        {
          "indexed": true,
          "name": "account",
          "type": "address"
        }
      ],
      "name": "PauserRemoved",
      "type": "event"
    },
    {
      "anonymous": false,
      "inputs": [
        {
          "indexed": false,
          "name": "sender",
          "type": "address"
        },
        {
          "indexed": false,
          "name": "amount",
          "type": "uint256"
        },
        {
          "indexed": false,
          "name": "deposit",
          "type": "uint256"
        }
      ],
      "name": "CurvedMint",
      "type": "event"
    },
    {
      "anonymous": false,
      "inputs": [
        {
          "indexed": false,
          "name": "sender",
          "type": "address"
        },
        {
          "indexed": false,
          "name": "amount",
          "type": "uint256"
        },
        {
          "indexed": false,
          "name": "reimbursement",
          "type": "uint256"
        }
      ],
      "name": "CurvedBurn",
      "type": "event"
    },
    {
      "anonymous": false,
      "inputs": [
        {
          "indexed": true,
          "name": "from",
          "type": "address"
        },
        {
          "indexed": true,
          "name": "to",
          "type": "address"
        },
        {
          "indexed": false,
          "name": "value",
          "type": "uint256"
        }
      ],
      "name": "Transfer",
      "type": "event"
    },
    {
      "anonymous": false,
      "inputs": [
        {
          "indexed": true,
          "name": "owner",
          "type": "address"
        },
        {
          "indexed": true,
          "name": "spender",
          "type": "address"
        },
        {
          "indexed": false,
          "name": "value",
          "type": "uint256"
        }
      ],
      "name": "Approval",
      "type": "event"
    }
  ],
  "bytecode": "0x60806040526040518060400160405280600381526020017f302e3300000000000000000000000000000000000000000000000000000000008152506035908051906020019062000051929190620018a5565b506040518060400160405280600381526020017f302e33000000000000000000000000000000000000000000000000000000000081525060b690805190602001906200009f929190620018a5565b50348015620000ad57600080fd5b50604051620072373803806200723783398101806040526101e0811015620000d457600080fd5b810190808051640100000000811115620000ed57600080fd5b828101905060208101848111156200010457600080fd5b81518560018202830111640100000000821117156200012257600080fd5b505092919060200180516401000000008111156200013f57600080fd5b828101905060208101848111156200015657600080fd5b81518560018202830111640100000000821117156200017457600080fd5b505092919060200191908260800191908261010001805190602001909291905050503383838382600360048110620001a857fe5b6020020151808284600060088110620001bd57fe5b6020020151701c35fedd14ffffffffffffffffffffffff6036602060808110620001e357fe5b0181905550701b0ce43b323fffffffffffffffffffffff60366021608081106200020957fe5b01819055507019f0028ec1ffffffffffffffffffffffff60366022608081106200022f57fe5b01819055507018ded91f0e7fffffffffffffffffffffff60366023608081106200025557fe5b01819055507017d8ec7f0417ffffffffffffffffffffff60366024608081106200027b57fe5b01819055507016ddc6556cdbffffffffffffffffffffff6036602560808110620002a157fe5b01819055507015ecf52776a1ffffffffffffffffffffff6036602660808110620002c757fe5b01819055507015060c256cb2ffffffffffffffffffffff6036602760808110620002ed57fe5b0181905550701428a2f98d72ffffffffffffffffffffff60366028608081106200031357fe5b01819055507013545598e5c23fffffffffffffffffffff60366029608081106200033957fe5b0181905550701288c4161ce1dfffffffffffffffffffff6036602a608081106200035f57fe5b01819055507011c592761c666fffffffffffffffffffff6036602b608081106200038557fe5b018190555070110a688680a757ffffffffffffffffffff6036602c60808110620003ab57fe5b0181905550701056f1b5bedf77ffffffffffffffffffff6036602d60808110620003d157fe5b0181905550700faadceceeff8bffffffffffffffffffff6036602e60808110620003f757fe5b0181905550700f05dc6b27edadffffffffffffffffffff6036602f608081106200041d57fe5b0181905550700e67a5a25da4107fffffffffffffffffff60366030608081106200044357fe5b0181905550700dcff115b14eedffffffffffffffffffff60366031608081106200046957fe5b0181905550700d3e7a392431239fffffffffffffffffff60366032608081106200048f57fe5b0181905550700cb2ff529eb71e4fffffffffffffffffff6036603360808110620004b557fe5b0181905550700c2d415c3db974afffffffffffffffffff6036603460808110620004db57fe5b0181905550700bad03e7d883f69bffffffffffffffffff60366035608081106200050157fe5b0181905550700b320d03b2c343d5ffffffffffffffffff603680608081106200052657fe5b0181905550700abc25204e02828dffffffffffffffffff60366037608081106200054c57fe5b0181905550700a4b16f74ee4bb207fffffffffffffffff60366038608081106200057257fe5b01819055507009deaf736ac1f569ffffffffffffffffff60366039608081106200059857fe5b0181905550700976bd9952c7aa957fffffffffffffffff6036603a60808110620005be57fe5b01819055507009131271922eaa606fffffffffffffffff6036603b60808110620005e457fe5b01819055507008b380f3558668c46fffffffffffffffff6036603c608081106200060a57fe5b0181905550700857ddf0117efa215bffffffffffffffff6036603d608081106200063057fe5b01819055507007ffffffffffffffffffffffffffffffff6036603e608081106200065657fe5b01819055507007abbf6f6abb9d087fffffffffffffffff6036603f608081106200067c57fe5b018190555070075af62cbac95f7dfa7fffffffffffffff6036604060808110620006a257fe5b018190555070070d7fb7452e187ac13fffffffffffffff6036604160808110620006c857fe5b01819055507006c3390ecc8af379295fffffffffffffff6036604260808110620006ee57fe5b018190555070067c00a3b07ffc01fd6fffffffffffffff60366043608081106200071457fe5b0181905550700637b647c39cbb9d3d27ffffffffffffff60366044608081106200073a57fe5b01819055507005f63b1fc104dbd39587ffffffffffffff60366045608081106200076057fe5b01819055507005b771955b36e12f7235ffffffffffffff60366046608081106200078657fe5b018190555070057b3d49dda84556d6f6ffffffffffffff6036604760808110620007ac57fe5b018190555070054183095b2c8ececf30ffffffffffffff6036604860808110620007d257fe5b018190555070050a28be635ca2b888f77fffffffffffff6036604960808110620007f857fe5b01819055507004d5156639708c9db33c3fffffffffffff6036604a608081106200081e57fe5b01819055507004a23105873875bd52dfdfffffffffffff6036604b608081106200084457fe5b0181905550700471649d87199aa990756fffffffffffff6036604c608081106200086a57fe5b01819055507004429a21a029d4c1457cfbffffffffffff6036604d608081106200089057fe5b0181905550700415bc6d6fb7dd71af2cb3ffffffffffff6036604e60808110620008b657fe5b01819055507003eab73b3bbfe282243ce1ffffffffffff6036604f60808110620008dc57fe5b01819055507003c1771ac9fb6b4c18e229ffffffffffff60366050608081106200090257fe5b0181905550700399e96897690418f785257fffffffffff60366051608081106200092857fe5b0181905550700373fc456c53bb779bf0ea9fffffffffff60366052608081106200094e57fe5b018190555070034f9e8e490c48e67e6ab8bfffffffffff60366053608081106200097457fe5b018190555070032cbfd4a7adc790560b3337ffffffffff60366054608081106200099a57fe5b018190555070030b50570f6e5d2acca94613ffffffffff6036605560808110620009c057fe5b01819055507002eb40f9f620fda6b56c2861ffffffffff6036605660808110620009e657fe5b01819055507002cc8340ecb0d0f520a6af58ffffffffff603660576080811062000a0c57fe5b01819055507002af09481380a0a35cf1ba02ffffffffff603660586080811062000a3257fe5b0181905550700292c5bdd3b92ec810287b1b3fffffffff603660596080811062000a5857fe5b0181905550700277abdcdab07d5a77ac6d6b9fffffffff6036605a6080811062000a7e57fe5b018190555070025daf6654b1eaa55fd64df5efffffffff6036605b6080811062000aa457fe5b0181905550700244c49c648baa98192dce88b7ffffffff6036605c6080811062000aca57fe5b018190555070022ce03cd5619a311b2471268bffffffff6036605d6080811062000af057fe5b0181905550700215f77c045fbe885654a44a0fffffffff6036605e6080811062000b1657fe5b01819055507001ffffffffffffffffffffffffffffffff6036605f6080811062000b3c57fe5b01819055507001eaefdbdaaee7421fc4d3ede5ffffffff603660606080811062000b6257fe5b01819055507001d6bd8b2eb257df7e8ca57b09bfffffff603660616080811062000b8857fe5b01819055507001c35fedd14b861eb0443f7f133fffffff603660626080811062000bae57fe5b01819055507001b0ce43b322bcde4a56e8ada5afffffff603660636080811062000bd457fe5b018190555070019f0028ec1fff007f5a195a39dfffffff603660646080811062000bfa57fe5b018190555070018ded91f0e72ee74f49b15ba527ffffff603660656080811062000c2057fe5b018190555070017d8ec7f04136f4e5615fd41a63ffffff603660666080811062000c4657fe5b018190555070016ddc6556cdb84bdc8d12d22e6fffffff603660676080811062000c6c57fe5b018190555070015ecf52776a1155b5bd8395814f7fffff603660686080811062000c9257fe5b018190555070015060c256cb23b3b3cc3754cf40ffffff603660696080811062000cb857fe5b01819055507001428a2f98d728ae223ddab715be3fffff6036606a6080811062000cde57fe5b018190555070013545598e5c23276ccf0ede68034fffff6036606b6080811062000d0457fe5b01819055507001288c4161ce1d6f54b7f61081194fffff6036606c6080811062000d2a57fe5b018190555070011c592761c666aa641d5a01a40f17ffff6036606d6080811062000d5057fe5b0181905550700110a688680a7530515f3e6e6cfdcdffff6036606e6080811062000d7657fe5b01819055507001056f1b5bedf75c6bcb2ce8aed428ffff6036606f6080811062000d9c57fe5b01819055506ffaadceceeff8a0890f3875f008277fff603660706080811062000dc157fe5b01819055506ff05dc6b27edad306388a600f6ba0bfff603660716080811062000de657fe5b01819055506fe67a5a25da41063de1495d5b18cdbfff603660726080811062000e0b57fe5b01819055506fdcff115b14eedde6fc3aa5353f2e4fff603660736080811062000e3057fe5b01819055506fd3e7a3924312399f9aae2e0f868f8fff603660746080811062000e5557fe5b01819055506fcb2ff529eb71e41582cccd5a1ee26fff603660756080811062000e7a57fe5b01819055506fc2d415c3db974ab32a51840c0b67edff603660766080811062000e9f57fe5b01819055506fbad03e7d883f69ad5b0a186184e06bff603660776080811062000ec457fe5b01819055506fb320d03b2c343d4829abd6075f0cc5ff603660786080811062000ee957fe5b01819055506fabc25204e02828d73c6e80bcdb1a95bf603660796080811062000f0e57fe5b01819055506fa4b16f74ee4bb2040a1ec6c15fbbf2df6036607a6080811062000f3357fe5b01819055506f9deaf736ac1f569deb1b5ae3f36c130f6036607b6080811062000f5857fe5b01819055506f976bd9952c7aa957f5937d790ef650376036607c6080811062000f7d57fe5b01819055506f9131271922eaa6064b73a22d0bd4f2bf6036607d6080811062000fa257fe5b01819055506f8b380f3558668c46c91c49a2f8e967b96036607e6080811062000fc757fe5b01819055506f857ddf0117efa215952912839f6473e66036607f6080811062000fec57fe5b01819055508160b760006101000a81548163ffffffff021916908363ffffffff1602179055508060b88190555050506200102c81620016fb60201b60201c565b50600060ba60006101000a81548160ff02191690831515021790555050826000600481106200105757fe5b6020020151600073ffffffffffffffffffffffffffffffffffffffff168173ffffffffffffffffffffffffffffffffffffffff16141562001100576040517f08c379a00000000000000000000000000000000000000000000000000000000081526004018080602001828103825260188152602001807f41646472657373206d757374206e6f74206265207a65726f000000000000000081525060200191505060405180910390fd5b836001600481106200110e57fe5b6020020151600073ffffffffffffffffffffffffffffffffffffffff168173ffffffffffffffffffffffffffffffffffffffff161415620011b7576040517f08c379a00000000000000000000000000000000000000000000000000000000081526004018080602001828103825260188152602001807f41646472657373206d757374206e6f74206265207a65726f000000000000000081525060200191505060405180910390fd5b84600260048110620011c557fe5b6020020151600073ffffffffffffffffffffffffffffffffffffffff168173ffffffffffffffffffffffffffffffffffffffff1614156200126e576040517f08c379a00000000000000000000000000000000000000000000000000000000081526004018080602001828103825260188152602001807f41646472657373206d757374206e6f74206265207a65726f000000000000000081525060200191505060405180910390fd5b856003600481106200127c57fe5b6020020151600073ffffffffffffffffffffffffffffffffffffffff168173ffffffffffffffffffffffffffffffffffffffff16141562001325576040517f08c379a00000000000000000000000000000000000000000000000000000000081526004018080602001828103825260188152602001807f41646472657373206d757374206e6f74206265207a65726f000000000000000081525060200191505060405180910390fd5b8463ffffffff16620f4240811115620013a6576040517f08c379a00000000000000000000000000000000000000000000000000000000081526004018080602001828103825260148152602001807f56616c7565206d75737420626520696e2050504d00000000000000000000000081525060200191505060405180910390fd5b86600160088110620013b457fe5b6020020151620f424081111562001433576040517f08c379a00000000000000000000000000000000000000000000000000000000081526004018080602001828103825260148152602001807f56616c7565206d75737420626520696e2050504d00000000000000000000000081525060200191505060405180910390fd5b876004600881106200144157fe5b6020020151620f4240811115620014c0576040517f08c379a00000000000000000000000000000000000000000000000000000000081526004018080602001828103825260148152602001807f56616c7565206d75737420626520696e2050504d00000000000000000000000081525060200191505060405180910390fd5b88600160088110620014ce57fe5b602002015160bd8190555088600260088110620014e757fe5b602002015160be81905550886003600881106200150057fe5b602002015160bf81905550896001600481106200151957fe5b602002015160bb60006101000a81548173ffffffffffffffffffffffffffffffffffffffff021916908373ffffffffffffffffffffffffffffffffffffffff160217905550896002600481106200156c57fe5b602002015160bc60006101000a81548173ffffffffffffffffffffffffffffffffffffffff021916908373ffffffffffffffffffffffffffffffffffffffff16021790555088600460088110620015bf57fe5b602002015160c08190555088600560088110620015d857fe5b6020020151420160c581905550600060c68190555088600660088110620015fb57fe5b602002015160c781905550886007600881106200161457fe5b602002015160c181905550896000600481106200162d57fe5b602002015160ba60016101000a81548173ffffffffffffffffffffffffffffffffffffffff021916908373ffffffffffffffffffffffffffffffffffffffff160217905550505050505050505050508060c960006101000a81548173ffffffffffffffffffffffffffffffffffffffff021916908373ffffffffffffffffffffffffffffffffffffffff160217905550508460ca9080519060200190620016d6929190620018a5565b508360cb9080519060200190620016ef929190620018a5565b50505050505062001954565b620017168160b96200175c60201b620052191790919060201c565b8073ffffffffffffffffffffffffffffffffffffffff167f6719d08c1888103bea251a4ed56406bd0c3e69723c8a1686e017e7bbe159b6f860405160405180910390a250565b600073ffffffffffffffffffffffffffffffffffffffff168173ffffffffffffffffffffffffffffffffffffffff1614156200179757600080fd5b620017a982826200181260201b60201c565b15620017b457600080fd5b60018260000160008373ffffffffffffffffffffffffffffffffffffffff1673ffffffffffffffffffffffffffffffffffffffff16815260200190815260200160002060006101000a81548160ff0219169083151502179055505050565b60008073ffffffffffffffffffffffffffffffffffffffff168273ffffffffffffffffffffffffffffffffffffffff1614156200184e57600080fd5b8260000160008373ffffffffffffffffffffffffffffffffffffffff1673ffffffffffffffffffffffffffffffffffffffff16815260200190815260200160002060009054906101000a900460ff16905092915050565b828054600181600116156101000203166002900490600052602060002090601f016020900481019282601f10620018e857805160ff191683800117855562001919565b8280016001018555821562001919579182015b8281111562001918578251825591602001919060010190620018fb565b5b5090506200192891906200192c565b5090565b6200195191905b808211156200194d57600081600090555060010162001933565b5090565b90565b6158d380620019646000396000f3fe608060405234801561001057600080fd5b50600436106102a05760003560e01c806382dc1ec411610167578063a457c2d7116100ce578063df39e6e111610087578063df39e6e114610d4d578063dff0c89814610d6f578063ec8585ab14610d8d578063f2fde38b14610dbb578063f6a1fe9414610dff578063fe173b9714610e49576102a0565b8063a457c2d714610b1e578063a544e52114610b84578063a9059cbb14610be3578063c576a45b14610c49578063c9828ae014610c8b578063dd62ed3e14610cd5576102a0565b806395d89b411161012057806395d89b41146109bd57806396365d4414610a405780639a4f318b14610a5e5780639bae668714610aa0578063a0712d6814610abe578063a0b78dbe14610b00576102a0565b806382dc1ec41461089b5780638456cb59146108df578063893d20e8146108e95780638a835a35146109335780638da5cb5b146109515780638f32d59b1461099b576102a0565b8063469048401161020b578063590e1ae3116101c4578063590e1ae3146107995780635c975abb146107b75780636d6f1e01146107d95780636ef8d66d1461081b57806370a082311461082557806371645ca01461087d576102a0565b806346904840146105ce57806346fbf68e1461061857806348c54b9d1461067457806349f9b0f7146106925780635377d9d5146106f857806354fd4d5014610716576102a0565b806329a00e7c1161025d57806329a00e7c1461047a578063309bbc6d146104e057806339509351146104fe5780633f4ba83a1461056457806342461bac1461056e57806342966c681461058c576102a0565b806306fdde03146102a5578063095ea7b3146103285780630c7d5cd81461038e57806318160ddd146103b857806323b872dd146103d6578063264e49db1461045c575b600080fd5b6102ad610e67565b6040518080602001828103825283818151815260200191508051906020019080838360005b838110156102ed5780820151818401526020810190506102d2565b50505050905090810190601f16801561031a5780820380516001836020036101000a031916815260200191505b509250505060405180910390f35b6103746004803603604081101561033e57600080fd5b81019080803573ffffffffffffffffffffffffffffffffffffffff16906020019092919080359060200190929190505050610f05565b604051808215151515815260200191505060405180910390f35b610396610f9c565b604051808263ffffffff1663ffffffff16815260200191505060405180910390f35b6103c0610fb2565b6040518082815260200191505060405180910390f35b610442600480360360608110156103ec57600080fd5b81019080803573ffffffffffffffffffffffffffffffffffffffff169060200190929190803573ffffffffffffffffffffffffffffffffffffffff16906020019092919080359060200190929190505050610fbc565b604051808215151515815260200191505060405180910390f35b610464611055565b6040518082815260200191505060405180910390f35b6104ca6004803603608081101561049057600080fd5b810190808035906020019092919080359060200190929190803563ffffffff1690602001909291908035906020019092919050505061105b565b6040518082815260200191505060405180910390f35b6104e86112a7565b6040518082815260200191505060405180910390f35b61054a6004803603604081101561051457600080fd5b81019080803573ffffffffffffffffffffffffffffffffffffffff169060200190929190803590602001909291905050506112ad565b604051808215151515815260200191505060405180910390f35b61056c6114e2565b005b610576611642565b6040518082815260200191505060405180910390f35b6105b8600480360360208110156105a257600080fd5b8101908080359060200190929190505050611648565b6040518082815260200191505060405180910390f35b6105d6611768565b604051808273ffffffffffffffffffffffffffffffffffffffff1673ffffffffffffffffffffffffffffffffffffffff16815260200191505060405180910390f35b61065a6004803603602081101561062e57600080fd5b81019080803573ffffffffffffffffffffffffffffffffffffffff16906020019092919050505061178e565b604051808215151515815260200191505060405180910390f35b61067c6117ab565b6040518082815260200191505060405180910390f35b6106e2600480360360808110156106a857600080fd5b810190808035906020019092919080359060200190929190803563ffffffff16906020019092919080359060200190929190505050611b3f565b6040518082815260200191505060405180910390f35b610700611e0c565b6040518082815260200191505060405180910390f35b61071e611e12565b6040518080602001828103825283818151815260200191508051906020019080838360005b8381101561075e578082015181840152602081019050610743565b50505050905090810190601f16801561078b5780820380516001836020036101000a031916815260200191505b509250505060405180910390f35b6107a1611eb0565b6040518082815260200191505060405180910390f35b6107bf6121ee565b604051808215151515815260200191505060405180910390f35b610805600480360360208110156107ef57600080fd5b8101908080359060200190929190505050612205565b6040518082815260200191505060405180910390f35b61082361223a565b005b6108676004803603602081101561083b57600080fd5b81019080803573ffffffffffffffffffffffffffffffffffffffff169060200190929190505050612245565b6040518082815260200191505060405180910390f35b61088561228d565b6040518082815260200191505060405180910390f35b6108dd600480360360208110156108b157600080fd5b81019080803573ffffffffffffffffffffffffffffffffffffffff169060200190929190505050612293565b005b6108e76122fd565b005b6108f161245e565b604051808273ffffffffffffffffffffffffffffffffffffffff1673ffffffffffffffffffffffffffffffffffffffff16815260200191505060405180910390f35b61093b612488565b6040518082815260200191505060405180910390f35b61095961248e565b604051808273ffffffffffffffffffffffffffffffffffffffff1673ffffffffffffffffffffffffffffffffffffffff16815260200191505060405180910390f35b6109a36124b4565b604051808215151515815260200191505060405180910390f35b6109c561250c565b6040518080602001828103825283818151815260200191508051906020019080838360005b83811015610a055780820151818401526020810190506109ea565b50505050905090810190601f168015610a325780820380516001836020036101000a031916815260200191505b509250505060405180910390f35b610a486125aa565b6040518082815260200191505060405180910390f35b610a8a60048036036020811015610a7457600080fd5b810190808035906020019092919050505061268b565b6040518082815260200191505060405180910390f35b610aa86126c0565b6040518082815260200191505060405180910390f35b610aea60048036036020811015610ad457600080fd5b81019080803590602001909291905050506126c6565b6040518082815260200191505060405180910390f35b610b086127e6565b6040518082815260200191505060405180910390f35b610b6a60048036036040811015610b3457600080fd5b81019080803573ffffffffffffffffffffffffffffffffffffffff169060200190929190803590602001909291905050506127ec565b604051808215151515815260200191505060405180910390f35b610bc660048036036020811015610b9a57600080fd5b81019080803573ffffffffffffffffffffffffffffffffffffffff169060200190929190505050612a21565b604051808381526020018281526020019250505060405180910390f35b610c2f60048036036040811015610bf957600080fd5b81019080803573ffffffffffffffffffffffffffffffffffffffff16906020019092919080359060200190929190505050612a45565b604051808215151515815260200191505060405180910390f35b610c7560048036036020811015610c5f57600080fd5b8101908080359060200190929190505050612adc565b6040518082815260200191505060405180910390f35b610c93612eb1565b604051808273ffffffffffffffffffffffffffffffffffffffff1673ffffffffffffffffffffffffffffffffffffffff16815260200191505060405180910390f35b610d3760048036036040811015610ceb57600080fd5b81019080803573ffffffffffffffffffffffffffffffffffffffff169060200190929190803573ffffffffffffffffffffffffffffffffffffffff169060200190929190505050612ed7565b6040518082815260200191505060405180910390f35b610d55612f5e565b604051808215151515815260200191505060405180910390f35b610d77612f71565b6040518082815260200191505060405180910390f35b610db960048036036020811015610da357600080fd5b8101908080359060200190929190505050612f77565b005b610dfd60048036036020811015610dd157600080fd5b81019080803573ffffffffffffffffffffffffffffffffffffffff169060200190929190505050613166565b005b610e076131f5565b604051808273ffffffffffffffffffffffffffffffffffffffff1673ffffffffffffffffffffffffffffffffffffffff16815260200191505060405180910390f35b610e5161321b565b6040518082815260200191505060405180910390f35b60ca8054600181600116156101000203166002900480601f016020809104026020016040519081016040528092919081815260200182805460018160011615610100020316600290048015610efd5780601f10610ed257610100808354040283529160200191610efd565b820191906000526020600020905b815481529060010190602001808311610ee057829003601f168201915b505050505081565b600060ba60009054906101000a900460ff1615610f8a576040517f08c379a00000000000000000000000000000000000000000000000000000000081526004018080602001828103825260108152602001807f5061757361626c653a207061757365640000000000000000000000000000000081525060200191505060405180910390fd5b610f948383613221565b905092915050565b60b760009054906101000a900463ffffffff1681565b6000600254905090565b600060ba60009054906101000a900460ff1615611041576040517f08c379a00000000000000000000000000000000000000000000000000000000081526004018080602001828103825260108152602001807f5061757361626c653a207061757365640000000000000000000000000000000081525060200191505060405180910390fd5b61104c84848461334c565b90509392505050565b60be5481565b60008085116110d2576040517f08c379a000000000000000000000000000000000000000000000000000000000815260040180806020018281038252601e8152602001807f42616e636f72466f726d756c613a20537570706c79206e6f74203e20302e000081525060200191505060405180910390fd5b6000841161112b576040517f08c379a00000000000000000000000000000000000000000000000000000000081526004018080602001828103825260278152602001806157a56027913960400191505060405180910390fd5b60008363ffffffff161161118a576040517f08c379a00000000000000000000000000000000000000000000000000000000081526004018080602001828103825260278152602001806158066027913960400191505060405180910390fd5b620f424063ffffffff168363ffffffff1611156111f2576040517f08c379a00000000000000000000000000000000000000000000000000000000081526004018080602001828103825260318152602001806158776031913960400191505060405180910390fd5b6000821415611204576000905061129f565b620f424063ffffffff168363ffffffff1614156112475761124084611232848861355490919063ffffffff16565b61358e90919063ffffffff16565b905061129f565b600080600061125f87866135b490919063ffffffff16565b9050611270818888620f42406135d3565b809350819450505060008260ff16611291858b61355490919063ffffffff16565b901c90508881039450505050505b949350505050565b60bd5481565b60008073ffffffffffffffffffffffffffffffffffffffff168373ffffffffffffffffffffffffffffffffffffffff1614156112e857600080fd5b61137782600160003373ffffffffffffffffffffffffffffffffffffffff1673ffffffffffffffffffffffffffffffffffffffff16815260200190815260200160002060008673ffffffffffffffffffffffffffffffffffffffff1673ffffffffffffffffffffffffffffffffffffffff168152602001908152602001600020546135b490919063ffffffff16565b600160003373ffffffffffffffffffffffffffffffffffffffff1673ffffffffffffffffffffffffffffffffffffffff16815260200190815260200160002060008573ffffffffffffffffffffffffffffffffffffffff1673ffffffffffffffffffffffffffffffffffffffff168152602001908152602001600020819055508273ffffffffffffffffffffffffffffffffffffffff163373ffffffffffffffffffffffffffffffffffffffff167f8c5be1e5ebec7d5bd14f71427d1e84f3dd0314c0f7b2291e5b200ac8c7c3b925600160003373ffffffffffffffffffffffffffffffffffffffff1673ffffffffffffffffffffffffffffffffffffffff16815260200190815260200160002060008773ffffffffffffffffffffffffffffffffffffffff1673ffffffffffffffffffffffffffffffffffffffff168152602001908152602001600020546040518082815260200191505060405180910390a36001905092915050565b6114eb3361178e565b611540576040517f08c379a00000000000000000000000000000000000000000000000000000000081526004018080602001828103825260308152602001806157756030913960400191505060405180910390fd5b60ba60009054906101000a900460ff166115c2576040517f08c379a00000000000000000000000000000000000000000000000000000000081526004018080602001828103825260148152602001807f5061757361626c653a206e6f742070617573656400000000000000000000000081525060200191505060405180910390fd5b600060ba60006101000a81548160ff0219169083151502179055507f5db9ee0a495bf2e6ff9c91a7834c1ba4fdd244a5e8aa4e537bd38aeae4b073aa33604051808273ffffffffffffffffffffffffffffffffffffffff1673ffffffffffffffffffffffffffffffffffffffff16815260200191505060405180910390a1565b60c75481565b6000600180151560c460009054906101000a900460ff161515146116d4576040517f08c379a00000000000000000000000000000000000000000000000000000000081526004018080602001828103825260158152602001807f4375727665206d7573742062652068617463686564000000000000000000000081525060200191505060405180910390fd5b60ba60009054906101000a900460ff1615611757576040517f08c379a00000000000000000000000000000000000000000000000000000000081526004018080602001828103825260108152602001807f5061757361626c653a207061757365640000000000000000000000000000000081525060200191505060405180910390fd5b6117608361373b565b915050919050565b60bc60009054906101000a900473ffffffffffffffffffffffffffffffffffffffff1681565b60006117a48260b96139e990919063ffffffff16565b9050919050565b6000600180151560c460009054906101000a900460ff16151514611837576040517f08c379a00000000000000000000000000000000000000000000000000000000081526004018080602001828103825260158152602001807f4375727665206d7573742062652068617463686564000000000000000000000081525060200191505060405180910390fd5b600060c860003373ffffffffffffffffffffffffffffffffffffffff1673ffffffffffffffffffffffffffffffffffffffff1681526020019081526020016000206000015414156118f0576040517f08c379a000000000000000000000000000000000000000000000000000000000815260040180806020018281038252601b8152602001807f4d7573742062652063616c6c656420627920612068617463686572000000000081525060200191505060405180910390fd5b60c65442101561194b576040517f08c379a000000000000000000000000000000000000000000000000000000000815260040180806020018281038252603a8152602001806157cc603a913960400191505060405180910390fd5b60ba60009054906101000a900460ff16156119ce576040517f08c379a00000000000000000000000000000000000000000000000000000000081526004018080602001828103825260108152602001807f5061757361626c653a207061757365640000000000000000000000000000000081525060200191505060405180910390fd5b600060c860003373ffffffffffffffffffffffffffffffffffffffff1673ffffffffffffffffffffffffffffffffffffffff1681526020019081526020016000206001015411611a1d57600080fd5b600060c860003373ffffffffffffffffffffffffffffffffffffffff1673ffffffffffffffffffffffffffffffffffffffff168152602001908152602001600020600001549050600060c860003373ffffffffffffffffffffffffffffffffffffffff1673ffffffffffffffffffffffffffffffffffffffff168152602001908152602001600020600101549050600060bf5460c354840281611abc57fe5b04905060008260be548581611acd57fe5b04039050600081830390508060c860003373ffffffffffffffffffffffffffffffffffffffff1673ffffffffffffffffffffffffffffffffffffffff16815260200190815260200160002060010160008282540392505081905550611b33303383613a7b565b80965050505050505090565b6000808511611bb6576040517f08c379a000000000000000000000000000000000000000000000000000000000815260040180806020018281038252601e8152602001807f42616e636f72466f726d756c613a20537570706c79206e6f74203e20302e000081525060200191505060405180910390fd5b60008411611c0f576040517f08c379a00000000000000000000000000000000000000000000000000000000081526004018080602001828103825260278152602001806157a56027913960400191505060405180910390fd5b60008363ffffffff1611611c6e576040517f08c379a00000000000000000000000000000000000000000000000000000000081526004018080602001828103825260278152602001806158066027913960400191505060405180910390fd5b620f424063ffffffff168363ffffffff161115611cd6576040517f08c379a00000000000000000000000000000000000000000000000000000000081526004018080602001828103825260318152602001806158776031913960400191505060405180910390fd5b84821115611d2f576040517f08c379a000000000000000000000000000000000000000000000000000000000815260040180806020018281038252602881526020018061584f6028913960400191505060405180910390fd5b6000821415611d415760009050611e04565b84821415611d5157839050611e04565b620f424063ffffffff168363ffffffff161415611d9457611d8d85611d7f848761355490919063ffffffff16565b61358e90919063ffffffff16565b9050611e04565b60008060008488039050611dad8882620f4240896135d3565b80935081945050506000611dca848961355490919063ffffffff16565b905060008360ff1689901b9050611dfc85611dee8385613c4590919063ffffffff16565b61358e90919063ffffffff16565b955050505050505b949350505050565b60c25481565b60b68054600181600116156101000203166002900480601f016020809104026020016040519081016040528092919081815260200182805460018160011615610100020316600290048015611ea85780601f10611e7d57610100808354040283529160200191611ea8565b820191906000526020600020905b815481529060010190602001808311611e8b57829003601f168201915b505050505081565b60008080151560c460009054906101000a900460ff16151514611f3b576040517f08c379a00000000000000000000000000000000000000000000000000000000081526004018080602001828103825260158152602001807f4375727665206d7573742062652068617463686564000000000000000000000081525060200191505060405180910390fd5b6001600060c55442111590508115611fc2578015611fc1576040517f08c379a000000000000000000000000000000000000000000000000000000000815260040180806020018281038252601c8152602001807f43757276652068617463682074696d652068617320657870697265640000000081525060200191505060405180910390fd5b5b80612035576040517f08c379a000000000000000000000000000000000000000000000000000000000815260040180806020018281038252601c8152602001807f43757276652068617463682074696d652068617320657870697265640000000081525060200191505060405180910390fd5b60ba60009054906101000a900460ff16156120b8576040517f08c379a00000000000000000000000000000000000000000000000000000000081526004018080602001828103825260108152602001807f5061757361626c653a207061757365640000000000000000000000000000000081525060200191505060405180910390fd5b600060c860003373ffffffffffffffffffffffffffffffffffffffff1673ffffffffffffffffffffffffffffffffffffffff16815260200190815260200160002060000154905060ba60019054906101000a900473ffffffffffffffffffffffffffffffffffffffff1673ffffffffffffffffffffffffffffffffffffffff1663a9059cbb33836040518363ffffffff1660e01b8152600401808373ffffffffffffffffffffffffffffffffffffffff1673ffffffffffffffffffffffffffffffffffffffff16815260200182815260200192505050602060405180830381600087803b1580156121a857600080fd5b505af11580156121bc573d6000803e3d6000fd5b505050506040513d60208110156121d257600080fd5b8101908080519060200190929190505050508094505050505090565b600060ba60009054906101000a900460ff16905090565b6000612233612212610fb2565b61221a6125aa565b60b760009054906101000a900463ffffffff1685611b3f565b9050919050565b61224333613c65565b565b60008060008373ffffffffffffffffffffffffffffffffffffffff1673ffffffffffffffffffffffffffffffffffffffff168152602001908152602001600020549050919050565b60c15481565b61229c3361178e565b6122f1576040517f08c379a00000000000000000000000000000000000000000000000000000000081526004018080602001828103825260308152602001806157756030913960400191505060405180910390fd5b6122fa81613cbf565b50565b6123063361178e565b61235b576040517f08c379a00000000000000000000000000000000000000000000000000000000081526004018080602001828103825260308152602001806157756030913960400191505060405180910390fd5b60ba60009054906101000a900460ff16156123de576040517f08c379a00000000000000000000000000000000000000000000000000000000081526004018080602001828103825260108152602001807f5061757361626c653a207061757365640000000000000000000000000000000081525060200191505060405180910390fd5b600160ba60006101000a81548160ff0219169083151502179055507f62e78cea01bee320cd4e420270b5ea74000d11b0c9f74754ebdbfc544b05a25833604051808273ffffffffffffffffffffffffffffffffffffffff1673ffffffffffffffffffffffffffffffffffffffff16815260200191505060405180910390a1565b600060c960009054906101000a900473ffffffffffffffffffffffffffffffffffffffff16905090565b60c65481565b60c960009054906101000a900473ffffffffffffffffffffffffffffffffffffffff1681565b600060c960009054906101000a900473ffffffffffffffffffffffffffffffffffffffff1673ffffffffffffffffffffffffffffffffffffffff163373ffffffffffffffffffffffffffffffffffffffff1614905090565b60cb8054600181600116156101000203166002900480601f0160208091040260200160405190810160405280929190818152602001828054600181600116156101000203166002900480156125a25780601f10612577576101008083540402835291602001916125a2565b820191906000526020600020905b81548152906001019060200180831161258557829003601f168201915b505050505081565b600060ba60019054906101000a900473ffffffffffffffffffffffffffffffffffffffff1673ffffffffffffffffffffffffffffffffffffffff166370a08231306040518263ffffffff1660e01b8152600401808273ffffffffffffffffffffffffffffffffffffffff1673ffffffffffffffffffffffffffffffffffffffff16815260200191505060206040518083038186803b15801561264b57600080fd5b505afa15801561265f573d6000803e3d6000fd5b505050506040513d602081101561267557600080fd5b8101908080519060200190929190505050905090565b60006126b9612698610fb2565b6126a06125aa565b60b760009054906101000a900463ffffffff168561105b565b9050919050565b60c05481565b6000600180151560c460009054906101000a900460ff16151514612752576040517f08c379a00000000000000000000000000000000000000000000000000000000081526004018080602001828103825260158152602001807f4375727665206d7573742062652068617463686564000000000000000000000081525060200191505060405180910390fd5b60ba60009054906101000a900460ff16156127d5576040517f08c379a00000000000000000000000000000000000000000000000000000000081526004018080602001828103825260108152602001807f5061757361626c653a207061757365640000000000000000000000000000000081525060200191505060405180910390fd5b6127de83613d19565b915050919050565b60c55481565b60008073ffffffffffffffffffffffffffffffffffffffff168373ffffffffffffffffffffffffffffffffffffffff16141561282757600080fd5b6128b682600160003373ffffffffffffffffffffffffffffffffffffffff1673ffffffffffffffffffffffffffffffffffffffff16815260200190815260200160002060008673ffffffffffffffffffffffffffffffffffffffff1673ffffffffffffffffffffffffffffffffffffffff16815260200190815260200160002054613c4590919063ffffffff16565b600160003373ffffffffffffffffffffffffffffffffffffffff1673ffffffffffffffffffffffffffffffffffffffff16815260200190815260200160002060008573ffffffffffffffffffffffffffffffffffffffff1673ffffffffffffffffffffffffffffffffffffffff168152602001908152602001600020819055508273ffffffffffffffffffffffffffffffffffffffff163373ffffffffffffffffffffffffffffffffffffffff167f8c5be1e5ebec7d5bd14f71427d1e84f3dd0314c0f7b2291e5b200ac8c7c3b925600160003373ffffffffffffffffffffffffffffffffffffffff1673ffffffffffffffffffffffffffffffffffffffff16815260200190815260200160002060008773ffffffffffffffffffffffffffffffffffffffff1673ffffffffffffffffffffffffffffffffffffffff168152602001908152602001600020546040518082815260200191505060405180910390a36001905092915050565b60c86020528060005260406000206000915090508060000154908060010154905082565b600060ba60009054906101000a900460ff1615612aca576040517f08c379a00000000000000000000000000000000000000000000000000000000081526004018080602001828103825260108152602001807f5061757361626c653a207061757365640000000000000000000000000000000081525060200191505060405180910390fd5b612ad48383613e4c565b905092915050565b60008160008160c860003373ffffffffffffffffffffffffffffffffffffffff1673ffffffffffffffffffffffffffffffffffffffff1681526020019081526020016000206000015401905060c154811015612ba0576040517f08c379a00000000000000000000000000000000000000000000000000000000081526004018080602001828103825260198152602001807f496e73756666696369656e7420636f6e747269627574696f6e0000000000000081525060200191505060405180910390fd5b600080151560c460009054906101000a900460ff16151514612c2a576040517f08c379a00000000000000000000000000000000000000000000000000000000081526004018080602001828103825260158152602001807f4375727665206d7573742062652068617463686564000000000000000000000081525060200191505060405180910390fd5b60008060c55442111590508115612cb0578015612caf576040517f08c379a000000000000000000000000000000000000000000000000000000000815260040180806020018281038252601c8152602001807f43757276652068617463682074696d652068617320657870697265640000000081525060200191505060405180910390fd5b5b80612d23576040517f08c379a000000000000000000000000000000000000000000000000000000000815260040180806020018281038252601c8152602001807f43757276652068617463682074696d652068617320657870697265640000000081525060200191505060405180910390fd5b60ba60009054906101000a900460ff1615612da6576040517f08c379a00000000000000000000000000000000000000000000000000000000081526004018080602001828103825260108152602001807f5061757361626c653a207061757365640000000000000000000000000000000081525060200191505060405180910390fd5b600087905060bf548160c254011015612dd7578060c260008282540192505081905550612dd281613e63565b612dfb565b60c25460bf5403905060bf5460c281905550612df281613e63565b612dfa613f7f565b5b8060c860003373ffffffffffffffffffffffffffffffffffffffff1673ffffffffffffffffffffffffffffffffffffffff1681526020019081526020016000206000016000828254019250508190555060be54810260c860003373ffffffffffffffffffffffffffffffffffffffff1673ffffffffffffffffffffffffffffffffffffffff1681526020019081526020016000206001016000828254019250508190555060be5481029650505050505050919050565b60ba60019054906101000a900473ffffffffffffffffffffffffffffffffffffffff1681565b6000600160008473ffffffffffffffffffffffffffffffffffffffff1673ffffffffffffffffffffffffffffffffffffffff16815260200190815260200160002060008373ffffffffffffffffffffffffffffffffffffffff1673ffffffffffffffffffffffffffffffffffffffff16815260200190815260200160002054905092915050565b60c460009054906101000a900460ff1681565b60bf5481565b60bb60009054906101000a900473ffffffffffffffffffffffffffffffffffffffff1673ffffffffffffffffffffffffffffffffffffffff163373ffffffffffffffffffffffffffffffffffffffff161461301d576040517f08c379a000000000000000000000000000000000000000000000000000000000815260040180806020018281038252602281526020018061582d6022913960400191505060405180910390fd5b600180151560c460009054906101000a900460ff161515146130a7576040517f08c379a00000000000000000000000000000000000000000000000000000000081526004018080602001828103825260158152602001807f4375727665206d7573742062652068617463686564000000000000000000000081525060200191505060405180910390fd5b60ba60009054906101000a900460ff161561312a576040517f08c379a00000000000000000000000000000000000000000000000000000000081526004018080602001828103825260108152602001807f5061757361626c653a207061757365640000000000000000000000000000000081525060200191505060405180910390fd5b60be54828161313557fe5b0460c36000828254019250508190555060be5460bf540260c354106131625760be5460bf540260c3819055505b5050565b61316e6124b4565b61317757600080fd5b600073ffffffffffffffffffffffffffffffffffffffff168173ffffffffffffffffffffffffffffffffffffffff1614156131b157600080fd5b8060c960006101000a81548173ffffffffffffffffffffffffffffffffffffffff021916908373ffffffffffffffffffffffffffffffffffffffff16021790555050565b60bb60009054906101000a900473ffffffffffffffffffffffffffffffffffffffff1681565b60b85481565b60008073ffffffffffffffffffffffffffffffffffffffff168373ffffffffffffffffffffffffffffffffffffffff16141561325c57600080fd5b81600160003373ffffffffffffffffffffffffffffffffffffffff1673ffffffffffffffffffffffffffffffffffffffff16815260200190815260200160002060008573ffffffffffffffffffffffffffffffffffffffff1673ffffffffffffffffffffffffffffffffffffffff168152602001908152602001600020819055508273ffffffffffffffffffffffffffffffffffffffff163373ffffffffffffffffffffffffffffffffffffffff167f8c5be1e5ebec7d5bd14f71427d1e84f3dd0314c0f7b2291e5b200ac8c7c3b925846040518082815260200191505060405180910390a36001905092915050565b60006133dd82600160008773ffffffffffffffffffffffffffffffffffffffff1673ffffffffffffffffffffffffffffffffffffffff16815260200190815260200160002060003373ffffffffffffffffffffffffffffffffffffffff1673ffffffffffffffffffffffffffffffffffffffff16815260200190815260200160002054613c4590919063ffffffff16565b600160008673ffffffffffffffffffffffffffffffffffffffff1673ffffffffffffffffffffffffffffffffffffffff16815260200190815260200160002060003373ffffffffffffffffffffffffffffffffffffffff1673ffffffffffffffffffffffffffffffffffffffff16815260200190815260200160002081905550613468848484613a7b565b3373ffffffffffffffffffffffffffffffffffffffff168473ffffffffffffffffffffffffffffffffffffffff167f8c5be1e5ebec7d5bd14f71427d1e84f3dd0314c0f7b2291e5b200ac8c7c3b925600160008873ffffffffffffffffffffffffffffffffffffffff1673ffffffffffffffffffffffffffffffffffffffff16815260200190815260200160002060003373ffffffffffffffffffffffffffffffffffffffff1673ffffffffffffffffffffffffffffffffffffffff168152602001908152602001600020546040518082815260200191505060405180910390a3600190509392505050565b6000808314156135675760009050613588565b600082840290508284828161357857fe5b041461358357600080fd5b809150505b92915050565b600080821161359c57600080fd5b60008284816135a757fe5b0490508091505092915050565b6000808284019050838110156135c957600080fd5b8091505092915050565b60008070020000000000000000000000000000000086106135f057fe5b84861015613666576040517f08c379a000000000000000000000000000000000000000000000000000000000815260040180806020018281038252601c8152602001807f4261736573203c203120617265206e6f7420737570706f727465642e0000000081525060200191505060405180910390fd5b600080866f8000000000000000000000000000000089028161368457fe5b04905070015bf0a8b1457695355fb8ac404e7a79e38110156136b0576136a9816140d6565b91506136bc565b6136b981614666565b91505b60008563ffffffff168763ffffffff168402816136d557fe5b049050700800000000000000000000000000000000811015613708576136fa8161478e565b607f94509450505050613732565b600061371382614d08565b905061372881607f0360ff1683901c82614dbd565b8195509550505050505b94509492505050565b6000806137478361515b565b90506000620f42408260c054028161375b57fe5b04905060ba60019054906101000a900473ffffffffffffffffffffffffffffffffffffffff1673ffffffffffffffffffffffffffffffffffffffff1663a9059cbb338385036040518363ffffffff1660e01b8152600401808373ffffffffffffffffffffffffffffffffffffffff1673ffffffffffffffffffffffffffffffffffffffff16815260200182815260200192505050602060405180830381600087803b15801561380957600080fd5b505af115801561381d573d6000803e3d6000fd5b505050506040513d602081101561383357600080fd5b81019080805190602001909291905050505060ba60019054906101000a900473ffffffffffffffffffffffffffffffffffffffff1673ffffffffffffffffffffffffffffffffffffffff1663a9059cbb60bc60009054906101000a900473ffffffffffffffffffffffffffffffffffffffff16836040518363ffffffff1660e01b8152600401808373ffffffffffffffffffffffffffffffffffffffff1673ffffffffffffffffffffffffffffffffffffffff16815260200182815260200192505050602060405180830381600087803b15801561391057600080fd5b505af1158015613924573d6000803e3d6000fd5b505050506040513d602081101561393a57600080fd5b81019080805190602001909291905050505060bb60009054906101000a900473ffffffffffffffffffffffffffffffffffffffff1673ffffffffffffffffffffffffffffffffffffffff1660bc60009054906101000a900473ffffffffffffffffffffffffffffffffffffffff1673ffffffffffffffffffffffffffffffffffffffff16146139df5760be5481816139ce57fe5b0460c3600082825401925050819055505b8192505050919050565b60008073ffffffffffffffffffffffffffffffffffffffff168273ffffffffffffffffffffffffffffffffffffffff161415613a2457600080fd5b8260000160008373ffffffffffffffffffffffffffffffffffffffff1673ffffffffffffffffffffffffffffffffffffffff16815260200190815260200160002060009054906101000a900460ff16905092915050565b600073ffffffffffffffffffffffffffffffffffffffff168273ffffffffffffffffffffffffffffffffffffffff161415613ab557600080fd5b613b06816000808673ffffffffffffffffffffffffffffffffffffffff1673ffffffffffffffffffffffffffffffffffffffff16815260200190815260200160002054613c4590919063ffffffff16565b6000808573ffffffffffffffffffffffffffffffffffffffff1673ffffffffffffffffffffffffffffffffffffffff16815260200190815260200160002081905550613b99816000808573ffffffffffffffffffffffffffffffffffffffff1673ffffffffffffffffffffffffffffffffffffffff168152602001908152602001600020546135b490919063ffffffff16565b6000808473ffffffffffffffffffffffffffffffffffffffff1673ffffffffffffffffffffffffffffffffffffffff168152602001908152602001600020819055508173ffffffffffffffffffffffffffffffffffffffff168373ffffffffffffffffffffffffffffffffffffffff167fddf252ad1be2c89b69c2b068fc378daa952ba7f163c4a11628f55a4df523b3ef836040518082815260200191505060405180910390a3505050565b600082821115613c5457600080fd5b600082840390508091505092915050565b613c798160b961516e90919063ffffffff16565b8073ffffffffffffffffffffffffffffffffffffffff167fcd265ebaf09df2871cc7bd4133404a235ba12eff2041bb89d9c714a2621c7c7e60405160405180910390a250565b613cd38160b961521990919063ffffffff16565b8073ffffffffffffffffffffffffffffffffffffffff167f6719d08c1888103bea251a4ed56406bd0c3e69723c8a1686e017e7bbe159b6f860405160405180910390a250565b600060ba60019054906101000a900473ffffffffffffffffffffffffffffffffffffffff1673ffffffffffffffffffffffffffffffffffffffff166323b872dd3330856040518463ffffffff1660e01b8152600401808473ffffffffffffffffffffffffffffffffffffffff1673ffffffffffffffffffffffffffffffffffffffff1681526020018373ffffffffffffffffffffffffffffffffffffffff1673ffffffffffffffffffffffffffffffffffffffff1681526020018281526020019350505050602060405180830381600087803b158015613df857600080fd5b505af1158015613e0c573d6000803e3d6000fd5b505050506040513d6020811015613e2257600080fd5b8101908080519060200190929190505050613e3c57600080fd5b613e45826152c5565b9050919050565b6000613e59338484613a7b565b6001905092915050565b60ba60019054906101000a900473ffffffffffffffffffffffffffffffffffffffff1673ffffffffffffffffffffffffffffffffffffffff166323b872dd3330846040518463ffffffff1660e01b8152600401808473ffffffffffffffffffffffffffffffffffffffff1673ffffffffffffffffffffffffffffffffffffffff1681526020018373ffffffffffffffffffffffffffffffffffffffff1673ffffffffffffffffffffffffffffffffffffffff1681526020018281526020019350505050602060405180830381600087803b158015613f4057600080fd5b505af1158015613f54573d6000803e3d6000fd5b505050506040513d6020811015613f6a57600080fd5b81019080805190602001909291905050505050565b6000620f424060bd5460bf540281613f9357fe5b04905060ba60019054906101000a900473ffffffffffffffffffffffffffffffffffffffff1673ffffffffffffffffffffffffffffffffffffffff1663a9059cbb60bb60009054906101000a900473ffffffffffffffffffffffffffffffffffffffff16836040518363ffffffff1660e01b8152600401808373ffffffffffffffffffffffffffffffffffffffff1673ffffffffffffffffffffffffffffffffffffffff16815260200182815260200192505050602060405180830381600087803b15801561406157600080fd5b505af1158015614075573d6000803e3d6000fd5b505050506040513d602081101561408b57600080fd5b8101908080519060200190929190505050506140ad3060be5460bf54026152d8565b600160c460006101000a81548160ff02191690831515021790555060c754420160c68190555050565b6000806000905060008060006fd3094c70f034de4b96ff7d5b6f99fcd8861061413d576f40000000000000000000000000000000840193506fd3094c70f034de4b96ff7d5b6f99fcd86f8000000000000000000000000000000087028161413957fe5b0495505b6fa45af1e1f40c333b3de1db4dd55f29a78610614198576f20000000000000000000000000000000840193506fa45af1e1f40c333b3de1db4dd55f29a76f8000000000000000000000000000000087028161419457fe5b0495505b6f910b022db7ae67ce76b441c27035c6a186106141f3576f10000000000000000000000000000000840193506f910b022db7ae67ce76b441c27035c6a16f800000000000000000000000000000008702816141ef57fe5b0495505b6f88415abbe9a76bead8d00cf112e4d4a8861061424e576f08000000000000000000000000000000840193506f88415abbe9a76bead8d00cf112e4d4a86f8000000000000000000000000000000087028161424a57fe5b0495505b6f84102b00893f64c705e841d5d4064bd386106142a9576f04000000000000000000000000000000840193506f84102b00893f64c705e841d5d4064bd36f800000000000000000000000000000008702816142a557fe5b0495505b6f8204055aaef1c8bd5c3259f4822735a28610614304576f02000000000000000000000000000000840193506f8204055aaef1c8bd5c3259f4822735a26f8000000000000000000000000000000087028161430057fe5b0495505b6f810100ab00222d861931c15e39b44e99861061435f576f01000000000000000000000000000000840193506f810100ab00222d861931c15e39b44e996f8000000000000000000000000000000087028161435b57fe5b0495505b6f808040155aabbbe9451521693554f73386106143b9576e800000000000000000000000000000840193506f808040155aabbbe9451521693554f7336f800000000000000000000000000000008702816143b557fe5b0495505b6f80000000000000000000000000000000860392508291506f80000000000000000000000000000000838402816143ec57fe5b049050700100000000000000000000000000000000837001000000000000000000000000000000000383028161441e57fe5b04840193506f800000000000000000000000000000008183028161443e57fe5b049150700200000000000000000000000000000000836faaaaaaaaaaaaaaaaaaaaaaaaaaaaaaaa0383028161446f57fe5b04840193506f800000000000000000000000000000008183028161448f57fe5b049150700300000000000000000000000000000000836f99999999999999999999999999999999038302816144c057fe5b04840193506f80000000000000000000000000000000818302816144e057fe5b049150700400000000000000000000000000000000836f924924924924924924924924924924920383028161451157fe5b04840193506f800000000000000000000000000000008183028161453157fe5b049150700500000000000000000000000000000000836f8e38e38e38e38e38e38e38e38e38e38e0383028161456257fe5b04840193506f800000000000000000000000000000008183028161458257fe5b049150700600000000000000000000000000000000836f8ba2e8ba2e8ba2e8ba2e8ba2e8ba2e8b038302816145b357fe5b04840193506f80000000000000000000000000000000818302816145d357fe5b049150700700000000000000000000000000000000836f89d89d89d89d89d89d89d89d89d89d890383028161460457fe5b04840193506f800000000000000000000000000000008183028161462457fe5b049150700800000000000000000000000000000000836f888888888888888888888888888888880383028161465557fe5b048401935083945050505050919050565b60008060009050600083905070010000000000000000000000000000000081106146d35760006146ae6f8000000000000000000000000000000083816146a857fe5b0461542a565b90508060ff1682901c91506f800000000000000000000000000000008160ff16029250505b6f80000000000000000000000000000000811115614759576000607f90505b60008160ff161115614757576f800000000000000000000000000000008283028161471957fe5b049150700100000000000000000000000000000000821061474b57600182901c91506001810360ff166001901b830192505b806001900390506146f2565b505b6f05b9de1d10bf4103d647b0955897ba806f03f80fe03f80fe03f80fe03f80fe03f883028161478457fe5b0492505050919050565b600080600090506000806f1000000000000000000000000000000085816147b157fe5b0691508190506f80000000000000000000000000000000828202816147d257fe5b0490506710e1b3be415a00008102830192506f80000000000000000000000000000000828202816147ff57fe5b0490506705a0913f6b1e00008102830192506f800000000000000000000000000000008282028161482c57fe5b049050670168244fdac780008102830192506f800000000000000000000000000000008282028161485957fe5b049050664807432bc180008102830192506f800000000000000000000000000000008282028161488557fe5b049050660c0135dca040008102830192506f80000000000000000000000000000000828202816148b157fe5b0490506601b707b1cdc0008102830192506f80000000000000000000000000000000828202816148dd57fe5b0490506536e0f639b8008102830192506f800000000000000000000000000000008282028161490857fe5b049050650618fee9f8008102830192506f800000000000000000000000000000008282028161493357fe5b049050649c197dcc008102830192506f800000000000000000000000000000008282028161495d57fe5b049050640e30dce4008102830192506f800000000000000000000000000000008282028161498757fe5b04905064012ebd13008102830192506f80000000000000000000000000000000828202816149b157fe5b0490506317499f008102830192506f80000000000000000000000000000000828202816149da57fe5b0490506301a9d4808102830192506f8000000000000000000000000000000082820281614a0357fe5b049050621c63808102830192506f8000000000000000000000000000000082820281614a2b57fe5b0490506201c6388102830192506f8000000000000000000000000000000082820281614a5357fe5b049050611ab88102830192506f8000000000000000000000000000000082820281614a7a57fe5b04905061017c8102830192506f8000000000000000000000000000000082820281614aa157fe5b04905060148102830192506f8000000000000000000000000000000082820281614ac757fe5b04905060018102830192506f80000000000000000000000000000000826721c3677c82b400008581614af557fe5b040101925060006f10000000000000000000000000000000861614614b455770018ebef9eac820ae8682b9793ac6d1e7767001c3d6a24ed82218787d624d3e5eba95f9840281614b4157fe5b0492505b60006f20000000000000000000000000000000861614614b90577001368b2fc6f9609fe7aceb46aa619baed470018ebef9eac820ae8682b9793ac6d1e778840281614b8c57fe5b0492505b60006f40000000000000000000000000000000861614614bda576fbc5ab1b16779be3575bd8f0520a9f21f7001368b2fc6f9609fe7aceb46aa619baed5840281614bd657fe5b0492505b60006f80000000000000000000000000000000861614614c23576f454aaa8efe072e7f6ddbab84b40a55c96fbc5ab1b16779be3575bd8f0520a9f21e840281614c1f57fe5b0492505b6000700100000000000000000000000000000000861614614c6d576f0960aadc109e7a3bf4578099615711ea6f454aaa8efe072e7f6ddbab84b40a55c5840281614c6957fe5b0492505b6000700200000000000000000000000000000000861614614cb6576e2bf84208204f5977f9a8cf01fdce3d6f0960aadc109e7a3bf4578099615711d7840281614cb257fe5b0492505b6000700400000000000000000000000000000000861614614cfd576d03c6ab775dd0b95b4cbee7e65d116e2bf84208204f5977f9a8cf01fdc307840281614cf957fe5b0492505b829350505050919050565b600080602090506000607f90505b8060ff166001830160ff161015614d65576000600282840160ff1681614d3857fe5b0490508460368260ff1660808110614d4c57fe5b015410614d5b57809250614d5f565b8091505b50614d16565b8360368260ff1660808110614d7657fe5b015410614d87578092505050614db8565b8360368360ff1660808110614d9857fe5b015410614da9578192505050614db8565b6000614db157fe5b6000925050505b919050565b60008083905060008090508360ff16858302901c91506f03442c4e6074a82f1797f72ac00000008202810190508360ff16858302901c91506f0116b96f757c380fb287fd0e400000008202810190508360ff16858302901c91506e45ae5bdd5f0e03eca1ff43900000008202810190508360ff16858302901c91506e0defabf91302cd95b9ffda500000008202810190508360ff16858302901c91506e02529ca9832b22439efff9b80000008202810190508360ff16858302901c91506d54f1cf12bd04e516b6da880000008202810190508360ff16858302901c91506d0a9e39e257a09ca2d6db510000008202810190508360ff16858302901c91506d012e066e7b839fa050c3090000008202810190508360ff16858302901c91506c1e33d7d926c329a1ad1a8000008202810190508360ff16858302901c91506c02bee513bdb4a6b19b5f8000008202810190508360ff16858302901c91506b3a9316fa79b88eccf2a000008202810190508360ff16858302901c91506b048177ebe1fa8123752000008202810190508360ff16858302901c91506a5263fe90242dcbacf000008202810190508360ff16858302901c91506a057e22099c030d941000008202810190508360ff16858302901c91506957e22099c030d94100008202810190508360ff16858302901c915069052b6b545699763100008202810190508360ff16858302901c9150684985f67696bf7480008202810190508360ff16858302901c91506803dea12ea99e4980008202810190508360ff16858302901c91506731880f2214b6e0008202810190508360ff16858302901c915067025bcff56eb360008202810190508360ff16858302901c9150661b722e10ab10008202810190508360ff16858302901c91506601317c700770008202810190508360ff16858302901c9150650cba84aafa008202810190508360ff16858302901c91506482573a0a008202810190508360ff16858302901c91506405035ad9008202810190508360ff16858302901c9150632f881b008202810190508360ff16858302901c91506301b293408202810190508360ff16858302901c9150620efc408202810190508360ff16858302901c9150617fe08202810190508360ff16858302901c91506104208202810190508360ff16858302901c915060218202810190508360ff16858302901c915060018202810190508360ff166001901b856f0688589cc0e9505e2f2fee5580000000838161514e57fe5b0401019250505092915050565b600061516733836154ac565b9050919050565b600073ffffffffffffffffffffffffffffffffffffffff168173ffffffffffffffffffffffffffffffffffffffff1614156151a857600080fd5b6151b282826139e9565b6151bb57600080fd5b60008260000160008373ffffffffffffffffffffffffffffffffffffffff1673ffffffffffffffffffffffffffffffffffffffff16815260200190815260200160002060006101000a81548160ff0219169083151502179055505050565b600073ffffffffffffffffffffffffffffffffffffffff168173ffffffffffffffffffffffffffffffffffffffff16141561525357600080fd5b61525d82826139e9565b1561526757600080fd5b60018260000160008373ffffffffffffffffffffffffffffffffffffffff1673ffffffffffffffffffffffffffffffffffffffff16815260200190815260200160002060006101000a81548160ff0219169083151502179055505050565b60006152d13383615571565b9050919050565b600073ffffffffffffffffffffffffffffffffffffffff168273ffffffffffffffffffffffffffffffffffffffff16141561531257600080fd5b615327816002546135b490919063ffffffff16565b60028190555061537e816000808573ffffffffffffffffffffffffffffffffffffffff1673ffffffffffffffffffffffffffffffffffffffff168152602001908152602001600020546135b490919063ffffffff16565b6000808473ffffffffffffffffffffffffffffffffffffffff1673ffffffffffffffffffffffffffffffffffffffff168152602001908152602001600020819055508173ffffffffffffffffffffffffffffffffffffffff16600073ffffffffffffffffffffffffffffffffffffffff167fddf252ad1be2c89b69c2b068fc378daa952ba7f163c4a11628f55a4df523b3ef836040518082815260200191505060405180910390a35050565b600080600090506000839050610100811015615461575b600181111561545c57600181901c9050600182019150615441565b6154a2565b6000608090505b60008160ff1611156154a0578060ff166001901b8210615491578060ff1682901c915080831792505b60018160ff16901c9050615468565b505b8192505050919050565b600060b8543a11156154ba57fe5b816000811180156154d35750806154d033612245565b10155b6154dc57600080fd5b60006154e784612205565b90506154f38585615622565b7f14feb1b32dbb3ebf172a72bc6b201cb3ddcd8dd148da8b8ac41207f2d69bdd32858583604051808473ffffffffffffffffffffffffffffffffffffffff1673ffffffffffffffffffffffffffffffffffffffff168152602001838152602001828152602001935050505060405180910390a1809250505092915050565b600060b8543a111561557f57fe5b816000811161558d57600080fd5b60006155988461268b565b90506155a485826152d8565b7f65ab8b57af027ad387b3f608b0745de61b7dc81d07be6ded03736db32fe46bd9858286604051808473ffffffffffffffffffffffffffffffffffffffff1673ffffffffffffffffffffffffffffffffffffffff168152602001838152602001828152602001935050505060405180910390a1809250505092915050565b600073ffffffffffffffffffffffffffffffffffffffff168273ffffffffffffffffffffffffffffffffffffffff16141561565c57600080fd5b61567181600254613c4590919063ffffffff16565b6002819055506156c8816000808573ffffffffffffffffffffffffffffffffffffffff1673ffffffffffffffffffffffffffffffffffffffff16815260200190815260200160002054613c4590919063ffffffff16565b6000808473ffffffffffffffffffffffffffffffffffffffff1673ffffffffffffffffffffffffffffffffffffffff16815260200190815260200160002081905550600073ffffffffffffffffffffffffffffffffffffffff168273ffffffffffffffffffffffffffffffffffffffff167fddf252ad1be2c89b69c2b068fc378daa952ba7f163c4a11628f55a4df523b3ef836040518082815260200191505060405180910390a3505056fe506175736572526f6c653a2063616c6c657220646f6573206e6f742068617665207468652050617573657220726f6c6542616e636f72466f726d756c613a20436f6e6e6563746f7242616c616e6365206e6f74203e2030756e61626c6520746f20636c61696d20616e7920746f6b656e7320626563617573652076657374696e67206973206e6f74206f7665722079657442616e636f72466f726d756c613a20436f6e6e6563746f7220576569676874206e6f74203e20304d7573742062652063616c6c6564206279207468652066756e64696e6720706f6f6c42616e636f72466f726d756c613a2053656c6c20416d6f756e74206e6f74203c3d20537570706c7942616e636f72466f726d756c613a20436f6e6e6563746f7220576569676874206e6f74203c3d204d41585f574549474854a165627a7a7230582086448d81a13b7727711259d54513ebd27ed4ea7dabd5283a594d60069020fbe70029",
  "source": "pragma solidity ^0.5.0;\n\nimport \"./CommonsToken.sol\";\nimport \"../utils/Ownable.sol\";\n\ncontract ArtistToken is CommonsToken, Ownable {\n    string public name;   // e.g: Armin Van Lightstreams\n    string public symbol; // e.g: AVL\n\n    /*\n    * @param _addresses [0] externalToken [1] fundingPool [2] feeRecipient [3] pauser\n    * @param _settings [0] _gasPrice [1] _theta [2] _p0 [3] _initialRaise [4] _friction [5] _hatchDurationSeconds [6] _hatchVestingDurationSeconds [7] _minExternalContribution\n    * @param _reserveRatio\n    */\n    constructor (\n        string memory _name,\n        string memory _symbol,\n        address[4] memory _addresses,\n        uint256[8] memory _settings,\n        uint32 _reserveRatio\n    ) public\n    CommonsToken(\n        _addresses,\n        _settings,\n        _reserveRatio\n    )\n    Ownable(msg.sender)\n    {\n        name = _name;\n        symbol = _symbol;\n    }\n}\n",
  "sourcePath": "/home/ggarrido/lightstreams/workspace/lightstreams-js-sdk/contracts/bondingcurve/ArtistToken.sol",
  "compiler": {
    "name": "solc",
    "version": "0.5.8+commit.23d335f2.Emscripten.clang"
  },
  "schemaVersion": "3.0.23",
  "updatedAt": "2020-02-19T10:48:51.381Z",
  "networkType": "ethereum",
  "devdoc": {
    "methods": {
      "allowance(address,address)": {
        "details": "Function to check the amount of tokens that an owner allowed to a spender.",
        "params": {
          "owner": "address The address which owns the funds.",
          "spender": "address The address which will spend the funds."
        },
        "return": "A uint256 specifying the amount of tokens still available for the spender."
      },
      "balanceOf(address)": {
        "details": "Gets the balance of the specified address.",
        "params": {
          "owner": "The address to query the balance of."
        },
        "return": "An uint256 representing the amount owned by the passed address."
      },
      "calculatePurchaseReturn(uint256,uint256,uint32,uint256)": {
        "details": "given a token supply, connector balance, weight and a deposit amount (in the connector token), calculates the return for a given conversion (in the main token)  * Formula: Return = _supply * ((1 + _depositAmount / _connectorBalance) ^ (_connectorWeight / 1000000) - 1)",
        "params": {
          "_connectorBalance": "total connector balance",
          "_connectorWeight": "connector weight, represented in ppm, 1-1000000",
          "_depositAmount": "deposit amount, in connector token",
          "_supply": "token total supply"
        },
        "return": "purchase return amount"
      },
      "calculateSaleReturn(uint256,uint256,uint32,uint256)": {
        "details": "given a token supply, connector balance, weight and a sell amount (in the main token), calculates the return for a given conversion (in the connector token)  * Formula: Return = _connectorBalance * (1 - (1 - _sellAmount / _supply) ^ (1 / (_connectorWeight / 1000000)))",
        "params": {
          "_connectorBalance": "total connector",
          "_connectorWeight": "constant connector Weight, represented in ppm, 1-1000000",
          "_sellAmount": "sell amount, in the token itself",
          "_supply": "token total supply"
        },
        "return": "sale return amount"
      },
      "decreaseAllowance(address,uint256)": {
        "details": "Decrease the amount of tokens that an owner allowed to a spender. approve should be called when allowed_[_spender] == 0. To decrement allowed value is better to use this function to avoid 2 calls (and wait until the first transaction is mined) From MonolithDAO Token.sol Emits an Approval event.",
        "params": {
          "spender": "The address which will spend the funds.",
          "subtractedValue": "The amount of tokens to decrease the allowance by."
        }
      },
      "increaseAllowance(address,uint256)": {
        "details": "Increase the amount of tokens that an owner allowed to a spender. approve should be called when allowed_[_spender] == 0. To increment allowed value is better to use this function to avoid 2 calls (and wait until the first transaction is mined) From MonolithDAO Token.sol Emits an Approval event.",
        "params": {
          "addedValue": "The amount of tokens to increase the allowance by.",
          "spender": "The address which will spend the funds."
        }
      },
      "pause()": {
        "details": "Called by a pauser to pause, triggers stopped state."
      },
      "paused()": {
        "details": "Returns true if the contract is paused, and false otherwise."
      },
      "totalSupply()": {
        "details": "Total number of tokens in existence"
      },
      "unpause()": {
        "details": "Called by a pauser to unpause, returns to normal state."
      }
    }
  },
  "userdoc": {
    "methods": {}
  }
}