{
  "contractName": "ArtistToken",
  "abi": [
    {
      "constant": true,
      "inputs": [],
      "name": "name",
      "outputs": [
        {
          "name": "",
          "type": "string"
        }
      ],
      "payable": false,
      "stateMutability": "view",
      "type": "function",
      "signature": "0x06fdde03"
    },
    {
      "constant": false,
      "inputs": [
        {
          "name": "spender",
          "type": "address"
        },
        {
          "name": "value",
          "type": "uint256"
        }
      ],
      "name": "approve",
      "outputs": [
        {
          "name": "",
          "type": "bool"
        }
      ],
      "payable": false,
      "stateMutability": "nonpayable",
      "type": "function",
      "signature": "0x095ea7b3"
    },
    {
      "constant": true,
      "inputs": [],
      "name": "reserveRatio",
      "outputs": [
        {
          "name": "",
          "type": "uint32"
        }
      ],
      "payable": false,
      "stateMutability": "view",
      "type": "function",
      "signature": "0x0c7d5cd8"
    },
    {
      "constant": true,
      "inputs": [],
      "name": "totalSupply",
      "outputs": [
        {
          "name": "",
          "type": "uint256"
        }
      ],
      "payable": false,
      "stateMutability": "view",
      "type": "function",
      "signature": "0x18160ddd"
    },
    {
      "constant": false,
      "inputs": [
        {
          "name": "from",
          "type": "address"
        },
        {
          "name": "to",
          "type": "address"
        },
        {
          "name": "value",
          "type": "uint256"
        }
      ],
      "name": "transferFrom",
      "outputs": [
        {
          "name": "",
          "type": "bool"
        }
      ],
      "payable": false,
      "stateMutability": "nonpayable",
      "type": "function",
      "signature": "0x23b872dd"
    },
    {
      "constant": true,
      "inputs": [],
      "name": "p0",
      "outputs": [
        {
          "name": "",
          "type": "uint256"
        }
      ],
      "payable": false,
      "stateMutability": "view",
      "type": "function",
      "signature": "0x264e49db"
    },
    {
      "constant": true,
      "inputs": [
        {
          "name": "_supply",
          "type": "uint256"
        },
        {
          "name": "_connectorBalance",
          "type": "uint256"
        },
        {
          "name": "_connectorWeight",
          "type": "uint32"
        },
        {
          "name": "_depositAmount",
          "type": "uint256"
        }
      ],
      "name": "calculatePurchaseReturn",
      "outputs": [
        {
          "name": "",
          "type": "uint256"
        }
      ],
      "payable": false,
      "stateMutability": "view",
      "type": "function",
      "signature": "0x29a00e7c"
    },
    {
      "constant": true,
      "inputs": [],
      "name": "theta",
      "outputs": [
        {
          "name": "",
          "type": "uint256"
        }
      ],
      "payable": false,
      "stateMutability": "view",
      "type": "function",
      "signature": "0x309bbc6d"
    },
    {
      "constant": false,
      "inputs": [
        {
          "name": "spender",
          "type": "address"
        },
        {
          "name": "addedValue",
          "type": "uint256"
        }
      ],
      "name": "increaseAllowance",
      "outputs": [
        {
          "name": "",
          "type": "bool"
        }
      ],
      "payable": false,
      "stateMutability": "nonpayable",
      "type": "function",
      "signature": "0x39509351"
    },
    {
      "constant": false,
      "inputs": [
        {
          "name": "_amount",
          "type": "uint256"
        }
      ],
      "name": "burn",
      "outputs": [
        {
          "name": "",
          "type": "uint256"
        }
      ],
      "payable": false,
      "stateMutability": "nonpayable",
      "type": "function",
      "signature": "0x42966c68"
    },
    {
      "constant": false,
      "inputs": [],
      "name": "claimTokens",
      "outputs": [],
      "payable": false,
      "stateMutability": "nonpayable",
      "type": "function",
      "signature": "0x48c54b9d"
    },
    {
      "constant": true,
      "inputs": [
        {
          "name": "_supply",
          "type": "uint256"
        },
        {
          "name": "_connectorBalance",
          "type": "uint256"
        },
        {
          "name": "_connectorWeight",
          "type": "uint32"
        },
        {
          "name": "_sellAmount",
          "type": "uint256"
        }
      ],
      "name": "calculateSaleReturn",
      "outputs": [
        {
          "name": "",
          "type": "uint256"
        }
      ],
      "payable": false,
      "stateMutability": "view",
      "type": "function",
      "signature": "0x49f9b0f7"
    },
    {
      "constant": true,
      "inputs": [],
      "name": "raisedExternal",
      "outputs": [
        {
          "name": "",
          "type": "uint256"
        }
      ],
      "payable": false,
      "stateMutability": "view",
      "type": "function",
      "signature": "0x5377d9d5"
    },
    {
      "constant": true,
      "inputs": [],
      "name": "version",
      "outputs": [
        {
          "name": "",
          "type": "string"
        }
      ],
      "payable": false,
      "stateMutability": "view",
      "type": "function",
      "signature": "0x54fd4d50"
    },
    {
      "constant": false,
      "inputs": [],
      "name": "refund",
      "outputs": [],
      "payable": false,
      "stateMutability": "nonpayable",
      "type": "function",
      "signature": "0x590e1ae3"
    },
    {
      "constant": true,
      "inputs": [
        {
          "name": "amount",
          "type": "uint256"
        }
      ],
      "name": "calculateCurvedBurnReturn",
      "outputs": [
        {
          "name": "",
          "type": "uint256"
        }
      ],
      "payable": false,
      "stateMutability": "view",
      "type": "function",
      "signature": "0x6d6f1e01"
    },
    {
      "constant": true,
      "inputs": [
        {
          "name": "owner",
          "type": "address"
        }
      ],
      "name": "balanceOf",
      "outputs": [
        {
          "name": "",
          "type": "uint256"
        }
      ],
      "payable": false,
      "stateMutability": "view",
      "type": "function",
      "signature": "0x70a08231"
    },
    {
      "constant": true,
      "inputs": [],
      "name": "minExternalContribution",
      "outputs": [
        {
          "name": "",
          "type": "uint256"
        }
      ],
      "payable": false,
      "stateMutability": "view",
      "type": "function",
      "signature": "0x71645ca0"
    },
    {
      "constant": true,
      "inputs": [],
      "name": "symbol",
      "outputs": [
        {
          "name": "",
          "type": "string"
        }
      ],
      "payable": false,
      "stateMutability": "view",
      "type": "function",
      "signature": "0x95d89b41"
    },
    {
      "constant": true,
      "inputs": [],
      "name": "poolBalance",
      "outputs": [
        {
          "name": "",
          "type": "uint256"
        }
      ],
      "payable": false,
      "stateMutability": "view",
      "type": "function",
      "signature": "0x96365d44"
    },
    {
      "constant": true,
      "inputs": [
        {
          "name": "amount",
          "type": "uint256"
        }
      ],
      "name": "calculateCurvedMintReturn",
      "outputs": [
        {
          "name": "",
          "type": "uint256"
        }
      ],
      "payable": false,
      "stateMutability": "view",
      "type": "function",
      "signature": "0x9a4f318b"
    },
    {
      "constant": true,
      "inputs": [],
      "name": "friction",
      "outputs": [
        {
          "name": "",
          "type": "uint256"
        }
      ],
      "payable": false,
      "stateMutability": "view",
      "type": "function",
      "signature": "0x9bae6687"
    },
    {
      "constant": false,
      "inputs": [
        {
          "name": "_amount",
          "type": "uint256"
        }
      ],
      "name": "mint",
      "outputs": [],
      "payable": false,
      "stateMutability": "nonpayable",
      "type": "function",
      "signature": "0xa0712d68"
    },
    {
      "constant": true,
      "inputs": [],
      "name": "hatchDeadline",
      "outputs": [
        {
          "name": "",
          "type": "uint256"
        }
      ],
      "payable": false,
      "stateMutability": "view",
      "type": "function",
      "signature": "0xa0b78dbe"
    },
    {
      "constant": false,
      "inputs": [
        {
          "name": "spender",
          "type": "address"
        },
        {
          "name": "subtractedValue",
          "type": "uint256"
        }
      ],
      "name": "decreaseAllowance",
      "outputs": [
        {
          "name": "",
          "type": "bool"
        }
      ],
      "payable": false,
      "stateMutability": "nonpayable",
      "type": "function",
      "signature": "0xa457c2d7"
    },
    {
      "constant": true,
      "inputs": [
        {
          "name": "",
          "type": "address"
        }
      ],
      "name": "initialContributions",
      "outputs": [
        {
          "name": "paidExternal",
          "type": "uint256"
        },
        {
          "name": "lockedInternal",
          "type": "uint256"
        }
      ],
      "payable": false,
      "stateMutability": "view",
      "type": "function",
      "signature": "0xa544e521"
    },
    {
      "constant": false,
      "inputs": [
        {
          "name": "to",
          "type": "address"
        },
        {
          "name": "value",
          "type": "uint256"
        }
      ],
      "name": "transfer",
      "outputs": [
        {
          "name": "",
          "type": "bool"
        }
      ],
      "payable": false,
      "stateMutability": "nonpayable",
      "type": "function",
      "signature": "0xa9059cbb"
    },
    {
      "constant": false,
      "inputs": [
        {
          "name": "_value",
          "type": "uint256"
        }
      ],
      "name": "hatchContribute",
      "outputs": [],
      "payable": false,
      "stateMutability": "nonpayable",
      "type": "function",
      "signature": "0xc576a45b"
    },
    {
      "constant": true,
      "inputs": [],
      "name": "externalToken",
      "outputs": [
        {
          "name": "",
          "type": "address"
        }
      ],
      "payable": false,
      "stateMutability": "view",
      "type": "function",
      "signature": "0xc9828ae0"
    },
    {
      "constant": true,
      "inputs": [
        {
          "name": "owner",
          "type": "address"
        },
        {
          "name": "spender",
          "type": "address"
        }
      ],
      "name": "allowance",
      "outputs": [
        {
          "name": "",
          "type": "uint256"
        }
      ],
      "payable": false,
      "stateMutability": "view",
      "type": "function",
      "signature": "0xdd62ed3e"
    },
    {
      "constant": true,
      "inputs": [],
      "name": "isHatched",
      "outputs": [
        {
          "name": "",
          "type": "bool"
        }
      ],
      "payable": false,
      "stateMutability": "view",
      "type": "function",
      "signature": "0xdf39e6e1"
    },
    {
      "constant": true,
      "inputs": [],
      "name": "initialRaise",
      "outputs": [
        {
          "name": "",
          "type": "uint256"
        }
      ],
      "payable": false,
      "stateMutability": "view",
      "type": "function",
      "signature": "0xdff0c898"
    },
    {
      "constant": false,
      "inputs": [
        {
          "name": "_externalAllocated",
          "type": "uint256"
        }
      ],
      "name": "fundsAllocated",
      "outputs": [],
      "payable": false,
      "stateMutability": "nonpayable",
      "type": "function",
      "signature": "0xec8585ab"
    },
    {
      "constant": true,
      "inputs": [],
      "name": "fundingPool",
      "outputs": [
        {
          "name": "",
          "type": "address"
        }
      ],
      "payable": false,
      "stateMutability": "view",
      "type": "function",
      "signature": "0xf6a1fe94"
    },
    {
      "constant": true,
      "inputs": [],
      "name": "gasPrice",
      "outputs": [
        {
          "name": "",
          "type": "uint256"
        }
      ],
      "payable": false,
      "stateMutability": "view",
      "type": "function",
      "signature": "0xfe173b97"
    },
    {
      "inputs": [
        {
          "name": "_name",
          "type": "string"
        },
        {
          "name": "_symbol",
          "type": "string"
        },
        {
          "name": "_externalToken",
          "type": "address"
        },
        {
          "name": "_reserveRatio",
          "type": "uint32"
        },
        {
          "name": "_gasPrice",
          "type": "uint256"
        },
        {
          "name": "_theta",
          "type": "uint256"
        },
        {
          "name": "_p0",
          "type": "uint256"
        },
        {
          "name": "_initialRaise",
          "type": "uint256"
        },
        {
          "name": "_fundingPool",
          "type": "address"
        },
        {
          "name": "_friction",
          "type": "uint256"
        },
        {
          "name": "_duration",
          "type": "uint256"
        },
        {
          "name": "_minExternalContribution",
          "type": "uint256"
        }
      ],
      "payable": false,
      "stateMutability": "nonpayable",
      "type": "constructor",
      "signature": "constructor"
    },
    {
      "anonymous": false,
      "inputs": [
        {
          "indexed": false,
          "name": "sender",
          "type": "address"
        },
        {
          "indexed": false,
          "name": "amount",
          "type": "uint256"
        },
        {
          "indexed": false,
          "name": "deposit",
          "type": "uint256"
        }
      ],
      "name": "CurvedMint",
      "type": "event",
      "signature": "0x65ab8b57af027ad387b3f608b0745de61b7dc81d07be6ded03736db32fe46bd9"
    },
    {
      "anonymous": false,
      "inputs": [
        {
          "indexed": false,
          "name": "sender",
          "type": "address"
        },
        {
          "indexed": false,
          "name": "amount",
          "type": "uint256"
        },
        {
          "indexed": false,
          "name": "reimbursement",
          "type": "uint256"
        }
      ],
      "name": "CurvedBurn",
      "type": "event",
      "signature": "0x14feb1b32dbb3ebf172a72bc6b201cb3ddcd8dd148da8b8ac41207f2d69bdd32"
    },
    {
      "anonymous": false,
      "inputs": [
        {
          "indexed": true,
          "name": "from",
          "type": "address"
        },
        {
          "indexed": true,
          "name": "to",
          "type": "address"
        },
        {
          "indexed": false,
          "name": "value",
          "type": "uint256"
        }
      ],
      "name": "Transfer",
      "type": "event",
      "signature": "0xddf252ad1be2c89b69c2b068fc378daa952ba7f163c4a11628f55a4df523b3ef"
    },
    {
      "anonymous": false,
      "inputs": [
        {
          "indexed": true,
          "name": "owner",
          "type": "address"
        },
        {
          "indexed": true,
          "name": "spender",
          "type": "address"
        },
        {
          "indexed": false,
          "name": "value",
          "type": "uint256"
        }
      ],
      "name": "Approval",
      "type": "event",
      "signature": "0x8c5be1e5ebec7d5bd14f71427d1e84f3dd0314c0f7b2291e5b200ac8c7c3b925"
    }
  ],
  "bytecode": "0x60806040526040518060400160405280600381526020017f302e33000000000000000000000000000000000000000000000000000000000081525060359080519060200190620000519291906200140a565b506040518060400160405280600381526020017f302e33000000000000000000000000000000000000000000000000000000000081525060b690805190602001906200009f9291906200140a565b50348015620000ad57600080fd5b5060405162005eed38038062005eed8339810180604052610180811015620000d457600080fd5b810190808051640100000000811115620000ed57600080fd5b828101905060208101848111156200010457600080fd5b81518560018202830111640100000000821117156200012257600080fd5b505092919060200180516401000000008111156200013f57600080fd5b828101905060208101848111156200015657600080fd5b81518560018202830111640100000000821117156200017457600080fd5b505092919060200180519060200190929190805190602001909291908051906020019092919080519060200190929190805190602001909291908051906020019092919080519060200190929190805190602001909291908051906020019092919080519060200190929190505050898989898989898989898888701c35fedd14ffffffffffffffffffffffff60366020608081106200021057fe5b0181905550701b0ce43b323fffffffffffffffffffffff60366021608081106200023657fe5b01819055507019f0028ec1ffffffffffffffffffffffff60366022608081106200025c57fe5b01819055507018ded91f0e7fffffffffffffffffffffff60366023608081106200028257fe5b01819055507017d8ec7f0417ffffffffffffffffffffff6036602460808110620002a857fe5b01819055507016ddc6556cdbffffffffffffffffffffff6036602560808110620002ce57fe5b01819055507015ecf52776a1ffffffffffffffffffffff6036602660808110620002f457fe5b01819055507015060c256cb2ffffffffffffffffffffff60366027608081106200031a57fe5b0181905550701428a2f98d72ffffffffffffffffffffff60366028608081106200034057fe5b01819055507013545598e5c23fffffffffffffffffffff60366029608081106200036657fe5b0181905550701288c4161ce1dfffffffffffffffffffff6036602a608081106200038c57fe5b01819055507011c592761c666fffffffffffffffffffff6036602b60808110620003b257fe5b018190555070110a688680a757ffffffffffffffffffff6036602c60808110620003d857fe5b0181905550701056f1b5bedf77ffffffffffffffffffff6036602d60808110620003fe57fe5b0181905550700faadceceeff8bffffffffffffffffffff6036602e608081106200042457fe5b0181905550700f05dc6b27edadffffffffffffffffffff6036602f608081106200044a57fe5b0181905550700e67a5a25da4107fffffffffffffffffff60366030608081106200047057fe5b0181905550700dcff115b14eedffffffffffffffffffff60366031608081106200049657fe5b0181905550700d3e7a392431239fffffffffffffffffff6036603260808110620004bc57fe5b0181905550700cb2ff529eb71e4fffffffffffffffffff6036603360808110620004e257fe5b0181905550700c2d415c3db974afffffffffffffffffff60366034608081106200050857fe5b0181905550700bad03e7d883f69bffffffffffffffffff60366035608081106200052e57fe5b0181905550700b320d03b2c343d5ffffffffffffffffff603680608081106200055357fe5b0181905550700abc25204e02828dffffffffffffffffff60366037608081106200057957fe5b0181905550700a4b16f74ee4bb207fffffffffffffffff60366038608081106200059f57fe5b01819055507009deaf736ac1f569ffffffffffffffffff6036603960808110620005c557fe5b0181905550700976bd9952c7aa957fffffffffffffffff6036603a60808110620005eb57fe5b01819055507009131271922eaa606fffffffffffffffff6036603b608081106200061157fe5b01819055507008b380f3558668c46fffffffffffffffff6036603c608081106200063757fe5b0181905550700857ddf0117efa215bffffffffffffffff6036603d608081106200065d57fe5b01819055507007ffffffffffffffffffffffffffffffff6036603e608081106200068357fe5b01819055507007abbf6f6abb9d087fffffffffffffffff6036603f60808110620006a957fe5b018190555070075af62cbac95f7dfa7fffffffffffffff6036604060808110620006cf57fe5b018190555070070d7fb7452e187ac13fffffffffffffff6036604160808110620006f557fe5b01819055507006c3390ecc8af379295fffffffffffffff60366042608081106200071b57fe5b018190555070067c00a3b07ffc01fd6fffffffffffffff60366043608081106200074157fe5b0181905550700637b647c39cbb9d3d27ffffffffffffff60366044608081106200076757fe5b01819055507005f63b1fc104dbd39587ffffffffffffff60366045608081106200078d57fe5b01819055507005b771955b36e12f7235ffffffffffffff6036604660808110620007b357fe5b018190555070057b3d49dda84556d6f6ffffffffffffff6036604760808110620007d957fe5b018190555070054183095b2c8ececf30ffffffffffffff6036604860808110620007ff57fe5b018190555070050a28be635ca2b888f77fffffffffffff60366049608081106200082557fe5b01819055507004d5156639708c9db33c3fffffffffffff6036604a608081106200084b57fe5b01819055507004a23105873875bd52dfdfffffffffffff6036604b608081106200087157fe5b0181905550700471649d87199aa990756fffffffffffff6036604c608081106200089757fe5b01819055507004429a21a029d4c1457cfbffffffffffff6036604d60808110620008bd57fe5b0181905550700415bc6d6fb7dd71af2cb3ffffffffffff6036604e60808110620008e357fe5b01819055507003eab73b3bbfe282243ce1ffffffffffff6036604f608081106200090957fe5b01819055507003c1771ac9fb6b4c18e229ffffffffffff60366050608081106200092f57fe5b0181905550700399e96897690418f785257fffffffffff60366051608081106200095557fe5b0181905550700373fc456c53bb779bf0ea9fffffffffff60366052608081106200097b57fe5b018190555070034f9e8e490c48e67e6ab8bfffffffffff6036605360808110620009a157fe5b018190555070032cbfd4a7adc790560b3337ffffffffff6036605460808110620009c757fe5b018190555070030b50570f6e5d2acca94613ffffffffff6036605560808110620009ed57fe5b01819055507002eb40f9f620fda6b56c2861ffffffffff603660566080811062000a1357fe5b01819055507002cc8340ecb0d0f520a6af58ffffffffff603660576080811062000a3957fe5b01819055507002af09481380a0a35cf1ba02ffffffffff603660586080811062000a5f57fe5b0181905550700292c5bdd3b92ec810287b1b3fffffffff603660596080811062000a8557fe5b0181905550700277abdcdab07d5a77ac6d6b9fffffffff6036605a6080811062000aab57fe5b018190555070025daf6654b1eaa55fd64df5efffffffff6036605b6080811062000ad157fe5b0181905550700244c49c648baa98192dce88b7ffffffff6036605c6080811062000af757fe5b018190555070022ce03cd5619a311b2471268bffffffff6036605d6080811062000b1d57fe5b0181905550700215f77c045fbe885654a44a0fffffffff6036605e6080811062000b4357fe5b01819055507001ffffffffffffffffffffffffffffffff6036605f6080811062000b6957fe5b01819055507001eaefdbdaaee7421fc4d3ede5ffffffff603660606080811062000b8f57fe5b01819055507001d6bd8b2eb257df7e8ca57b09bfffffff603660616080811062000bb557fe5b01819055507001c35fedd14b861eb0443f7f133fffffff603660626080811062000bdb57fe5b01819055507001b0ce43b322bcde4a56e8ada5afffffff603660636080811062000c0157fe5b018190555070019f0028ec1fff007f5a195a39dfffffff603660646080811062000c2757fe5b018190555070018ded91f0e72ee74f49b15ba527ffffff603660656080811062000c4d57fe5b018190555070017d8ec7f04136f4e5615fd41a63ffffff603660666080811062000c7357fe5b018190555070016ddc6556cdb84bdc8d12d22e6fffffff603660676080811062000c9957fe5b018190555070015ecf52776a1155b5bd8395814f7fffff603660686080811062000cbf57fe5b018190555070015060c256cb23b3b3cc3754cf40ffffff603660696080811062000ce557fe5b01819055507001428a2f98d728ae223ddab715be3fffff6036606a6080811062000d0b57fe5b018190555070013545598e5c23276ccf0ede68034fffff6036606b6080811062000d3157fe5b01819055507001288c4161ce1d6f54b7f61081194fffff6036606c6080811062000d5757fe5b018190555070011c592761c666aa641d5a01a40f17ffff6036606d6080811062000d7d57fe5b0181905550700110a688680a7530515f3e6e6cfdcdffff6036606e6080811062000da357fe5b01819055507001056f1b5bedf75c6bcb2ce8aed428ffff6036606f6080811062000dc957fe5b01819055506ffaadceceeff8a0890f3875f008277fff603660706080811062000dee57fe5b01819055506ff05dc6b27edad306388a600f6ba0bfff603660716080811062000e1357fe5b01819055506fe67a5a25da41063de1495d5b18cdbfff603660726080811062000e3857fe5b01819055506fdcff115b14eedde6fc3aa5353f2e4fff603660736080811062000e5d57fe5b01819055506fd3e7a3924312399f9aae2e0f868f8fff603660746080811062000e8257fe5b01819055506fcb2ff529eb71e41582cccd5a1ee26fff603660756080811062000ea757fe5b01819055506fc2d415c3db974ab32a51840c0b67edff603660766080811062000ecc57fe5b01819055506fbad03e7d883f69ad5b0a186184e06bff603660776080811062000ef157fe5b01819055506fb320d03b2c343d4829abd6075f0cc5ff603660786080811062000f1657fe5b01819055506fabc25204e02828d73c6e80bcdb1a95bf603660796080811062000f3b57fe5b01819055506fa4b16f74ee4bb2040a1ec6c15fbbf2df6036607a6080811062000f6057fe5b01819055506f9deaf736ac1f569deb1b5ae3f36c130f6036607b6080811062000f8557fe5b01819055506f976bd9952c7aa957f5937d790ef650376036607c6080811062000faa57fe5b01819055506f9131271922eaa6064b73a22d0bd4f2bf6036607d6080811062000fcf57fe5b01819055506f8b380f3558668c46c91c49a2f8e967b96036607e6080811062000ff457fe5b01819055506f857ddf0117efa215952912839f6473e66036607f608081106200101957fe5b01819055508160b760006101000a81548163ffffffff021916908363ffffffff1602179055508060b881905550505089600073ffffffffffffffffffffffffffffffffffffffff168173ffffffffffffffffffffffffffffffffffffffff161415620010ed576040517f08c379a00000000000000000000000000000000000000000000000000000000081526004018080602001828103825260188152602001807f41646472657373206d757374206e6f74206265207a65726f000000000000000081525060200191505060405180910390fd5b84600073ffffffffffffffffffffffffffffffffffffffff168173ffffffffffffffffffffffffffffffffffffffff16141562001192576040517f08c379a00000000000000000000000000000000000000000000000000000000081526004018080602001828103825260188152602001807f41646472657373206d757374206e6f74206265207a65726f000000000000000081525060200191505060405180910390fd5b8a63ffffffff16620f424081111562001213576040517f08c379a00000000000000000000000000000000000000000000000000000000081526004018080602001828103825260148152602001807f56616c7565206d75737420626520696e2050504d00000000000000000000000081525060200191505060405180910390fd5b89620f42408111156200128e576040517f08c379a00000000000000000000000000000000000000000000000000000000081526004018080602001828103825260148152602001807f56616c7565206d75737420626520696e2050504d00000000000000000000000081525060200191505060405180910390fd5b86620f424081111562001309576040517f08c379a00000000000000000000000000000000000000000000000000000000081526004018080602001828103825260148152602001807f56616c7565206d75737420626520696e2050504d00000000000000000000000081525060200191505060405180910390fd5b8b60bb819055508a60bc819055508960bd819055508860ba60006101000a81548173ffffffffffffffffffffffffffffffffffffffff021916908373ffffffffffffffffffffffffffffffffffffffff1602179055508760be8190555086420160c3819055508560bf819055508e60b960006101000a81548173ffffffffffffffffffffffffffffffffffffffff021916908373ffffffffffffffffffffffffffffffffffffffff1602179055505050505050505050505050505050508b60c59080519060200190620013de9291906200140a565b508a60c69080519060200190620013f79291906200140a565b50505050505050505050505050620014b9565b828054600181600116156101000203166002900490600052602060002090601f016020900481019282601f106200144d57805160ff19168380011785556200147e565b828001600101855582156200147e579182015b828111156200147d57825182559160200191906001019062001460565b5b5090506200148d919062001491565b5090565b620014b691905b80821115620014b257600081600090555060010162001498565b5090565b90565b614a2480620014c96000396000f3fe608060405234801561001057600080fd5b506004361061022e576000357c01000000000000000000000000000000000000000000000000000000009004806371645ca011610142578063a9059cbb116100ca578063df39e6e111610099578063df39e6e114610a6f578063dff0c89814610a91578063ec8585ab14610aaf578063f6a1fe9414610add578063fe173b9714610b275761022e565b8063a9059cbb14610919578063c576a45b1461097f578063c9828ae0146109ad578063dd62ed3e146109f75761022e565b80639bae6687116101115780639bae6687146107ea578063a0712d6814610808578063a0b78dbe14610836578063a457c2d714610854578063a544e521146108ba5761022e565b806371645ca0146106e957806395d89b411461070757806396365d441461078a5780639a4f318b146107a85761022e565b806339509351116101c55780635377d9d5116101945780635377d9d5146105a457806354fd4d50146105c2578063590e1ae3146106455780636d6f1e011461064f57806370a08231146106915761022e565b8063395093511461048c57806342966c68146104f257806348c54b9d1461053457806349f9b0f71461053e5761022e565b806323b872dd1161020157806323b872dd14610364578063264e49db146103ea57806329a00e7c14610408578063309bbc6d1461046e5761022e565b806306fdde0314610233578063095ea7b3146102b65780630c7d5cd81461031c57806318160ddd14610346575b600080fd5b61023b610b45565b6040518080602001828103825283818151815260200191508051906020019080838360005b8381101561027b578082015181840152602081019050610260565b50505050905090810190601f1680156102a85780820380516001836020036101000a031916815260200191505b509250505060405180910390f35b610302600480360360408110156102cc57600080fd5b81019080803573ffffffffffffffffffffffffffffffffffffffff16906020019092919080359060200190929190505050610be3565b604051808215151515815260200191505060405180910390f35b610324610d0e565b604051808263ffffffff1663ffffffff16815260200191505060405180910390f35b61034e610d24565b6040518082815260200191505060405180910390f35b6103d06004803603606081101561037a57600080fd5b81019080803573ffffffffffffffffffffffffffffffffffffffff169060200190929190803573ffffffffffffffffffffffffffffffffffffffff16906020019092919080359060200190929190505050610d2e565b604051808215151515815260200191505060405180910390f35b6103f2610f36565b6040518082815260200191505060405180910390f35b6104586004803603608081101561041e57600080fd5b810190808035906020019092919080359060200190929190803563ffffffff16906020019092919080359060200190929190505050610f3c565b6040518082815260200191505060405180910390f35b610476611190565b6040518082815260200191505060405180910390f35b6104d8600480360360408110156104a257600080fd5b81019080803573ffffffffffffffffffffffffffffffffffffffff16906020019092919080359060200190929190505050611196565b604051808215151515815260200191505060405180910390f35b61051e6004803603602081101561050857600080fd5b81019080803590602001909291905050506113cb565b6040518082815260200191505060405180910390f35b61053c611468565b005b61058e6004803603608081101561055457600080fd5b810190808035906020019092919080359060200190929190803563ffffffff16906020019092919080359060200190929190505050611718565b6040518082815260200191505060405180910390f35b6105ac6119e8565b6040518082815260200191505060405180910390f35b6105ca6119ee565b6040518080602001828103825283818151815260200191508051906020019080838360005b8381101561060a5780820151818401526020810190506105ef565b50505050905090810190601f1680156106375780820380516001836020036101000a031916815260200191505b509250505060405180910390f35b61064d611a8c565b005b61067b6004803603602081101561066557600080fd5b8101908080359060200190929190505050611d5e565b6040518082815260200191505060405180910390f35b6106d3600480360360208110156106a757600080fd5b81019080803573ffffffffffffffffffffffffffffffffffffffff169060200190929190505050611d93565b6040518082815260200191505060405180910390f35b6106f1611ddb565b6040518082815260200191505060405180910390f35b61070f611de1565b6040518080602001828103825283818151815260200191508051906020019080838360005b8381101561074f578082015181840152602081019050610734565b50505050905090810190601f16801561077c5780820380516001836020036101000a031916815260200191505b509250505060405180910390f35b610792611e7f565b6040518082815260200191505060405180910390f35b6107d4600480360360208110156107be57600080fd5b8101908080359060200190929190505050611f7c565b6040518082815260200191505060405180910390f35b6107f2611fb1565b6040518082815260200191505060405180910390f35b6108346004803603602081101561081e57600080fd5b8101908080359060200190929190505050611fb7565b005b61083e61204f565b6040518082815260200191505060405180910390f35b6108a06004803603604081101561086a57600080fd5b81019080803573ffffffffffffffffffffffffffffffffffffffff16906020019092919080359060200190929190505050612055565b604051808215151515815260200191505060405180910390f35b6108fc600480360360208110156108d057600080fd5b81019080803573ffffffffffffffffffffffffffffffffffffffff16906020019092919050505061228a565b604051808381526020018281526020019250505060405180910390f35b6109656004803603604081101561092f57600080fd5b81019080803573ffffffffffffffffffffffffffffffffffffffff169060200190929190803590602001909291905050506122ae565b604051808215151515815260200191505060405180910390f35b6109ab6004803603602081101561099557600080fd5b81019080803590602001909291905050506122c5565b005b6109b5612572565b604051808273ffffffffffffffffffffffffffffffffffffffff1673ffffffffffffffffffffffffffffffffffffffff16815260200191505060405180910390f35b610a5960048036036040811015610a0d57600080fd5b81019080803573ffffffffffffffffffffffffffffffffffffffff169060200190929190803573ffffffffffffffffffffffffffffffffffffffff169060200190929190505050612598565b6040518082815260200191505060405180910390f35b610a7761261f565b604051808215151515815260200191505060405180910390f35b610a99612632565b6040518082815260200191505060405180910390f35b610adb60048036036020811015610ac557600080fd5b8101908080359060200190929190505050612638565b005b610ae56127a4565b604051808273ffffffffffffffffffffffffffffffffffffffff1673ffffffffffffffffffffffffffffffffffffffff16815260200191505060405180910390f35b610b2f6127ca565b6040518082815260200191505060405180910390f35b60c58054600181600116156101000203166002900480601f016020809104026020016040519081016040528092919081815260200182805460018160011615610100020316600290048015610bdb5780601f10610bb057610100808354040283529160200191610bdb565b820191906000526020600020905b815481529060010190602001808311610bbe57829003601f168201915b505050505081565b60008073ffffffffffffffffffffffffffffffffffffffff168373ffffffffffffffffffffffffffffffffffffffff161415610c1e57600080fd5b81600160003373ffffffffffffffffffffffffffffffffffffffff1673ffffffffffffffffffffffffffffffffffffffff16815260200190815260200160002060008573ffffffffffffffffffffffffffffffffffffffff1673ffffffffffffffffffffffffffffffffffffffff168152602001908152602001600020819055508273ffffffffffffffffffffffffffffffffffffffff163373ffffffffffffffffffffffffffffffffffffffff167f8c5be1e5ebec7d5bd14f71427d1e84f3dd0314c0f7b2291e5b200ac8c7c3b925846040518082815260200191505060405180910390a36001905092915050565b60b760009054906101000a900463ffffffff1681565b6000600254905090565b6000610dbf82600160008773ffffffffffffffffffffffffffffffffffffffff1673ffffffffffffffffffffffffffffffffffffffff16815260200190815260200160002060003373ffffffffffffffffffffffffffffffffffffffff1673ffffffffffffffffffffffffffffffffffffffff168152602001908152602001600020546127d090919063ffffffff16565b600160008673ffffffffffffffffffffffffffffffffffffffff1673ffffffffffffffffffffffffffffffffffffffff16815260200190815260200160002060003373ffffffffffffffffffffffffffffffffffffffff1673ffffffffffffffffffffffffffffffffffffffff16815260200190815260200160002081905550610e4a8484846127f0565b3373ffffffffffffffffffffffffffffffffffffffff168473ffffffffffffffffffffffffffffffffffffffff167f8c5be1e5ebec7d5bd14f71427d1e84f3dd0314c0f7b2291e5b200ac8c7c3b925600160008873ffffffffffffffffffffffffffffffffffffffff1673ffffffffffffffffffffffffffffffffffffffff16815260200190815260200160002060003373ffffffffffffffffffffffffffffffffffffffff1673ffffffffffffffffffffffffffffffffffffffff168152602001908152602001600020546040518082815260200191505060405180910390a3600190509392505050565b60bc5481565b6000808511610fb3576040517f08c379a000000000000000000000000000000000000000000000000000000000815260040180806020018281038252601e8152602001807f42616e636f72466f726d756c613a20537570706c79206e6f74203e20302e000081525060200191505060405180910390fd5b6000841161100c576040517f08c379a00000000000000000000000000000000000000000000000000000000081526004018080602001828103825260278152602001806149306027913960400191505060405180910390fd5b60008363ffffffff161161106b576040517f08c379a00000000000000000000000000000000000000000000000000000000081526004018080602001828103825260278152602001806149576027913960400191505060405180910390fd5b620f424063ffffffff168363ffffffff1611156110d3576040517f08c379a00000000000000000000000000000000000000000000000000000000081526004018080602001828103825260318152602001806149c86031913960400191505060405180910390fd5b60008214156110e55760009050611188565b620f424063ffffffff168363ffffffff161415611128576111218461111384886129ba90919063ffffffff16565b6129f490919063ffffffff16565b9050611188565b60008060006111408786612a1a90919063ffffffff16565b9050611151818888620f4240612a39565b809350819450505060008260ff16611172858b6129ba90919063ffffffff16565b908060020a820491505090508881039450505050505b949350505050565b60bb5481565b60008073ffffffffffffffffffffffffffffffffffffffff168373ffffffffffffffffffffffffffffffffffffffff1614156111d157600080fd5b61126082600160003373ffffffffffffffffffffffffffffffffffffffff1673ffffffffffffffffffffffffffffffffffffffff16815260200190815260200160002060008673ffffffffffffffffffffffffffffffffffffffff1673ffffffffffffffffffffffffffffffffffffffff16815260200190815260200160002054612a1a90919063ffffffff16565b600160003373ffffffffffffffffffffffffffffffffffffffff1673ffffffffffffffffffffffffffffffffffffffff16815260200190815260200160002060008573ffffffffffffffffffffffffffffffffffffffff1673ffffffffffffffffffffffffffffffffffffffff168152602001908152602001600020819055508273ffffffffffffffffffffffffffffffffffffffff163373ffffffffffffffffffffffffffffffffffffffff167f8c5be1e5ebec7d5bd14f71427d1e84f3dd0314c0f7b2291e5b200ac8c7c3b925600160003373ffffffffffffffffffffffffffffffffffffffff1673ffffffffffffffffffffffffffffffffffffffff16815260200190815260200160002060008773ffffffffffffffffffffffffffffffffffffffff1673ffffffffffffffffffffffffffffffffffffffff168152602001908152602001600020546040518082815260200191505060405180910390a36001905092915050565b6000600180151560c260009054906101000a900460ff16151514611457576040517f08c379a00000000000000000000000000000000000000000000000000000000081526004018080602001828103825260158152602001807f4375727665206d7573742062652068617463686564000000000000000000000081525060200191505060405180910390fd5b61146083612ba9565b915050919050565b600180151560c260009054906101000a900460ff161515146114f2576040517f08c379a00000000000000000000000000000000000000000000000000000000081526004018080602001828103825260158152602001807f4375727665206d7573742062652068617463686564000000000000000000000081525060200191505060405180910390fd5b600060c460003373ffffffffffffffffffffffffffffffffffffffff1673ffffffffffffffffffffffffffffffffffffffff1681526020019081526020016000206000015414156115ab576040517f08c379a000000000000000000000000000000000000000000000000000000000815260040180806020018281038252601b8152602001807f4d7573742062652063616c6c656420627920612068617463686572000000000081525060200191505060405180910390fd5b600060c460003373ffffffffffffffffffffffffffffffffffffffff1673ffffffffffffffffffffffffffffffffffffffff16815260200190815260200160002060010154116115fa57600080fd5b600060c460003373ffffffffffffffffffffffffffffffffffffffff1673ffffffffffffffffffffffffffffffffffffffff168152602001908152602001600020600001549050600060c460003373ffffffffffffffffffffffffffffffffffffffff1673ffffffffffffffffffffffffffffffffffffffff168152602001908152602001600020600101549050600060c15460bd54848161169857fe5b0402905060008260bc5485816116aa57fe5b04039050600081830390508060c460003373ffffffffffffffffffffffffffffffffffffffff1673ffffffffffffffffffffffffffffffffffffffff168152602001908152602001600020600101600082825403925050819055506117103033836127f0565b505050505050565b600080851161178f576040517f08c379a000000000000000000000000000000000000000000000000000000000815260040180806020018281038252601e8152602001807f42616e636f72466f726d756c613a20537570706c79206e6f74203e20302e000081525060200191505060405180910390fd5b600084116117e8576040517f08c379a00000000000000000000000000000000000000000000000000000000081526004018080602001828103825260278152602001806149306027913960400191505060405180910390fd5b60008363ffffffff1611611847576040517f08c379a00000000000000000000000000000000000000000000000000000000081526004018080602001828103825260278152602001806149576027913960400191505060405180910390fd5b620f424063ffffffff168363ffffffff1611156118af576040517f08c379a00000000000000000000000000000000000000000000000000000000081526004018080602001828103825260318152602001806149c86031913960400191505060405180910390fd5b84821115611908576040517f08c379a00000000000000000000000000000000000000000000000000000000081526004018080602001828103825260288152602001806149a06028913960400191505060405180910390fd5b600082141561191a57600090506119e0565b8482141561192a578390506119e0565b620f424063ffffffff168363ffffffff16141561196d576119668561195884876129ba90919063ffffffff16565b6129f490919063ffffffff16565b90506119e0565b600080600084880390506119868882620f424089612a39565b809350819450505060006119a384896129ba90919063ffffffff16565b905060008360ff16899060020a0290506119d8856119ca83856127d090919063ffffffff16565b6129f490919063ffffffff16565b955050505050505b949350505050565b60c05481565b60b68054600181600116156101000203166002900480601f016020809104026020016040519081016040528092919081815260200182805460018160011615610100020316600290048015611a845780601f10611a5957610100808354040283529160200191611a84565b820191906000526020600020905b815481529060010190602001808311611a6757829003601f168201915b505050505081565b600080151560c260009054906101000a900460ff16151514611b16576040517f08c379a00000000000000000000000000000000000000000000000000000000081526004018080602001828103825260158152602001807f4375727665206d7573742062652068617463686564000000000000000000000081525060200191505060405180910390fd5b6001600060c35442111590508115611b9d578015611b9c576040517f08c379a000000000000000000000000000000000000000000000000000000000815260040180806020018281038252601c8152602001807f43757276652068617463682074696d652068617320657870697265640000000081525060200191505060405180910390fd5b5b80611c10576040517f08c379a000000000000000000000000000000000000000000000000000000000815260040180806020018281038252601c8152602001807f43757276652068617463682074696d652068617320657870697265640000000081525060200191505060405180910390fd5b600060c460003373ffffffffffffffffffffffffffffffffffffffff1673ffffffffffffffffffffffffffffffffffffffff16815260200190815260200160002060000154905060b960009054906101000a900473ffffffffffffffffffffffffffffffffffffffff1673ffffffffffffffffffffffffffffffffffffffff1663a9059cbb33836040518363ffffffff167c0100000000000000000000000000000000000000000000000000000000028152600401808373ffffffffffffffffffffffffffffffffffffffff1673ffffffffffffffffffffffffffffffffffffffff16815260200182815260200192505050602060405180830381600087803b158015611d1c57600080fd5b505af1158015611d30573d6000803e3d6000fd5b505050506040513d6020811015611d4657600080fd5b81019080805190602001909291905050505050505050565b6000611d8c611d6b610d24565b611d73611e7f565b60b760009054906101000a900463ffffffff1685611718565b9050919050565b60008060008373ffffffffffffffffffffffffffffffffffffffff1673ffffffffffffffffffffffffffffffffffffffff168152602001908152602001600020549050919050565b60bf5481565b60c68054600181600116156101000203166002900480601f016020809104026020016040519081016040528092919081815260200182805460018160011615610100020316600290048015611e775780601f10611e4c57610100808354040283529160200191611e77565b820191906000526020600020905b815481529060010190602001808311611e5a57829003601f168201915b505050505081565b600060b960009054906101000a900473ffffffffffffffffffffffffffffffffffffffff1673ffffffffffffffffffffffffffffffffffffffff166370a08231306040518263ffffffff167c0100000000000000000000000000000000000000000000000000000000028152600401808273ffffffffffffffffffffffffffffffffffffffff1673ffffffffffffffffffffffffffffffffffffffff16815260200191505060206040518083038186803b158015611f3c57600080fd5b505afa158015611f50573d6000803e3d6000fd5b505050506040513d6020811015611f6657600080fd5b8101908080519060200190929190505050905090565b6000611faa611f89610d24565b611f91611e7f565b60b760009054906101000a900463ffffffff1685610f3c565b9050919050565b60be5481565b600180151560c260009054906101000a900460ff16151514612041576040517f08c379a00000000000000000000000000000000000000000000000000000000081526004018080602001828103825260158152602001807f4375727665206d7573742062652068617463686564000000000000000000000081525060200191505060405180910390fd5b61204a82612dff565b505050565b60c35481565b60008073ffffffffffffffffffffffffffffffffffffffff168373ffffffffffffffffffffffffffffffffffffffff16141561209057600080fd5b61211f82600160003373ffffffffffffffffffffffffffffffffffffffff1673ffffffffffffffffffffffffffffffffffffffff16815260200190815260200160002060008673ffffffffffffffffffffffffffffffffffffffff1673ffffffffffffffffffffffffffffffffffffffff168152602001908152602001600020546127d090919063ffffffff16565b600160003373ffffffffffffffffffffffffffffffffffffffff1673ffffffffffffffffffffffffffffffffffffffff16815260200190815260200160002060008573ffffffffffffffffffffffffffffffffffffffff1673ffffffffffffffffffffffffffffffffffffffff168152602001908152602001600020819055508273ffffffffffffffffffffffffffffffffffffffff163373ffffffffffffffffffffffffffffffffffffffff167f8c5be1e5ebec7d5bd14f71427d1e84f3dd0314c0f7b2291e5b200ac8c7c3b925600160003373ffffffffffffffffffffffffffffffffffffffff1673ffffffffffffffffffffffffffffffffffffffff16815260200190815260200160002060008773ffffffffffffffffffffffffffffffffffffffff1673ffffffffffffffffffffffffffffffffffffffff168152602001908152602001600020546040518082815260200191505060405180910390a36001905092915050565b60c46020528060005260406000206000915090508060000154908060010154905082565b60006122bb3384846127f0565b6001905092915050565b8060008160c460003373ffffffffffffffffffffffffffffffffffffffff1673ffffffffffffffffffffffffffffffffffffffff1681526020019081526020016000206000015401905060bf54811015612387576040517f08c379a00000000000000000000000000000000000000000000000000000000081526004018080602001828103825260198152602001807f496e73756666696369656e7420636f6e747269627574696f6e0000000000000081525060200191505060405180910390fd5b600080151560c260009054906101000a900460ff16151514612411576040517f08c379a00000000000000000000000000000000000000000000000000000000081526004018080602001828103825260158152602001807f4375727665206d7573742062652068617463686564000000000000000000000081525060200191505060405180910390fd5b60008060c35442111590508115612497578015612496576040517f08c379a000000000000000000000000000000000000000000000000000000000815260040180806020018281038252601c8152602001807f43757276652068617463682074696d652068617320657870697265640000000081525060200191505060405180910390fd5b5b8061250a576040517f08c379a000000000000000000000000000000000000000000000000000000000815260040180806020018281038252601c8152602001807f43757276652068617463682074696d652068617320657870697265640000000081525060200191505060405180910390fd5b600086905060bd548160c05401101561253b578060c06000828254019250508190555061253681612f4d565b61255f565b60c05460bd5403905060bd5460c08190555061255681612f4d565b61255e613085565b5b612569338261320f565b50505050505050565b60b960009054906101000a900473ffffffffffffffffffffffffffffffffffffffff1681565b6000600160008473ffffffffffffffffffffffffffffffffffffffff1673ffffffffffffffffffffffffffffffffffffffff16815260200190815260200160002060008373ffffffffffffffffffffffffffffffffffffffff1673ffffffffffffffffffffffffffffffffffffffff16815260200190815260200160002054905092915050565b60c260009054906101000a900460ff1681565b60bd5481565b60ba60009054906101000a900473ffffffffffffffffffffffffffffffffffffffff1673ffffffffffffffffffffffffffffffffffffffff163373ffffffffffffffffffffffffffffffffffffffff16146126de576040517f08c379a000000000000000000000000000000000000000000000000000000000815260040180806020018281038252602281526020018061497e6022913960400191505060405180910390fd5b600180151560c260009054906101000a900460ff16151514612768576040517f08c379a00000000000000000000000000000000000000000000000000000000081526004018080602001828103825260158152602001807f4375727665206d7573742062652068617463686564000000000000000000000081525060200191505060405180910390fd5b60bc54828161277357fe5b0460c16000828254019250508190555060bc5460bd540260c154106127a05760bc5460bd540260c1819055505b5050565b60ba60009054906101000a900473ffffffffffffffffffffffffffffffffffffffff1681565b60b85481565b6000828211156127df57600080fd5b600082840390508091505092915050565b600073ffffffffffffffffffffffffffffffffffffffff168273ffffffffffffffffffffffffffffffffffffffff16141561282a57600080fd5b61287b816000808673ffffffffffffffffffffffffffffffffffffffff1673ffffffffffffffffffffffffffffffffffffffff168152602001908152602001600020546127d090919063ffffffff16565b6000808573ffffffffffffffffffffffffffffffffffffffff1673ffffffffffffffffffffffffffffffffffffffff1681526020019081526020016000208190555061290e816000808573ffffffffffffffffffffffffffffffffffffffff1673ffffffffffffffffffffffffffffffffffffffff16815260200190815260200160002054612a1a90919063ffffffff16565b6000808473ffffffffffffffffffffffffffffffffffffffff1673ffffffffffffffffffffffffffffffffffffffff168152602001908152602001600020819055508173ffffffffffffffffffffffffffffffffffffffff168373ffffffffffffffffffffffffffffffffffffffff167fddf252ad1be2c89b69c2b068fc378daa952ba7f163c4a11628f55a4df523b3ef836040518082815260200191505060405180910390a3505050565b6000808314156129cd57600090506129ee565b60008284029050828482816129de57fe5b04146129e957600080fd5b809150505b92915050565b6000808211612a0257600080fd5b6000828481612a0d57fe5b0490508091505092915050565b600080828401905083811015612a2f57600080fd5b8091505092915050565b6000807002000000000000000000000000000000008610612a5657fe5b84861015612acc576040517f08c379a000000000000000000000000000000000000000000000000000000000815260040180806020018281038252601c8152602001807f4261736573203c203120617265206e6f7420737570706f727465642e0000000081525060200191505060405180910390fd5b600080866f80000000000000000000000000000000890281612aea57fe5b04905070015bf0a8b1457695355fb8ac404e7a79e3811015612b1657612b0f816132b7565b9150612b22565b612b1f81613847565b91505b60008563ffffffff168763ffffffff16840281612b3b57fe5b049050700800000000000000000000000000000000811015612b6e57612b6081613982565b607f94509450505050612ba0565b6000612b7982613efc565b9050612b9681607f0360ff1683908060020a820491505082613fb1565b8195509550505050505b94509492505050565b600080612bb583614452565b9050600081620f424060be5481612bc857fe5b0460010302905060b960009054906101000a900473ffffffffffffffffffffffffffffffffffffffff1673ffffffffffffffffffffffffffffffffffffffff1663a9059cbb33836040518363ffffffff167c0100000000000000000000000000000000000000000000000000000000028152600401808373ffffffffffffffffffffffffffffffffffffffff1673ffffffffffffffffffffffffffffffffffffffff16815260200182815260200192505050602060405180830381600087803b158015612c9457600080fd5b505af1158015612ca8573d6000803e3d6000fd5b505050506040513d6020811015612cbe57600080fd5b81019080805190602001909291905050505060b960009054906101000a900473ffffffffffffffffffffffffffffffffffffffff1673ffffffffffffffffffffffffffffffffffffffff1663a9059cbb60ba60009054906101000a900473ffffffffffffffffffffffffffffffffffffffff168385036040518363ffffffff167c0100000000000000000000000000000000000000000000000000000000028152600401808373ffffffffffffffffffffffffffffffffffffffff1673ffffffffffffffffffffffffffffffffffffffff16815260200182815260200192505050602060405180830381600087803b158015612db957600080fd5b505af1158015612dcd573d6000803e3d6000fd5b505050506040513d6020811015612de357600080fd5b8101908080519060200190929190505050508192505050919050565b600060b960009054906101000a900473ffffffffffffffffffffffffffffffffffffffff1673ffffffffffffffffffffffffffffffffffffffff166323b872dd3330856040518463ffffffff167c0100000000000000000000000000000000000000000000000000000000028152600401808473ffffffffffffffffffffffffffffffffffffffff1673ffffffffffffffffffffffffffffffffffffffff1681526020018373ffffffffffffffffffffffffffffffffffffffff1673ffffffffffffffffffffffffffffffffffffffff1681526020018281526020019350505050602060405180830381600087803b158015612efa57600080fd5b505af1158015612f0e573d6000803e3d6000fd5b505050506040513d6020811015612f2457600080fd5b8101908080519060200190929190505050612f3e57600080fd5b612f4782614465565b50919050565b60b960009054906101000a900473ffffffffffffffffffffffffffffffffffffffff1673ffffffffffffffffffffffffffffffffffffffff166323b872dd3330846040518463ffffffff167c0100000000000000000000000000000000000000000000000000000000028152600401808473ffffffffffffffffffffffffffffffffffffffff1673ffffffffffffffffffffffffffffffffffffffff1681526020018373ffffffffffffffffffffffffffffffffffffffff1673ffffffffffffffffffffffffffffffffffffffff1681526020018281526020019350505050602060405180830381600087803b15801561304657600080fd5b505af115801561305a573d6000803e3d6000fd5b505050506040513d602081101561307057600080fd5b81019080805190602001909291905050505050565b6000620f424060bb5460bd54028161309957fe5b0490506000620f424060bb54620f42400360bc5460bd54816130b757fe5b0402816130c057fe5b04905060b960009054906101000a900473ffffffffffffffffffffffffffffffffffffffff1673ffffffffffffffffffffffffffffffffffffffff1663a9059cbb60ba60009054906101000a900473ffffffffffffffffffffffffffffffffffffffff16846040518363ffffffff167c0100000000000000000000000000000000000000000000000000000000028152600401808373ffffffffffffffffffffffffffffffffffffffff1673ffffffffffffffffffffffffffffffffffffffff16815260200182815260200192505050602060405180830381600087803b1580156131aa57600080fd5b505af11580156131be573d6000803e3d6000fd5b505050506040513d60208110156131d457600080fd5b8101908080519060200190929190505050506131f03082614478565b600160c260006101000a81548160ff0219169083151502179055505050565b8060c460008473ffffffffffffffffffffffffffffffffffffffff1673ffffffffffffffffffffffffffffffffffffffff1681526020019081526020016000206000016000828254019250508190555060bc54810260c460008473ffffffffffffffffffffffffffffffffffffffff1673ffffffffffffffffffffffffffffffffffffffff168152602001908152602001600020600101600082825401925050819055505050565b6000806000905060008060006fd3094c70f034de4b96ff7d5b6f99fcd8861061331e576f40000000000000000000000000000000840193506fd3094c70f034de4b96ff7d5b6f99fcd86f8000000000000000000000000000000087028161331a57fe5b0495505b6fa45af1e1f40c333b3de1db4dd55f29a78610613379576f20000000000000000000000000000000840193506fa45af1e1f40c333b3de1db4dd55f29a76f8000000000000000000000000000000087028161337557fe5b0495505b6f910b022db7ae67ce76b441c27035c6a186106133d4576f10000000000000000000000000000000840193506f910b022db7ae67ce76b441c27035c6a16f800000000000000000000000000000008702816133d057fe5b0495505b6f88415abbe9a76bead8d00cf112e4d4a8861061342f576f08000000000000000000000000000000840193506f88415abbe9a76bead8d00cf112e4d4a86f8000000000000000000000000000000087028161342b57fe5b0495505b6f84102b00893f64c705e841d5d4064bd3861061348a576f04000000000000000000000000000000840193506f84102b00893f64c705e841d5d4064bd36f8000000000000000000000000000000087028161348657fe5b0495505b6f8204055aaef1c8bd5c3259f4822735a286106134e5576f02000000000000000000000000000000840193506f8204055aaef1c8bd5c3259f4822735a26f800000000000000000000000000000008702816134e157fe5b0495505b6f810100ab00222d861931c15e39b44e998610613540576f01000000000000000000000000000000840193506f810100ab00222d861931c15e39b44e996f8000000000000000000000000000000087028161353c57fe5b0495505b6f808040155aabbbe9451521693554f733861061359a576e800000000000000000000000000000840193506f808040155aabbbe9451521693554f7336f8000000000000000000000000000000087028161359657fe5b0495505b6f80000000000000000000000000000000860392508291506f80000000000000000000000000000000838402816135cd57fe5b04905070010000000000000000000000000000000083700100000000000000000000000000000000038302816135ff57fe5b04840193506f800000000000000000000000000000008183028161361f57fe5b049150700200000000000000000000000000000000836faaaaaaaaaaaaaaaaaaaaaaaaaaaaaaaa0383028161365057fe5b04840193506f800000000000000000000000000000008183028161367057fe5b049150700300000000000000000000000000000000836f99999999999999999999999999999999038302816136a157fe5b04840193506f80000000000000000000000000000000818302816136c157fe5b049150700400000000000000000000000000000000836f92492492492492492492492492492492038302816136f257fe5b04840193506f800000000000000000000000000000008183028161371257fe5b049150700500000000000000000000000000000000836f8e38e38e38e38e38e38e38e38e38e38e0383028161374357fe5b04840193506f800000000000000000000000000000008183028161376357fe5b049150700600000000000000000000000000000000836f8ba2e8ba2e8ba2e8ba2e8ba2e8ba2e8b0383028161379457fe5b04840193506f80000000000000000000000000000000818302816137b457fe5b049150700700000000000000000000000000000000836f89d89d89d89d89d89d89d89d89d89d89038302816137e557fe5b04840193506f800000000000000000000000000000008183028161380557fe5b049150700800000000000000000000000000000000836f888888888888888888888888888888880383028161383657fe5b048401935083945050505050919050565b60008060009050600083905070010000000000000000000000000000000081106138bc57600061388f6f80000000000000000000000000000000838161388957fe5b046145ca565b90508060ff1682908060020a820491505091506f800000000000000000000000000000008160ff16029250505b6f8000000000000000000000000000000081111561394d576000607f90505b60008160ff16111561394b576f800000000000000000000000000000008283028161390257fe5b049150700100000000000000000000000000000000821061393f57600182908060020a820491505091506001810360ff1660019060020a02830192505b806001900390506138db565b505b6f05b9de1d10bf4103d647b0955897ba806f03f80fe03f80fe03f80fe03f80fe03f883028161397857fe5b0492505050919050565b600080600090506000806f1000000000000000000000000000000085816139a557fe5b0691508190506f80000000000000000000000000000000828202816139c657fe5b0490506710e1b3be415a00008102830192506f80000000000000000000000000000000828202816139f357fe5b0490506705a0913f6b1e00008102830192506f8000000000000000000000000000000082820281613a2057fe5b049050670168244fdac780008102830192506f8000000000000000000000000000000082820281613a4d57fe5b049050664807432bc180008102830192506f8000000000000000000000000000000082820281613a7957fe5b049050660c0135dca040008102830192506f8000000000000000000000000000000082820281613aa557fe5b0490506601b707b1cdc0008102830192506f8000000000000000000000000000000082820281613ad157fe5b0490506536e0f639b8008102830192506f8000000000000000000000000000000082820281613afc57fe5b049050650618fee9f8008102830192506f8000000000000000000000000000000082820281613b2757fe5b049050649c197dcc008102830192506f8000000000000000000000000000000082820281613b5157fe5b049050640e30dce4008102830192506f8000000000000000000000000000000082820281613b7b57fe5b04905064012ebd13008102830192506f8000000000000000000000000000000082820281613ba557fe5b0490506317499f008102830192506f8000000000000000000000000000000082820281613bce57fe5b0490506301a9d4808102830192506f8000000000000000000000000000000082820281613bf757fe5b049050621c63808102830192506f8000000000000000000000000000000082820281613c1f57fe5b0490506201c6388102830192506f8000000000000000000000000000000082820281613c4757fe5b049050611ab88102830192506f8000000000000000000000000000000082820281613c6e57fe5b04905061017c8102830192506f8000000000000000000000000000000082820281613c9557fe5b04905060148102830192506f8000000000000000000000000000000082820281613cbb57fe5b04905060018102830192506f80000000000000000000000000000000826721c3677c82b400008581613ce957fe5b040101925060006f10000000000000000000000000000000861614613d395770018ebef9eac820ae8682b9793ac6d1e7767001c3d6a24ed82218787d624d3e5eba95f9840281613d3557fe5b0492505b60006f20000000000000000000000000000000861614613d84577001368b2fc6f9609fe7aceb46aa619baed470018ebef9eac820ae8682b9793ac6d1e778840281613d8057fe5b0492505b60006f40000000000000000000000000000000861614613dce576fbc5ab1b16779be3575bd8f0520a9f21f7001368b2fc6f9609fe7aceb46aa619baed5840281613dca57fe5b0492505b60006f80000000000000000000000000000000861614613e17576f454aaa8efe072e7f6ddbab84b40a55c96fbc5ab1b16779be3575bd8f0520a9f21e840281613e1357fe5b0492505b6000700100000000000000000000000000000000861614613e61576f0960aadc109e7a3bf4578099615711ea6f454aaa8efe072e7f6ddbab84b40a55c5840281613e5d57fe5b0492505b6000700200000000000000000000000000000000861614613eaa576e2bf84208204f5977f9a8cf01fdce3d6f0960aadc109e7a3bf4578099615711d7840281613ea657fe5b0492505b6000700400000000000000000000000000000000861614613ef1576d03c6ab775dd0b95b4cbee7e65d116e2bf84208204f5977f9a8cf01fdc307840281613eed57fe5b0492505b829350505050919050565b600080602090506000607f90505b8060ff166001830160ff161015613f59576000600282840160ff1681613f2c57fe5b0490508460368260ff1660808110613f4057fe5b015410613f4f57809250613f53565b8091505b50613f0a565b8360368260ff1660808110613f6a57fe5b015410613f7b578092505050613fac565b8360368360ff1660808110613f8c57fe5b015410613f9d578192505050613fac565b6000613fa557fe5b6000925050505b919050565b60008083905060008090508360ff16858302908060020a820491505091506f03442c4e6074a82f1797f72ac00000008202810190508360ff16858302908060020a820491505091506f0116b96f757c380fb287fd0e400000008202810190508360ff16858302908060020a820491505091506e45ae5bdd5f0e03eca1ff43900000008202810190508360ff16858302908060020a820491505091506e0defabf91302cd95b9ffda500000008202810190508360ff16858302908060020a820491505091506e02529ca9832b22439efff9b80000008202810190508360ff16858302908060020a820491505091506d54f1cf12bd04e516b6da880000008202810190508360ff16858302908060020a820491505091506d0a9e39e257a09ca2d6db510000008202810190508360ff16858302908060020a820491505091506d012e066e7b839fa050c3090000008202810190508360ff16858302908060020a820491505091506c1e33d7d926c329a1ad1a8000008202810190508360ff16858302908060020a820491505091506c02bee513bdb4a6b19b5f8000008202810190508360ff16858302908060020a820491505091506b3a9316fa79b88eccf2a000008202810190508360ff16858302908060020a820491505091506b048177ebe1fa8123752000008202810190508360ff16858302908060020a820491505091506a5263fe90242dcbacf000008202810190508360ff16858302908060020a820491505091506a057e22099c030d941000008202810190508360ff16858302908060020a820491505091506957e22099c030d94100008202810190508360ff16858302908060020a8204915050915069052b6b545699763100008202810190508360ff16858302908060020a82049150509150684985f67696bf7480008202810190508360ff16858302908060020a820491505091506803dea12ea99e4980008202810190508360ff16858302908060020a820491505091506731880f2214b6e0008202810190508360ff16858302908060020a8204915050915067025bcff56eb360008202810190508360ff16858302908060020a82049150509150661b722e10ab10008202810190508360ff16858302908060020a820491505091506601317c700770008202810190508360ff16858302908060020a82049150509150650cba84aafa008202810190508360ff16858302908060020a820491505091506482573a0a008202810190508360ff16858302908060020a820491505091506405035ad9008202810190508360ff16858302908060020a82049150509150632f881b008202810190508360ff16858302908060020a820491505091506301b293408202810190508360ff16858302908060020a82049150509150620efc408202810190508360ff16858302908060020a82049150509150617fe08202810190508360ff16858302908060020a820491505091506104208202810190508360ff16858302908060020a8204915050915060218202810190508360ff16858302908060020a8204915050915060018202810190508360ff1660019060020a02856f0688589cc0e9505e2f2fee5580000000838161444557fe5b0401019250505092915050565b600061445e3383614667565b9050919050565b6000614471338361472c565b9050919050565b600073ffffffffffffffffffffffffffffffffffffffff168273ffffffffffffffffffffffffffffffffffffffff1614156144b257600080fd5b6144c781600254612a1a90919063ffffffff16565b60028190555061451e816000808573ffffffffffffffffffffffffffffffffffffffff1673ffffffffffffffffffffffffffffffffffffffff16815260200190815260200160002054612a1a90919063ffffffff16565b6000808473ffffffffffffffffffffffffffffffffffffffff1673ffffffffffffffffffffffffffffffffffffffff168152602001908152602001600020819055508173ffffffffffffffffffffffffffffffffffffffff16600073ffffffffffffffffffffffffffffffffffffffff167fddf252ad1be2c89b69c2b068fc378daa952ba7f163c4a11628f55a4df523b3ef836040518082815260200191505060405180910390a35050565b600080600090506000839050610100811015614609575b600181111561460457600181908060020a820491505090506001820191506145e1565b61465d565b6000608090505b60008160ff16111561465b578060ff1660019060020a028210614644578060ff1682908060020a8204915050915080831792505b60018160ff16908060020a82049150509050614610565b505b8192505050919050565b600060b8543a111561467557fe5b8160008111801561468e57508061468b33611d93565b10155b61469757600080fd5b60006146a284611d5e565b90506146ae85856147dd565b7f14feb1b32dbb3ebf172a72bc6b201cb3ddcd8dd148da8b8ac41207f2d69bdd32858583604051808473ffffffffffffffffffffffffffffffffffffffff1673ffffffffffffffffffffffffffffffffffffffff168152602001838152602001828152602001935050505060405180910390a1809250505092915050565b600060b8543a111561473a57fe5b816000811161474857600080fd5b600061475384611f7c565b905061475f8582614478565b7f65ab8b57af027ad387b3f608b0745de61b7dc81d07be6ded03736db32fe46bd9858286604051808473ffffffffffffffffffffffffffffffffffffffff1673ffffffffffffffffffffffffffffffffffffffff168152602001838152602001828152602001935050505060405180910390a1809250505092915050565b600073ffffffffffffffffffffffffffffffffffffffff168273ffffffffffffffffffffffffffffffffffffffff16141561481757600080fd5b61482c816002546127d090919063ffffffff16565b600281905550614883816000808573ffffffffffffffffffffffffffffffffffffffff1673ffffffffffffffffffffffffffffffffffffffff168152602001908152602001600020546127d090919063ffffffff16565b6000808473ffffffffffffffffffffffffffffffffffffffff1673ffffffffffffffffffffffffffffffffffffffff16815260200190815260200160002081905550600073ffffffffffffffffffffffffffffffffffffffff168273ffffffffffffffffffffffffffffffffffffffff167fddf252ad1be2c89b69c2b068fc378daa952ba7f163c4a11628f55a4df523b3ef836040518082815260200191505060405180910390a3505056fe42616e636f72466f726d756c613a20436f6e6e6563746f7242616c616e6365206e6f74203e203042616e636f72466f726d756c613a20436f6e6e6563746f7220576569676874206e6f74203e20304d7573742062652063616c6c6564206279207468652066756e64696e6720706f6f6c42616e636f72466f726d756c613a2053656c6c20416d6f756e74206e6f74203c3d20537570706c7942616e636f72466f726d756c613a20436f6e6e6563746f7220576569676874206e6f74203c3d204d41585f574549474854a165627a7a7230582059e6e9351184c998286ae489e7f51431f5ac565e7811dd0a2fbecee8908a2f830029",
  "source": "pragma solidity ^0.5.0;\n\nimport \"./CommonsToken.sol\";\n\ncontract ArtistToken is CommonsToken {\n    string public name;   // e.g: Armin Van Lightstreams\n    string public symbol; // e.g: AVL\n\n    constructor (\n        string memory _name,\n        string memory _symbol,\n        address _externalToken,\n        uint32 _reserveRatio,\n        uint256 _gasPrice,\n        uint256 _theta,\n        uint256 _p0,\n        uint256 _initialRaise,\n        address _fundingPool,\n        uint256 _friction,\n        uint256 _duration,\n        uint256 _minExternalContribution\n    ) public\n    CommonsToken(\n        _externalToken,\n        _reserveRatio,\n        _gasPrice,\n        _theta,\n        _p0,\n        _initialRaise,\n        _fundingPool,\n        _friction,\n        _duration,\n        _minExternalContribution\n    ) {\n        name = _name;\n        symbol = _symbol;\n    }\n}\n",
  "sourcePath": "/Users/enchanterio/go/src/github.com/lightstreams-network/lightstreams-js-sdk/contracts/bondingcurve/ArtistToken.sol",
  "compiler": {
    "name": "solc",
    "version": "0.5.8+commit.23d335f2.Emscripten.clang"
  },
  "schemaVersion": "3.0.1",
  "updatedAt": "2019-10-16T08:42:27.139Z",
  "devdoc": {
    "methods": {
      "allowance(address,address)": {
        "details": "Function to check the amount of tokens that an owner allowed to a spender.",
        "params": {
          "owner": "address The address which owns the funds.",
          "spender": "address The address which will spend the funds."
        },
        "return": "A uint256 specifying the amount of tokens still available for the spender."
      },
      "approve(address,uint256)": {
        "details": "Approve the passed address to spend the specified amount of tokens on behalf of msg.sender. Beware that changing an allowance with this method brings the risk that someone may use both the old and the new allowance by unfortunate transaction ordering. One possible solution to mitigate this race condition is to first reduce the spender's allowance to 0 and set the desired value afterwards: https://github.com/ethereum/EIPs/issues/20#issuecomment-263524729",
        "params": {
          "spender": "The address which will spend the funds.",
          "value": "The amount of tokens to be spent."
        }
      },
      "balanceOf(address)": {
        "details": "Gets the balance of the specified address.",
        "params": {
          "owner": "The address to query the balance of."
        },
        "return": "An uint256 representing the amount owned by the passed address."
      },
      "calculatePurchaseReturn(uint256,uint256,uint32,uint256)": {
        "details": "given a token supply, connector balance, weight and a deposit amount (in the connector token), calculates the return for a given conversion (in the main token)  * Formula: Return = _supply * ((1 + _depositAmount / _connectorBalance) ^ (_connectorWeight / 1000000) - 1)",
        "params": {
          "_connectorBalance": "total connector balance",
          "_connectorWeight": "connector weight, represented in ppm, 1-1000000",
          "_depositAmount": "deposit amount, in connector token",
          "_supply": "token total supply"
        },
        "return": "purchase return amount"
      },
      "calculateSaleReturn(uint256,uint256,uint32,uint256)": {
        "details": "given a token supply, connector balance, weight and a sell amount (in the main token), calculates the return for a given conversion (in the connector token)  * Formula: Return = _connectorBalance * (1 - (1 - _sellAmount / _supply) ^ (1 / (_connectorWeight / 1000000)))",
        "params": {
          "_connectorBalance": "total connector",
          "_connectorWeight": "constant connector Weight, represented in ppm, 1-1000000",
          "_sellAmount": "sell amount, in the token itself",
          "_supply": "token total supply"
        },
        "return": "sale return amount"
      },
      "decreaseAllowance(address,uint256)": {
        "details": "Decrease the amount of tokens that an owner allowed to a spender. approve should be called when allowed_[_spender] == 0. To decrement allowed value is better to use this function to avoid 2 calls (and wait until the first transaction is mined) From MonolithDAO Token.sol Emits an Approval event.",
        "params": {
          "spender": "The address which will spend the funds.",
          "subtractedValue": "The amount of tokens to decrease the allowance by."
        }
      },
      "increaseAllowance(address,uint256)": {
        "details": "Increase the amount of tokens that an owner allowed to a spender. approve should be called when allowed_[_spender] == 0. To increment allowed value is better to use this function to avoid 2 calls (and wait until the first transaction is mined) From MonolithDAO Token.sol Emits an Approval event.",
        "params": {
          "addedValue": "The amount of tokens to increase the allowance by.",
          "spender": "The address which will spend the funds."
        }
      },
      "totalSupply()": {
        "details": "Total number of tokens in existence"
      },
      "transfer(address,uint256)": {
        "details": "Transfer token for a specified address",
        "params": {
          "to": "The address to transfer to.",
          "value": "The amount to be transferred."
        }
      },
      "transferFrom(address,address,uint256)": {
        "details": "Transfer tokens from one address to another. Note that while this function emits an Approval event, this is not required as per the specification, and other compliant implementations may not emit the event.",
        "params": {
          "from": "address The address which you want to send tokens from",
          "to": "address The address which you want to transfer to",
          "value": "uint256 the amount of tokens to be transferred"
        }
      }
    }
  },
  "userdoc": {
    "methods": {}
  }
}