{
  "contractName": "CommonsToken",
  "abi": [
    {
      "constant": true,
      "inputs": [],
      "name": "reserveRatio",
      "outputs": [
        {
          "name": "",
          "type": "uint32"
        }
      ],
      "payable": false,
      "stateMutability": "view",
      "type": "function"
    },
    {
      "constant": true,
      "inputs": [],
      "name": "totalSupply",
      "outputs": [
        {
          "name": "",
          "type": "uint256"
        }
      ],
      "payable": false,
      "stateMutability": "view",
      "type": "function"
    },
    {
      "constant": true,
      "inputs": [],
      "name": "p0",
      "outputs": [
        {
          "name": "",
          "type": "uint256"
        }
      ],
      "payable": false,
      "stateMutability": "view",
      "type": "function"
    },
    {
      "constant": true,
      "inputs": [
        {
          "name": "_supply",
          "type": "uint256"
        },
        {
          "name": "_connectorBalance",
          "type": "uint256"
        },
        {
          "name": "_connectorWeight",
          "type": "uint32"
        },
        {
          "name": "_depositAmount",
          "type": "uint256"
        }
      ],
      "name": "calculatePurchaseReturn",
      "outputs": [
        {
          "name": "",
          "type": "uint256"
        }
      ],
      "payable": false,
      "stateMutability": "view",
      "type": "function"
    },
    {
      "constant": true,
      "inputs": [],
      "name": "theta",
      "outputs": [
        {
          "name": "",
          "type": "uint256"
        }
      ],
      "payable": false,
      "stateMutability": "view",
      "type": "function"
    },
    {
      "constant": false,
      "inputs": [
        {
          "name": "spender",
          "type": "address"
        },
        {
          "name": "addedValue",
          "type": "uint256"
        }
      ],
      "name": "increaseAllowance",
      "outputs": [
        {
          "name": "",
          "type": "bool"
        }
      ],
      "payable": false,
      "stateMutability": "nonpayable",
      "type": "function"
    },
    {
      "constant": false,
      "inputs": [],
      "name": "unpause",
      "outputs": [],
      "payable": false,
      "stateMutability": "nonpayable",
      "type": "function"
    },
    {
      "constant": true,
      "inputs": [],
      "name": "hatchVestingDurationSeconds",
      "outputs": [
        {
          "name": "",
          "type": "uint256"
        }
      ],
      "payable": false,
      "stateMutability": "view",
      "type": "function"
    },
    {
      "constant": true,
      "inputs": [],
      "name": "feeRecipient",
      "outputs": [
        {
          "name": "",
          "type": "address"
        }
      ],
      "payable": false,
      "stateMutability": "view",
      "type": "function"
    },
    {
      "constant": true,
      "inputs": [
        {
          "name": "account",
          "type": "address"
        }
      ],
      "name": "isPauser",
      "outputs": [
        {
          "name": "",
          "type": "bool"
        }
      ],
      "payable": false,
      "stateMutability": "view",
      "type": "function"
    },
    {
      "constant": true,
      "inputs": [
        {
          "name": "_supply",
          "type": "uint256"
        },
        {
          "name": "_connectorBalance",
          "type": "uint256"
        },
        {
          "name": "_connectorWeight",
          "type": "uint32"
        },
        {
          "name": "_sellAmount",
          "type": "uint256"
        }
      ],
      "name": "calculateSaleReturn",
      "outputs": [
        {
          "name": "",
          "type": "uint256"
        }
      ],
      "payable": false,
      "stateMutability": "view",
      "type": "function"
    },
    {
      "constant": true,
      "inputs": [],
      "name": "raisedExternal",
      "outputs": [
        {
          "name": "",
          "type": "uint256"
        }
      ],
      "payable": false,
      "stateMutability": "view",
      "type": "function"
    },
    {
      "constant": true,
      "inputs": [],
      "name": "version",
      "outputs": [
        {
          "name": "",
          "type": "string"
        }
      ],
      "payable": false,
      "stateMutability": "view",
      "type": "function"
    },
    {
      "constant": true,
      "inputs": [],
      "name": "paused",
      "outputs": [
        {
          "name": "",
          "type": "bool"
        }
      ],
      "payable": false,
      "stateMutability": "view",
      "type": "function"
    },
    {
      "constant": true,
      "inputs": [
        {
          "name": "amount",
          "type": "uint256"
        }
      ],
      "name": "calculateCurvedBurnReturn",
      "outputs": [
        {
          "name": "",
          "type": "uint256"
        }
      ],
      "payable": false,
      "stateMutability": "view",
      "type": "function"
    },
    {
      "constant": false,
      "inputs": [],
      "name": "renouncePauser",
      "outputs": [],
      "payable": false,
      "stateMutability": "nonpayable",
      "type": "function"
    },
    {
      "constant": true,
      "inputs": [
        {
          "name": "owner",
          "type": "address"
        }
      ],
      "name": "balanceOf",
      "outputs": [
        {
          "name": "",
          "type": "uint256"
        }
      ],
      "payable": false,
      "stateMutability": "view",
      "type": "function"
    },
    {
      "constant": true,
      "inputs": [],
      "name": "minExternalContribution",
      "outputs": [
        {
          "name": "",
          "type": "uint256"
        }
      ],
      "payable": false,
      "stateMutability": "view",
      "type": "function"
    },
    {
      "constant": false,
      "inputs": [
        {
          "name": "account",
          "type": "address"
        }
      ],
      "name": "addPauser",
      "outputs": [],
      "payable": false,
      "stateMutability": "nonpayable",
      "type": "function"
    },
    {
      "constant": false,
      "inputs": [],
      "name": "pause",
      "outputs": [],
      "payable": false,
      "stateMutability": "nonpayable",
      "type": "function"
    },
    {
      "constant": true,
      "inputs": [],
      "name": "hatchVestingDeadline",
      "outputs": [
        {
          "name": "",
          "type": "uint256"
        }
      ],
      "payable": false,
      "stateMutability": "view",
      "type": "function"
    },
    {
      "constant": true,
      "inputs": [
        {
          "name": "amount",
          "type": "uint256"
        }
      ],
      "name": "calculateCurvedMintReturn",
      "outputs": [
        {
          "name": "",
          "type": "uint256"
        }
      ],
      "payable": false,
      "stateMutability": "view",
      "type": "function"
    },
    {
      "constant": true,
      "inputs": [],
      "name": "friction",
      "outputs": [
        {
          "name": "",
          "type": "uint256"
        }
      ],
      "payable": false,
      "stateMutability": "view",
      "type": "function"
    },
    {
      "constant": true,
      "inputs": [],
      "name": "hatchDeadline",
      "outputs": [
        {
          "name": "",
          "type": "uint256"
        }
      ],
      "payable": false,
      "stateMutability": "view",
      "type": "function"
    },
    {
      "constant": false,
      "inputs": [
        {
          "name": "spender",
          "type": "address"
        },
        {
          "name": "subtractedValue",
          "type": "uint256"
        }
      ],
      "name": "decreaseAllowance",
      "outputs": [
        {
          "name": "",
          "type": "bool"
        }
      ],
      "payable": false,
      "stateMutability": "nonpayable",
      "type": "function"
    },
    {
      "constant": true,
      "inputs": [
        {
          "name": "",
          "type": "address"
        }
      ],
      "name": "initialContributions",
      "outputs": [
        {
          "name": "paidExternal",
          "type": "uint256"
        },
        {
          "name": "lockedInternal",
          "type": "uint256"
        }
      ],
      "payable": false,
      "stateMutability": "view",
      "type": "function"
    },
    {
      "constant": true,
      "inputs": [],
      "name": "externalToken",
      "outputs": [
        {
          "name": "",
          "type": "address"
        }
      ],
      "payable": false,
      "stateMutability": "view",
      "type": "function"
    },
    {
      "constant": true,
      "inputs": [
        {
          "name": "owner",
          "type": "address"
        },
        {
          "name": "spender",
          "type": "address"
        }
      ],
      "name": "allowance",
      "outputs": [
        {
          "name": "",
          "type": "uint256"
        }
      ],
      "payable": false,
      "stateMutability": "view",
      "type": "function"
    },
    {
      "constant": true,
      "inputs": [],
      "name": "isHatched",
      "outputs": [
        {
          "name": "",
          "type": "bool"
        }
      ],
      "payable": false,
      "stateMutability": "view",
      "type": "function"
    },
    {
      "constant": true,
      "inputs": [],
      "name": "initialRaise",
      "outputs": [
        {
          "name": "",
          "type": "uint256"
        }
      ],
      "payable": false,
      "stateMutability": "view",
      "type": "function"
    },
    {
      "constant": true,
      "inputs": [],
      "name": "fundingPool",
      "outputs": [
        {
          "name": "",
          "type": "address"
        }
      ],
      "payable": false,
      "stateMutability": "view",
      "type": "function"
    },
    {
      "constant": true,
      "inputs": [],
      "name": "gasPrice",
      "outputs": [
        {
          "name": "",
          "type": "uint256"
        }
      ],
      "payable": false,
      "stateMutability": "view",
      "type": "function"
    },
    {
      "inputs": [
        {
          "name": "_addresses",
          "type": "address[4]"
        },
        {
          "name": "_settings",
          "type": "uint256[8]"
        },
        {
          "name": "_reserveRatio",
          "type": "uint32"
        }
      ],
      "payable": false,
      "stateMutability": "nonpayable",
      "type": "constructor"
    },
    {
      "anonymous": false,
      "inputs": [
        {
          "indexed": false,
          "name": "account",
          "type": "address"
        }
      ],
      "name": "Paused",
      "type": "event"
    },
    {
      "anonymous": false,
      "inputs": [
        {
          "indexed": false,
          "name": "account",
          "type": "address"
        }
      ],
      "name": "Unpaused",
      "type": "event"
    },
    {
      "anonymous": false,
      "inputs": [
        {
          "indexed": true,
          "name": "account",
          "type": "address"
        }
      ],
      "name": "PauserAdded",
      "type": "event"
    },
    {
      "anonymous": false,
      "inputs": [
        {
          "indexed": true,
          "name": "account",
          "type": "address"
        }
      ],
      "name": "PauserRemoved",
      "type": "event"
    },
    {
      "anonymous": false,
      "inputs": [
        {
          "indexed": false,
          "name": "sender",
          "type": "address"
        },
        {
          "indexed": false,
          "name": "amount",
          "type": "uint256"
        },
        {
          "indexed": false,
          "name": "deposit",
          "type": "uint256"
        }
      ],
      "name": "CurvedMint",
      "type": "event"
    },
    {
      "anonymous": false,
      "inputs": [
        {
          "indexed": false,
          "name": "sender",
          "type": "address"
        },
        {
          "indexed": false,
          "name": "amount",
          "type": "uint256"
        },
        {
          "indexed": false,
          "name": "reimbursement",
          "type": "uint256"
        }
      ],
      "name": "CurvedBurn",
      "type": "event"
    },
    {
      "anonymous": false,
      "inputs": [
        {
          "indexed": true,
          "name": "from",
          "type": "address"
        },
        {
          "indexed": true,
          "name": "to",
          "type": "address"
        },
        {
          "indexed": false,
          "name": "value",
          "type": "uint256"
        }
      ],
      "name": "Transfer",
      "type": "event"
    },
    {
      "anonymous": false,
      "inputs": [
        {
          "indexed": true,
          "name": "owner",
          "type": "address"
        },
        {
          "indexed": true,
          "name": "spender",
          "type": "address"
        },
        {
          "indexed": false,
          "name": "value",
          "type": "uint256"
        }
      ],
      "name": "Approval",
      "type": "event"
    },
    {
      "constant": false,
      "inputs": [
        {
          "name": "_amount",
          "type": "uint256"
        }
      ],
      "name": "mint",
      "outputs": [
        {
          "name": "",
          "type": "uint256"
        }
      ],
      "payable": false,
      "stateMutability": "nonpayable",
      "type": "function"
    },
    {
      "constant": false,
      "inputs": [
        {
          "name": "_amount",
          "type": "uint256"
        }
      ],
      "name": "burn",
      "outputs": [
        {
          "name": "",
          "type": "uint256"
        }
      ],
      "payable": false,
      "stateMutability": "nonpayable",
      "type": "function"
    },
    {
      "constant": false,
      "inputs": [
        {
          "name": "_value",
          "type": "uint256"
        }
      ],
      "name": "hatchContribute",
      "outputs": [
        {
          "name": "",
          "type": "uint256"
        }
      ],
      "payable": false,
      "stateMutability": "nonpayable",
      "type": "function"
    },
    {
      "constant": false,
      "inputs": [
        {
          "name": "_externalAllocated",
          "type": "uint256"
        }
      ],
      "name": "fundsAllocated",
      "outputs": [],
      "payable": false,
      "stateMutability": "nonpayable",
      "type": "function"
    },
    {
      "constant": false,
      "inputs": [],
      "name": "claimTokens",
      "outputs": [
        {
          "name": "",
          "type": "uint256"
        }
      ],
      "payable": false,
      "stateMutability": "nonpayable",
      "type": "function"
    },
    {
      "constant": false,
      "inputs": [],
      "name": "refund",
      "outputs": [
        {
          "name": "",
          "type": "uint256"
        }
      ],
      "payable": false,
      "stateMutability": "nonpayable",
      "type": "function"
    },
    {
      "constant": false,
      "inputs": [
        {
          "name": "to",
          "type": "address"
        },
        {
          "name": "value",
          "type": "uint256"
        }
      ],
      "name": "transfer",
      "outputs": [
        {
          "name": "",
          "type": "bool"
        }
      ],
      "payable": false,
      "stateMutability": "nonpayable",
      "type": "function"
    },
    {
      "constant": false,
      "inputs": [
        {
          "name": "spender",
          "type": "address"
        },
        {
          "name": "value",
          "type": "uint256"
        }
      ],
      "name": "approve",
      "outputs": [
        {
          "name": "",
          "type": "bool"
        }
      ],
      "payable": false,
      "stateMutability": "nonpayable",
      "type": "function"
    },
    {
      "constant": false,
      "inputs": [
        {
          "name": "from",
          "type": "address"
        },
        {
          "name": "to",
          "type": "address"
        },
        {
          "name": "value",
          "type": "uint256"
        }
      ],
      "name": "transferFrom",
      "outputs": [
        {
          "name": "",
          "type": "bool"
        }
      ],
      "payable": false,
      "stateMutability": "nonpayable",
      "type": "function"
    },
    {
      "constant": true,
      "inputs": [],
      "name": "poolBalance",
      "outputs": [
        {
          "name": "",
          "type": "uint256"
        }
      ],
      "payable": false,
      "stateMutability": "view",
      "type": "function"
    }
  ],
  "bytecode": "0x60806040526040518060400160405280600381526020017f302e330000000000000000000000000000000000000000000000000000000000815250603590805190602001906200005192919062001781565b506040518060400160405280600381526020017f302e33000000000000000000000000000000000000000000000000000000000081525060b690805190602001906200009f92919062001781565b50348015620000ad57600080fd5b506040516101a08062006b6283398101806040526101a0811015620000d157600080fd5b81019080919082608001919082610100018051906020019092919050505082600360048110620000fd57fe5b60200201518082846000600881106200011257fe5b6020020151701c35fedd14ffffffffffffffffffffffff60366020608081106200013857fe5b0181905550701b0ce43b323fffffffffffffffffffffff60366021608081106200015e57fe5b01819055507019f0028ec1ffffffffffffffffffffffff60366022608081106200018457fe5b01819055507018ded91f0e7fffffffffffffffffffffff6036602360808110620001aa57fe5b01819055507017d8ec7f0417ffffffffffffffffffffff6036602460808110620001d057fe5b01819055507016ddc6556cdbffffffffffffffffffffff6036602560808110620001f657fe5b01819055507015ecf52776a1ffffffffffffffffffffff60366026608081106200021c57fe5b01819055507015060c256cb2ffffffffffffffffffffff60366027608081106200024257fe5b0181905550701428a2f98d72ffffffffffffffffffffff60366028608081106200026857fe5b01819055507013545598e5c23fffffffffffffffffffff60366029608081106200028e57fe5b0181905550701288c4161ce1dfffffffffffffffffffff6036602a60808110620002b457fe5b01819055507011c592761c666fffffffffffffffffffff6036602b60808110620002da57fe5b018190555070110a688680a757ffffffffffffffffffff6036602c608081106200030057fe5b0181905550701056f1b5bedf77ffffffffffffffffffff6036602d608081106200032657fe5b0181905550700faadceceeff8bffffffffffffffffffff6036602e608081106200034c57fe5b0181905550700f05dc6b27edadffffffffffffffffffff6036602f608081106200037257fe5b0181905550700e67a5a25da4107fffffffffffffffffff60366030608081106200039857fe5b0181905550700dcff115b14eedffffffffffffffffffff6036603160808110620003be57fe5b0181905550700d3e7a392431239fffffffffffffffffff6036603260808110620003e457fe5b0181905550700cb2ff529eb71e4fffffffffffffffffff60366033608081106200040a57fe5b0181905550700c2d415c3db974afffffffffffffffffff60366034608081106200043057fe5b0181905550700bad03e7d883f69bffffffffffffffffff60366035608081106200045657fe5b0181905550700b320d03b2c343d5ffffffffffffffffff603680608081106200047b57fe5b0181905550700abc25204e02828dffffffffffffffffff6036603760808110620004a157fe5b0181905550700a4b16f74ee4bb207fffffffffffffffff6036603860808110620004c757fe5b01819055507009deaf736ac1f569ffffffffffffffffff6036603960808110620004ed57fe5b0181905550700976bd9952c7aa957fffffffffffffffff6036603a608081106200051357fe5b01819055507009131271922eaa606fffffffffffffffff6036603b608081106200053957fe5b01819055507008b380f3558668c46fffffffffffffffff6036603c608081106200055f57fe5b0181905550700857ddf0117efa215bffffffffffffffff6036603d608081106200058557fe5b01819055507007ffffffffffffffffffffffffffffffff6036603e60808110620005ab57fe5b01819055507007abbf6f6abb9d087fffffffffffffffff6036603f60808110620005d157fe5b018190555070075af62cbac95f7dfa7fffffffffffffff6036604060808110620005f757fe5b018190555070070d7fb7452e187ac13fffffffffffffff60366041608081106200061d57fe5b01819055507006c3390ecc8af379295fffffffffffffff60366042608081106200064357fe5b018190555070067c00a3b07ffc01fd6fffffffffffffff60366043608081106200066957fe5b0181905550700637b647c39cbb9d3d27ffffffffffffff60366044608081106200068f57fe5b01819055507005f63b1fc104dbd39587ffffffffffffff6036604560808110620006b557fe5b01819055507005b771955b36e12f7235ffffffffffffff6036604660808110620006db57fe5b018190555070057b3d49dda84556d6f6ffffffffffffff60366047608081106200070157fe5b018190555070054183095b2c8ececf30ffffffffffffff60366048608081106200072757fe5b018190555070050a28be635ca2b888f77fffffffffffff60366049608081106200074d57fe5b01819055507004d5156639708c9db33c3fffffffffffff6036604a608081106200077357fe5b01819055507004a23105873875bd52dfdfffffffffffff6036604b608081106200079957fe5b0181905550700471649d87199aa990756fffffffffffff6036604c60808110620007bf57fe5b01819055507004429a21a029d4c1457cfbffffffffffff6036604d60808110620007e557fe5b0181905550700415bc6d6fb7dd71af2cb3ffffffffffff6036604e608081106200080b57fe5b01819055507003eab73b3bbfe282243ce1ffffffffffff6036604f608081106200083157fe5b01819055507003c1771ac9fb6b4c18e229ffffffffffff60366050608081106200085757fe5b0181905550700399e96897690418f785257fffffffffff60366051608081106200087d57fe5b0181905550700373fc456c53bb779bf0ea9fffffffffff6036605260808110620008a357fe5b018190555070034f9e8e490c48e67e6ab8bfffffffffff6036605360808110620008c957fe5b018190555070032cbfd4a7adc790560b3337ffffffffff6036605460808110620008ef57fe5b018190555070030b50570f6e5d2acca94613ffffffffff60366055608081106200091557fe5b01819055507002eb40f9f620fda6b56c2861ffffffffff60366056608081106200093b57fe5b01819055507002cc8340ecb0d0f520a6af58ffffffffff60366057608081106200096157fe5b01819055507002af09481380a0a35cf1ba02ffffffffff60366058608081106200098757fe5b0181905550700292c5bdd3b92ec810287b1b3fffffffff6036605960808110620009ad57fe5b0181905550700277abdcdab07d5a77ac6d6b9fffffffff6036605a60808110620009d357fe5b018190555070025daf6654b1eaa55fd64df5efffffffff6036605b60808110620009f957fe5b0181905550700244c49c648baa98192dce88b7ffffffff6036605c6080811062000a1f57fe5b018190555070022ce03cd5619a311b2471268bffffffff6036605d6080811062000a4557fe5b0181905550700215f77c045fbe885654a44a0fffffffff6036605e6080811062000a6b57fe5b01819055507001ffffffffffffffffffffffffffffffff6036605f6080811062000a9157fe5b01819055507001eaefdbdaaee7421fc4d3ede5ffffffff603660606080811062000ab757fe5b01819055507001d6bd8b2eb257df7e8ca57b09bfffffff603660616080811062000add57fe5b01819055507001c35fedd14b861eb0443f7f133fffffff603660626080811062000b0357fe5b01819055507001b0ce43b322bcde4a56e8ada5afffffff603660636080811062000b2957fe5b018190555070019f0028ec1fff007f5a195a39dfffffff603660646080811062000b4f57fe5b018190555070018ded91f0e72ee74f49b15ba527ffffff603660656080811062000b7557fe5b018190555070017d8ec7f04136f4e5615fd41a63ffffff603660666080811062000b9b57fe5b018190555070016ddc6556cdb84bdc8d12d22e6fffffff603660676080811062000bc157fe5b018190555070015ecf52776a1155b5bd8395814f7fffff603660686080811062000be757fe5b018190555070015060c256cb23b3b3cc3754cf40ffffff603660696080811062000c0d57fe5b01819055507001428a2f98d728ae223ddab715be3fffff6036606a6080811062000c3357fe5b018190555070013545598e5c23276ccf0ede68034fffff6036606b6080811062000c5957fe5b01819055507001288c4161ce1d6f54b7f61081194fffff6036606c6080811062000c7f57fe5b018190555070011c592761c666aa641d5a01a40f17ffff6036606d6080811062000ca557fe5b0181905550700110a688680a7530515f3e6e6cfdcdffff6036606e6080811062000ccb57fe5b01819055507001056f1b5bedf75c6bcb2ce8aed428ffff6036606f6080811062000cf157fe5b01819055506ffaadceceeff8a0890f3875f008277fff603660706080811062000d1657fe5b01819055506ff05dc6b27edad306388a600f6ba0bfff603660716080811062000d3b57fe5b01819055506fe67a5a25da41063de1495d5b18cdbfff603660726080811062000d6057fe5b01819055506fdcff115b14eedde6fc3aa5353f2e4fff603660736080811062000d8557fe5b01819055506fd3e7a3924312399f9aae2e0f868f8fff603660746080811062000daa57fe5b01819055506fcb2ff529eb71e41582cccd5a1ee26fff603660756080811062000dcf57fe5b01819055506fc2d415c3db974ab32a51840c0b67edff603660766080811062000df457fe5b01819055506fbad03e7d883f69ad5b0a186184e06bff603660776080811062000e1957fe5b01819055506fb320d03b2c343d4829abd6075f0cc5ff603660786080811062000e3e57fe5b01819055506fabc25204e02828d73c6e80bcdb1a95bf603660796080811062000e6357fe5b01819055506fa4b16f74ee4bb2040a1ec6c15fbbf2df6036607a6080811062000e8857fe5b01819055506f9deaf736ac1f569deb1b5ae3f36c130f6036607b6080811062000ead57fe5b01819055506f976bd9952c7aa957f5937d790ef650376036607c6080811062000ed257fe5b01819055506f9131271922eaa6064b73a22d0bd4f2bf6036607d6080811062000ef757fe5b01819055506f8b380f3558668c46c91c49a2f8e967b96036607e6080811062000f1c57fe5b01819055506f857ddf0117efa215952912839f6473e66036607f6080811062000f4157fe5b01819055508160b760006101000a81548163ffffffff021916908363ffffffff1602179055508060b881905550505062000f8181620015d760201b60201c565b50600060ba60006101000a81548160ff021916908315150217905550508260006004811062000fac57fe5b6020020151600073ffffffffffffffffffffffffffffffffffffffff168173ffffffffffffffffffffffffffffffffffffffff16141562001055576040517f08c379a00000000000000000000000000000000000000000000000000000000081526004018080602001828103825260188152602001807f41646472657373206d757374206e6f74206265207a65726f000000000000000081525060200191505060405180910390fd5b836001600481106200106357fe5b6020020151600073ffffffffffffffffffffffffffffffffffffffff168173ffffffffffffffffffffffffffffffffffffffff1614156200110c576040517f08c379a00000000000000000000000000000000000000000000000000000000081526004018080602001828103825260188152602001807f41646472657373206d757374206e6f74206265207a65726f000000000000000081525060200191505060405180910390fd5b846002600481106200111a57fe5b6020020151600073ffffffffffffffffffffffffffffffffffffffff168173ffffffffffffffffffffffffffffffffffffffff161415620011c3576040517f08c379a00000000000000000000000000000000000000000000000000000000081526004018080602001828103825260188152602001807f41646472657373206d757374206e6f74206265207a65726f000000000000000081525060200191505060405180910390fd5b85600360048110620011d157fe5b6020020151600073ffffffffffffffffffffffffffffffffffffffff168173ffffffffffffffffffffffffffffffffffffffff1614156200127a576040517f08c379a00000000000000000000000000000000000000000000000000000000081526004018080602001828103825260188152602001807f41646472657373206d757374206e6f74206265207a65726f000000000000000081525060200191505060405180910390fd5b8463ffffffff16620f4240811115620012fb576040517f08c379a00000000000000000000000000000000000000000000000000000000081526004018080602001828103825260148152602001807f56616c7565206d75737420626520696e2050504d00000000000000000000000081525060200191505060405180910390fd5b866001600881106200130957fe5b6020020151620f424081111562001388576040517f08c379a00000000000000000000000000000000000000000000000000000000081526004018080602001828103825260148152602001807f56616c7565206d75737420626520696e2050504d00000000000000000000000081525060200191505060405180910390fd5b876004600881106200139657fe5b6020020151620f424081111562001415576040517f08c379a00000000000000000000000000000000000000000000000000000000081526004018080602001828103825260148152602001807f56616c7565206d75737420626520696e2050504d00000000000000000000000081525060200191505060405180910390fd5b886001600881106200142357fe5b602002015160bd81905550886002600881106200143c57fe5b602002015160be81905550886003600881106200145557fe5b602002015160bf81905550896001600481106200146e57fe5b602002015160bb60006101000a81548173ffffffffffffffffffffffffffffffffffffffff021916908373ffffffffffffffffffffffffffffffffffffffff16021790555089600260048110620014c157fe5b602002015160bc60006101000a81548173ffffffffffffffffffffffffffffffffffffffff021916908373ffffffffffffffffffffffffffffffffffffffff160217905550886004600881106200151457fe5b602002015160c081905550886005600881106200152d57fe5b6020020151420160c581905550600060c681905550886006600881106200155057fe5b602002015160c781905550886007600881106200156957fe5b602002015160c181905550896000600481106200158257fe5b602002015160ba60016101000a81548173ffffffffffffffffffffffffffffffffffffffff021916908373ffffffffffffffffffffffffffffffffffffffff1602179055505050505050505050505062001830565b620015f28160b96200163860201b62004c681790919060201c565b8073ffffffffffffffffffffffffffffffffffffffff167f6719d08c1888103bea251a4ed56406bd0c3e69723c8a1686e017e7bbe159b6f860405160405180910390a250565b600073ffffffffffffffffffffffffffffffffffffffff168173ffffffffffffffffffffffffffffffffffffffff1614156200167357600080fd5b620016858282620016ee60201b60201c565b156200169057600080fd5b60018260000160008373ffffffffffffffffffffffffffffffffffffffff1673ffffffffffffffffffffffffffffffffffffffff16815260200190815260200160002060006101000a81548160ff0219169083151502179055505050565b60008073ffffffffffffffffffffffffffffffffffffffff168273ffffffffffffffffffffffffffffffffffffffff1614156200172a57600080fd5b8260000160008373ffffffffffffffffffffffffffffffffffffffff1673ffffffffffffffffffffffffffffffffffffffff16815260200190815260200160002060009054906101000a900460ff16905092915050565b828054600181600116156101000203166002900490600052602060002090601f016020900481019282601f10620017c457805160ff1916838001178555620017f5565b82800160010185558215620017f5579182015b82811115620017f4578251825591602001919060010190620017d7565b5b50905062001804919062001808565b5090565b6200182d91905b80821115620018295760008160009055506001016200180f565b5090565b90565b61532280620018406000396000f3fe608060405234801561001057600080fd5b506004361061025e5760003560e01c806370a0823111610146578063a457c2d7116100c3578063dd62ed3e11610087578063dd62ed3e14610ad7578063df39e6e114610b4f578063dff0c89814610b71578063ec8585ab14610b8f578063f6a1fe9414610bbd578063fe173b9714610c075761025e565b8063a457c2d714610920578063a544e52114610986578063a9059cbb146109e5578063c576a45b14610a4b578063c9828ae014610a8d5761025e565b806396365d441161010a57806396365d44146108425780639a4f318b146108605780639bae6687146108a2578063a0712d68146108c0578063a0b78dbe146109025761025e565b806370a082311461076057806371645ca0146107b857806382dc1ec4146107d65780638456cb591461081a5780638a835a35146108245761025e565b806342966c68116101df5780635377d9d5116101a35780635377d9d51461063357806354fd4d5014610651578063590e1ae3146106d45780635c975abb146106f25780636d6f1e01146107145780636ef8d66d146107565761025e565b806342966c68146104c7578063469048401461050957806346fbf68e1461055357806348c54b9d146105af57806349f9b0f7146105cd5761025e565b806329a00e7c1161022657806329a00e7c146103b5578063309bbc6d1461041b57806339509351146104395780633f4ba83a1461049f57806342461bac146104a95761025e565b8063095ea7b3146102635780630c7d5cd8146102c957806318160ddd146102f357806323b872dd14610311578063264e49db14610397575b600080fd5b6102af6004803603604081101561027957600080fd5b81019080803573ffffffffffffffffffffffffffffffffffffffff16906020019092919080359060200190929190505050610c25565b604051808215151515815260200191505060405180910390f35b6102d1610cbc565b604051808263ffffffff1663ffffffff16815260200191505060405180910390f35b6102fb610cd2565b6040518082815260200191505060405180910390f35b61037d6004803603606081101561032757600080fd5b81019080803573ffffffffffffffffffffffffffffffffffffffff169060200190929190803573ffffffffffffffffffffffffffffffffffffffff16906020019092919080359060200190929190505050610cdc565b604051808215151515815260200191505060405180910390f35b61039f610d75565b6040518082815260200191505060405180910390f35b610405600480360360808110156103cb57600080fd5b810190808035906020019092919080359060200190929190803563ffffffff16906020019092919080359060200190929190505050610d7b565b6040518082815260200191505060405180910390f35b610423610fc7565b6040518082815260200191505060405180910390f35b6104856004803603604081101561044f57600080fd5b81019080803573ffffffffffffffffffffffffffffffffffffffff16906020019092919080359060200190929190505050610fcd565b604051808215151515815260200191505060405180910390f35b6104a7611202565b005b6104b1611362565b6040518082815260200191505060405180910390f35b6104f3600480360360208110156104dd57600080fd5b8101908080359060200190929190505050611368565b6040518082815260200191505060405180910390f35b610511611488565b604051808273ffffffffffffffffffffffffffffffffffffffff1673ffffffffffffffffffffffffffffffffffffffff16815260200191505060405180910390f35b6105956004803603602081101561056957600080fd5b81019080803573ffffffffffffffffffffffffffffffffffffffff1690602001909291905050506114ae565b604051808215151515815260200191505060405180910390f35b6105b76114cb565b6040518082815260200191505060405180910390f35b61061d600480360360808110156105e357600080fd5b810190808035906020019092919080359060200190929190803563ffffffff1690602001909291908035906020019092919050505061185f565b6040518082815260200191505060405180910390f35b61063b611b2c565b6040518082815260200191505060405180910390f35b610659611b32565b6040518080602001828103825283818151815260200191508051906020019080838360005b8381101561069957808201518184015260208101905061067e565b50505050905090810190601f1680156106c65780820380516001836020036101000a031916815260200191505b509250505060405180910390f35b6106dc611bd0565b6040518082815260200191505060405180910390f35b6106fa611e12565b604051808215151515815260200191505060405180910390f35b6107406004803603602081101561072a57600080fd5b8101908080359060200190929190505050611e29565b6040518082815260200191505060405180910390f35b61075e611e5e565b005b6107a26004803603602081101561077657600080fd5b81019080803573ffffffffffffffffffffffffffffffffffffffff169060200190929190505050611e69565b6040518082815260200191505060405180910390f35b6107c0611eb1565b6040518082815260200191505060405180910390f35b610818600480360360208110156107ec57600080fd5b81019080803573ffffffffffffffffffffffffffffffffffffffff169060200190929190505050611eb7565b005b610822611f21565b005b61082c612082565b6040518082815260200191505060405180910390f35b61084a612088565b6040518082815260200191505060405180910390f35b61088c6004803603602081101561087657600080fd5b8101908080359060200190929190505050612169565b6040518082815260200191505060405180910390f35b6108aa61219e565b6040518082815260200191505060405180910390f35b6108ec600480360360208110156108d657600080fd5b81019080803590602001909291905050506121a4565b6040518082815260200191505060405180910390f35b61090a6122c4565b6040518082815260200191505060405180910390f35b61096c6004803603604081101561093657600080fd5b81019080803573ffffffffffffffffffffffffffffffffffffffff169060200190929190803590602001909291905050506122ca565b604051808215151515815260200191505060405180910390f35b6109c86004803603602081101561099c57600080fd5b81019080803573ffffffffffffffffffffffffffffffffffffffff1690602001909291905050506124ff565b604051808381526020018281526020019250505060405180910390f35b610a31600480360360408110156109fb57600080fd5b81019080803573ffffffffffffffffffffffffffffffffffffffff16906020019092919080359060200190929190505050612523565b604051808215151515815260200191505060405180910390f35b610a7760048036036020811015610a6157600080fd5b81019080803590602001909291905050506125ba565b6040518082815260200191505060405180910390f35b610a9561298f565b604051808273ffffffffffffffffffffffffffffffffffffffff1673ffffffffffffffffffffffffffffffffffffffff16815260200191505060405180910390f35b610b3960048036036040811015610aed57600080fd5b81019080803573ffffffffffffffffffffffffffffffffffffffff169060200190929190803573ffffffffffffffffffffffffffffffffffffffff1690602001909291905050506129b5565b6040518082815260200191505060405180910390f35b610b57612a3c565b604051808215151515815260200191505060405180910390f35b610b79612a4f565b6040518082815260200191505060405180910390f35b610bbb60048036036020811015610ba557600080fd5b8101908080359060200190929190505050612a55565b005b610bc5612c44565b604051808273ffffffffffffffffffffffffffffffffffffffff1673ffffffffffffffffffffffffffffffffffffffff16815260200191505060405180910390f35b610c0f612c6a565b6040518082815260200191505060405180910390f35b600060ba60009054906101000a900460ff1615610caa576040517f08c379a00000000000000000000000000000000000000000000000000000000081526004018080602001828103825260108152602001807f5061757361626c653a207061757365640000000000000000000000000000000081525060200191505060405180910390fd5b610cb48383612c70565b905092915050565b60b760009054906101000a900463ffffffff1681565b6000600254905090565b600060ba60009054906101000a900460ff1615610d61576040517f08c379a00000000000000000000000000000000000000000000000000000000081526004018080602001828103825260108152602001807f5061757361626c653a207061757365640000000000000000000000000000000081525060200191505060405180910390fd5b610d6c848484612d9b565b90509392505050565b60be5481565b6000808511610df2576040517f08c379a000000000000000000000000000000000000000000000000000000000815260040180806020018281038252601e8152602001807f42616e636f72466f726d756c613a20537570706c79206e6f74203e20302e000081525060200191505060405180910390fd5b60008411610e4b576040517f08c379a00000000000000000000000000000000000000000000000000000000081526004018080602001828103825260278152602001806151f46027913960400191505060405180910390fd5b60008363ffffffff1611610eaa576040517f08c379a00000000000000000000000000000000000000000000000000000000081526004018080602001828103825260278152602001806152556027913960400191505060405180910390fd5b620f424063ffffffff168363ffffffff161115610f12576040517f08c379a00000000000000000000000000000000000000000000000000000000081526004018080602001828103825260318152602001806152c66031913960400191505060405180910390fd5b6000821415610f245760009050610fbf565b620f424063ffffffff168363ffffffff161415610f6757610f6084610f528488612fa390919063ffffffff16565b612fdd90919063ffffffff16565b9050610fbf565b6000806000610f7f878661300390919063ffffffff16565b9050610f90818888620f4240613022565b809350819450505060008260ff16610fb1858b612fa390919063ffffffff16565b901c90508881039450505050505b949350505050565b60bd5481565b60008073ffffffffffffffffffffffffffffffffffffffff168373ffffffffffffffffffffffffffffffffffffffff16141561100857600080fd5b61109782600160003373ffffffffffffffffffffffffffffffffffffffff1673ffffffffffffffffffffffffffffffffffffffff16815260200190815260200160002060008673ffffffffffffffffffffffffffffffffffffffff1673ffffffffffffffffffffffffffffffffffffffff1681526020019081526020016000205461300390919063ffffffff16565b600160003373ffffffffffffffffffffffffffffffffffffffff1673ffffffffffffffffffffffffffffffffffffffff16815260200190815260200160002060008573ffffffffffffffffffffffffffffffffffffffff1673ffffffffffffffffffffffffffffffffffffffff168152602001908152602001600020819055508273ffffffffffffffffffffffffffffffffffffffff163373ffffffffffffffffffffffffffffffffffffffff167f8c5be1e5ebec7d5bd14f71427d1e84f3dd0314c0f7b2291e5b200ac8c7c3b925600160003373ffffffffffffffffffffffffffffffffffffffff1673ffffffffffffffffffffffffffffffffffffffff16815260200190815260200160002060008773ffffffffffffffffffffffffffffffffffffffff1673ffffffffffffffffffffffffffffffffffffffff168152602001908152602001600020546040518082815260200191505060405180910390a36001905092915050565b61120b336114ae565b611260576040517f08c379a00000000000000000000000000000000000000000000000000000000081526004018080602001828103825260308152602001806151c46030913960400191505060405180910390fd5b60ba60009054906101000a900460ff166112e2576040517f08c379a00000000000000000000000000000000000000000000000000000000081526004018080602001828103825260148152602001807f5061757361626c653a206e6f742070617573656400000000000000000000000081525060200191505060405180910390fd5b600060ba60006101000a81548160ff0219169083151502179055507f5db9ee0a495bf2e6ff9c91a7834c1ba4fdd244a5e8aa4e537bd38aeae4b073aa33604051808273ffffffffffffffffffffffffffffffffffffffff1673ffffffffffffffffffffffffffffffffffffffff16815260200191505060405180910390a1565b60c75481565b6000600180151560c460009054906101000a900460ff161515146113f4576040517f08c379a00000000000000000000000000000000000000000000000000000000081526004018080602001828103825260158152602001807f4375727665206d7573742062652068617463686564000000000000000000000081525060200191505060405180910390fd5b60ba60009054906101000a900460ff1615611477576040517f08c379a00000000000000000000000000000000000000000000000000000000081526004018080602001828103825260108152602001807f5061757361626c653a207061757365640000000000000000000000000000000081525060200191505060405180910390fd5b6114808361318a565b915050919050565b60bc60009054906101000a900473ffffffffffffffffffffffffffffffffffffffff1681565b60006114c48260b961343890919063ffffffff16565b9050919050565b6000600180151560c460009054906101000a900460ff16151514611557576040517f08c379a00000000000000000000000000000000000000000000000000000000081526004018080602001828103825260158152602001807f4375727665206d7573742062652068617463686564000000000000000000000081525060200191505060405180910390fd5b600060c860003373ffffffffffffffffffffffffffffffffffffffff1673ffffffffffffffffffffffffffffffffffffffff168152602001908152602001600020600001541415611610576040517f08c379a000000000000000000000000000000000000000000000000000000000815260040180806020018281038252601b8152602001807f4d7573742062652063616c6c656420627920612068617463686572000000000081525060200191505060405180910390fd5b60c65442101561166b576040517f08c379a000000000000000000000000000000000000000000000000000000000815260040180806020018281038252603a81526020018061521b603a913960400191505060405180910390fd5b60ba60009054906101000a900460ff16156116ee576040517f08c379a00000000000000000000000000000000000000000000000000000000081526004018080602001828103825260108152602001807f5061757361626c653a207061757365640000000000000000000000000000000081525060200191505060405180910390fd5b600060c860003373ffffffffffffffffffffffffffffffffffffffff1673ffffffffffffffffffffffffffffffffffffffff168152602001908152602001600020600101541161173d57600080fd5b600060c860003373ffffffffffffffffffffffffffffffffffffffff1673ffffffffffffffffffffffffffffffffffffffff168152602001908152602001600020600001549050600060c860003373ffffffffffffffffffffffffffffffffffffffff1673ffffffffffffffffffffffffffffffffffffffff168152602001908152602001600020600101549050600060bf5460c3548402816117dc57fe5b04905060008260be5485816117ed57fe5b04039050600081830390508060c860003373ffffffffffffffffffffffffffffffffffffffff1673ffffffffffffffffffffffffffffffffffffffff168152602001908152602001600020600101600082825403925050819055506118533033836134ca565b80965050505050505090565b60008085116118d6576040517f08c379a000000000000000000000000000000000000000000000000000000000815260040180806020018281038252601e8152602001807f42616e636f72466f726d756c613a20537570706c79206e6f74203e20302e000081525060200191505060405180910390fd5b6000841161192f576040517f08c379a00000000000000000000000000000000000000000000000000000000081526004018080602001828103825260278152602001806151f46027913960400191505060405180910390fd5b60008363ffffffff161161198e576040517f08c379a00000000000000000000000000000000000000000000000000000000081526004018080602001828103825260278152602001806152556027913960400191505060405180910390fd5b620f424063ffffffff168363ffffffff1611156119f6576040517f08c379a00000000000000000000000000000000000000000000000000000000081526004018080602001828103825260318152602001806152c66031913960400191505060405180910390fd5b84821115611a4f576040517f08c379a000000000000000000000000000000000000000000000000000000000815260040180806020018281038252602881526020018061529e6028913960400191505060405180910390fd5b6000821415611a615760009050611b24565b84821415611a7157839050611b24565b620f424063ffffffff168363ffffffff161415611ab457611aad85611a9f8487612fa390919063ffffffff16565b612fdd90919063ffffffff16565b9050611b24565b60008060008488039050611acd8882620f424089613022565b80935081945050506000611aea8489612fa390919063ffffffff16565b905060008360ff1689901b9050611b1c85611b0e838561369490919063ffffffff16565b612fdd90919063ffffffff16565b955050505050505b949350505050565b60c25481565b60b68054600181600116156101000203166002900480601f016020809104026020016040519081016040528092919081815260200182805460018160011615610100020316600290048015611bc85780601f10611b9d57610100808354040283529160200191611bc8565b820191906000526020600020905b815481529060010190602001808311611bab57829003601f168201915b505050505081565b60008080151560c460009054906101000a900460ff16151514611c5b576040517f08c379a00000000000000000000000000000000000000000000000000000000081526004018080602001828103825260158152602001807f4375727665206d7573742062652068617463686564000000000000000000000081525060200191505060405180910390fd5b60ba60009054906101000a900460ff1615611cde576040517f08c379a00000000000000000000000000000000000000000000000000000000081526004018080602001828103825260108152602001807f5061757361626c653a207061757365640000000000000000000000000000000081525060200191505060405180910390fd5b600060c860003373ffffffffffffffffffffffffffffffffffffffff1673ffffffffffffffffffffffffffffffffffffffff16815260200190815260200160002060000154905060ba60019054906101000a900473ffffffffffffffffffffffffffffffffffffffff1673ffffffffffffffffffffffffffffffffffffffff1663a9059cbb33836040518363ffffffff1660e01b8152600401808373ffffffffffffffffffffffffffffffffffffffff1673ffffffffffffffffffffffffffffffffffffffff16815260200182815260200192505050602060405180830381600087803b158015611dce57600080fd5b505af1158015611de2573d6000803e3d6000fd5b505050506040513d6020811015611df857600080fd5b810190808051906020019092919050505050809250505090565b600060ba60009054906101000a900460ff16905090565b6000611e57611e36610cd2565b611e3e612088565b60b760009054906101000a900463ffffffff168561185f565b9050919050565b611e67336136b4565b565b60008060008373ffffffffffffffffffffffffffffffffffffffff1673ffffffffffffffffffffffffffffffffffffffff168152602001908152602001600020549050919050565b60c15481565b611ec0336114ae565b611f15576040517f08c379a00000000000000000000000000000000000000000000000000000000081526004018080602001828103825260308152602001806151c46030913960400191505060405180910390fd5b611f1e8161370e565b50565b611f2a336114ae565b611f7f576040517f08c379a00000000000000000000000000000000000000000000000000000000081526004018080602001828103825260308152602001806151c46030913960400191505060405180910390fd5b60ba60009054906101000a900460ff1615612002576040517f08c379a00000000000000000000000000000000000000000000000000000000081526004018080602001828103825260108152602001807f5061757361626c653a207061757365640000000000000000000000000000000081525060200191505060405180910390fd5b600160ba60006101000a81548160ff0219169083151502179055507f62e78cea01bee320cd4e420270b5ea74000d11b0c9f74754ebdbfc544b05a25833604051808273ffffffffffffffffffffffffffffffffffffffff1673ffffffffffffffffffffffffffffffffffffffff16815260200191505060405180910390a1565b60c65481565b600060ba60019054906101000a900473ffffffffffffffffffffffffffffffffffffffff1673ffffffffffffffffffffffffffffffffffffffff166370a08231306040518263ffffffff1660e01b8152600401808273ffffffffffffffffffffffffffffffffffffffff1673ffffffffffffffffffffffffffffffffffffffff16815260200191505060206040518083038186803b15801561212957600080fd5b505afa15801561213d573d6000803e3d6000fd5b505050506040513d602081101561215357600080fd5b8101908080519060200190929190505050905090565b6000612197612176610cd2565b61217e612088565b60b760009054906101000a900463ffffffff1685610d7b565b9050919050565b60c05481565b6000600180151560c460009054906101000a900460ff16151514612230576040517f08c379a00000000000000000000000000000000000000000000000000000000081526004018080602001828103825260158152602001807f4375727665206d7573742062652068617463686564000000000000000000000081525060200191505060405180910390fd5b60ba60009054906101000a900460ff16156122b3576040517f08c379a00000000000000000000000000000000000000000000000000000000081526004018080602001828103825260108152602001807f5061757361626c653a207061757365640000000000000000000000000000000081525060200191505060405180910390fd5b6122bc83613768565b915050919050565b60c55481565b60008073ffffffffffffffffffffffffffffffffffffffff168373ffffffffffffffffffffffffffffffffffffffff16141561230557600080fd5b61239482600160003373ffffffffffffffffffffffffffffffffffffffff1673ffffffffffffffffffffffffffffffffffffffff16815260200190815260200160002060008673ffffffffffffffffffffffffffffffffffffffff1673ffffffffffffffffffffffffffffffffffffffff1681526020019081526020016000205461369490919063ffffffff16565b600160003373ffffffffffffffffffffffffffffffffffffffff1673ffffffffffffffffffffffffffffffffffffffff16815260200190815260200160002060008573ffffffffffffffffffffffffffffffffffffffff1673ffffffffffffffffffffffffffffffffffffffff168152602001908152602001600020819055508273ffffffffffffffffffffffffffffffffffffffff163373ffffffffffffffffffffffffffffffffffffffff167f8c5be1e5ebec7d5bd14f71427d1e84f3dd0314c0f7b2291e5b200ac8c7c3b925600160003373ffffffffffffffffffffffffffffffffffffffff1673ffffffffffffffffffffffffffffffffffffffff16815260200190815260200160002060008773ffffffffffffffffffffffffffffffffffffffff1673ffffffffffffffffffffffffffffffffffffffff168152602001908152602001600020546040518082815260200191505060405180910390a36001905092915050565b60c86020528060005260406000206000915090508060000154908060010154905082565b600060ba60009054906101000a900460ff16156125a8576040517f08c379a00000000000000000000000000000000000000000000000000000000081526004018080602001828103825260108152602001807f5061757361626c653a207061757365640000000000000000000000000000000081525060200191505060405180910390fd5b6125b2838361389b565b905092915050565b60008160008160c860003373ffffffffffffffffffffffffffffffffffffffff1673ffffffffffffffffffffffffffffffffffffffff1681526020019081526020016000206000015401905060c15481101561267e576040517f08c379a00000000000000000000000000000000000000000000000000000000081526004018080602001828103825260198152602001807f496e73756666696369656e7420636f6e747269627574696f6e0000000000000081525060200191505060405180910390fd5b600080151560c460009054906101000a900460ff16151514612708576040517f08c379a00000000000000000000000000000000000000000000000000000000081526004018080602001828103825260158152602001807f4375727665206d7573742062652068617463686564000000000000000000000081525060200191505060405180910390fd5b60008060c5544211159050811561278e57801561278d576040517f08c379a000000000000000000000000000000000000000000000000000000000815260040180806020018281038252601c8152602001807f43757276652068617463682074696d652068617320657870697265640000000081525060200191505060405180910390fd5b5b80612801576040517f08c379a000000000000000000000000000000000000000000000000000000000815260040180806020018281038252601c8152602001807f43757276652068617463682074696d652068617320657870697265640000000081525060200191505060405180910390fd5b60ba60009054906101000a900460ff1615612884576040517f08c379a00000000000000000000000000000000000000000000000000000000081526004018080602001828103825260108152602001807f5061757361626c653a207061757365640000000000000000000000000000000081525060200191505060405180910390fd5b600087905060bf548160c2540110156128b5578060c2600082825401925050819055506128b0816138b2565b6128d9565b60c25460bf5403905060bf5460c2819055506128d0816138b2565b6128d86139ce565b5b8060c860003373ffffffffffffffffffffffffffffffffffffffff1673ffffffffffffffffffffffffffffffffffffffff1681526020019081526020016000206000016000828254019250508190555060be54810260c860003373ffffffffffffffffffffffffffffffffffffffff1673ffffffffffffffffffffffffffffffffffffffff1681526020019081526020016000206001016000828254019250508190555060be5481029650505050505050919050565b60ba60019054906101000a900473ffffffffffffffffffffffffffffffffffffffff1681565b6000600160008473ffffffffffffffffffffffffffffffffffffffff1673ffffffffffffffffffffffffffffffffffffffff16815260200190815260200160002060008373ffffffffffffffffffffffffffffffffffffffff1673ffffffffffffffffffffffffffffffffffffffff16815260200190815260200160002054905092915050565b60c460009054906101000a900460ff1681565b60bf5481565b60bb60009054906101000a900473ffffffffffffffffffffffffffffffffffffffff1673ffffffffffffffffffffffffffffffffffffffff163373ffffffffffffffffffffffffffffffffffffffff1614612afb576040517f08c379a000000000000000000000000000000000000000000000000000000000815260040180806020018281038252602281526020018061527c6022913960400191505060405180910390fd5b600180151560c460009054906101000a900460ff16151514612b85576040517f08c379a00000000000000000000000000000000000000000000000000000000081526004018080602001828103825260158152602001807f4375727665206d7573742062652068617463686564000000000000000000000081525060200191505060405180910390fd5b60ba60009054906101000a900460ff1615612c08576040517f08c379a00000000000000000000000000000000000000000000000000000000081526004018080602001828103825260108152602001807f5061757361626c653a207061757365640000000000000000000000000000000081525060200191505060405180910390fd5b60be548281612c1357fe5b0460c36000828254019250508190555060be5460bf540260c35410612c405760be5460bf540260c3819055505b5050565b60bb60009054906101000a900473ffffffffffffffffffffffffffffffffffffffff1681565b60b85481565b60008073ffffffffffffffffffffffffffffffffffffffff168373ffffffffffffffffffffffffffffffffffffffff161415612cab57600080fd5b81600160003373ffffffffffffffffffffffffffffffffffffffff1673ffffffffffffffffffffffffffffffffffffffff16815260200190815260200160002060008573ffffffffffffffffffffffffffffffffffffffff1673ffffffffffffffffffffffffffffffffffffffff168152602001908152602001600020819055508273ffffffffffffffffffffffffffffffffffffffff163373ffffffffffffffffffffffffffffffffffffffff167f8c5be1e5ebec7d5bd14f71427d1e84f3dd0314c0f7b2291e5b200ac8c7c3b925846040518082815260200191505060405180910390a36001905092915050565b6000612e2c82600160008773ffffffffffffffffffffffffffffffffffffffff1673ffffffffffffffffffffffffffffffffffffffff16815260200190815260200160002060003373ffffffffffffffffffffffffffffffffffffffff1673ffffffffffffffffffffffffffffffffffffffff1681526020019081526020016000205461369490919063ffffffff16565b600160008673ffffffffffffffffffffffffffffffffffffffff1673ffffffffffffffffffffffffffffffffffffffff16815260200190815260200160002060003373ffffffffffffffffffffffffffffffffffffffff1673ffffffffffffffffffffffffffffffffffffffff16815260200190815260200160002081905550612eb78484846134ca565b3373ffffffffffffffffffffffffffffffffffffffff168473ffffffffffffffffffffffffffffffffffffffff167f8c5be1e5ebec7d5bd14f71427d1e84f3dd0314c0f7b2291e5b200ac8c7c3b925600160008873ffffffffffffffffffffffffffffffffffffffff1673ffffffffffffffffffffffffffffffffffffffff16815260200190815260200160002060003373ffffffffffffffffffffffffffffffffffffffff1673ffffffffffffffffffffffffffffffffffffffff168152602001908152602001600020546040518082815260200191505060405180910390a3600190509392505050565b600080831415612fb65760009050612fd7565b6000828402905082848281612fc757fe5b0414612fd257600080fd5b809150505b92915050565b6000808211612feb57600080fd5b6000828481612ff657fe5b0490508091505092915050565b60008082840190508381101561301857600080fd5b8091505092915050565b600080700200000000000000000000000000000000861061303f57fe5b848610156130b5576040517f08c379a000000000000000000000000000000000000000000000000000000000815260040180806020018281038252601c8152602001807f4261736573203c203120617265206e6f7420737570706f727465642e0000000081525060200191505060405180910390fd5b600080866f800000000000000000000000000000008902816130d357fe5b04905070015bf0a8b1457695355fb8ac404e7a79e38110156130ff576130f881613b25565b915061310b565b613108816140b5565b91505b60008563ffffffff168763ffffffff1684028161312457fe5b04905070080000000000000000000000000000000081101561315757613149816141dd565b607f94509450505050613181565b600061316282614757565b905061317781607f0360ff1683901c8261480c565b8195509550505050505b94509492505050565b60008061319683614baa565b90506000620f42408260c05402816131aa57fe5b04905060ba60019054906101000a900473ffffffffffffffffffffffffffffffffffffffff1673ffffffffffffffffffffffffffffffffffffffff1663a9059cbb338385036040518363ffffffff1660e01b8152600401808373ffffffffffffffffffffffffffffffffffffffff1673ffffffffffffffffffffffffffffffffffffffff16815260200182815260200192505050602060405180830381600087803b15801561325857600080fd5b505af115801561326c573d6000803e3d6000fd5b505050506040513d602081101561328257600080fd5b81019080805190602001909291905050505060ba60019054906101000a900473ffffffffffffffffffffffffffffffffffffffff1673ffffffffffffffffffffffffffffffffffffffff1663a9059cbb60bc60009054906101000a900473ffffffffffffffffffffffffffffffffffffffff16836040518363ffffffff1660e01b8152600401808373ffffffffffffffffffffffffffffffffffffffff1673ffffffffffffffffffffffffffffffffffffffff16815260200182815260200192505050602060405180830381600087803b15801561335f57600080fd5b505af1158015613373573d6000803e3d6000fd5b505050506040513d602081101561338957600080fd5b81019080805190602001909291905050505060bb60009054906101000a900473ffffffffffffffffffffffffffffffffffffffff1673ffffffffffffffffffffffffffffffffffffffff1660bc60009054906101000a900473ffffffffffffffffffffffffffffffffffffffff1673ffffffffffffffffffffffffffffffffffffffff161461342e5760be54818161341d57fe5b0460c3600082825401925050819055505b8192505050919050565b60008073ffffffffffffffffffffffffffffffffffffffff168273ffffffffffffffffffffffffffffffffffffffff16141561347357600080fd5b8260000160008373ffffffffffffffffffffffffffffffffffffffff1673ffffffffffffffffffffffffffffffffffffffff16815260200190815260200160002060009054906101000a900460ff16905092915050565b600073ffffffffffffffffffffffffffffffffffffffff168273ffffffffffffffffffffffffffffffffffffffff16141561350457600080fd5b613555816000808673ffffffffffffffffffffffffffffffffffffffff1673ffffffffffffffffffffffffffffffffffffffff1681526020019081526020016000205461369490919063ffffffff16565b6000808573ffffffffffffffffffffffffffffffffffffffff1673ffffffffffffffffffffffffffffffffffffffff168152602001908152602001600020819055506135e8816000808573ffffffffffffffffffffffffffffffffffffffff1673ffffffffffffffffffffffffffffffffffffffff1681526020019081526020016000205461300390919063ffffffff16565b6000808473ffffffffffffffffffffffffffffffffffffffff1673ffffffffffffffffffffffffffffffffffffffff168152602001908152602001600020819055508173ffffffffffffffffffffffffffffffffffffffff168373ffffffffffffffffffffffffffffffffffffffff167fddf252ad1be2c89b69c2b068fc378daa952ba7f163c4a11628f55a4df523b3ef836040518082815260200191505060405180910390a3505050565b6000828211156136a357600080fd5b600082840390508091505092915050565b6136c88160b9614bbd90919063ffffffff16565b8073ffffffffffffffffffffffffffffffffffffffff167fcd265ebaf09df2871cc7bd4133404a235ba12eff2041bb89d9c714a2621c7c7e60405160405180910390a250565b6137228160b9614c6890919063ffffffff16565b8073ffffffffffffffffffffffffffffffffffffffff167f6719d08c1888103bea251a4ed56406bd0c3e69723c8a1686e017e7bbe159b6f860405160405180910390a250565b600060ba60019054906101000a900473ffffffffffffffffffffffffffffffffffffffff1673ffffffffffffffffffffffffffffffffffffffff166323b872dd3330856040518463ffffffff1660e01b8152600401808473ffffffffffffffffffffffffffffffffffffffff1673ffffffffffffffffffffffffffffffffffffffff1681526020018373ffffffffffffffffffffffffffffffffffffffff1673ffffffffffffffffffffffffffffffffffffffff1681526020018281526020019350505050602060405180830381600087803b15801561384757600080fd5b505af115801561385b573d6000803e3d6000fd5b505050506040513d602081101561387157600080fd5b810190808051906020019092919050505061388b57600080fd5b61389482614d14565b9050919050565b60006138a83384846134ca565b6001905092915050565b60ba60019054906101000a900473ffffffffffffffffffffffffffffffffffffffff1673ffffffffffffffffffffffffffffffffffffffff166323b872dd3330846040518463ffffffff1660e01b8152600401808473ffffffffffffffffffffffffffffffffffffffff1673ffffffffffffffffffffffffffffffffffffffff1681526020018373ffffffffffffffffffffffffffffffffffffffff1673ffffffffffffffffffffffffffffffffffffffff1681526020018281526020019350505050602060405180830381600087803b15801561398f57600080fd5b505af11580156139a3573d6000803e3d6000fd5b505050506040513d60208110156139b957600080fd5b81019080805190602001909291905050505050565b6000620f424060bd5460bf5402816139e257fe5b04905060ba60019054906101000a900473ffffffffffffffffffffffffffffffffffffffff1673ffffffffffffffffffffffffffffffffffffffff1663a9059cbb60bb60009054906101000a900473ffffffffffffffffffffffffffffffffffffffff16836040518363ffffffff1660e01b8152600401808373ffffffffffffffffffffffffffffffffffffffff1673ffffffffffffffffffffffffffffffffffffffff16815260200182815260200192505050602060405180830381600087803b158015613ab057600080fd5b505af1158015613ac4573d6000803e3d6000fd5b505050506040513d6020811015613ada57600080fd5b810190808051906020019092919050505050613afc3060be5460bf5402614d27565b600160c460006101000a81548160ff02191690831515021790555060c754420160c68190555050565b6000806000905060008060006fd3094c70f034de4b96ff7d5b6f99fcd88610613b8c576f40000000000000000000000000000000840193506fd3094c70f034de4b96ff7d5b6f99fcd86f80000000000000000000000000000000870281613b8857fe5b0495505b6fa45af1e1f40c333b3de1db4dd55f29a78610613be7576f20000000000000000000000000000000840193506fa45af1e1f40c333b3de1db4dd55f29a76f80000000000000000000000000000000870281613be357fe5b0495505b6f910b022db7ae67ce76b441c27035c6a18610613c42576f10000000000000000000000000000000840193506f910b022db7ae67ce76b441c27035c6a16f80000000000000000000000000000000870281613c3e57fe5b0495505b6f88415abbe9a76bead8d00cf112e4d4a88610613c9d576f08000000000000000000000000000000840193506f88415abbe9a76bead8d00cf112e4d4a86f80000000000000000000000000000000870281613c9957fe5b0495505b6f84102b00893f64c705e841d5d4064bd38610613cf8576f04000000000000000000000000000000840193506f84102b00893f64c705e841d5d4064bd36f80000000000000000000000000000000870281613cf457fe5b0495505b6f8204055aaef1c8bd5c3259f4822735a28610613d53576f02000000000000000000000000000000840193506f8204055aaef1c8bd5c3259f4822735a26f80000000000000000000000000000000870281613d4f57fe5b0495505b6f810100ab00222d861931c15e39b44e998610613dae576f01000000000000000000000000000000840193506f810100ab00222d861931c15e39b44e996f80000000000000000000000000000000870281613daa57fe5b0495505b6f808040155aabbbe9451521693554f7338610613e08576e800000000000000000000000000000840193506f808040155aabbbe9451521693554f7336f80000000000000000000000000000000870281613e0457fe5b0495505b6f80000000000000000000000000000000860392508291506f8000000000000000000000000000000083840281613e3b57fe5b0490507001000000000000000000000000000000008370010000000000000000000000000000000003830281613e6d57fe5b04840193506f8000000000000000000000000000000081830281613e8d57fe5b049150700200000000000000000000000000000000836faaaaaaaaaaaaaaaaaaaaaaaaaaaaaaaa03830281613ebe57fe5b04840193506f8000000000000000000000000000000081830281613ede57fe5b049150700300000000000000000000000000000000836f9999999999999999999999999999999903830281613f0f57fe5b04840193506f8000000000000000000000000000000081830281613f2f57fe5b049150700400000000000000000000000000000000836f9249249249249249249249249249249203830281613f6057fe5b04840193506f8000000000000000000000000000000081830281613f8057fe5b049150700500000000000000000000000000000000836f8e38e38e38e38e38e38e38e38e38e38e03830281613fb157fe5b04840193506f8000000000000000000000000000000081830281613fd157fe5b049150700600000000000000000000000000000000836f8ba2e8ba2e8ba2e8ba2e8ba2e8ba2e8b0383028161400257fe5b04840193506f800000000000000000000000000000008183028161402257fe5b049150700700000000000000000000000000000000836f89d89d89d89d89d89d89d89d89d89d890383028161405357fe5b04840193506f800000000000000000000000000000008183028161407357fe5b049150700800000000000000000000000000000000836f88888888888888888888888888888888038302816140a457fe5b048401935083945050505050919050565b60008060009050600083905070010000000000000000000000000000000081106141225760006140fd6f8000000000000000000000000000000083816140f757fe5b04614e79565b90508060ff1682901c91506f800000000000000000000000000000008160ff16029250505b6f800000000000000000000000000000008111156141a8576000607f90505b60008160ff1611156141a6576f800000000000000000000000000000008283028161416857fe5b049150700100000000000000000000000000000000821061419a57600182901c91506001810360ff166001901b830192505b80600190039050614141565b505b6f05b9de1d10bf4103d647b0955897ba806f03f80fe03f80fe03f80fe03f80fe03f88302816141d357fe5b0492505050919050565b600080600090506000806f10000000000000000000000000000000858161420057fe5b0691508190506f800000000000000000000000000000008282028161422157fe5b0490506710e1b3be415a00008102830192506f800000000000000000000000000000008282028161424e57fe5b0490506705a0913f6b1e00008102830192506f800000000000000000000000000000008282028161427b57fe5b049050670168244fdac780008102830192506f80000000000000000000000000000000828202816142a857fe5b049050664807432bc180008102830192506f80000000000000000000000000000000828202816142d457fe5b049050660c0135dca040008102830192506f800000000000000000000000000000008282028161430057fe5b0490506601b707b1cdc0008102830192506f800000000000000000000000000000008282028161432c57fe5b0490506536e0f639b8008102830192506f800000000000000000000000000000008282028161435757fe5b049050650618fee9f8008102830192506f800000000000000000000000000000008282028161438257fe5b049050649c197dcc008102830192506f80000000000000000000000000000000828202816143ac57fe5b049050640e30dce4008102830192506f80000000000000000000000000000000828202816143d657fe5b04905064012ebd13008102830192506f800000000000000000000000000000008282028161440057fe5b0490506317499f008102830192506f800000000000000000000000000000008282028161442957fe5b0490506301a9d4808102830192506f800000000000000000000000000000008282028161445257fe5b049050621c63808102830192506f800000000000000000000000000000008282028161447a57fe5b0490506201c6388102830192506f80000000000000000000000000000000828202816144a257fe5b049050611ab88102830192506f80000000000000000000000000000000828202816144c957fe5b04905061017c8102830192506f80000000000000000000000000000000828202816144f057fe5b04905060148102830192506f800000000000000000000000000000008282028161451657fe5b04905060018102830192506f80000000000000000000000000000000826721c3677c82b40000858161454457fe5b040101925060006f100000000000000000000000000000008616146145945770018ebef9eac820ae8682b9793ac6d1e7767001c3d6a24ed82218787d624d3e5eba95f984028161459057fe5b0492505b60006f200000000000000000000000000000008616146145df577001368b2fc6f9609fe7aceb46aa619baed470018ebef9eac820ae8682b9793ac6d1e7788402816145db57fe5b0492505b60006f40000000000000000000000000000000861614614629576fbc5ab1b16779be3575bd8f0520a9f21f7001368b2fc6f9609fe7aceb46aa619baed584028161462557fe5b0492505b60006f80000000000000000000000000000000861614614672576f454aaa8efe072e7f6ddbab84b40a55c96fbc5ab1b16779be3575bd8f0520a9f21e84028161466e57fe5b0492505b60007001000000000000000000000000000000008616146146bc576f0960aadc109e7a3bf4578099615711ea6f454aaa8efe072e7f6ddbab84b40a55c58402816146b857fe5b0492505b6000700200000000000000000000000000000000861614614705576e2bf84208204f5977f9a8cf01fdce3d6f0960aadc109e7a3bf4578099615711d784028161470157fe5b0492505b600070040000000000000000000000000000000086161461474c576d03c6ab775dd0b95b4cbee7e65d116e2bf84208204f5977f9a8cf01fdc30784028161474857fe5b0492505b829350505050919050565b600080602090506000607f90505b8060ff166001830160ff1610156147b4576000600282840160ff168161478757fe5b0490508460368260ff166080811061479b57fe5b0154106147aa578092506147ae565b8091505b50614765565b8360368260ff16608081106147c557fe5b0154106147d6578092505050614807565b8360368360ff16608081106147e757fe5b0154106147f8578192505050614807565b600061480057fe5b6000925050505b919050565b60008083905060008090508360ff16858302901c91506f03442c4e6074a82f1797f72ac00000008202810190508360ff16858302901c91506f0116b96f757c380fb287fd0e400000008202810190508360ff16858302901c91506e45ae5bdd5f0e03eca1ff43900000008202810190508360ff16858302901c91506e0defabf91302cd95b9ffda500000008202810190508360ff16858302901c91506e02529ca9832b22439efff9b80000008202810190508360ff16858302901c91506d54f1cf12bd04e516b6da880000008202810190508360ff16858302901c91506d0a9e39e257a09ca2d6db510000008202810190508360ff16858302901c91506d012e066e7b839fa050c3090000008202810190508360ff16858302901c91506c1e33d7d926c329a1ad1a8000008202810190508360ff16858302901c91506c02bee513bdb4a6b19b5f8000008202810190508360ff16858302901c91506b3a9316fa79b88eccf2a000008202810190508360ff16858302901c91506b048177ebe1fa8123752000008202810190508360ff16858302901c91506a5263fe90242dcbacf000008202810190508360ff16858302901c91506a057e22099c030d941000008202810190508360ff16858302901c91506957e22099c030d94100008202810190508360ff16858302901c915069052b6b545699763100008202810190508360ff16858302901c9150684985f67696bf7480008202810190508360ff16858302901c91506803dea12ea99e4980008202810190508360ff16858302901c91506731880f2214b6e0008202810190508360ff16858302901c915067025bcff56eb360008202810190508360ff16858302901c9150661b722e10ab10008202810190508360ff16858302901c91506601317c700770008202810190508360ff16858302901c9150650cba84aafa008202810190508360ff16858302901c91506482573a0a008202810190508360ff16858302901c91506405035ad9008202810190508360ff16858302901c9150632f881b008202810190508360ff16858302901c91506301b293408202810190508360ff16858302901c9150620efc408202810190508360ff16858302901c9150617fe08202810190508360ff16858302901c91506104208202810190508360ff16858302901c915060218202810190508360ff16858302901c915060018202810190508360ff166001901b856f0688589cc0e9505e2f2fee55800000008381614b9d57fe5b0401019250505092915050565b6000614bb63383614efb565b9050919050565b600073ffffffffffffffffffffffffffffffffffffffff168173ffffffffffffffffffffffffffffffffffffffff161415614bf757600080fd5b614c018282613438565b614c0a57600080fd5b60008260000160008373ffffffffffffffffffffffffffffffffffffffff1673ffffffffffffffffffffffffffffffffffffffff16815260200190815260200160002060006101000a81548160ff0219169083151502179055505050565b600073ffffffffffffffffffffffffffffffffffffffff168173ffffffffffffffffffffffffffffffffffffffff161415614ca257600080fd5b614cac8282613438565b15614cb657600080fd5b60018260000160008373ffffffffffffffffffffffffffffffffffffffff1673ffffffffffffffffffffffffffffffffffffffff16815260200190815260200160002060006101000a81548160ff0219169083151502179055505050565b6000614d203383614fc0565b9050919050565b600073ffffffffffffffffffffffffffffffffffffffff168273ffffffffffffffffffffffffffffffffffffffff161415614d6157600080fd5b614d768160025461300390919063ffffffff16565b600281905550614dcd816000808573ffffffffffffffffffffffffffffffffffffffff1673ffffffffffffffffffffffffffffffffffffffff1681526020019081526020016000205461300390919063ffffffff16565b6000808473ffffffffffffffffffffffffffffffffffffffff1673ffffffffffffffffffffffffffffffffffffffff168152602001908152602001600020819055508173ffffffffffffffffffffffffffffffffffffffff16600073ffffffffffffffffffffffffffffffffffffffff167fddf252ad1be2c89b69c2b068fc378daa952ba7f163c4a11628f55a4df523b3ef836040518082815260200191505060405180910390a35050565b600080600090506000839050610100811015614eb0575b6001811115614eab57600181901c9050600182019150614e90565b614ef1565b6000608090505b60008160ff161115614eef578060ff166001901b8210614ee0578060ff1682901c915080831792505b60018160ff16901c9050614eb7565b505b8192505050919050565b600060b8543a1115614f0957fe5b81600081118015614f22575080614f1f33611e69565b10155b614f2b57600080fd5b6000614f3684611e29565b9050614f428585615071565b7f14feb1b32dbb3ebf172a72bc6b201cb3ddcd8dd148da8b8ac41207f2d69bdd32858583604051808473ffffffffffffffffffffffffffffffffffffffff1673ffffffffffffffffffffffffffffffffffffffff168152602001838152602001828152602001935050505060405180910390a1809250505092915050565b600060b8543a1115614fce57fe5b8160008111614fdc57600080fd5b6000614fe784612169565b9050614ff38582614d27565b7f65ab8b57af027ad387b3f608b0745de61b7dc81d07be6ded03736db32fe46bd9858286604051808473ffffffffffffffffffffffffffffffffffffffff1673ffffffffffffffffffffffffffffffffffffffff168152602001838152602001828152602001935050505060405180910390a1809250505092915050565b600073ffffffffffffffffffffffffffffffffffffffff168273ffffffffffffffffffffffffffffffffffffffff1614156150ab57600080fd5b6150c08160025461369490919063ffffffff16565b600281905550615117816000808573ffffffffffffffffffffffffffffffffffffffff1673ffffffffffffffffffffffffffffffffffffffff1681526020019081526020016000205461369490919063ffffffff16565b6000808473ffffffffffffffffffffffffffffffffffffffff1673ffffffffffffffffffffffffffffffffffffffff16815260200190815260200160002081905550600073ffffffffffffffffffffffffffffffffffffffff168273ffffffffffffffffffffffffffffffffffffffff167fddf252ad1be2c89b69c2b068fc378daa952ba7f163c4a11628f55a4df523b3ef836040518082815260200191505060405180910390a3505056fe506175736572526f6c653a2063616c6c657220646f6573206e6f742068617665207468652050617573657220726f6c6542616e636f72466f726d756c613a20436f6e6e6563746f7242616c616e6365206e6f74203e2030756e61626c6520746f20636c61696d20616e7920746f6b656e7320626563617573652076657374696e67206973206e6f74206f7665722079657442616e636f72466f726d756c613a20436f6e6e6563746f7220576569676874206e6f74203e20304d7573742062652063616c6c6564206279207468652066756e64696e6720706f6f6c42616e636f72466f726d756c613a2053656c6c20416d6f756e74206e6f74203c3d20537570706c7942616e636f72466f726d756c613a20436f6e6e6563746f7220576569676874206e6f74203c3d204d41585f574549474854a165627a7a723058202bf08a3d22124bdbd4d7f3e0762fa61978004c1e14c7bcacd44478f8c2816a5b0029",
  "source": "pragma solidity ^0.5.0;\n\nimport \"./BondingCurveToken.sol\";\nimport \"./vendor/lifecycle/Pausable.sol\";\n\n/**\n * @title CommonsToken\n * @author Rinke Hendriksen (@eknir) and Pavle Batuta (@flooffieban), during the Oddyssey hackathon in Groningen '19 (part of team: Giveth - Crowdfunding the commons)\n * @notice This smart contract implements the augmented bonding curve design principle (described here: https://medium.com/@abbey_titcomb/3f1f7c1fa751\n * @dev We use the BancorFormule to define the slope of the curve, an ERC20 to model the internal token (minted by the bonding curve) and an ERC20 to model the external (stable currency) token\n * @dev Source: https://github.com/commons-stack/genesis-contracts/tree/master/contracts/bondingcurve\n */\ncontract CommonsToken is BondingCurveToken, Pausable {\n  /**\n    PreHatchContribution keeps track of the contribution of a hatcher during the hatchin phase:\n      - paidExternal: the amount contributed during the hatching phase, denominated in external currency\n      - lockedInternal: paidExternal / p0 = the amount of internal tokens represented by paidExternal\n\n    These tokens are unlocked post-hatch according to a vesting policy. Post hatch, we decrease lockedInternal to 0\n  */\n  struct PreHatchContribution {\n    uint256 paidExternal;\n    uint256 lockedInternal;\n  }\n\n  // Helper to represent fractions => 100% = 1000000, 1% = 10000\n  uint256 constant DENOMINATOR_PPM = 1000000;\n\n  // External token contract (Stablecurrency e.g. DAI).\n  ERC20 public externalToken;\n\n  // Address of the funding pool contract.\n  address public fundingPool;\n\n  // Address of the account who will collect all fees from burning tokens.\n  address public feeRecipient;\n\n  // Curve parameters:\n  uint256 public theta; // fraction (in PPM) of the contributed amount that goes to the funding pool\n  uint256 public p0; // price (in externalToken) for which people can purchase the internal token during the hathing phase\n  uint256 public initialRaise; // the amount of external tokens that must be contributed during the hatching phase to go post-hatching\n  uint256 public friction; // the fraction (in PPM) that goes to the funding pool when internal tokens are burned\n\n  // Minimal EXTERNAL token contribution:\n  uint256 public minExternalContribution;\n\n  // Total amount of EXTERNAL tokens raised:\n  uint256 public raisedExternal;\n\n  // Total amount of INTERNAL tokens which (can + are) unlocked.\n  uint256 private unlockedInternal;\n\n  // Curve state (has it been hatched?).\n  bool public isHatched;\n\n  // Timestamp by which the curve must be hatched since initialization.\n  uint256 public hatchDeadline;\n\n  // Timestamp by which any hatcher won't be able to claim any tokens.\n  uint256 public hatchVestingDeadline;\n\n  // Time (in seconds) defining how long after hatching finishes a hatcher won't be able to claim any tokens.\n  uint256 public hatchVestingDurationSeconds;\n\n  // Mapping of hatchers to contributions.\n  mapping(address => PreHatchContribution) public initialContributions;\n\n  modifier whileHatched(bool _hatched) {\n    require(isHatched == _hatched, \"Curve must be hatched\");\n    _;\n  }\n\n  modifier onlyFundingPool() {\n    require(msg.sender == fundingPool, \"Must be called by the funding pool\");\n    _;\n  }\n\n  modifier onlyHatcher() {\n    require(initialContributions[msg.sender].paidExternal != 0, \"Must be called by a hatcher\");\n    _;\n  }\n\n  modifier mustBeInPPM(uint256 _val) {\n    require(_val <= DENOMINATOR_PPM, \"Value must be in PPM\");\n    _;\n  }\n\n  modifier mustBeNonZeroAdr(address _adr) {\n    require(_adr != address(0), \"Address must not be zero\");\n    _;\n  }\n\n  modifier mustBeLargeEnoughContribution(uint256 _amountExternal) {\n    uint256 totalAmountExternal = initialContributions[msg.sender].paidExternal + _amountExternal;\n    require(totalAmountExternal >= minExternalContribution, \"Insufficient contribution\");\n    _;\n  }\n\n  modifier expiredStatus(bool _wantExpire) {\n    bool expired = now <= hatchDeadline;\n    if (_wantExpire) {\n      require(!expired, \"Curve hatch time has expired\");\n    }\n    require(expired, \"Curve hatch time has expired\");\n    _;\n  }\n\n  modifier vestingFinished() {\n    require(now >= hatchVestingDeadline, \"unable to claim any tokens because vesting is not over yet\");\n    _;\n  }\n\n  /*\n  * @param _addresses [0] externalToken [1] fundingPool [2] feeRecipient [3] pauser\n  * @param _settings [0] _gasPrice [1] _theta [2] _p0 [3] _initialRaise [4] _friction [5] _hatchDurationSeconds [6] _hatchVestingDurationSeconds [7] _minExternalContribution\n  * @param _reserveRatio\n  */\n  constructor(\n    address[4] memory _addresses,\n    uint256[8] memory _settings,\n    uint32 _reserveRatio\n  )\n    public\n    mustBeNonZeroAdr(_addresses[0])\n    mustBeNonZeroAdr(_addresses[1])\n    mustBeNonZeroAdr(_addresses[2])\n    mustBeNonZeroAdr(_addresses[3])\n    mustBeInPPM(_reserveRatio)\n    mustBeInPPM(_settings[1])\n    mustBeInPPM(_settings[4])\n    BondingCurveToken(_reserveRatio, _settings[0])\n    Pausable(_addresses[3])\n  {\n    theta = _settings[1];\n    p0 = _settings[2];\n    initialRaise = _settings[3];\n    fundingPool = _addresses[1];\n    feeRecipient = _addresses[2];\n    friction = _settings[4];\n\n    hatchDeadline = now + _settings[5];\n    // Default value. Vesting deadline is set when hatching ends.\n    hatchVestingDeadline = 0;\n    hatchVestingDurationSeconds = _settings[6];\n\n    minExternalContribution = _settings[7];\n\n    externalToken = ERC20(_addresses[0]);\n  }\n\n  function mint(uint256 _amount)\n    public\n    whileHatched(true)\n    whenNotPaused\n    returns (uint256)\n  {\n    return _curvedMint(_amount);\n  }\n\n  function burn(uint256 _amount)\n    public\n    whileHatched(true)\n    whenNotPaused\n    returns (uint256)\n  {\n    return _curvedBurn(_amount);\n  }\n\n  function hatchContribute(uint256 _value)\n    public\n    mustBeLargeEnoughContribution(_value)\n    whileHatched(false)\n    expiredStatus(false)\n    whenNotPaused\n    returns (uint256)\n  {\n    uint256 contributed = _value;\n\n    if(raisedExternal + contributed < initialRaise) {\n      raisedExternal += contributed;\n      _pullExternalTokens(contributed);\n    } else {\n      contributed = initialRaise - raisedExternal;\n      raisedExternal = initialRaise;\n      _pullExternalTokens(contributed);\n      _endHatchPhase();\n    }\n\n    // Increase the amount paid in EXTERNAL tokens.\n    initialContributions[msg.sender].paidExternal += contributed;\n\n    // Lock the INTERNAL tokens, total is EXTERNAL amount * price of internal token during the raise.\n    initialContributions[msg.sender].lockedInternal += contributed * p0;\n    return contributed * p0;\n  }\n\n  function fundsAllocated(uint256 _externalAllocated)\n    public\n    onlyFundingPool\n    whileHatched(true)\n    whenNotPaused\n  {\n    // Currently, we unlock a 1/1 proportion of tokens.\n    // We could set a different proportion:\n    //  100.000 funds spend => 50.000 worth of funds unlocked.\n    // We should only update the total unlocked when it is less than 100%.\n\n    // TODO: add vesting period ended flag and optimise check.\n    unlockedInternal += _externalAllocated / p0;\n    if (unlockedInternal >= initialRaise * p0) {\n      unlockedInternal = initialRaise * p0;\n    }\n  }\n\n  function claimTokens()\n    public\n    whileHatched(true)\n    onlyHatcher\n    vestingFinished\n    whenNotPaused\n    returns (uint256)\n  {\n    require(initialContributions[msg.sender].lockedInternal > 0);\n\n    uint256 paidExternal = initialContributions[msg.sender].paidExternal;\n    uint256 lockedInternal = initialContributions[msg.sender].lockedInternal;\n\n    // The total amount of INTERNAL tokens that should have been unlocked.\n    uint256 shouldHaveUnlockedInternal = (paidExternal * unlockedInternal) / initialRaise;\n    // The amount of INTERNAL tokens that was already unlocked.\n    uint256 previouslyUnlockedInternal = (paidExternal / p0) - lockedInternal;\n    // The amount that can be unlocked.\n    uint256 toUnlock = shouldHaveUnlockedInternal - previouslyUnlockedInternal;\n\n    initialContributions[msg.sender].lockedInternal -= toUnlock;\n    _transfer(address(this), msg.sender, toUnlock);\n    return toUnlock;\n  }\n\n  function refund()\n    public\n    whileHatched(false)\n    whenNotPaused\n    returns (uint256)\n  {\n    // Refund the EXTERNAL tokens from the contibution.\n    uint256 paidExternal = initialContributions[msg.sender].paidExternal;\n    externalToken.transfer(msg.sender, paidExternal);\n    return paidExternal;\n  }\n\n  function transfer(address to, uint256 value) public whenNotPaused returns (bool) {\n    return super.transfer(to, value);\n  }\n\n  function approve(address spender, uint256 value) public whenNotPaused returns (bool) {\n    return super.approve(spender, value);\n  }\n\n  function transferFrom(address from, address to, uint256 value) public whenNotPaused returns (bool) {\n    return super.transferFrom(from, to, value);\n  }\n\n  function poolBalance()\n    public\n    view\n    returns(uint256)\n  {\n    return externalToken.balanceOf(address(this));\n  }\n\n  // Try and pull the given amount of reserve token into the contract balance.\n  // Reverts if there is no approval.\n  function _pullExternalTokens(uint256 _amount)\n    internal\n  {\n    externalToken.transferFrom(msg.sender, address(this), _amount);\n  }\n\n  // End the hatching phase of the curve.\n  // Allow the fundingPool to pull theta times the balance into their control.\n  // NOTE: 1 - theta is reserve.\n  function _endHatchPhase()\n    internal\n  {\n    uint256 amountFundingPoolExternal = ((initialRaise) * theta ) / DENOMINATOR_PPM; // denominated in external\n    // FIXES: https://github.com/commons-stack/genesis-contracts/issues/16\n    // uint256 amountReserveInternal = (initialRaise / p0) * (DENOMINATOR_PPM - theta) / DENOMINATOR_PPM; // denominated in internal\n\n    // _transfer(address(this), fundingPool, amount);\n\n    // transfer external tokens to the funding pool:\n    externalToken.transfer(fundingPool, amountFundingPoolExternal);\n\n    // Mint INTERNAL tokens to the reserve:\n    // FIXES: https://github.com/commons-stack/genesis-contracts/issues/16\n    // _mint(address(this), amountReserveInternal);\n    _mint(address(this), initialRaise * p0);\n\n    // End the hatching phase\n    isHatched = true;\n    // Start hatchers vesting\n    hatchVestingDeadline = now + hatchVestingDurationSeconds;\n  }\n\n  /**\n   * @dev Mint tokens\n   *\n   * @param amount Amount of tokens to deposit\n   */\n  function _curvedMint(uint256 amount) internal returns (uint256) {\n    require(externalToken.transferFrom(msg.sender, address(this), amount));\n    return super._curvedMint(amount);\n  }\n\n  /**\n   * @dev Burn tokens\n   *\n   * @param amount Amount of tokens to burn\n   */\n  function _curvedBurn(uint256 amount) internal returns (uint256) {\n    uint256 reimbursement = super._curvedBurn(amount);\n    uint256 frictionCost = friction * reimbursement / DENOMINATOR_PPM;\n    externalToken.transfer(msg.sender, reimbursement - frictionCost);\n    externalToken.transfer(feeRecipient, frictionCost);\n\n    if (feeRecipient != fundingPool) {\n      unlockedInternal += frictionCost / p0;\n    }\n\n    return reimbursement;\n  }\n}\n",
  "sourcePath": "/home/ggarrido/lightstreams/workspace/lightstreams-js-sdk/contracts/bondingcurve/CommonsToken.sol",
  "compiler": {
    "name": "solc",
    "version": "0.5.8+commit.23d335f2.Emscripten.clang"
  },
  "schemaVersion": "3.0.23",
  "updatedAt": "2020-02-07T13:35:31.354Z",
  "devdoc": {
    "author": "Rinke Hendriksen (@eknir) and Pavle Batuta (@flooffieban), during the Oddyssey hackathon in Groningen '19 (part of team: Giveth - Crowdfunding the commons)",
    "details": "We use the BancorFormule to define the slope of the curve, an ERC20 to model the internal token (minted by the bonding curve) and an ERC20 to model the external (stable currency) tokenSource: https://github.com/commons-stack/genesis-contracts/tree/master/contracts/bondingcurve",
    "methods": {
      "allowance(address,address)": {
        "details": "Function to check the amount of tokens that an owner allowed to a spender.",
        "params": {
          "owner": "address The address which owns the funds.",
          "spender": "address The address which will spend the funds."
        },
        "return": "A uint256 specifying the amount of tokens still available for the spender."
      },
      "balanceOf(address)": {
        "details": "Gets the balance of the specified address.",
        "params": {
          "owner": "The address to query the balance of."
        },
        "return": "An uint256 representing the amount owned by the passed address."
      },
      "calculatePurchaseReturn(uint256,uint256,uint32,uint256)": {
        "details": "given a token supply, connector balance, weight and a deposit amount (in the connector token), calculates the return for a given conversion (in the main token)  * Formula: Return = _supply * ((1 + _depositAmount / _connectorBalance) ^ (_connectorWeight / 1000000) - 1)",
        "params": {
          "_connectorBalance": "total connector balance",
          "_connectorWeight": "connector weight, represented in ppm, 1-1000000",
          "_depositAmount": "deposit amount, in connector token",
          "_supply": "token total supply"
        },
        "return": "purchase return amount"
      },
      "calculateSaleReturn(uint256,uint256,uint32,uint256)": {
        "details": "given a token supply, connector balance, weight and a sell amount (in the main token), calculates the return for a given conversion (in the connector token)  * Formula: Return = _connectorBalance * (1 - (1 - _sellAmount / _supply) ^ (1 / (_connectorWeight / 1000000)))",
        "params": {
          "_connectorBalance": "total connector",
          "_connectorWeight": "constant connector Weight, represented in ppm, 1-1000000",
          "_sellAmount": "sell amount, in the token itself",
          "_supply": "token total supply"
        },
        "return": "sale return amount"
      },
      "decreaseAllowance(address,uint256)": {
        "details": "Decrease the amount of tokens that an owner allowed to a spender. approve should be called when allowed_[_spender] == 0. To decrement allowed value is better to use this function to avoid 2 calls (and wait until the first transaction is mined) From MonolithDAO Token.sol Emits an Approval event.",
        "params": {
          "spender": "The address which will spend the funds.",
          "subtractedValue": "The amount of tokens to decrease the allowance by."
        }
      },
      "increaseAllowance(address,uint256)": {
        "details": "Increase the amount of tokens that an owner allowed to a spender. approve should be called when allowed_[_spender] == 0. To increment allowed value is better to use this function to avoid 2 calls (and wait until the first transaction is mined) From MonolithDAO Token.sol Emits an Approval event.",
        "params": {
          "addedValue": "The amount of tokens to increase the allowance by.",
          "spender": "The address which will spend the funds."
        }
      },
      "pause()": {
        "details": "Called by a pauser to pause, triggers stopped state."
      },
      "paused()": {
        "details": "Returns true if the contract is paused, and false otherwise."
      },
      "totalSupply()": {
        "details": "Total number of tokens in existence"
      },
      "unpause()": {
        "details": "Called by a pauser to unpause, returns to normal state."
      }
    },
    "title": "CommonsToken"
  },
  "userdoc": {
    "methods": {},
    "notice": "This smart contract implements the augmented bonding curve design principle (described here: https://medium.com/@abbey_titcomb/3f1f7c1fa751"
  }
}