{
  "contractName": "CommonsToken",
  "abi": [
    {
      "constant": false,
      "inputs": [
        {
          "name": "spender",
          "type": "address"
        },
        {
          "name": "value",
          "type": "uint256"
        }
      ],
      "name": "approve",
      "outputs": [
        {
          "name": "",
          "type": "bool"
        }
      ],
      "payable": false,
      "stateMutability": "nonpayable",
      "type": "function"
    },
    {
      "constant": true,
      "inputs": [],
      "name": "reserveRatio",
      "outputs": [
        {
          "name": "",
          "type": "uint32"
        }
      ],
      "payable": false,
      "stateMutability": "view",
      "type": "function"
    },
    {
      "constant": true,
      "inputs": [],
      "name": "totalSupply",
      "outputs": [
        {
          "name": "",
          "type": "uint256"
        }
      ],
      "payable": false,
      "stateMutability": "view",
      "type": "function"
    },
    {
      "constant": false,
      "inputs": [
        {
          "name": "from",
          "type": "address"
        },
        {
          "name": "to",
          "type": "address"
        },
        {
          "name": "value",
          "type": "uint256"
        }
      ],
      "name": "transferFrom",
      "outputs": [
        {
          "name": "",
          "type": "bool"
        }
      ],
      "payable": false,
      "stateMutability": "nonpayable",
      "type": "function"
    },
    {
      "constant": true,
      "inputs": [],
      "name": "p0",
      "outputs": [
        {
          "name": "",
          "type": "uint256"
        }
      ],
      "payable": false,
      "stateMutability": "view",
      "type": "function"
    },
    {
      "constant": true,
      "inputs": [
        {
          "name": "_supply",
          "type": "uint256"
        },
        {
          "name": "_connectorBalance",
          "type": "uint256"
        },
        {
          "name": "_connectorWeight",
          "type": "uint32"
        },
        {
          "name": "_depositAmount",
          "type": "uint256"
        }
      ],
      "name": "calculatePurchaseReturn",
      "outputs": [
        {
          "name": "",
          "type": "uint256"
        }
      ],
      "payable": false,
      "stateMutability": "view",
      "type": "function"
    },
    {
      "constant": true,
      "inputs": [],
      "name": "theta",
      "outputs": [
        {
          "name": "",
          "type": "uint256"
        }
      ],
      "payable": false,
      "stateMutability": "view",
      "type": "function"
    },
    {
      "constant": false,
      "inputs": [
        {
          "name": "spender",
          "type": "address"
        },
        {
          "name": "addedValue",
          "type": "uint256"
        }
      ],
      "name": "increaseAllowance",
      "outputs": [
        {
          "name": "",
          "type": "bool"
        }
      ],
      "payable": false,
      "stateMutability": "nonpayable",
      "type": "function"
    },
    {
      "constant": true,
      "inputs": [
        {
          "name": "_supply",
          "type": "uint256"
        },
        {
          "name": "_connectorBalance",
          "type": "uint256"
        },
        {
          "name": "_connectorWeight",
          "type": "uint32"
        },
        {
          "name": "_sellAmount",
          "type": "uint256"
        }
      ],
      "name": "calculateSaleReturn",
      "outputs": [
        {
          "name": "",
          "type": "uint256"
        }
      ],
      "payable": false,
      "stateMutability": "view",
      "type": "function"
    },
    {
      "constant": true,
      "inputs": [],
      "name": "raisedExternal",
      "outputs": [
        {
          "name": "",
          "type": "uint256"
        }
      ],
      "payable": false,
      "stateMutability": "view",
      "type": "function"
    },
    {
      "constant": true,
      "inputs": [],
      "name": "version",
      "outputs": [
        {
          "name": "",
          "type": "string"
        }
      ],
      "payable": false,
      "stateMutability": "view",
      "type": "function"
    },
    {
      "constant": true,
      "inputs": [
        {
          "name": "amount",
          "type": "uint256"
        }
      ],
      "name": "calculateCurvedBurnReturn",
      "outputs": [
        {
          "name": "",
          "type": "uint256"
        }
      ],
      "payable": false,
      "stateMutability": "view",
      "type": "function"
    },
    {
      "constant": true,
      "inputs": [
        {
          "name": "owner",
          "type": "address"
        }
      ],
      "name": "balanceOf",
      "outputs": [
        {
          "name": "",
          "type": "uint256"
        }
      ],
      "payable": false,
      "stateMutability": "view",
      "type": "function"
    },
    {
      "constant": true,
      "inputs": [],
      "name": "minExternalContribution",
      "outputs": [
        {
          "name": "",
          "type": "uint256"
        }
      ],
      "payable": false,
      "stateMutability": "view",
      "type": "function"
    },
    {
      "constant": true,
      "inputs": [
        {
          "name": "amount",
          "type": "uint256"
        }
      ],
      "name": "calculateCurvedMintReturn",
      "outputs": [
        {
          "name": "",
          "type": "uint256"
        }
      ],
      "payable": false,
      "stateMutability": "view",
      "type": "function"
    },
    {
      "constant": true,
      "inputs": [],
      "name": "friction",
      "outputs": [
        {
          "name": "",
          "type": "uint256"
        }
      ],
      "payable": false,
      "stateMutability": "view",
      "type": "function"
    },
    {
      "constant": true,
      "inputs": [],
      "name": "hatchDeadline",
      "outputs": [
        {
          "name": "",
          "type": "uint256"
        }
      ],
      "payable": false,
      "stateMutability": "view",
      "type": "function"
    },
    {
      "constant": false,
      "inputs": [
        {
          "name": "spender",
          "type": "address"
        },
        {
          "name": "subtractedValue",
          "type": "uint256"
        }
      ],
      "name": "decreaseAllowance",
      "outputs": [
        {
          "name": "",
          "type": "bool"
        }
      ],
      "payable": false,
      "stateMutability": "nonpayable",
      "type": "function"
    },
    {
      "constant": true,
      "inputs": [
        {
          "name": "",
          "type": "address"
        }
      ],
      "name": "initialContributions",
      "outputs": [
        {
          "name": "paidExternal",
          "type": "uint256"
        },
        {
          "name": "lockedInternal",
          "type": "uint256"
        }
      ],
      "payable": false,
      "stateMutability": "view",
      "type": "function"
    },
    {
      "constant": false,
      "inputs": [
        {
          "name": "to",
          "type": "address"
        },
        {
          "name": "value",
          "type": "uint256"
        }
      ],
      "name": "transfer",
      "outputs": [
        {
          "name": "",
          "type": "bool"
        }
      ],
      "payable": false,
      "stateMutability": "nonpayable",
      "type": "function"
    },
    {
      "constant": true,
      "inputs": [],
      "name": "externalToken",
      "outputs": [
        {
          "name": "",
          "type": "address"
        }
      ],
      "payable": false,
      "stateMutability": "view",
      "type": "function"
    },
    {
      "constant": true,
      "inputs": [
        {
          "name": "owner",
          "type": "address"
        },
        {
          "name": "spender",
          "type": "address"
        }
      ],
      "name": "allowance",
      "outputs": [
        {
          "name": "",
          "type": "uint256"
        }
      ],
      "payable": false,
      "stateMutability": "view",
      "type": "function"
    },
    {
      "constant": true,
      "inputs": [],
      "name": "isHatched",
      "outputs": [
        {
          "name": "",
          "type": "bool"
        }
      ],
      "payable": false,
      "stateMutability": "view",
      "type": "function"
    },
    {
      "constant": true,
      "inputs": [],
      "name": "initialRaise",
      "outputs": [
        {
          "name": "",
          "type": "uint256"
        }
      ],
      "payable": false,
      "stateMutability": "view",
      "type": "function"
    },
    {
      "constant": true,
      "inputs": [],
      "name": "fundingPool",
      "outputs": [
        {
          "name": "",
          "type": "address"
        }
      ],
      "payable": false,
      "stateMutability": "view",
      "type": "function"
    },
    {
      "constant": true,
      "inputs": [],
      "name": "gasPrice",
      "outputs": [
        {
          "name": "",
          "type": "uint256"
        }
      ],
      "payable": false,
      "stateMutability": "view",
      "type": "function"
    },
    {
      "inputs": [
        {
          "name": "_externalToken",
          "type": "address"
        },
        {
          "name": "_reserveRatio",
          "type": "uint32"
        },
        {
          "name": "_gasPrice",
          "type": "uint256"
        },
        {
          "name": "_theta",
          "type": "uint256"
        },
        {
          "name": "_p0",
          "type": "uint256"
        },
        {
          "name": "_initialRaise",
          "type": "uint256"
        },
        {
          "name": "_fundingPool",
          "type": "address"
        },
        {
          "name": "_friction",
          "type": "uint256"
        },
        {
          "name": "_duration",
          "type": "uint256"
        },
        {
          "name": "_minExternalContribution",
          "type": "uint256"
        }
      ],
      "payable": false,
      "stateMutability": "nonpayable",
      "type": "constructor"
    },
    {
      "anonymous": false,
      "inputs": [
        {
          "indexed": false,
          "name": "sender",
          "type": "address"
        },
        {
          "indexed": false,
          "name": "amount",
          "type": "uint256"
        },
        {
          "indexed": false,
          "name": "deposit",
          "type": "uint256"
        }
      ],
      "name": "CurvedMint",
      "type": "event"
    },
    {
      "anonymous": false,
      "inputs": [
        {
          "indexed": false,
          "name": "sender",
          "type": "address"
        },
        {
          "indexed": false,
          "name": "amount",
          "type": "uint256"
        },
        {
          "indexed": false,
          "name": "reimbursement",
          "type": "uint256"
        }
      ],
      "name": "CurvedBurn",
      "type": "event"
    },
    {
      "anonymous": false,
      "inputs": [
        {
          "indexed": true,
          "name": "from",
          "type": "address"
        },
        {
          "indexed": true,
          "name": "to",
          "type": "address"
        },
        {
          "indexed": false,
          "name": "value",
          "type": "uint256"
        }
      ],
      "name": "Transfer",
      "type": "event"
    },
    {
      "anonymous": false,
      "inputs": [
        {
          "indexed": true,
          "name": "owner",
          "type": "address"
        },
        {
          "indexed": true,
          "name": "spender",
          "type": "address"
        },
        {
          "indexed": false,
          "name": "value",
          "type": "uint256"
        }
      ],
      "name": "Approval",
      "type": "event"
    },
    {
      "constant": false,
      "inputs": [
        {
          "name": "_amount",
          "type": "uint256"
        }
      ],
      "name": "mint",
      "outputs": [],
      "payable": false,
      "stateMutability": "nonpayable",
      "type": "function"
    },
    {
      "constant": false,
      "inputs": [
        {
          "name": "_amount",
          "type": "uint256"
        }
      ],
      "name": "burn",
      "outputs": [
        {
          "name": "",
          "type": "uint256"
        }
      ],
      "payable": false,
      "stateMutability": "nonpayable",
      "type": "function"
    },
    {
      "constant": false,
      "inputs": [
        {
          "name": "_value",
          "type": "uint256"
        }
      ],
      "name": "hatchContribute",
      "outputs": [],
      "payable": false,
      "stateMutability": "nonpayable",
      "type": "function"
    },
    {
      "constant": false,
      "inputs": [
        {
          "name": "_externalAllocated",
          "type": "uint256"
        }
      ],
      "name": "fundsAllocated",
      "outputs": [],
      "payable": false,
      "stateMutability": "nonpayable",
      "type": "function"
    },
    {
      "constant": false,
      "inputs": [],
      "name": "claimTokens",
      "outputs": [],
      "payable": false,
      "stateMutability": "nonpayable",
      "type": "function"
    },
    {
      "constant": false,
      "inputs": [],
      "name": "refund",
      "outputs": [],
      "payable": false,
      "stateMutability": "nonpayable",
      "type": "function"
    },
    {
      "constant": true,
      "inputs": [],
      "name": "poolBalance",
      "outputs": [
        {
          "name": "",
          "type": "uint256"
        }
      ],
      "payable": false,
      "stateMutability": "view",
      "type": "function"
    }
  ],
  "bytecode": "0x60806040526040518060400160405280600381526020017f302e33000000000000000000000000000000000000000000000000000000000081525060359080519060200190620000519291906200131b565b506040518060400160405280600381526020017f302e33000000000000000000000000000000000000000000000000000000000081525060b690805190602001906200009f9291906200131b565b50348015620000ad57600080fd5b506040516101408062005ba68339810180604052610140811015620000d157600080fd5b81019080805190602001909291908051906020019092919080519060200190929190805190602001909291908051906020019092919080519060200190929190805190602001909291908051906020019092919080519060200190929190805190602001909291905050508888701c35fedd14ffffffffffffffffffffffff60366020608081106200015f57fe5b0181905550701b0ce43b323fffffffffffffffffffffff60366021608081106200018557fe5b01819055507019f0028ec1ffffffffffffffffffffffff6036602260808110620001ab57fe5b01819055507018ded91f0e7fffffffffffffffffffffff6036602360808110620001d157fe5b01819055507017d8ec7f0417ffffffffffffffffffffff6036602460808110620001f757fe5b01819055507016ddc6556cdbffffffffffffffffffffff60366025608081106200021d57fe5b01819055507015ecf52776a1ffffffffffffffffffffff60366026608081106200024357fe5b01819055507015060c256cb2ffffffffffffffffffffff60366027608081106200026957fe5b0181905550701428a2f98d72ffffffffffffffffffffff60366028608081106200028f57fe5b01819055507013545598e5c23fffffffffffffffffffff6036602960808110620002b557fe5b0181905550701288c4161ce1dfffffffffffffffffffff6036602a60808110620002db57fe5b01819055507011c592761c666fffffffffffffffffffff6036602b608081106200030157fe5b018190555070110a688680a757ffffffffffffffffffff6036602c608081106200032757fe5b0181905550701056f1b5bedf77ffffffffffffffffffff6036602d608081106200034d57fe5b0181905550700faadceceeff8bffffffffffffffffffff6036602e608081106200037357fe5b0181905550700f05dc6b27edadffffffffffffffffffff6036602f608081106200039957fe5b0181905550700e67a5a25da4107fffffffffffffffffff6036603060808110620003bf57fe5b0181905550700dcff115b14eedffffffffffffffffffff6036603160808110620003e557fe5b0181905550700d3e7a392431239fffffffffffffffffff60366032608081106200040b57fe5b0181905550700cb2ff529eb71e4fffffffffffffffffff60366033608081106200043157fe5b0181905550700c2d415c3db974afffffffffffffffffff60366034608081106200045757fe5b0181905550700bad03e7d883f69bffffffffffffffffff60366035608081106200047d57fe5b0181905550700b320d03b2c343d5ffffffffffffffffff60368060808110620004a257fe5b0181905550700abc25204e02828dffffffffffffffffff6036603760808110620004c857fe5b0181905550700a4b16f74ee4bb207fffffffffffffffff6036603860808110620004ee57fe5b01819055507009deaf736ac1f569ffffffffffffffffff60366039608081106200051457fe5b0181905550700976bd9952c7aa957fffffffffffffffff6036603a608081106200053a57fe5b01819055507009131271922eaa606fffffffffffffffff6036603b608081106200056057fe5b01819055507008b380f3558668c46fffffffffffffffff6036603c608081106200058657fe5b0181905550700857ddf0117efa215bffffffffffffffff6036603d60808110620005ac57fe5b01819055507007ffffffffffffffffffffffffffffffff6036603e60808110620005d257fe5b01819055507007abbf6f6abb9d087fffffffffffffffff6036603f60808110620005f857fe5b018190555070075af62cbac95f7dfa7fffffffffffffff60366040608081106200061e57fe5b018190555070070d7fb7452e187ac13fffffffffffffff60366041608081106200064457fe5b01819055507006c3390ecc8af379295fffffffffffffff60366042608081106200066a57fe5b018190555070067c00a3b07ffc01fd6fffffffffffffff60366043608081106200069057fe5b0181905550700637b647c39cbb9d3d27ffffffffffffff6036604460808110620006b657fe5b01819055507005f63b1fc104dbd39587ffffffffffffff6036604560808110620006dc57fe5b01819055507005b771955b36e12f7235ffffffffffffff60366046608081106200070257fe5b018190555070057b3d49dda84556d6f6ffffffffffffff60366047608081106200072857fe5b018190555070054183095b2c8ececf30ffffffffffffff60366048608081106200074e57fe5b018190555070050a28be635ca2b888f77fffffffffffff60366049608081106200077457fe5b01819055507004d5156639708c9db33c3fffffffffffff6036604a608081106200079a57fe5b01819055507004a23105873875bd52dfdfffffffffffff6036604b60808110620007c057fe5b0181905550700471649d87199aa990756fffffffffffff6036604c60808110620007e657fe5b01819055507004429a21a029d4c1457cfbffffffffffff6036604d608081106200080c57fe5b0181905550700415bc6d6fb7dd71af2cb3ffffffffffff6036604e608081106200083257fe5b01819055507003eab73b3bbfe282243ce1ffffffffffff6036604f608081106200085857fe5b01819055507003c1771ac9fb6b4c18e229ffffffffffff60366050608081106200087e57fe5b0181905550700399e96897690418f785257fffffffffff6036605160808110620008a457fe5b0181905550700373fc456c53bb779bf0ea9fffffffffff6036605260808110620008ca57fe5b018190555070034f9e8e490c48e67e6ab8bfffffffffff6036605360808110620008f057fe5b018190555070032cbfd4a7adc790560b3337ffffffffff60366054608081106200091657fe5b018190555070030b50570f6e5d2acca94613ffffffffff60366055608081106200093c57fe5b01819055507002eb40f9f620fda6b56c2861ffffffffff60366056608081106200096257fe5b01819055507002cc8340ecb0d0f520a6af58ffffffffff60366057608081106200098857fe5b01819055507002af09481380a0a35cf1ba02ffffffffff6036605860808110620009ae57fe5b0181905550700292c5bdd3b92ec810287b1b3fffffffff6036605960808110620009d457fe5b0181905550700277abdcdab07d5a77ac6d6b9fffffffff6036605a60808110620009fa57fe5b018190555070025daf6654b1eaa55fd64df5efffffffff6036605b6080811062000a2057fe5b0181905550700244c49c648baa98192dce88b7ffffffff6036605c6080811062000a4657fe5b018190555070022ce03cd5619a311b2471268bffffffff6036605d6080811062000a6c57fe5b0181905550700215f77c045fbe885654a44a0fffffffff6036605e6080811062000a9257fe5b01819055507001ffffffffffffffffffffffffffffffff6036605f6080811062000ab857fe5b01819055507001eaefdbdaaee7421fc4d3ede5ffffffff603660606080811062000ade57fe5b01819055507001d6bd8b2eb257df7e8ca57b09bfffffff603660616080811062000b0457fe5b01819055507001c35fedd14b861eb0443f7f133fffffff603660626080811062000b2a57fe5b01819055507001b0ce43b322bcde4a56e8ada5afffffff603660636080811062000b5057fe5b018190555070019f0028ec1fff007f5a195a39dfffffff603660646080811062000b7657fe5b018190555070018ded91f0e72ee74f49b15ba527ffffff603660656080811062000b9c57fe5b018190555070017d8ec7f04136f4e5615fd41a63ffffff603660666080811062000bc257fe5b018190555070016ddc6556cdb84bdc8d12d22e6fffffff603660676080811062000be857fe5b018190555070015ecf52776a1155b5bd8395814f7fffff603660686080811062000c0e57fe5b018190555070015060c256cb23b3b3cc3754cf40ffffff603660696080811062000c3457fe5b01819055507001428a2f98d728ae223ddab715be3fffff6036606a6080811062000c5a57fe5b018190555070013545598e5c23276ccf0ede68034fffff6036606b6080811062000c8057fe5b01819055507001288c4161ce1d6f54b7f61081194fffff6036606c6080811062000ca657fe5b018190555070011c592761c666aa641d5a01a40f17ffff6036606d6080811062000ccc57fe5b0181905550700110a688680a7530515f3e6e6cfdcdffff6036606e6080811062000cf257fe5b01819055507001056f1b5bedf75c6bcb2ce8aed428ffff6036606f6080811062000d1857fe5b01819055506ffaadceceeff8a0890f3875f008277fff603660706080811062000d3d57fe5b01819055506ff05dc6b27edad306388a600f6ba0bfff603660716080811062000d6257fe5b01819055506fe67a5a25da41063de1495d5b18cdbfff603660726080811062000d8757fe5b01819055506fdcff115b14eedde6fc3aa5353f2e4fff603660736080811062000dac57fe5b01819055506fd3e7a3924312399f9aae2e0f868f8fff603660746080811062000dd157fe5b01819055506fcb2ff529eb71e41582cccd5a1ee26fff603660756080811062000df657fe5b01819055506fc2d415c3db974ab32a51840c0b67edff603660766080811062000e1b57fe5b01819055506fbad03e7d883f69ad5b0a186184e06bff603660776080811062000e4057fe5b01819055506fb320d03b2c343d4829abd6075f0cc5ff603660786080811062000e6557fe5b01819055506fabc25204e02828d73c6e80bcdb1a95bf603660796080811062000e8a57fe5b01819055506fa4b16f74ee4bb2040a1ec6c15fbbf2df6036607a6080811062000eaf57fe5b01819055506f9deaf736ac1f569deb1b5ae3f36c130f6036607b6080811062000ed457fe5b01819055506f976bd9952c7aa957f5937d790ef650376036607c6080811062000ef957fe5b01819055506f9131271922eaa6064b73a22d0bd4f2bf6036607d6080811062000f1e57fe5b01819055506f8b380f3558668c46c91c49a2f8e967b96036607e6080811062000f4357fe5b01819055506f857ddf0117efa215952912839f6473e66036607f6080811062000f6857fe5b01819055508160b760006101000a81548163ffffffff021916908363ffffffff1602179055508060b881905550505089600073ffffffffffffffffffffffffffffffffffffffff168173ffffffffffffffffffffffffffffffffffffffff1614156200103c576040517f08c379a00000000000000000000000000000000000000000000000000000000081526004018080602001828103825260188152602001807f41646472657373206d757374206e6f74206265207a65726f000000000000000081525060200191505060405180910390fd5b84600073ffffffffffffffffffffffffffffffffffffffff168173ffffffffffffffffffffffffffffffffffffffff161415620010e1576040517f08c379a00000000000000000000000000000000000000000000000000000000081526004018080602001828103825260188152602001807f41646472657373206d757374206e6f74206265207a65726f000000000000000081525060200191505060405180910390fd5b8a63ffffffff16620f424081111562001162576040517f08c379a00000000000000000000000000000000000000000000000000000000081526004018080602001828103825260148152602001807f56616c7565206d75737420626520696e2050504d00000000000000000000000081525060200191505060405180910390fd5b89620f4240811115620011dd576040517f08c379a00000000000000000000000000000000000000000000000000000000081526004018080602001828103825260148152602001807f56616c7565206d75737420626520696e2050504d00000000000000000000000081525060200191505060405180910390fd5b86620f424081111562001258576040517f08c379a00000000000000000000000000000000000000000000000000000000081526004018080602001828103825260148152602001807f56616c7565206d75737420626520696e2050504d00000000000000000000000081525060200191505060405180910390fd5b8b60bb819055508a60bc819055508960bd819055508860ba60006101000a81548173ffffffffffffffffffffffffffffffffffffffff021916908373ffffffffffffffffffffffffffffffffffffffff1602179055508760be8190555086420160c3819055508560bf819055508e60b960006101000a81548173ffffffffffffffffffffffffffffffffffffffff021916908373ffffffffffffffffffffffffffffffffffffffff160217905550505050505050505050505050505050620013ca565b828054600181600116156101000203166002900490600052602060002090601f016020900481019282601f106200135e57805160ff19168380011785556200138f565b828001600101855582156200138f579182015b828111156200138e57825182559160200191906001019062001371565b5b5090506200139e9190620013a2565b5090565b620013c791905b80821115620013c3576000816000905550600101620013a9565b5090565b90565b6147cc80620013da6000396000f3fe608060405234801561001057600080fd5b5060043610610218576000357c01000000000000000000000000000000000000000000000000000000009004806371645ca011610137578063a9059cbb116100ca578063df39e6e111610099578063df39e6e114610953578063dff0c89814610975578063ec8585ab14610993578063f6a1fe94146109c1578063fe173b9714610a0b57610218565b8063a9059cbb146107fd578063c576a45b14610863578063c9828ae014610891578063dd62ed3e146108db57610218565b8063a0712d6811610106578063a0712d68146106ec578063a0b78dbe1461071a578063a457c2d714610738578063a544e5211461079e57610218565b806371645ca01461065057806396365d441461066e5780639a4f318b1461068c5780639bae6687146106ce57610218565b806342966c68116101af57806354fd4d501161017e57806354fd4d5014610529578063590e1ae3146105ac5780636d6f1e01146105b657806370a08231146105f857610218565b806342966c681461045957806348c54b9d1461049b57806349f9b0f7146104a55780635377d9d51461050b57610218565b8063264e49db116101eb578063264e49db1461035157806329a00e7c1461036f578063309bbc6d146103d557806339509351146103f357610218565b8063095ea7b31461021d5780630c7d5cd81461028357806318160ddd146102ad57806323b872dd146102cb575b600080fd5b6102696004803603604081101561023357600080fd5b81019080803573ffffffffffffffffffffffffffffffffffffffff16906020019092919080359060200190929190505050610a29565b604051808215151515815260200191505060405180910390f35b61028b610b54565b604051808263ffffffff1663ffffffff16815260200191505060405180910390f35b6102b5610b6a565b6040518082815260200191505060405180910390f35b610337600480360360608110156102e157600080fd5b81019080803573ffffffffffffffffffffffffffffffffffffffff169060200190929190803573ffffffffffffffffffffffffffffffffffffffff16906020019092919080359060200190929190505050610b74565b604051808215151515815260200191505060405180910390f35b610359610d7c565b6040518082815260200191505060405180910390f35b6103bf6004803603608081101561038557600080fd5b810190808035906020019092919080359060200190929190803563ffffffff16906020019092919080359060200190929190505050610d82565b6040518082815260200191505060405180910390f35b6103dd610fd6565b6040518082815260200191505060405180910390f35b61043f6004803603604081101561040957600080fd5b81019080803573ffffffffffffffffffffffffffffffffffffffff16906020019092919080359060200190929190505050610fdc565b604051808215151515815260200191505060405180910390f35b6104856004803603602081101561046f57600080fd5b8101908080359060200190929190505050611211565b6040518082815260200191505060405180910390f35b6104a36112ae565b005b6104f5600480360360808110156104bb57600080fd5b810190808035906020019092919080359060200190929190803563ffffffff1690602001909291908035906020019092919050505061155e565b6040518082815260200191505060405180910390f35b61051361182e565b6040518082815260200191505060405180910390f35b610531611834565b6040518080602001828103825283818151815260200191508051906020019080838360005b83811015610571578082015181840152602081019050610556565b50505050905090810190601f16801561059e5780820380516001836020036101000a031916815260200191505b509250505060405180910390f35b6105b46118d2565b005b6105e2600480360360208110156105cc57600080fd5b8101908080359060200190929190505050611ba4565b6040518082815260200191505060405180910390f35b61063a6004803603602081101561060e57600080fd5b81019080803573ffffffffffffffffffffffffffffffffffffffff169060200190929190505050611bd9565b6040518082815260200191505060405180910390f35b610658611c21565b6040518082815260200191505060405180910390f35b610676611c27565b6040518082815260200191505060405180910390f35b6106b8600480360360208110156106a257600080fd5b8101908080359060200190929190505050611d24565b6040518082815260200191505060405180910390f35b6106d6611d59565b6040518082815260200191505060405180910390f35b6107186004803603602081101561070257600080fd5b8101908080359060200190929190505050611d5f565b005b610722611df7565b6040518082815260200191505060405180910390f35b6107846004803603604081101561074e57600080fd5b81019080803573ffffffffffffffffffffffffffffffffffffffff16906020019092919080359060200190929190505050611dfd565b604051808215151515815260200191505060405180910390f35b6107e0600480360360208110156107b457600080fd5b81019080803573ffffffffffffffffffffffffffffffffffffffff169060200190929190505050612032565b604051808381526020018281526020019250505060405180910390f35b6108496004803603604081101561081357600080fd5b81019080803573ffffffffffffffffffffffffffffffffffffffff16906020019092919080359060200190929190505050612056565b604051808215151515815260200191505060405180910390f35b61088f6004803603602081101561087957600080fd5b810190808035906020019092919050505061206d565b005b61089961231a565b604051808273ffffffffffffffffffffffffffffffffffffffff1673ffffffffffffffffffffffffffffffffffffffff16815260200191505060405180910390f35b61093d600480360360408110156108f157600080fd5b81019080803573ffffffffffffffffffffffffffffffffffffffff169060200190929190803573ffffffffffffffffffffffffffffffffffffffff169060200190929190505050612340565b6040518082815260200191505060405180910390f35b61095b6123c7565b604051808215151515815260200191505060405180910390f35b61097d6123da565b6040518082815260200191505060405180910390f35b6109bf600480360360208110156109a957600080fd5b81019080803590602001909291905050506123e0565b005b6109c961254c565b604051808273ffffffffffffffffffffffffffffffffffffffff1673ffffffffffffffffffffffffffffffffffffffff16815260200191505060405180910390f35b610a13612572565b6040518082815260200191505060405180910390f35b60008073ffffffffffffffffffffffffffffffffffffffff168373ffffffffffffffffffffffffffffffffffffffff161415610a6457600080fd5b81600160003373ffffffffffffffffffffffffffffffffffffffff1673ffffffffffffffffffffffffffffffffffffffff16815260200190815260200160002060008573ffffffffffffffffffffffffffffffffffffffff1673ffffffffffffffffffffffffffffffffffffffff168152602001908152602001600020819055508273ffffffffffffffffffffffffffffffffffffffff163373ffffffffffffffffffffffffffffffffffffffff167f8c5be1e5ebec7d5bd14f71427d1e84f3dd0314c0f7b2291e5b200ac8c7c3b925846040518082815260200191505060405180910390a36001905092915050565b60b760009054906101000a900463ffffffff1681565b6000600254905090565b6000610c0582600160008773ffffffffffffffffffffffffffffffffffffffff1673ffffffffffffffffffffffffffffffffffffffff16815260200190815260200160002060003373ffffffffffffffffffffffffffffffffffffffff1673ffffffffffffffffffffffffffffffffffffffff1681526020019081526020016000205461257890919063ffffffff16565b600160008673ffffffffffffffffffffffffffffffffffffffff1673ffffffffffffffffffffffffffffffffffffffff16815260200190815260200160002060003373ffffffffffffffffffffffffffffffffffffffff1673ffffffffffffffffffffffffffffffffffffffff16815260200190815260200160002081905550610c90848484612598565b3373ffffffffffffffffffffffffffffffffffffffff168473ffffffffffffffffffffffffffffffffffffffff167f8c5be1e5ebec7d5bd14f71427d1e84f3dd0314c0f7b2291e5b200ac8c7c3b925600160008873ffffffffffffffffffffffffffffffffffffffff1673ffffffffffffffffffffffffffffffffffffffff16815260200190815260200160002060003373ffffffffffffffffffffffffffffffffffffffff1673ffffffffffffffffffffffffffffffffffffffff168152602001908152602001600020546040518082815260200191505060405180910390a3600190509392505050565b60bc5481565b6000808511610df9576040517f08c379a000000000000000000000000000000000000000000000000000000000815260040180806020018281038252601e8152602001807f42616e636f72466f726d756c613a20537570706c79206e6f74203e20302e000081525060200191505060405180910390fd5b60008411610e52576040517f08c379a00000000000000000000000000000000000000000000000000000000081526004018080602001828103825260278152602001806146d86027913960400191505060405180910390fd5b60008363ffffffff1611610eb1576040517f08c379a00000000000000000000000000000000000000000000000000000000081526004018080602001828103825260278152602001806146ff6027913960400191505060405180910390fd5b620f424063ffffffff168363ffffffff161115610f19576040517f08c379a00000000000000000000000000000000000000000000000000000000081526004018080602001828103825260318152602001806147706031913960400191505060405180910390fd5b6000821415610f2b5760009050610fce565b620f424063ffffffff168363ffffffff161415610f6e57610f6784610f59848861276290919063ffffffff16565b61279c90919063ffffffff16565b9050610fce565b6000806000610f8687866127c290919063ffffffff16565b9050610f97818888620f42406127e1565b809350819450505060008260ff16610fb8858b61276290919063ffffffff16565b908060020a820491505090508881039450505050505b949350505050565b60bb5481565b60008073ffffffffffffffffffffffffffffffffffffffff168373ffffffffffffffffffffffffffffffffffffffff16141561101757600080fd5b6110a682600160003373ffffffffffffffffffffffffffffffffffffffff1673ffffffffffffffffffffffffffffffffffffffff16815260200190815260200160002060008673ffffffffffffffffffffffffffffffffffffffff1673ffffffffffffffffffffffffffffffffffffffff168152602001908152602001600020546127c290919063ffffffff16565b600160003373ffffffffffffffffffffffffffffffffffffffff1673ffffffffffffffffffffffffffffffffffffffff16815260200190815260200160002060008573ffffffffffffffffffffffffffffffffffffffff1673ffffffffffffffffffffffffffffffffffffffff168152602001908152602001600020819055508273ffffffffffffffffffffffffffffffffffffffff163373ffffffffffffffffffffffffffffffffffffffff167f8c5be1e5ebec7d5bd14f71427d1e84f3dd0314c0f7b2291e5b200ac8c7c3b925600160003373ffffffffffffffffffffffffffffffffffffffff1673ffffffffffffffffffffffffffffffffffffffff16815260200190815260200160002060008773ffffffffffffffffffffffffffffffffffffffff1673ffffffffffffffffffffffffffffffffffffffff168152602001908152602001600020546040518082815260200191505060405180910390a36001905092915050565b6000600180151560c260009054906101000a900460ff1615151461129d576040517f08c379a00000000000000000000000000000000000000000000000000000000081526004018080602001828103825260158152602001807f4375727665206d7573742062652068617463686564000000000000000000000081525060200191505060405180910390fd5b6112a683612951565b915050919050565b600180151560c260009054906101000a900460ff16151514611338576040517f08c379a00000000000000000000000000000000000000000000000000000000081526004018080602001828103825260158152602001807f4375727665206d7573742062652068617463686564000000000000000000000081525060200191505060405180910390fd5b600060c460003373ffffffffffffffffffffffffffffffffffffffff1673ffffffffffffffffffffffffffffffffffffffff1681526020019081526020016000206000015414156113f1576040517f08c379a000000000000000000000000000000000000000000000000000000000815260040180806020018281038252601b8152602001807f4d7573742062652063616c6c656420627920612068617463686572000000000081525060200191505060405180910390fd5b600060c460003373ffffffffffffffffffffffffffffffffffffffff1673ffffffffffffffffffffffffffffffffffffffff168152602001908152602001600020600101541161144057600080fd5b600060c460003373ffffffffffffffffffffffffffffffffffffffff1673ffffffffffffffffffffffffffffffffffffffff168152602001908152602001600020600001549050600060c460003373ffffffffffffffffffffffffffffffffffffffff1673ffffffffffffffffffffffffffffffffffffffff168152602001908152602001600020600101549050600060c15460bd5484816114de57fe5b0402905060008260bc5485816114f057fe5b04039050600081830390508060c460003373ffffffffffffffffffffffffffffffffffffffff1673ffffffffffffffffffffffffffffffffffffffff16815260200190815260200160002060010160008282540392505081905550611556303383612598565b505050505050565b60008085116115d5576040517f08c379a000000000000000000000000000000000000000000000000000000000815260040180806020018281038252601e8152602001807f42616e636f72466f726d756c613a20537570706c79206e6f74203e20302e000081525060200191505060405180910390fd5b6000841161162e576040517f08c379a00000000000000000000000000000000000000000000000000000000081526004018080602001828103825260278152602001806146d86027913960400191505060405180910390fd5b60008363ffffffff161161168d576040517f08c379a00000000000000000000000000000000000000000000000000000000081526004018080602001828103825260278152602001806146ff6027913960400191505060405180910390fd5b620f424063ffffffff168363ffffffff1611156116f5576040517f08c379a00000000000000000000000000000000000000000000000000000000081526004018080602001828103825260318152602001806147706031913960400191505060405180910390fd5b8482111561174e576040517f08c379a00000000000000000000000000000000000000000000000000000000081526004018080602001828103825260288152602001806147486028913960400191505060405180910390fd5b60008214156117605760009050611826565b8482141561177057839050611826565b620f424063ffffffff168363ffffffff1614156117b3576117ac8561179e848761276290919063ffffffff16565b61279c90919063ffffffff16565b9050611826565b600080600084880390506117cc8882620f4240896127e1565b809350819450505060006117e9848961276290919063ffffffff16565b905060008360ff16899060020a02905061181e85611810838561257890919063ffffffff16565b61279c90919063ffffffff16565b955050505050505b949350505050565b60c05481565b60b68054600181600116156101000203166002900480601f0160208091040260200160405190810160405280929190818152602001828054600181600116156101000203166002900480156118ca5780601f1061189f576101008083540402835291602001916118ca565b820191906000526020600020905b8154815290600101906020018083116118ad57829003601f168201915b505050505081565b600080151560c260009054906101000a900460ff1615151461195c576040517f08c379a00000000000000000000000000000000000000000000000000000000081526004018080602001828103825260158152602001807f4375727665206d7573742062652068617463686564000000000000000000000081525060200191505060405180910390fd5b6001600060c354421115905081156119e35780156119e2576040517f08c379a000000000000000000000000000000000000000000000000000000000815260040180806020018281038252601c8152602001807f43757276652068617463682074696d652068617320657870697265640000000081525060200191505060405180910390fd5b5b80611a56576040517f08c379a000000000000000000000000000000000000000000000000000000000815260040180806020018281038252601c8152602001807f43757276652068617463682074696d652068617320657870697265640000000081525060200191505060405180910390fd5b600060c460003373ffffffffffffffffffffffffffffffffffffffff1673ffffffffffffffffffffffffffffffffffffffff16815260200190815260200160002060000154905060b960009054906101000a900473ffffffffffffffffffffffffffffffffffffffff1673ffffffffffffffffffffffffffffffffffffffff1663a9059cbb33836040518363ffffffff167c0100000000000000000000000000000000000000000000000000000000028152600401808373ffffffffffffffffffffffffffffffffffffffff1673ffffffffffffffffffffffffffffffffffffffff16815260200182815260200192505050602060405180830381600087803b158015611b6257600080fd5b505af1158015611b76573d6000803e3d6000fd5b505050506040513d6020811015611b8c57600080fd5b81019080805190602001909291905050505050505050565b6000611bd2611bb1610b6a565b611bb9611c27565b60b760009054906101000a900463ffffffff168561155e565b9050919050565b60008060008373ffffffffffffffffffffffffffffffffffffffff1673ffffffffffffffffffffffffffffffffffffffff168152602001908152602001600020549050919050565b60bf5481565b600060b960009054906101000a900473ffffffffffffffffffffffffffffffffffffffff1673ffffffffffffffffffffffffffffffffffffffff166370a08231306040518263ffffffff167c0100000000000000000000000000000000000000000000000000000000028152600401808273ffffffffffffffffffffffffffffffffffffffff1673ffffffffffffffffffffffffffffffffffffffff16815260200191505060206040518083038186803b158015611ce457600080fd5b505afa158015611cf8573d6000803e3d6000fd5b505050506040513d6020811015611d0e57600080fd5b8101908080519060200190929190505050905090565b6000611d52611d31610b6a565b611d39611c27565b60b760009054906101000a900463ffffffff1685610d82565b9050919050565b60be5481565b600180151560c260009054906101000a900460ff16151514611de9576040517f08c379a00000000000000000000000000000000000000000000000000000000081526004018080602001828103825260158152602001807f4375727665206d7573742062652068617463686564000000000000000000000081525060200191505060405180910390fd5b611df282612ba7565b505050565b60c35481565b60008073ffffffffffffffffffffffffffffffffffffffff168373ffffffffffffffffffffffffffffffffffffffff161415611e3857600080fd5b611ec782600160003373ffffffffffffffffffffffffffffffffffffffff1673ffffffffffffffffffffffffffffffffffffffff16815260200190815260200160002060008673ffffffffffffffffffffffffffffffffffffffff1673ffffffffffffffffffffffffffffffffffffffff1681526020019081526020016000205461257890919063ffffffff16565b600160003373ffffffffffffffffffffffffffffffffffffffff1673ffffffffffffffffffffffffffffffffffffffff16815260200190815260200160002060008573ffffffffffffffffffffffffffffffffffffffff1673ffffffffffffffffffffffffffffffffffffffff168152602001908152602001600020819055508273ffffffffffffffffffffffffffffffffffffffff163373ffffffffffffffffffffffffffffffffffffffff167f8c5be1e5ebec7d5bd14f71427d1e84f3dd0314c0f7b2291e5b200ac8c7c3b925600160003373ffffffffffffffffffffffffffffffffffffffff1673ffffffffffffffffffffffffffffffffffffffff16815260200190815260200160002060008773ffffffffffffffffffffffffffffffffffffffff1673ffffffffffffffffffffffffffffffffffffffff168152602001908152602001600020546040518082815260200191505060405180910390a36001905092915050565b60c46020528060005260406000206000915090508060000154908060010154905082565b6000612063338484612598565b6001905092915050565b8060008160c460003373ffffffffffffffffffffffffffffffffffffffff1673ffffffffffffffffffffffffffffffffffffffff1681526020019081526020016000206000015401905060bf5481101561212f576040517f08c379a00000000000000000000000000000000000000000000000000000000081526004018080602001828103825260198152602001807f496e73756666696369656e7420636f6e747269627574696f6e0000000000000081525060200191505060405180910390fd5b600080151560c260009054906101000a900460ff161515146121b9576040517f08c379a00000000000000000000000000000000000000000000000000000000081526004018080602001828103825260158152602001807f4375727665206d7573742062652068617463686564000000000000000000000081525060200191505060405180910390fd5b60008060c3544211159050811561223f57801561223e576040517f08c379a000000000000000000000000000000000000000000000000000000000815260040180806020018281038252601c8152602001807f43757276652068617463682074696d652068617320657870697265640000000081525060200191505060405180910390fd5b5b806122b2576040517f08c379a000000000000000000000000000000000000000000000000000000000815260040180806020018281038252601c8152602001807f43757276652068617463682074696d652068617320657870697265640000000081525060200191505060405180910390fd5b600086905060bd548160c0540110156122e3578060c0600082825401925050819055506122de81612cf5565b612307565b60c05460bd5403905060bd5460c0819055506122fe81612cf5565b612306612e2d565b5b6123113382612fb7565b50505050505050565b60b960009054906101000a900473ffffffffffffffffffffffffffffffffffffffff1681565b6000600160008473ffffffffffffffffffffffffffffffffffffffff1673ffffffffffffffffffffffffffffffffffffffff16815260200190815260200160002060008373ffffffffffffffffffffffffffffffffffffffff1673ffffffffffffffffffffffffffffffffffffffff16815260200190815260200160002054905092915050565b60c260009054906101000a900460ff1681565b60bd5481565b60ba60009054906101000a900473ffffffffffffffffffffffffffffffffffffffff1673ffffffffffffffffffffffffffffffffffffffff163373ffffffffffffffffffffffffffffffffffffffff1614612486576040517f08c379a00000000000000000000000000000000000000000000000000000000081526004018080602001828103825260228152602001806147266022913960400191505060405180910390fd5b600180151560c260009054906101000a900460ff16151514612510576040517f08c379a00000000000000000000000000000000000000000000000000000000081526004018080602001828103825260158152602001807f4375727665206d7573742062652068617463686564000000000000000000000081525060200191505060405180910390fd5b60bc54828161251b57fe5b0460c16000828254019250508190555060bc5460bd540260c154106125485760bc5460bd540260c1819055505b5050565b60ba60009054906101000a900473ffffffffffffffffffffffffffffffffffffffff1681565b60b85481565b60008282111561258757600080fd5b600082840390508091505092915050565b600073ffffffffffffffffffffffffffffffffffffffff168273ffffffffffffffffffffffffffffffffffffffff1614156125d257600080fd5b612623816000808673ffffffffffffffffffffffffffffffffffffffff1673ffffffffffffffffffffffffffffffffffffffff1681526020019081526020016000205461257890919063ffffffff16565b6000808573ffffffffffffffffffffffffffffffffffffffff1673ffffffffffffffffffffffffffffffffffffffff168152602001908152602001600020819055506126b6816000808573ffffffffffffffffffffffffffffffffffffffff1673ffffffffffffffffffffffffffffffffffffffff168152602001908152602001600020546127c290919063ffffffff16565b6000808473ffffffffffffffffffffffffffffffffffffffff1673ffffffffffffffffffffffffffffffffffffffff168152602001908152602001600020819055508173ffffffffffffffffffffffffffffffffffffffff168373ffffffffffffffffffffffffffffffffffffffff167fddf252ad1be2c89b69c2b068fc378daa952ba7f163c4a11628f55a4df523b3ef836040518082815260200191505060405180910390a3505050565b6000808314156127755760009050612796565b600082840290508284828161278657fe5b041461279157600080fd5b809150505b92915050565b60008082116127aa57600080fd5b60008284816127b557fe5b0490508091505092915050565b6000808284019050838110156127d757600080fd5b8091505092915050565b60008070020000000000000000000000000000000086106127fe57fe5b84861015612874576040517f08c379a000000000000000000000000000000000000000000000000000000000815260040180806020018281038252601c8152602001807f4261736573203c203120617265206e6f7420737570706f727465642e0000000081525060200191505060405180910390fd5b600080866f8000000000000000000000000000000089028161289257fe5b04905070015bf0a8b1457695355fb8ac404e7a79e38110156128be576128b78161305f565b91506128ca565b6128c7816135ef565b91505b60008563ffffffff168763ffffffff168402816128e357fe5b049050700800000000000000000000000000000000811015612916576129088161372a565b607f94509450505050612948565b600061292182613ca4565b905061293e81607f0360ff1683908060020a820491505082613d59565b8195509550505050505b94509492505050565b60008061295d836141fa565b9050600081620f424060be548161297057fe5b0460010302905060b960009054906101000a900473ffffffffffffffffffffffffffffffffffffffff1673ffffffffffffffffffffffffffffffffffffffff1663a9059cbb33836040518363ffffffff167c0100000000000000000000000000000000000000000000000000000000028152600401808373ffffffffffffffffffffffffffffffffffffffff1673ffffffffffffffffffffffffffffffffffffffff16815260200182815260200192505050602060405180830381600087803b158015612a3c57600080fd5b505af1158015612a50573d6000803e3d6000fd5b505050506040513d6020811015612a6657600080fd5b81019080805190602001909291905050505060b960009054906101000a900473ffffffffffffffffffffffffffffffffffffffff1673ffffffffffffffffffffffffffffffffffffffff1663a9059cbb60ba60009054906101000a900473ffffffffffffffffffffffffffffffffffffffff168385036040518363ffffffff167c0100000000000000000000000000000000000000000000000000000000028152600401808373ffffffffffffffffffffffffffffffffffffffff1673ffffffffffffffffffffffffffffffffffffffff16815260200182815260200192505050602060405180830381600087803b158015612b6157600080fd5b505af1158015612b75573d6000803e3d6000fd5b505050506040513d6020811015612b8b57600080fd5b8101908080519060200190929190505050508192505050919050565b600060b960009054906101000a900473ffffffffffffffffffffffffffffffffffffffff1673ffffffffffffffffffffffffffffffffffffffff166323b872dd3330856040518463ffffffff167c0100000000000000000000000000000000000000000000000000000000028152600401808473ffffffffffffffffffffffffffffffffffffffff1673ffffffffffffffffffffffffffffffffffffffff1681526020018373ffffffffffffffffffffffffffffffffffffffff1673ffffffffffffffffffffffffffffffffffffffff1681526020018281526020019350505050602060405180830381600087803b158015612ca257600080fd5b505af1158015612cb6573d6000803e3d6000fd5b505050506040513d6020811015612ccc57600080fd5b8101908080519060200190929190505050612ce657600080fd5b612cef8261420d565b50919050565b60b960009054906101000a900473ffffffffffffffffffffffffffffffffffffffff1673ffffffffffffffffffffffffffffffffffffffff166323b872dd3330846040518463ffffffff167c0100000000000000000000000000000000000000000000000000000000028152600401808473ffffffffffffffffffffffffffffffffffffffff1673ffffffffffffffffffffffffffffffffffffffff1681526020018373ffffffffffffffffffffffffffffffffffffffff1673ffffffffffffffffffffffffffffffffffffffff1681526020018281526020019350505050602060405180830381600087803b158015612dee57600080fd5b505af1158015612e02573d6000803e3d6000fd5b505050506040513d6020811015612e1857600080fd5b81019080805190602001909291905050505050565b6000620f424060bb5460bd540281612e4157fe5b0490506000620f424060bb54620f42400360bc5460bd5481612e5f57fe5b040281612e6857fe5b04905060b960009054906101000a900473ffffffffffffffffffffffffffffffffffffffff1673ffffffffffffffffffffffffffffffffffffffff1663a9059cbb60ba60009054906101000a900473ffffffffffffffffffffffffffffffffffffffff16846040518363ffffffff167c0100000000000000000000000000000000000000000000000000000000028152600401808373ffffffffffffffffffffffffffffffffffffffff1673ffffffffffffffffffffffffffffffffffffffff16815260200182815260200192505050602060405180830381600087803b158015612f5257600080fd5b505af1158015612f66573d6000803e3d6000fd5b505050506040513d6020811015612f7c57600080fd5b810190808051906020019092919050505050612f983082614220565b600160c260006101000a81548160ff0219169083151502179055505050565b8060c460008473ffffffffffffffffffffffffffffffffffffffff1673ffffffffffffffffffffffffffffffffffffffff1681526020019081526020016000206000016000828254019250508190555060bc54810260c460008473ffffffffffffffffffffffffffffffffffffffff1673ffffffffffffffffffffffffffffffffffffffff168152602001908152602001600020600101600082825401925050819055505050565b6000806000905060008060006fd3094c70f034de4b96ff7d5b6f99fcd886106130c6576f40000000000000000000000000000000840193506fd3094c70f034de4b96ff7d5b6f99fcd86f800000000000000000000000000000008702816130c257fe5b0495505b6fa45af1e1f40c333b3de1db4dd55f29a78610613121576f20000000000000000000000000000000840193506fa45af1e1f40c333b3de1db4dd55f29a76f8000000000000000000000000000000087028161311d57fe5b0495505b6f910b022db7ae67ce76b441c27035c6a1861061317c576f10000000000000000000000000000000840193506f910b022db7ae67ce76b441c27035c6a16f8000000000000000000000000000000087028161317857fe5b0495505b6f88415abbe9a76bead8d00cf112e4d4a886106131d7576f08000000000000000000000000000000840193506f88415abbe9a76bead8d00cf112e4d4a86f800000000000000000000000000000008702816131d357fe5b0495505b6f84102b00893f64c705e841d5d4064bd38610613232576f04000000000000000000000000000000840193506f84102b00893f64c705e841d5d4064bd36f8000000000000000000000000000000087028161322e57fe5b0495505b6f8204055aaef1c8bd5c3259f4822735a2861061328d576f02000000000000000000000000000000840193506f8204055aaef1c8bd5c3259f4822735a26f8000000000000000000000000000000087028161328957fe5b0495505b6f810100ab00222d861931c15e39b44e9986106132e8576f01000000000000000000000000000000840193506f810100ab00222d861931c15e39b44e996f800000000000000000000000000000008702816132e457fe5b0495505b6f808040155aabbbe9451521693554f7338610613342576e800000000000000000000000000000840193506f808040155aabbbe9451521693554f7336f8000000000000000000000000000000087028161333e57fe5b0495505b6f80000000000000000000000000000000860392508291506f800000000000000000000000000000008384028161337557fe5b04905070010000000000000000000000000000000083700100000000000000000000000000000000038302816133a757fe5b04840193506f80000000000000000000000000000000818302816133c757fe5b049150700200000000000000000000000000000000836faaaaaaaaaaaaaaaaaaaaaaaaaaaaaaaa038302816133f857fe5b04840193506f800000000000000000000000000000008183028161341857fe5b049150700300000000000000000000000000000000836f999999999999999999999999999999990383028161344957fe5b04840193506f800000000000000000000000000000008183028161346957fe5b049150700400000000000000000000000000000000836f924924924924924924924924924924920383028161349a57fe5b04840193506f80000000000000000000000000000000818302816134ba57fe5b049150700500000000000000000000000000000000836f8e38e38e38e38e38e38e38e38e38e38e038302816134eb57fe5b04840193506f800000000000000000000000000000008183028161350b57fe5b049150700600000000000000000000000000000000836f8ba2e8ba2e8ba2e8ba2e8ba2e8ba2e8b0383028161353c57fe5b04840193506f800000000000000000000000000000008183028161355c57fe5b049150700700000000000000000000000000000000836f89d89d89d89d89d89d89d89d89d89d890383028161358d57fe5b04840193506f80000000000000000000000000000000818302816135ad57fe5b049150700800000000000000000000000000000000836f88888888888888888888888888888888038302816135de57fe5b048401935083945050505050919050565b60008060009050600083905070010000000000000000000000000000000081106136645760006136376f80000000000000000000000000000000838161363157fe5b04614372565b90508060ff1682908060020a820491505091506f800000000000000000000000000000008160ff16029250505b6f800000000000000000000000000000008111156136f5576000607f90505b60008160ff1611156136f3576f80000000000000000000000000000000828302816136aa57fe5b04915070010000000000000000000000000000000082106136e757600182908060020a820491505091506001810360ff1660019060020a02830192505b80600190039050613683565b505b6f05b9de1d10bf4103d647b0955897ba806f03f80fe03f80fe03f80fe03f80fe03f883028161372057fe5b0492505050919050565b600080600090506000806f10000000000000000000000000000000858161374d57fe5b0691508190506f800000000000000000000000000000008282028161376e57fe5b0490506710e1b3be415a00008102830192506f800000000000000000000000000000008282028161379b57fe5b0490506705a0913f6b1e00008102830192506f80000000000000000000000000000000828202816137c857fe5b049050670168244fdac780008102830192506f80000000000000000000000000000000828202816137f557fe5b049050664807432bc180008102830192506f800000000000000000000000000000008282028161382157fe5b049050660c0135dca040008102830192506f800000000000000000000000000000008282028161384d57fe5b0490506601b707b1cdc0008102830192506f800000000000000000000000000000008282028161387957fe5b0490506536e0f639b8008102830192506f80000000000000000000000000000000828202816138a457fe5b049050650618fee9f8008102830192506f80000000000000000000000000000000828202816138cf57fe5b049050649c197dcc008102830192506f80000000000000000000000000000000828202816138f957fe5b049050640e30dce4008102830192506f800000000000000000000000000000008282028161392357fe5b04905064012ebd13008102830192506f800000000000000000000000000000008282028161394d57fe5b0490506317499f008102830192506f800000000000000000000000000000008282028161397657fe5b0490506301a9d4808102830192506f800000000000000000000000000000008282028161399f57fe5b049050621c63808102830192506f80000000000000000000000000000000828202816139c757fe5b0490506201c6388102830192506f80000000000000000000000000000000828202816139ef57fe5b049050611ab88102830192506f8000000000000000000000000000000082820281613a1657fe5b04905061017c8102830192506f8000000000000000000000000000000082820281613a3d57fe5b04905060148102830192506f8000000000000000000000000000000082820281613a6357fe5b04905060018102830192506f80000000000000000000000000000000826721c3677c82b400008581613a9157fe5b040101925060006f10000000000000000000000000000000861614613ae15770018ebef9eac820ae8682b9793ac6d1e7767001c3d6a24ed82218787d624d3e5eba95f9840281613add57fe5b0492505b60006f20000000000000000000000000000000861614613b2c577001368b2fc6f9609fe7aceb46aa619baed470018ebef9eac820ae8682b9793ac6d1e778840281613b2857fe5b0492505b60006f40000000000000000000000000000000861614613b76576fbc5ab1b16779be3575bd8f0520a9f21f7001368b2fc6f9609fe7aceb46aa619baed5840281613b7257fe5b0492505b60006f80000000000000000000000000000000861614613bbf576f454aaa8efe072e7f6ddbab84b40a55c96fbc5ab1b16779be3575bd8f0520a9f21e840281613bbb57fe5b0492505b6000700100000000000000000000000000000000861614613c09576f0960aadc109e7a3bf4578099615711ea6f454aaa8efe072e7f6ddbab84b40a55c5840281613c0557fe5b0492505b6000700200000000000000000000000000000000861614613c52576e2bf84208204f5977f9a8cf01fdce3d6f0960aadc109e7a3bf4578099615711d7840281613c4e57fe5b0492505b6000700400000000000000000000000000000000861614613c99576d03c6ab775dd0b95b4cbee7e65d116e2bf84208204f5977f9a8cf01fdc307840281613c9557fe5b0492505b829350505050919050565b600080602090506000607f90505b8060ff166001830160ff161015613d01576000600282840160ff1681613cd457fe5b0490508460368260ff1660808110613ce857fe5b015410613cf757809250613cfb565b8091505b50613cb2565b8360368260ff1660808110613d1257fe5b015410613d23578092505050613d54565b8360368360ff1660808110613d3457fe5b015410613d45578192505050613d54565b6000613d4d57fe5b6000925050505b919050565b60008083905060008090508360ff16858302908060020a820491505091506f03442c4e6074a82f1797f72ac00000008202810190508360ff16858302908060020a820491505091506f0116b96f757c380fb287fd0e400000008202810190508360ff16858302908060020a820491505091506e45ae5bdd5f0e03eca1ff43900000008202810190508360ff16858302908060020a820491505091506e0defabf91302cd95b9ffda500000008202810190508360ff16858302908060020a820491505091506e02529ca9832b22439efff9b80000008202810190508360ff16858302908060020a820491505091506d54f1cf12bd04e516b6da880000008202810190508360ff16858302908060020a820491505091506d0a9e39e257a09ca2d6db510000008202810190508360ff16858302908060020a820491505091506d012e066e7b839fa050c3090000008202810190508360ff16858302908060020a820491505091506c1e33d7d926c329a1ad1a8000008202810190508360ff16858302908060020a820491505091506c02bee513bdb4a6b19b5f8000008202810190508360ff16858302908060020a820491505091506b3a9316fa79b88eccf2a000008202810190508360ff16858302908060020a820491505091506b048177ebe1fa8123752000008202810190508360ff16858302908060020a820491505091506a5263fe90242dcbacf000008202810190508360ff16858302908060020a820491505091506a057e22099c030d941000008202810190508360ff16858302908060020a820491505091506957e22099c030d94100008202810190508360ff16858302908060020a8204915050915069052b6b545699763100008202810190508360ff16858302908060020a82049150509150684985f67696bf7480008202810190508360ff16858302908060020a820491505091506803dea12ea99e4980008202810190508360ff16858302908060020a820491505091506731880f2214b6e0008202810190508360ff16858302908060020a8204915050915067025bcff56eb360008202810190508360ff16858302908060020a82049150509150661b722e10ab10008202810190508360ff16858302908060020a820491505091506601317c700770008202810190508360ff16858302908060020a82049150509150650cba84aafa008202810190508360ff16858302908060020a820491505091506482573a0a008202810190508360ff16858302908060020a820491505091506405035ad9008202810190508360ff16858302908060020a82049150509150632f881b008202810190508360ff16858302908060020a820491505091506301b293408202810190508360ff16858302908060020a82049150509150620efc408202810190508360ff16858302908060020a82049150509150617fe08202810190508360ff16858302908060020a820491505091506104208202810190508360ff16858302908060020a8204915050915060218202810190508360ff16858302908060020a8204915050915060018202810190508360ff1660019060020a02856f0688589cc0e9505e2f2fee558000000083816141ed57fe5b0401019250505092915050565b6000614206338361440f565b9050919050565b600061421933836144d4565b9050919050565b600073ffffffffffffffffffffffffffffffffffffffff168273ffffffffffffffffffffffffffffffffffffffff16141561425a57600080fd5b61426f816002546127c290919063ffffffff16565b6002819055506142c6816000808573ffffffffffffffffffffffffffffffffffffffff1673ffffffffffffffffffffffffffffffffffffffff168152602001908152602001600020546127c290919063ffffffff16565b6000808473ffffffffffffffffffffffffffffffffffffffff1673ffffffffffffffffffffffffffffffffffffffff168152602001908152602001600020819055508173ffffffffffffffffffffffffffffffffffffffff16600073ffffffffffffffffffffffffffffffffffffffff167fddf252ad1be2c89b69c2b068fc378daa952ba7f163c4a11628f55a4df523b3ef836040518082815260200191505060405180910390a35050565b6000806000905060008390506101008110156143b1575b60018111156143ac57600181908060020a82049150509050600182019150614389565b614405565b6000608090505b60008160ff161115614403578060ff1660019060020a0282106143ec578060ff1682908060020a8204915050915080831792505b60018160ff16908060020a820491505090506143b8565b505b8192505050919050565b600060b8543a111561441d57fe5b8160008111801561443657508061443333611bd9565b10155b61443f57600080fd5b600061444a84611ba4565b90506144568585614585565b7f14feb1b32dbb3ebf172a72bc6b201cb3ddcd8dd148da8b8ac41207f2d69bdd32858583604051808473ffffffffffffffffffffffffffffffffffffffff1673ffffffffffffffffffffffffffffffffffffffff168152602001838152602001828152602001935050505060405180910390a1809250505092915050565b600060b8543a11156144e257fe5b81600081116144f057600080fd5b60006144fb84611d24565b90506145078582614220565b7f65ab8b57af027ad387b3f608b0745de61b7dc81d07be6ded03736db32fe46bd9858286604051808473ffffffffffffffffffffffffffffffffffffffff1673ffffffffffffffffffffffffffffffffffffffff168152602001838152602001828152602001935050505060405180910390a1809250505092915050565b600073ffffffffffffffffffffffffffffffffffffffff168273ffffffffffffffffffffffffffffffffffffffff1614156145bf57600080fd5b6145d48160025461257890919063ffffffff16565b60028190555061462b816000808573ffffffffffffffffffffffffffffffffffffffff1673ffffffffffffffffffffffffffffffffffffffff1681526020019081526020016000205461257890919063ffffffff16565b6000808473ffffffffffffffffffffffffffffffffffffffff1673ffffffffffffffffffffffffffffffffffffffff16815260200190815260200160002081905550600073ffffffffffffffffffffffffffffffffffffffff168273ffffffffffffffffffffffffffffffffffffffff167fddf252ad1be2c89b69c2b068fc378daa952ba7f163c4a11628f55a4df523b3ef836040518082815260200191505060405180910390a3505056fe42616e636f72466f726d756c613a20436f6e6e6563746f7242616c616e6365206e6f74203e203042616e636f72466f726d756c613a20436f6e6e6563746f7220576569676874206e6f74203e20304d7573742062652063616c6c6564206279207468652066756e64696e6720706f6f6c42616e636f72466f726d756c613a2053656c6c20416d6f756e74206e6f74203c3d20537570706c7942616e636f72466f726d756c613a20436f6e6e6563746f7220576569676874206e6f74203c3d204d41585f574549474854a165627a7a723058209ab85e689fd9b7504bb22587e044762ace294cb818eded0b9a2e1ca935e98f2f0029",
  "source": "pragma solidity ^0.5.0;\n\nimport \"./BondingCurveToken.sol\";\n\n/**\n * @title CommonsToken\n * @author Rinke Hendriksen (@eknir) and Pavle Batuta (@flooffieban), during the Oddyssey hackathon in Groningen '19 (part of team: Giveth - Crowdfunding the commons)\n * @notice This smart contract implements the augmented bonding curve design principle (described here: https://medium.com/@abbey_titcomb/3f1f7c1fa751\n * @dev We use the BancorFormule to define the slope of the curve, an ERC20 to model the internal token (minted by the bonding curve) and an ERC20 to model the external (stable currency) token\n * @dev Source: https://github.com/commons-stack/genesis-contracts/tree/master/contracts/bondingcurve\n */\ncontract CommonsToken is BondingCurveToken {\n\n  /**PreHatchContribution keeps track of the contribution of a hatcher during the hatchin phase:\n      paidExternal: the amount contributed during the hatching phase, denominated in external currency\n      lockedInternal: paidExternal / p0 = the amount of internal tokens represented by paidExternal.\n        These tokens are unlocked post-hatch according to a vesting policy. Post hatch, we decrease lockedInternal to 0\n  */\n  struct PreHatchContribution {\n    uint256 paidExternal;\n    uint256 lockedInternal;\n  }\n\n  // --- CONSTANTS: ---\n\n  // Helper to represent fractions => 100% = 1000000, 1% = 10000\n  uint256 constant DENOMINATOR_PPM = 1000000;\n\n  // --- STORAGE: ---\n\n  // External token contract (Stablecurrency e.g. DAI).\n  ERC20 public externalToken;\n\n  // Address of the funding pool contract.\n  address public fundingPool;\n\n  // Curve parameters:\n  uint256 public theta; // fraction (in PPM) of the contributed amount that goes to the funding pool\n  uint256 public p0; // price (in externalToken) for which people can purchase the internal token during the hathing phase\n  uint256 public initialRaise; // the amount of external tokens that must be contributed during the hatching phase to go post-hatching\n  uint256 public friction; // the fraction (in PPM) that goes to the funding pool when internal tokens are burned\n\n  // Minimal EXTERNAL token contribution:\n  uint256 public minExternalContribution;\n\n  // Total amount of EXTERNAL tokens raised:\n  uint256 public raisedExternal;\n\n  // Total amount of INTERNAL tokens which (can + are) unlocked.\n  uint256 private unlockedInternal;\n\n  // Curve state (has it been hatched?).\n  bool public isHatched;\n\n  // Time (in seconds) by which the curve must be hatched since initialization.\n  uint256 public hatchDeadline;\n\n  // Mapping of hatchers to contributions.\n  mapping(address => PreHatchContribution) public initialContributions;\n\n  // --- MODIFIERS: ---\n\n  modifier whileHatched(bool _hatched) {\n    require(isHatched == _hatched, \"Curve must be hatched\");\n    _;\n  }\n\n  modifier onlyFundingPool() {\n    require(msg.sender == fundingPool, \"Must be called by the funding pool\");\n    _;\n  }\n\n  modifier onlyHatcher() {\n    require(initialContributions[msg.sender].paidExternal != 0, \"Must be called by a hatcher\");\n    _;\n  }\n\n  modifier mustBeInPPM(uint256 _val) {\n    require(_val <= DENOMINATOR_PPM, \"Value must be in PPM\");\n    _;\n  }\n\n  modifier mustBeNonZeroAdr(address _adr) {\n    require(_adr != address(0), \"Address must not be zero\");\n    _;\n  }\n\n  modifier mustBeLargeEnoughContribution(uint256 _amountExternal) {\n    uint256 totalAmountExternal = initialContributions[msg.sender].paidExternal + _amountExternal;\n    require(totalAmountExternal >= minExternalContribution, \"Insufficient contribution\");\n    _;\n  }\n\n  modifier expiredStatus(bool _wantExpire) {\n    bool expired = now <= hatchDeadline;\n    if (_wantExpire) {\n      require(!expired, \"Curve hatch time has expired\");\n    }\n    require(expired, \"Curve hatch time has expired\");\n    _;\n  }\n  /*\n  * @notice initializes the contract\n  * @param _externalToken the address of the externalToken ERC20 smart contract\n  * @param _reserveRatio (in PPM) which get's used in the BancorFormula contract as the connectorWeight\n  * @param _gasPrice we need to set this such that everybody pays an equal amount of gas and we protect against front-running the bonding curve\n  * @param _theta (in PPM) which is the percentage of worth in internal tokens of the contribution in externalTokens that get's minted to the funding pool once the hatch phase ends\n  * @param _p0 the price denominated in external token of one internal token (i.e. if P0 is 10 => if you contribute 100 external tokens you get 10 internal tokens DURING the hatch phase)\n  * @param _initialRaise which is the amount of external tokens that must be contributed during the hatching phase to go post-hatching phase\n  * @param _fundingPool the address of the fundingPool (can be an organization of a DAO). The fundingPool get's access to the theta * ( internal tokens worth of external tokens ) when the hatch phase ends\n  * @param _friction the fraction (in PPM) that goes to the funding pool when internal tokens are burned (post-hatch)\n  * @param _duration time (in seconds) by which the curve must be hatched since calling this constructor.\n  * @param _minExternalContribution the minimum amount of external tokens that should be contributed by a hatcher\n  */\n  constructor(\n    address _externalToken,\n    uint32 _reserveRatio,\n    uint256 _gasPrice,\n    uint256 _theta,\n    uint256 _p0,\n    uint256 _initialRaise,\n    address _fundingPool,\n    uint256 _friction,\n    uint256 _duration,\n    uint256 _minExternalContribution\n  )\n    public\n    mustBeNonZeroAdr(_externalToken)\n    mustBeNonZeroAdr(_fundingPool)\n    mustBeInPPM(_reserveRatio)\n    mustBeInPPM(_theta)\n    mustBeInPPM(_friction)\n    BondingCurveToken(_reserveRatio, _gasPrice)\n  {\n    theta = _theta;\n    p0 = _p0;\n    initialRaise = _initialRaise;\n    fundingPool = _fundingPool;\n    friction = _friction;\n\n    hatchDeadline = now + _duration;\n    minExternalContribution = _minExternalContribution;\n\n    externalToken = ERC20(_externalToken);\n  }\n\n  // --- PUBLIC FUNCTIONS: ---\n\n  function mint(uint256 _amount)\n    public\n    whileHatched(true)\n  {\n    _curvedMint(_amount);\n  }\n\n  function burn(uint256 _amount)\n    public\n    whileHatched(true)\n    returns (uint256)\n  {\n    return _curvedBurn(_amount);\n  }\n\n  function hatchContribute(uint256 _value)\n    public\n    mustBeLargeEnoughContribution(_value)\n    whileHatched(false)\n    expiredStatus(false)\n  {\n    uint256 contributed = _value;\n\n    if(raisedExternal + contributed < initialRaise) {\n      raisedExternal += contributed;\n      _pullExternalTokens(contributed);\n    } else {\n      contributed = initialRaise - raisedExternal;\n      raisedExternal = initialRaise;\n      _pullExternalTokens(contributed);\n      _endHatchPhase();\n    }\n\n    _mintInternalAndLock(msg.sender, contributed);\n  }\n\n  function fundsAllocated(uint256 _externalAllocated)\n    public\n    onlyFundingPool\n    whileHatched(true)\n  {\n    // Currently, we unlock a 1/1 proportion of tokens.\n    // We could set a different proportion:\n    //  100.000 funds spend => 50.000 worth of funds unlocked.\n    // We should only update the total unlocked when it is less than 100%.\n\n    // TODO: add vesting period ended flag and optimise check.\n    unlockedInternal += _externalAllocated / p0;\n    if (unlockedInternal >= initialRaise * p0) {\n      unlockedInternal = initialRaise * p0;\n    }\n  }\n\n  function claimTokens()\n    public\n    whileHatched(true)\n    onlyHatcher\n  {\n    require(initialContributions[msg.sender].lockedInternal > 0);\n\n    uint256 paidExternal = initialContributions[msg.sender].paidExternal;\n    uint256 lockedInternal = initialContributions[msg.sender].lockedInternal;\n\n    // The total amount of INTERNAL tokens that should have been unlocked.\n    uint256 shouldHaveUnlockedInternal = (paidExternal / initialRaise) * unlockedInternal;\n    // The amount of INTERNAL tokens that was already unlocked.\n    uint256 previouslyUnlockedInternal = (paidExternal / p0) - lockedInternal;\n    // The amount that can be unlocked.\n    uint256 toUnlock = shouldHaveUnlockedInternal - previouslyUnlockedInternal;\n\n    initialContributions[msg.sender].lockedInternal -= toUnlock;\n    _transfer(address(this), msg.sender, toUnlock);\n  }\n\n  function refund()\n    public\n    whileHatched(false)\n    expiredStatus(true)\n  {\n    // Refund the EXTERNAL tokens from the contibution.\n    uint256 paidExternal = initialContributions[msg.sender].paidExternal;\n    externalToken.transfer(msg.sender, paidExternal);\n  }\n\n  function poolBalance()\n    public\n    view\n    returns(uint256)\n  {\n    return externalToken.balanceOf(address(this));\n  }\n\n  // --- INTERNAL FUNCTIONS: ---\n\n  // Try and pull the given amount of reserve token into the contract balance.\n  // Reverts if there is no approval.\n  function _pullExternalTokens(uint256 _amount)\n    internal\n  {\n    externalToken.transferFrom(msg.sender, address(this), _amount);\n  }\n\n  // End the hatching phase of the curve.\n  // Allow the fundingPool to pull theta times the balance into their control.\n  // NOTE: 1 - theta is reserve.\n  function _endHatchPhase()\n    internal\n  {\n    uint256 amountFundingPoolExternal = ((initialRaise) * theta ) / DENOMINATOR_PPM; // denominated in external\n    uint256 amountReserveInternal = (initialRaise / p0) * (DENOMINATOR_PPM - theta) / DENOMINATOR_PPM; // denominated in internal\n\n    // _transfer(address(this), fundingPool, amount);\n\n    // transfer external tokens to the funding pool:\n    externalToken.transfer(fundingPool, amountFundingPoolExternal);\n\n    // Mint INTERNAL tokens to the reserve:\n    _mint(address(this), amountReserveInternal);\n\n    // End the hatching phase.\n    isHatched = true;\n  }\n\n  // We mint to contributor account and lock the tokens.\n  // Theoretically, the price is increasing (up to P1),\n  // but since we are in the hatching phase, the actual price will stay P0.\n  // The contract will hold the locked tokens.\n  function _mintInternalAndLock(\n    address _adr,\n    uint256 _amount\n  )\n    internal\n  {\n    // Increase the amount paid in EXTERNAL tokens.\n    initialContributions[_adr].paidExternal += _amount;\n\n    // Lock the INTERNAL tokens, total is EXTERNAL amount * price of internal token during the raise.\n    initialContributions[_adr].lockedInternal += _amount * p0;\n  }\n\n  /**\n   * @dev Mint tokens\n   *\n   * @param amount Amount of tokens to deposit\n   */\n  function _curvedMint(uint256 amount) internal returns (uint256) {\n    require(externalToken.transferFrom(msg.sender, address(this), amount));\n    super._curvedMint(amount);\n  }\n\n  /**\n   * @dev Burn tokens\n   *\n   * @param amount Amount of tokens to burn\n   */\n  function _curvedBurn(uint256 amount) internal returns (uint256) {\n    uint256 reimbursement = super._curvedBurn(amount);\n    uint256 transferable = (1 - (friction / DENOMINATOR_PPM)) * reimbursement;\n    externalToken.transfer(msg.sender, transferable);\n    externalToken.transfer(fundingPool, reimbursement - transferable);\n    return reimbursement;\n  }\n}\n",
  "sourcePath": "/Users/enchanterio/go/src/github.com/lightstreams-network/lightstreams-js-sdk/contracts/bondingcurve/CommonsToken.sol",
  "compiler": {
    "name": "solc",
    "version": "0.5.8+commit.23d335f2.Emscripten.clang"
  },
  "schemaVersion": "3.0.1",
  "updatedAt": "2019-10-14T13:32:35.466Z",
  "devdoc": {
    "author": "Rinke Hendriksen (@eknir) and Pavle Batuta (@flooffieban), during the Oddyssey hackathon in Groningen '19 (part of team: Giveth - Crowdfunding the commons)",
    "details": "We use the BancorFormule to define the slope of the curve, an ERC20 to model the internal token (minted by the bonding curve) and an ERC20 to model the external (stable currency) tokenSource: https://github.com/commons-stack/genesis-contracts/tree/master/contracts/bondingcurve",
    "methods": {
      "allowance(address,address)": {
        "details": "Function to check the amount of tokens that an owner allowed to a spender.",
        "params": {
          "owner": "address The address which owns the funds.",
          "spender": "address The address which will spend the funds."
        },
        "return": "A uint256 specifying the amount of tokens still available for the spender."
      },
      "approve(address,uint256)": {
        "details": "Approve the passed address to spend the specified amount of tokens on behalf of msg.sender. Beware that changing an allowance with this method brings the risk that someone may use both the old and the new allowance by unfortunate transaction ordering. One possible solution to mitigate this race condition is to first reduce the spender's allowance to 0 and set the desired value afterwards: https://github.com/ethereum/EIPs/issues/20#issuecomment-263524729",
        "params": {
          "spender": "The address which will spend the funds.",
          "value": "The amount of tokens to be spent."
        }
      },
      "balanceOf(address)": {
        "details": "Gets the balance of the specified address.",
        "params": {
          "owner": "The address to query the balance of."
        },
        "return": "An uint256 representing the amount owned by the passed address."
      },
      "calculatePurchaseReturn(uint256,uint256,uint32,uint256)": {
        "details": "given a token supply, connector balance, weight and a deposit amount (in the connector token), calculates the return for a given conversion (in the main token)  * Formula: Return = _supply * ((1 + _depositAmount / _connectorBalance) ^ (_connectorWeight / 1000000) - 1)",
        "params": {
          "_connectorBalance": "total connector balance",
          "_connectorWeight": "connector weight, represented in ppm, 1-1000000",
          "_depositAmount": "deposit amount, in connector token",
          "_supply": "token total supply"
        },
        "return": "purchase return amount"
      },
      "calculateSaleReturn(uint256,uint256,uint32,uint256)": {
        "details": "given a token supply, connector balance, weight and a sell amount (in the main token), calculates the return for a given conversion (in the connector token)  * Formula: Return = _connectorBalance * (1 - (1 - _sellAmount / _supply) ^ (1 / (_connectorWeight / 1000000)))",
        "params": {
          "_connectorBalance": "total connector",
          "_connectorWeight": "constant connector Weight, represented in ppm, 1-1000000",
          "_sellAmount": "sell amount, in the token itself",
          "_supply": "token total supply"
        },
        "return": "sale return amount"
      },
      "decreaseAllowance(address,uint256)": {
        "details": "Decrease the amount of tokens that an owner allowed to a spender. approve should be called when allowed_[_spender] == 0. To decrement allowed value is better to use this function to avoid 2 calls (and wait until the first transaction is mined) From MonolithDAO Token.sol Emits an Approval event.",
        "params": {
          "spender": "The address which will spend the funds.",
          "subtractedValue": "The amount of tokens to decrease the allowance by."
        }
      },
      "increaseAllowance(address,uint256)": {
        "details": "Increase the amount of tokens that an owner allowed to a spender. approve should be called when allowed_[_spender] == 0. To increment allowed value is better to use this function to avoid 2 calls (and wait until the first transaction is mined) From MonolithDAO Token.sol Emits an Approval event.",
        "params": {
          "addedValue": "The amount of tokens to increase the allowance by.",
          "spender": "The address which will spend the funds."
        }
      },
      "totalSupply()": {
        "details": "Total number of tokens in existence"
      },
      "transfer(address,uint256)": {
        "details": "Transfer token for a specified address",
        "params": {
          "to": "The address to transfer to.",
          "value": "The amount to be transferred."
        }
      },
      "transferFrom(address,address,uint256)": {
        "details": "Transfer tokens from one address to another. Note that while this function emits an Approval event, this is not required as per the specification, and other compliant implementations may not emit the event.",
        "params": {
          "from": "address The address which you want to send tokens from",
          "to": "address The address which you want to transfer to",
          "value": "uint256 the amount of tokens to be transferred"
        }
      }
    },
    "title": "CommonsToken"
  },
  "userdoc": {
    "methods": {},
    "notice": "This smart contract implements the augmented bonding curve design principle (described here: https://medium.com/@abbey_titcomb/3f1f7c1fa751"
  }
}