{
  "contractName": "FIFSRegistrar",
  "abi": [
    {
      "inputs": [
        {
          "name": "ensAddr",
          "type": "address"
        },
        {
          "name": "node",
          "type": "bytes32"
        }
      ],
      "payable": false,
      "stateMutability": "nonpayable",
      "type": "constructor"
    },
    {
      "constant": false,
      "inputs": [
        {
          "name": "label",
          "type": "bytes32"
        },
        {
          "name": "owner",
          "type": "address"
        }
      ],
      "name": "register",
      "outputs": [],
      "payable": false,
      "stateMutability": "nonpayable",
      "type": "function"
    }
  ],
  "bytecode": "0x608060405234801561001057600080fd5b506040516040806103c38339810180604052604081101561003057600080fd5b810190808051906020019092919080519060200190929190505050816000806101000a81548173ffffffffffffffffffffffffffffffffffffffff021916908373ffffffffffffffffffffffffffffffffffffffff160217905550806001819055505050610320806100a36000396000f3fe608060405234801561001057600080fd5b5060043610610048576000357c010000000000000000000000000000000000000000000000000000000090048063d22057a91461004d575b600080fd5b6100996004803603604081101561006357600080fd5b8101908080359060200190929190803573ffffffffffffffffffffffffffffffffffffffff16906020019092919050505061009b565b005b8160008060009054906101000a900473ffffffffffffffffffffffffffffffffffffffff1673ffffffffffffffffffffffffffffffffffffffff166302571be3600154846040516020018083815260200182815260200192505050604051602081830303815290604052805190602001206040518263ffffffff167c01000000000000000000000000000000000000000000000000000000000281526004018082815260200191505060206040518083038186803b15801561015c57600080fd5b505afa158015610170573d6000803e3d6000fd5b505050506040513d602081101561018657600080fd5b81019080805190602001909291905050509050600073ffffffffffffffffffffffffffffffffffffffff168173ffffffffffffffffffffffffffffffffffffffff1614806101ff57503373ffffffffffffffffffffffffffffffffffffffff168173ffffffffffffffffffffffffffffffffffffffff16145b61020857600080fd5b6000809054906101000a900473ffffffffffffffffffffffffffffffffffffffff1673ffffffffffffffffffffffffffffffffffffffff166306ab592360015486866040518463ffffffff167c0100000000000000000000000000000000000000000000000000000000028152600401808481526020018381526020018273ffffffffffffffffffffffffffffffffffffffff1673ffffffffffffffffffffffffffffffffffffffff1681526020019350505050600060405180830381600087803b1580156102d657600080fd5b505af11580156102ea573d6000803e3d6000fd5b505050505050505056fea165627a7a72305820ade607b6c2321bf35e3f4510f0aaa07a904ab82c79018b21cc3796d914cc09ea0029",
  "source": "pragma solidity ^0.5.0;\n\nimport \"./ENS.sol\";\n\n/**\n * A registrar that allocates subdomains to the first person to claim them.\n */\ncontract FIFSRegistrar {\n    ENS ens;\n    bytes32 rootNode;\n\n    modifier only_owner(bytes32 label) {\n        address currentOwner = ens.owner(keccak256(abi.encodePacked(rootNode, label)));\n        require(currentOwner == address(0x0) || currentOwner == msg.sender);\n        _;\n    }\n\n    /**\n     * Constructor.\n     * @param ensAddr The address of the ENS registry.\n     * @param node The node that this registrar administers.\n     */\n    constructor(ENS ensAddr, bytes32 node) public {\n        ens = ensAddr;\n        rootNode = node;\n    }\n\n    /**\n     * Register a name, or change the owner of an existing registration.\n     * @param label The hash of the label to register.\n     * @param owner The address of the new owner.\n     */\n    function register(bytes32 label, address owner) public only_owner(label) {\n        ens.setSubnodeOwner(rootNode, label, owner);\n    }\n}\n",
  "sourcePath": "/Users/enchanterio/go/src/github.com/lightstreams-network/lightstreams-js-sdk/node_modules/@ensdomains/ens/contracts/FIFSRegistrar.sol",
  "compiler": {
    "name": "solc",
    "version": "0.5.8+commit.23d335f2.Emscripten.clang"
  },
  "schemaVersion": "3.0.1",
  "updatedAt": "2019-09-12T14:45:56.312Z",
  "devdoc": {
    "methods": {
      "constructor": {
        "params": {
          "ensAddr": "The address of the ENS registry.",
          "node": "The node that this registrar administers."
        }
      },
      "register(bytes32,address)": {
        "params": {
          "label": "The hash of the label to register.",
          "owner": "The address of the new owner."
        }
      }
    }
  },
  "userdoc": {
    "methods": {
      "constructor": "Constructor.",
      "register(bytes32,address)": {
        "notice": "Register a name, or change the owner of an existing registration."
      }
    },
    "notice": "A registrar that allocates subdomains to the first person to claim them."
  }
}