{
  "contractName": "FundingPool",
  "abi": [
    {
      "constant": false,
      "inputs": [
        {
          "name": "artistTokenAddr",
          "type": "address"
        },
        {
          "name": "to",
          "type": "address"
        },
        {
          "name": "value",
          "type": "uint256"
        }
      ],
      "name": "allocateFunds",
      "outputs": [],
      "payable": false,
      "stateMutability": "nonpayable",
      "type": "function"
    }
  ],
  "bytecode": "0x608060405234801561001057600080fd5b506103b6806100206000396000f3fe608060405234801561001057600080fd5b506004361061002b5760003560e01c8063c7e293d914610030575b600080fd5b61009c6004803603606081101561004657600080fd5b81019080803573ffffffffffffffffffffffffffffffffffffffff169060200190929190803573ffffffffffffffffffffffffffffffffffffffff1690602001909291908035906020019092919050505061009e565b005b600083905060008173ffffffffffffffffffffffffffffffffffffffff1663893d20e86040518163ffffffff1660e01b815260040160206040518083038186803b1580156100eb57600080fd5b505afa1580156100ff573d6000803e3d6000fd5b505050506040513d602081101561011557600080fd5b810190808051906020019092919050505090503373ffffffffffffffffffffffffffffffffffffffff168173ffffffffffffffffffffffffffffffffffffffff16146101ac576040517f08c379a00000000000000000000000000000000000000000000000000000000081526004018080602001828103825260298152602001806103626029913960400191505060405180910390fd5b8173ffffffffffffffffffffffffffffffffffffffff1663ec8585ab846040518263ffffffff1660e01b815260040180828152602001915050600060405180830381600087803b1580156101ff57600080fd5b505af1158015610213573d6000803e3d6000fd5b505050508173ffffffffffffffffffffffffffffffffffffffff1663c9828ae06040518163ffffffff1660e01b815260040160206040518083038186803b15801561025d57600080fd5b505afa158015610271573d6000803e3d6000fd5b505050506040513d602081101561028757600080fd5b810190808051906020019092919050505073ffffffffffffffffffffffffffffffffffffffff1663a9059cbb85856040518363ffffffff1660e01b8152600401808373ffffffffffffffffffffffffffffffffffffffff1673ffffffffffffffffffffffffffffffffffffffff16815260200182815260200192505050602060405180830381600087803b15801561031e57600080fd5b505af1158015610332573d6000803e3d6000fd5b505050506040513d602081101561034857600080fd5b810190808051906020019092919050505050505050505056fe6f6e6c7920417274697374546f6b656e206f776e65722063616e20616c6c6f636174652066756e6473a165627a7a723058208f93376fbffbfca95b4735d39a2e6eefd18045b5bb2a9c4881777caaa9cf08380029",
  "source": "pragma solidity ^0.5.0;\n\nimport \"./ArtistToken.sol\";\nimport \"./vendor/ERC20/IERC20.sol\";\n\ncontract FundingPool {\n  function allocateFunds(address artistTokenAddr, address to, uint256 value) public {\n    ArtistToken artistToken = ArtistToken(artistTokenAddr);\n    address artistTokenOwner = artistToken.getOwner();\n\n    require(artistTokenOwner == msg.sender, \"only ArtistToken owner can allocate funds\");\n\n    artistToken.fundsAllocated(value);\n    IERC20(artistToken.externalToken()).transfer(to, value);\n  }\n}\n",
  "sourcePath": "/home/ggarrido/lightstreams/workspace/lightstreams-js-sdk/contracts/bondingcurve/FundingPool.sol",
  "compiler": {
    "name": "solc",
    "version": "0.5.8+commit.23d335f2.Emscripten.clang"
  },
  "schemaVersion": "3.0.23",
  "updatedAt": "2020-03-05T16:01:15.201Z",
  "devdoc": {
    "methods": {}
  },
  "userdoc": {
    "methods": {}
  }
}