{
  "contractName": "FundingPoolMock",
  "abi": [
    {
      "constant": false,
      "inputs": [
        {
          "name": "_artistToken",
          "type": "address"
        }
      ],
      "name": "setArtistToken",
      "outputs": [],
      "payable": false,
      "stateMutability": "nonpayable",
      "type": "function"
    },
    {
      "constant": false,
      "inputs": [
        {
          "name": "to",
          "type": "address"
        },
        {
          "name": "value",
          "type": "uint256"
        }
      ],
      "name": "allocateFunds",
      "outputs": [],
      "payable": false,
      "stateMutability": "nonpayable",
      "type": "function"
    }
  ],
  "bytecode": "0x608060405234801561001057600080fd5b506102b0806100206000396000f3fe608060405234801561001057600080fd5b50600436106100365760003560e01c8063189ed3561461003b5780637eb26ba814610089575b600080fd5b6100876004803603604081101561005157600080fd5b81019080803573ffffffffffffffffffffffffffffffffffffffff169060200190929190803590602001909291905050506100cd565b005b6100cb6004803603602081101561009f57600080fd5b81019080803573ffffffffffffffffffffffffffffffffffffffff169060200190929190505050610241565b005b6000809054906101000a900473ffffffffffffffffffffffffffffffffffffffff1673ffffffffffffffffffffffffffffffffffffffff1663ec8585ab826040518263ffffffff1660e01b815260040180828152602001915050600060405180830381600087803b15801561014157600080fd5b505af1158015610155573d6000803e3d6000fd5b505050506000809054906101000a900473ffffffffffffffffffffffffffffffffffffffff1673ffffffffffffffffffffffffffffffffffffffff1663a9059cbb83836040518363ffffffff1660e01b8152600401808373ffffffffffffffffffffffffffffffffffffffff1673ffffffffffffffffffffffffffffffffffffffff16815260200182815260200192505050602060405180830381600087803b15801561020157600080fd5b505af1158015610215573d6000803e3d6000fd5b505050506040513d602081101561022b57600080fd5b8101908080519060200190929190505050505050565b806000806101000a81548173ffffffffffffffffffffffffffffffffffffffff021916908373ffffffffffffffffffffffffffffffffffffffff1602179055505056fea165627a7a7230582076520a0a732664c7977aae5e8a9d1fb67c530574c5814e2d8eca314462c4c5b00029",
  "source": "pragma solidity ^0.5.0;\n\nimport \"./ArtistToken.sol\";\n\ncontract FundingPoolMock {\n  ArtistToken artistToken;\n\n  function setArtistToken(address _artistToken) public {\n    artistToken = ArtistToken(_artistToken);\n  }\n\n  function allocateFunds(address to, uint256 value) public {\n    artistToken.fundsAllocated(value);\n    artistToken.transfer(to, value);\n  }\n}\n",
  "sourcePath": "/home/ggarrido/lightstreams/workspace/lightstreams-js-sdk/contracts/bondingcurve/FundingPoolMock.sol",
  "compiler": {
    "name": "solc",
    "version": "0.5.8+commit.23d335f2.Emscripten.clang"
  },
  "schemaVersion": "3.0.15",
  "updatedAt": "2019-10-16T07:29:57.722Z",
  "devdoc": {
    "methods": {}
  },
  "userdoc": {
    "methods": {}
  }
}