{
  "contractName": "FundingPool",
  "abi": [
    {
      "constant": false,
      "inputs": [
        {
          "name": "artistTokenAddr",
          "type": "address"
        },
        {
          "name": "to",
          "type": "address"
        },
        {
          "name": "value",
          "type": "uint256"
        }
      ],
      "name": "allocateFunds",
      "outputs": [],
      "payable": false,
      "stateMutability": "nonpayable",
      "type": "function"
    }
  ],
  "bytecode": "0x608060405234801561001057600080fd5b50610443806100206000396000f3fe608060405234801561001057600080fd5b5060043610610048576000357c010000000000000000000000000000000000000000000000000000000090048063c7e293d91461004d575b600080fd5b6100b96004803603606081101561006357600080fd5b81019080803573ffffffffffffffffffffffffffffffffffffffff169060200190929190803573ffffffffffffffffffffffffffffffffffffffff169060200190929190803590602001909291905050506100bb565b005b600083905060008173ffffffffffffffffffffffffffffffffffffffff1663893d20e86040518163ffffffff167c010000000000000000000000000000000000000000000000000000000002815260040160206040518083038186803b15801561012457600080fd5b505afa158015610138573d6000803e3d6000fd5b505050506040513d602081101561014e57600080fd5b810190808051906020019092919050505090503373ffffffffffffffffffffffffffffffffffffffff168173ffffffffffffffffffffffffffffffffffffffff16146101e5576040517f08c379a00000000000000000000000000000000000000000000000000000000081526004018080602001828103825260298152602001806103ef6029913960400191505060405180910390fd5b8173ffffffffffffffffffffffffffffffffffffffff1663ec8585ab846040518263ffffffff167c010000000000000000000000000000000000000000000000000000000002815260040180828152602001915050600060405180830381600087803b15801561025457600080fd5b505af1158015610268573d6000803e3d6000fd5b505050508173ffffffffffffffffffffffffffffffffffffffff1663c9828ae06040518163ffffffff167c010000000000000000000000000000000000000000000000000000000002815260040160206040518083038186803b1580156102ce57600080fd5b505afa1580156102e2573d6000803e3d6000fd5b505050506040513d60208110156102f857600080fd5b810190808051906020019092919050505073ffffffffffffffffffffffffffffffffffffffff1663a9059cbb85856040518363ffffffff167c0100000000000000000000000000000000000000000000000000000000028152600401808373ffffffffffffffffffffffffffffffffffffffff1673ffffffffffffffffffffffffffffffffffffffff16815260200182815260200192505050602060405180830381600087803b1580156103ab57600080fd5b505af11580156103bf573d6000803e3d6000fd5b505050506040513d60208110156103d557600080fd5b810190808051906020019092919050505050505050505056fe6f6e6c7920417274697374546f6b656e206f776e65722063616e20616c6c6f636174652066756e6473a165627a7a723058202c08bd476954bbcd4b95314045f34ed9d2c392e8ff39e376a2968657e7e2026a0029",
  "source": "pragma solidity ^0.5.0;\n\nimport \"./ArtistToken.sol\";\nimport \"./vendor/ERC20/IERC20.sol\";\n\ncontract FundingPool {\n  function allocateFunds(address artistTokenAddr, address to, uint256 value) public {\n    ArtistToken artistToken = ArtistToken(artistTokenAddr);\n    address artistTokenOwner = artistToken.getOwner();\n\n    require(artistTokenOwner == msg.sender, \"only ArtistToken owner can allocate funds\");\n\n    artistToken.fundsAllocated(value);\n    IERC20(artistToken.externalToken()).transfer(to, value);\n  }\n}\n",
  "sourcePath": "/Users/enchanterio/go/src/github.com/lightstreams-network/lightstreams-js-sdk/contracts/bondingcurve/FundingPool.sol",
  "compiler": {
    "name": "solc",
    "version": "0.5.8+commit.23d335f2.Emscripten.clang"
  },
  "schemaVersion": "3.0.1",
  "updatedAt": "2019-11-21T14:28:25.053Z",
  "devdoc": {
    "methods": {}
  },
  "userdoc": {
    "methods": {}
  }
}