{
  "contractName": "GSN",
  "abi": [
    {
      "constant": true,
      "inputs": [],
      "name": "getHubAddr",
      "outputs": [
        {
          "name": "",
          "type": "address"
        }
      ],
      "payable": false,
      "stateMutability": "view",
      "type": "function"
    },
    {
      "constant": false,
      "inputs": [
        {
          "name": "context",
          "type": "bytes"
        }
      ],
      "name": "preRelayedCall",
      "outputs": [
        {
          "name": "",
          "type": "bytes32"
        }
      ],
      "payable": false,
      "stateMutability": "nonpayable",
      "type": "function"
    },
    {
      "constant": true,
      "inputs": [],
      "name": "relayHubVersion",
      "outputs": [
        {
          "name": "",
          "type": "string"
        }
      ],
      "payable": false,
      "stateMutability": "view",
      "type": "function"
    },
    {
      "constant": false,
      "inputs": [
        {
          "name": "context",
          "type": "bytes"
        },
        {
          "name": "success",
          "type": "bool"
        },
        {
          "name": "actualCharge",
          "type": "uint256"
        },
        {
          "name": "preRetVal",
          "type": "bytes32"
        }
      ],
      "name": "postRelayedCall",
      "outputs": [],
      "payable": false,
      "stateMutability": "nonpayable",
      "type": "function"
    },
    {
      "anonymous": false,
      "inputs": [
        {
          "indexed": true,
          "name": "oldRelayHub",
          "type": "address"
        },
        {
          "indexed": true,
          "name": "newRelayHub",
          "type": "address"
        }
      ],
      "name": "RelayHubChanged",
      "type": "event"
    },
    {
      "constant": false,
      "inputs": [],
      "name": "initialize",
      "outputs": [],
      "payable": false,
      "stateMutability": "nonpayable",
      "type": "function"
    },
    {
      "constant": false,
      "inputs": [
        {
          "name": "relayHub",
          "type": "address"
        }
      ],
      "name": "initialize",
      "outputs": [],
      "payable": false,
      "stateMutability": "nonpayable",
      "type": "function"
    },
    {
      "constant": true,
      "inputs": [
        {
          "name": "",
          "type": "address"
        },
        {
          "name": "",
          "type": "address"
        },
        {
          "name": "",
          "type": "bytes"
        },
        {
          "name": "",
          "type": "uint256"
        },
        {
          "name": "",
          "type": "uint256"
        },
        {
          "name": "",
          "type": "uint256"
        },
        {
          "name": "",
          "type": "uint256"
        },
        {
          "name": "",
          "type": "bytes"
        },
        {
          "name": "",
          "type": "uint256"
        }
      ],
      "name": "acceptRelayedCall",
      "outputs": [
        {
          "name": "",
          "type": "uint256"
        },
        {
          "name": "",
          "type": "bytes"
        }
      ],
      "payable": false,
      "stateMutability": "view",
      "type": "function"
    },
    {
      "constant": true,
      "inputs": [],
      "name": "getRecipientBalance",
      "outputs": [
        {
          "name": "",
          "type": "uint256"
        }
      ],
      "payable": false,
      "stateMutability": "view",
      "type": "function"
    },
    {
      "constant": true,
      "inputs": [],
      "name": "version",
      "outputs": [
        {
          "name": "",
          "type": "uint256"
        }
      ],
      "payable": false,
      "stateMutability": "pure",
      "type": "function"
    }
  ],
  "bytecode": "0x6080604052610e3d806100136000396000f3fe608060405234801561001057600080fd5b50600436106100b0576000357c01000000000000000000000000000000000000000000000000000000009004806383947ea01161008357806383947ea0146101b4578063ac57041114610375578063ad61ccd514610393578063c4d66de814610416578063e06e0e221461045a576100b0565b806354fd4d50146100b557806374e861d6146100d357806380274db71461011d5780638129fc1c146101aa575b600080fd5b6100bd6104f3565b6040518082815260200191505060405180910390f35b6100db6104fc565b604051808273ffffffffffffffffffffffffffffffffffffffff1673ffffffffffffffffffffffffffffffffffffffff16815260200191505060405180910390f35b6101946004803603602081101561013357600080fd5b810190808035906020019064010000000081111561015057600080fd5b82018360208201111561016257600080fd5b8035906020019184600183028401116401000000008311171561018457600080fd5b909192939192939050505061050b565b6040518082815260200191505060405180910390f35b6101b26105ed565b005b6102f360048036036101208110156101cb57600080fd5b81019080803573ffffffffffffffffffffffffffffffffffffffff169060200190929190803573ffffffffffffffffffffffffffffffffffffffff1690602001909291908035906020019064010000000081111561022857600080fd5b82018360208201111561023a57600080fd5b8035906020019184600183028401116401000000008311171561025c57600080fd5b909192939192939080359060200190929190803590602001909291908035906020019092919080359060200190929190803590602001906401000000008111156102a557600080fd5b8201836020820111156102b757600080fd5b803590602001918460018302840111640100000000831117156102d957600080fd5b9091929391929390803590602001909291905050506106f4565b6040518083815260200180602001828103825283818151815260200191508051906020019080838360005b8381101561033957808201518184015260208101905061031e565b50505050905090810190601f1680156103665780820380516001836020036101000a031916815260200191505b50935050505060405180910390f35b61037d610714565b6040518082815260200191505060405180910390f35b61039b6107f6565b6040518080602001828103825283818151815260200191508051906020019080838360005b838110156103db5780820151818401526020810190506103c0565b50505050905090810190601f1680156104085780820380516001836020036101000a031916815260200191505b509250505060405180910390f35b6104586004803603602081101561042c57600080fd5b81019080803573ffffffffffffffffffffffffffffffffffffffff169060200190929190505050610833565b005b6104f16004803603608081101561047057600080fd5b810190808035906020019064010000000081111561048d57600080fd5b82018360208201111561049f57600080fd5b803590602001918460018302840111640100000000831117156104c157600080fd5b90919293919293908035151590602001909291908035906020019092919080359060200190929190505050610944565b005b60006001905090565b6000610506610a26565b905090565b60006105156104fc565b73ffffffffffffffffffffffffffffffffffffffff163373ffffffffffffffffffffffffffffffffffffffff1614610598576040517f08c379a0000000000000000000000000000000000000000000000000000000008152600401808060200182810382526026815260200180610d676026913960400191505060405180910390fd5b6105e583838080601f016020809104026020016040519081016040528093929190818152602001838380828437600081840152601f19601f82011690508083019250505050505050610a57565b905092915050565b600060019054906101000a900460ff168061060c575061060b610a5e565b5b8061062357506000809054906101000a900460ff16155b610678576040517f08c379a000000000000000000000000000000000000000000000000000000000815260040180806020018281038252602e815260200180610db8602e913960400191505060405180910390fd5b60008060019054906101000a900460ff1615905080156106c8576001600060016101000a81548160ff02191690831515021790555060016000806101000a81548160ff0219169083151502179055505b6106d0610a6f565b80156106f15760008060016101000a81548160ff0219169083151502179055505b50565b60006060610700610b8b565b915091509b509b9950505050505050505050565b600061071e6104fc565b73ffffffffffffffffffffffffffffffffffffffff166370a08231306040518263ffffffff167c0100000000000000000000000000000000000000000000000000000000028152600401808273ffffffffffffffffffffffffffffffffffffffff1673ffffffffffffffffffffffffffffffffffffffff16815260200191505060206040518083038186803b1580156107b657600080fd5b505afa1580156107ca573d6000803e3d6000fd5b505050506040513d60208110156107e057600080fd5b8101908080519060200190929190505050905090565b60606040518060400160405280600581526020017f312e302e30000000000000000000000000000000000000000000000000000000815250905090565b600060019054906101000a900460ff16806108525750610851610a5e565b5b8061086957506000809054906101000a900460ff16155b6108be576040517f08c379a000000000000000000000000000000000000000000000000000000000815260040180806020018281038252602e815260200180610db8602e913960400191505060405180910390fd5b60008060019054906101000a900460ff16159050801561090e576001600060016101000a81548160ff02191690831515021790555060016000806101000a81548160ff0219169083151502179055505b6109166105ed565b61091f82610baf565b80156109405760008060016101000a81548160ff0219169083151502179055505b5050565b61094c6104fc565b73ffffffffffffffffffffffffffffffffffffffff163373ffffffffffffffffffffffffffffffffffffffff16146109cf576040517f08c379a0000000000000000000000000000000000000000000000000000000008152600401808060200182810382526026815260200180610d676026913960400191505060405180910390fd5b610a1f85858080601f016020809104026020016040519081016040528093929190818152602001838380828437600081840152601f19601f82011690508083019250505050505050848484610d50565b5050505050565b6000807f06b7792c761dcc05af1761f0315ce8b01ac39c16cc934eb0b2f7a8e71414f2626001029050805491505090565b6000919050565b600080303b90506000811491505090565b600060019054906101000a900460ff1680610a8e5750610a8d610a5e565b5b80610aa557506000809054906101000a900460ff16155b610afa576040517f08c379a000000000000000000000000000000000000000000000000000000000815260040180806020018281038252602e815260200180610db8602e913960400191505060405180910390fd5b60008060019054906101000a900460ff161590508015610b4a576001600060016101000a81548160ff02191690831515021790555060016000806101000a81548160ff0219169083151502179055505b610b6773d216153c06e857cd7f72665e0af1d7d82172f494610baf565b8015610b885760008060016101000a81548160ff0219169083151502179055505b50565b60006060610ba760405180602001604052806000815250610d56565b915091509091565b6000610bb9610a26565b9050600073ffffffffffffffffffffffffffffffffffffffff168273ffffffffffffffffffffffffffffffffffffffff161415610c41576040517f08c379a000000000000000000000000000000000000000000000000000000000815260040180806020018281038252602c815260200180610de6602c913960400191505060405180910390fd5b8073ffffffffffffffffffffffffffffffffffffffff168273ffffffffffffffffffffffffffffffffffffffff161415610cc6576040517f08c379a000000000000000000000000000000000000000000000000000000000815260040180806020018281038252602b815260200180610d8d602b913960400191505060405180910390fd5b8173ffffffffffffffffffffffffffffffffffffffff168173ffffffffffffffffffffffffffffffffffffffff167fb9f84b8e65164b14439ae3620df0a4d8786d896996c0282b683f9d8c08f046e860405160405180910390a360007f06b7792c761dcc05af1761f0315ce8b01ac39c16cc934eb0b2f7a8e71414f2626001029050828155505050565b50505050565b600060606000839150915091509156fe47534e426f756e636572426173653a2063616c6c6572206973206e6f742052656c617948756247534e436f6e746578743a206e65772052656c6179487562206973207468652063757272656e74206f6e65436f6e747261637420696e7374616e63652068617320616c7265616479206265656e20696e697469616c697a656447534e436f6e746578743a206e65772052656c617948756220697320746865207a65726f2061646472657373a165627a7a723058202dc2913793cceb8799dc96051e4c8f56fd6009191825830bc98b8b626722506c0029",
  "source": "pragma solidity ^0.5.0;\n\nimport \"@openzeppelin/contracts-ethereum-package/contracts/GSN/GSNRecipient.sol\";\nimport \"@openzeppelin/upgrades/contracts/Initializable.sol\";\n\ncontract GSN is Initializable, GSNRecipient {\n    function initialize(address relayHub) public initializer {\n        GSNRecipient.initialize();\n        _upgradeRelayHub(relayHub);\n    }\n\n    function acceptRelayedCall(\n        address,\n        address,\n        bytes calldata,\n        uint256,\n        uint256,\n        uint256,\n        uint256,\n        bytes calldata,\n        uint256\n    ) external view returns (uint256, bytes memory) {\n        return _approveRelayedCall();\n    }\n\n    function getRecipientBalance() public view returns (uint) {\n        return IRelayHub(getHubAddr()).balanceOf(address(this));\n    }\n\n    function version() public pure returns (uint256) {\n        return 1;\n    }\n}\n",
  "sourcePath": "/Users/enchanterio/go/src/github.com/lightstreams-network/lightstreams-js-sdk/contracts/utils/GSN.sol",
  "compiler": {
    "name": "solc",
    "version": "0.5.8+commit.23d335f2.Emscripten.clang"
  },
  "schemaVersion": "3.0.1",
  "updatedAt": "2019-11-21T14:28:25.067Z",
  "devdoc": {
    "methods": {
      "postRelayedCall(bytes,bool,uint256,bytes32)": {
        "details": "See `IRelayRecipient.postRelayedCall`.     * This function should not be overriden directly, use `_postRelayedCall` instead.     * * Requirements:     * - the caller must be the `RelayHub` contract."
      },
      "preRelayedCall(bytes)": {
        "details": "See `IRelayRecipient.preRelayedCall`.     * This function should not be overriden directly, use `_preRelayedCall` instead.     * * Requirements:     * - the caller must be the `RelayHub` contract."
      }
    }
  },
  "userdoc": {
    "methods": {}
  }
}