{
  "contractName": "GSNAclFactory",
  "abi": [
    {
      "constant": true,
      "inputs": [],
      "name": "version",
      "outputs": [
        {
          "name": "",
          "type": "uint256"
        }
      ],
      "payable": false,
      "stateMutability": "pure",
      "type": "function"
    },
    {
      "constant": true,
      "inputs": [],
      "name": "getHubAddr",
      "outputs": [
        {
          "name": "",
          "type": "address"
        }
      ],
      "payable": false,
      "stateMutability": "view",
      "type": "function"
    },
    {
      "constant": false,
      "inputs": [
        {
          "name": "context",
          "type": "bytes"
        }
      ],
      "name": "preRelayedCall",
      "outputs": [
        {
          "name": "",
          "type": "bytes32"
        }
      ],
      "payable": false,
      "stateMutability": "nonpayable",
      "type": "function"
    },
    {
      "constant": false,
      "inputs": [],
      "name": "initialize",
      "outputs": [],
      "payable": false,
      "stateMutability": "nonpayable",
      "type": "function"
    },
    {
      "constant": true,
      "inputs": [
        {
          "name": "",
          "type": "address"
        },
        {
          "name": "",
          "type": "address"
        },
        {
          "name": "",
          "type": "bytes"
        },
        {
          "name": "",
          "type": "uint256"
        },
        {
          "name": "",
          "type": "uint256"
        },
        {
          "name": "",
          "type": "uint256"
        },
        {
          "name": "",
          "type": "uint256"
        },
        {
          "name": "",
          "type": "bytes"
        },
        {
          "name": "",
          "type": "uint256"
        }
      ],
      "name": "acceptRelayedCall",
      "outputs": [
        {
          "name": "",
          "type": "uint256"
        },
        {
          "name": "",
          "type": "bytes"
        }
      ],
      "payable": false,
      "stateMutability": "view",
      "type": "function"
    },
    {
      "constant": true,
      "inputs": [],
      "name": "aclFunding",
      "outputs": [
        {
          "name": "",
          "type": "uint256"
        }
      ],
      "payable": false,
      "stateMutability": "view",
      "type": "function"
    },
    {
      "constant": true,
      "inputs": [],
      "name": "getRecipientBalance",
      "outputs": [
        {
          "name": "",
          "type": "uint256"
        }
      ],
      "payable": false,
      "stateMutability": "view",
      "type": "function"
    },
    {
      "constant": true,
      "inputs": [],
      "name": "relayHubVersion",
      "outputs": [
        {
          "name": "",
          "type": "string"
        }
      ],
      "payable": false,
      "stateMutability": "view",
      "type": "function"
    },
    {
      "constant": false,
      "inputs": [
        {
          "name": "relayHub",
          "type": "address"
        }
      ],
      "name": "initialize",
      "outputs": [],
      "payable": false,
      "stateMutability": "nonpayable",
      "type": "function"
    },
    {
      "constant": false,
      "inputs": [
        {
          "name": "context",
          "type": "bytes"
        },
        {
          "name": "success",
          "type": "bool"
        },
        {
          "name": "actualCharge",
          "type": "uint256"
        },
        {
          "name": "preRetVal",
          "type": "bytes32"
        }
      ],
      "name": "postRelayedCall",
      "outputs": [],
      "payable": false,
      "stateMutability": "nonpayable",
      "type": "function"
    },
    {
      "payable": true,
      "stateMutability": "payable",
      "type": "fallback"
    },
    {
      "anonymous": false,
      "inputs": [
        {
          "indexed": false,
          "name": "addr",
          "type": "address"
        }
      ],
      "name": "NewACL",
      "type": "event"
    },
    {
      "anonymous": false,
      "inputs": [
        {
          "indexed": true,
          "name": "oldRelayHub",
          "type": "address"
        },
        {
          "indexed": true,
          "name": "newRelayHub",
          "type": "address"
        }
      ],
      "name": "RelayHubChanged",
      "type": "event"
    },
    {
      "constant": false,
      "inputs": [
        {
          "name": "_owner",
          "type": "address"
        }
      ],
      "name": "newACL",
      "outputs": [
        {
          "name": "",
          "type": "address"
        }
      ],
      "payable": false,
      "stateMutability": "nonpayable",
      "type": "function"
    }
  ],
  "bytecode": "0x608060405261307e806100136000396000f3fe60806040526004361061009c5760003560e01c806383947ea01161006457806383947ea014610262578063a18f8e0714610430578063ac5704111461045b578063ad61ccd514610486578063c4d66de814610516578063e06e0e22146105675761009c565b80630c4118771461009e57806354fd4d501461012f57806374e861d61461015a57806380274db7146101b15780638129fc1c1461024b575b005b3480156100aa57600080fd5b506100ed600480360360208110156100c157600080fd5b81019080803573ffffffffffffffffffffffffffffffffffffffff16906020019092919050505061060d565b604051808273ffffffffffffffffffffffffffffffffffffffff1673ffffffffffffffffffffffffffffffffffffffff16815260200191505060405180910390f35b34801561013b57600080fd5b50610144610836565b6040518082815260200191505060405180910390f35b34801561016657600080fd5b5061016f61083f565b604051808273ffffffffffffffffffffffffffffffffffffffff1673ffffffffffffffffffffffffffffffffffffffff16815260200191505060405180910390f35b3480156101bd57600080fd5b50610235600480360360208110156101d457600080fd5b81019080803590602001906401000000008111156101f157600080fd5b82018360208201111561020357600080fd5b8035906020019184600183028401116401000000008311171561022557600080fd5b909192939192939050505061084e565b6040518082815260200191505060405180910390f35b34801561025757600080fd5b50610260610930565b005b34801561026e57600080fd5b506103ae600480360361012081101561028657600080fd5b81019080803573ffffffffffffffffffffffffffffffffffffffff169060200190929190803573ffffffffffffffffffffffffffffffffffffffff169060200190929190803590602001906401000000008111156102e357600080fd5b8201836020820111156102f557600080fd5b8035906020019184600183028401116401000000008311171561031757600080fd5b9091929391929390803590602001909291908035906020019092919080359060200190929190803590602001909291908035906020019064010000000081111561036057600080fd5b82018360208201111561037257600080fd5b8035906020019184600183028401116401000000008311171561039457600080fd5b909192939192939080359060200190929190505050610a37565b6040518083815260200180602001828103825283818151815260200191508051906020019080838360005b838110156103f45780820151818401526020810190506103d9565b50505050905090810190601f1680156104215780820380516001836020036101000a031916815260200191505b50935050505060405180910390f35b34801561043c57600080fd5b50610445610a57565b6040518082815260200191505060405180910390f35b34801561046757600080fd5b50610470610a63565b6040518082815260200191505060405180910390f35b34801561049257600080fd5b5061049b610b29565b6040518080602001828103825283818151815260200191508051906020019080838360005b838110156104db5780820151818401526020810190506104c0565b50505050905090810190601f1680156105085780820380516001836020036101000a031916815260200191505b509250505060405180910390f35b34801561052257600080fd5b506105656004803603602081101561053957600080fd5b81019080803573ffffffffffffffffffffffffffffffffffffffff169060200190929190505050610b66565b005b34801561057357600080fd5b5061060b6004803603608081101561058a57600080fd5b81019080803590602001906401000000008111156105a757600080fd5b8201836020820111156105b957600080fd5b803590602001918460018302840111640100000000831117156105db57600080fd5b90919293919293908035151590602001909291908035906020019092919080359060200190929190505050610c77565b005b60008082600060405161061f90611099565b808373ffffffffffffffffffffffffffffffffffffffff1673ffffffffffffffffffffffffffffffffffffffff1681526020018215151515815260200192505050604051809103906000f08015801561067c573d6000803e3d6000fd5b50905060008190508173ffffffffffffffffffffffffffffffffffffffff1663c4d66de86106a8610d59565b6040518263ffffffff1660e01b8152600401808273ffffffffffffffffffffffffffffffffffffffff1673ffffffffffffffffffffffffffffffffffffffff168152602001915050600060405180830381600087803b15801561070a57600080fd5b505af115801561071e573d6000803e3d6000fd5b5050505061072a610d59565b73ffffffffffffffffffffffffffffffffffffffff1663aa67c919678ac7230489e80000836040518363ffffffff1660e01b8152600401808273ffffffffffffffffffffffffffffffffffffffff1673ffffffffffffffffffffffffffffffffffffffff1681526020019150506000604051808303818588803b1580156107b057600080fd5b505af11580156107c4573d6000803e3d6000fd5b50505050507f3c303b362a6a104367338baf4107cc10ee472cd3dfcce0c8ef12148e51ac886381604051808273ffffffffffffffffffffffffffffffffffffffff1673ffffffffffffffffffffffffffffffffffffffff16815260200191505060405180910390a18092505050919050565b60006001905090565b6000610849610d59565b905090565b600061085861083f565b73ffffffffffffffffffffffffffffffffffffffff163373ffffffffffffffffffffffffffffffffffffffff16146108db576040517f08c379a0000000000000000000000000000000000000000000000000000000008152600401808060200182810382526026815260200180612fa86026913960400191505060405180910390fd5b61092883838080601f016020809104026020016040519081016040528093929190818152602001838380828437600081840152601f19601f82011690508083019250505050505050610d8a565b905092915050565b600060019054906101000a900460ff168061094f575061094e610d91565b5b8061096657506000809054906101000a900460ff16155b6109bb576040517f08c379a000000000000000000000000000000000000000000000000000000000815260040180806020018281038252602e815260200180612ff9602e913960400191505060405180910390fd5b60008060019054906101000a900460ff161590508015610a0b576001600060016101000a81548160ff02191690831515021790555060016000806101000a81548160ff0219169083151502179055505b610a13610da2565b8015610a345760008060016101000a81548160ff0219169083151502179055505b50565b60006060610a43610ebe565b915091509b509b9950505050505050505050565b678ac7230489e8000081565b6000610a6d61083f565b73ffffffffffffffffffffffffffffffffffffffff166370a08231306040518263ffffffff1660e01b8152600401808273ffffffffffffffffffffffffffffffffffffffff1673ffffffffffffffffffffffffffffffffffffffff16815260200191505060206040518083038186803b158015610ae957600080fd5b505afa158015610afd573d6000803e3d6000fd5b505050506040513d6020811015610b1357600080fd5b8101908080519060200190929190505050905090565b60606040518060400160405280600581526020017f312e302e30000000000000000000000000000000000000000000000000000000815250905090565b600060019054906101000a900460ff1680610b855750610b84610d91565b5b80610b9c57506000809054906101000a900460ff16155b610bf1576040517f08c379a000000000000000000000000000000000000000000000000000000000815260040180806020018281038252602e815260200180612ff9602e913960400191505060405180910390fd5b60008060019054906101000a900460ff161590508015610c41576001600060016101000a81548160ff02191690831515021790555060016000806101000a81548160ff0219169083151502179055505b610c49610930565b610c5282610ee2565b8015610c735760008060016101000a81548160ff0219169083151502179055505b5050565b610c7f61083f565b73ffffffffffffffffffffffffffffffffffffffff163373ffffffffffffffffffffffffffffffffffffffff1614610d02576040517f08c379a0000000000000000000000000000000000000000000000000000000008152600401808060200182810382526026815260200180612fa86026913960400191505060405180910390fd5b610d5285858080601f016020809104026020016040519081016040528093929190818152602001838380828437600081840152601f19601f82011690508083019250505050505050848484611083565b5050505050565b6000807f06b7792c761dcc05af1761f0315ce8b01ac39c16cc934eb0b2f7a8e71414f26260001b9050805491505090565b6000919050565b600080303b90506000811491505090565b600060019054906101000a900460ff1680610dc15750610dc0610d91565b5b80610dd857506000809054906101000a900460ff16155b610e2d576040517f08c379a000000000000000000000000000000000000000000000000000000000815260040180806020018281038252602e815260200180612ff9602e913960400191505060405180910390fd5b60008060019054906101000a900460ff161590508015610e7d576001600060016101000a81548160ff02191690831515021790555060016000806101000a81548160ff0219169083151502179055505b610e9a73d216153c06e857cd7f72665e0af1d7d82172f494610ee2565b8015610ebb5760008060016101000a81548160ff0219169083151502179055505b50565b60006060610eda60405180602001604052806000815250611089565b915091509091565b6000610eec610d59565b9050600073ffffffffffffffffffffffffffffffffffffffff168273ffffffffffffffffffffffffffffffffffffffff161415610f74576040517f08c379a000000000000000000000000000000000000000000000000000000000815260040180806020018281038252602c815260200180613027602c913960400191505060405180910390fd5b8073ffffffffffffffffffffffffffffffffffffffff168273ffffffffffffffffffffffffffffffffffffffff161415610ff9576040517f08c379a000000000000000000000000000000000000000000000000000000000815260040180806020018281038252602b815260200180612fce602b913960400191505060405180910390fd5b8173ffffffffffffffffffffffffffffffffffffffff168173ffffffffffffffffffffffffffffffffffffffff167fb9f84b8e65164b14439ae3620df0a4d8786d896996c0282b683f9d8c08f046e860405160405180910390a360007f06b7792c761dcc05af1761f0315ce8b01ac39c16cc934eb0b2f7a8e71414f26260001b9050828155505050565b50505050565b6000606060008391509150915091565b611f01806110a78339019056fe60806040526000603560006101000a81548160ff02191690831515021790555034801561002b57600080fd5b50604051604080611f018339810180604052604081101561004b57600080fd5b81019080805190602001909291908051906020019092919050505081818180603360006101000a81548173ffffffffffffffffffffffffffffffffffffffff021916908373ffffffffffffffffffffffffffffffffffffffff1602179055505080603560006101000a81548160ff02191690831515021790555060405180602001604052806003808111156100dc57fe5b815250603460008473ffffffffffffffffffffffffffffffffffffffff1673ffffffffffffffffffffffffffffffffffffffff16815260200190815260200160002060008201518160000160006101000a81548160ff0219169083600381111561014257fe5b021790555090505050505050611da48061015d6000396000f3fe608060405234801561001057600080fd5b50600436106101375760003560e01c806385e68531116100b8578063ad61ccd51161007c578063ad61ccd51461062e578063c30fc492146106b1578063c4d66de81461070d578063dc9a153514610751578063e06e0e2214610773578063f2fde38b1461080c57610137565b806385e685311461052e578063893d20e8146105725780638da5cb5b146105bc578063a5bfa74614610606578063ac5704111461061057610137565b806374e861d6116100ff57806374e861d6146102485780637e048c211461029257806380274db7146102d65780638129fc1c1461036357806383947ea01461036d57610137565b806335950fed1461013c57806335bb3e16146101985780633d0e4a1a146101dc57806354fd4d50146101e657806370b8cdd514610204575b600080fd5b61017e6004803603602081101561015257600080fd5b81019080803573ffffffffffffffffffffffffffffffffffffffff169060200190929190505050610850565b604051808215151515815260200191505060405180910390f35b6101da600480360360208110156101ae57600080fd5b81019080803573ffffffffffffffffffffffffffffffffffffffff1690602001909291905050506108c2565b005b6101e4610a89565b005b6101ee610b6b565b6040518082815260200191505060405180910390f35b6102466004803603602081101561021a57600080fd5b81019080803573ffffffffffffffffffffffffffffffffffffffff169060200190929190505050610b74565b005b610250610d3c565b604051808273ffffffffffffffffffffffffffffffffffffffff1673ffffffffffffffffffffffffffffffffffffffff16815260200191505060405180910390f35b6102d4600480360360208110156102a857600080fd5b81019080803573ffffffffffffffffffffffffffffffffffffffff169060200190929190505050610d4b565b005b61034d600480360360208110156102ec57600080fd5b810190808035906020019064010000000081111561030957600080fd5b82018360208201111561031b57600080fd5b8035906020019184600183028401116401000000008311171561033d57600080fd5b9091929391929390505050610f13565b6040518082815260200191505060405180910390f35b61036b610ff5565b005b6104ac600480360361012081101561038457600080fd5b81019080803573ffffffffffffffffffffffffffffffffffffffff169060200190929190803573ffffffffffffffffffffffffffffffffffffffff169060200190929190803590602001906401000000008111156103e157600080fd5b8201836020820111156103f357600080fd5b8035906020019184600183028401116401000000008311171561041557600080fd5b9091929391929390803590602001909291908035906020019092919080359060200190929190803590602001909291908035906020019064010000000081111561045e57600080fd5b82018360208201111561047057600080fd5b8035906020019184600183028401116401000000008311171561049257600080fd5b9091929391929390803590602001909291905050506110fc565b6040518083815260200180602001828103825283818151815260200191508051906020019080838360005b838110156104f25780820151818401526020810190506104d7565b50505050905090810190601f16801561051f5780820380516001836020036101000a031916815260200191505b50935050505060405180910390f35b6105706004803603602081101561054457600080fd5b81019080803573ffffffffffffffffffffffffffffffffffffffff16906020019092919050505061111c565b005b61057a6112e4565b604051808273ffffffffffffffffffffffffffffffffffffffff1673ffffffffffffffffffffffffffffffffffffffff16815260200191505060405180910390f35b6105c461130e565b604051808273ffffffffffffffffffffffffffffffffffffffff1673ffffffffffffffffffffffffffffffffffffffff16815260200191505060405180910390f35b61060e611334565b005b610618611416565b6040518082815260200191505060405180910390f35b6106366114dc565b6040518080602001828103825283818151815260200191508051906020019080838360005b8381101561067657808201518184015260208101905061065b565b50505050905090810190601f1680156106a35780820380516001836020036101000a031916815260200191505b509250505060405180910390f35b6106f3600480360360208110156106c757600080fd5b81019080803573ffffffffffffffffffffffffffffffffffffffff169060200190929190505050611519565b604051808215151515815260200191505060405180910390f35b61074f6004803603602081101561072357600080fd5b81019080803573ffffffffffffffffffffffffffffffffffffffff1690602001909291905050506115a3565b005b6107596116b4565b604051808215151515815260200191505060405180910390f35b61080a6004803603608081101561078957600080fd5b81019080803590602001906401000000008111156107a657600080fd5b8201836020820111156107b857600080fd5b803590602001918460018302840111640100000000831117156107da57600080fd5b909192939192939080351515906020019092919080359060200190929190803590602001909291905050506116c7565b005b61084e6004803603602081101561082257600080fd5b81019080803573ffffffffffffffffffffffffffffffffffffffff1690602001909291905050506117a9565b005b600060038081111561085e57fe5b603460008473ffffffffffffffffffffffffffffffffffffffff1673ffffffffffffffffffffffffffffffffffffffff16815260200190815260200160002060000160009054906101000a900460ff1660038111156108b957fe5b10159050919050565b6003808111156108ce57fe5b603460006108da611888565b73ffffffffffffffffffffffffffffffffffffffff1673ffffffffffffffffffffffffffffffffffffffff16815260200190815260200160002060000160009054906101000a900460ff16600381111561093057fe5b1015610987576040517f08c379a000000000000000000000000000000000000000000000000000000000815260040180806020018281038252603b815260200180611cb9603b913960400191505060405180910390fd5b604051806020016040528060038081111561099e57fe5b815250603460008373ffffffffffffffffffffffffffffffffffffffff1673ffffffffffffffffffffffffffffffffffffffff16815260200190815260200160002060008201518160000160006101000a81548160ff02191690836003811115610a0457fe5b02179055509050507f4bb8f5497a4d4a4036670dab8c94b028b3fedc11ce7fbf55f3f57b3a4d355dc7816003604051808373ffffffffffffffffffffffffffffffffffffffff1673ffffffffffffffffffffffffffffffffffffffff168152602001826003811115610a7257fe5b60ff1681526020019250505060405180910390a150565b600380811115610a9557fe5b60346000610aa1611888565b73ffffffffffffffffffffffffffffffffffffffff1673ffffffffffffffffffffffffffffffffffffffff16815260200190815260200160002060000160009054906101000a900460ff166003811115610af757fe5b1015610b4e576040517f08c379a000000000000000000000000000000000000000000000000000000000815260040180806020018281038252603b815260200180611cb9603b913960400191505060405180910390fd5b6000603560006101000a81548160ff021916908315150217905550565b60006003905090565b600380811115610b8057fe5b60346000610b8c611888565b73ffffffffffffffffffffffffffffffffffffffff1673ffffffffffffffffffffffffffffffffffffffff16815260200190815260200160002060000160009054906101000a900460ff166003811115610be257fe5b1015610c39576040517f08c379a000000000000000000000000000000000000000000000000000000000815260040180806020018281038252603b815260200180611cb9603b913960400191505060405180910390fd5b604051806020016040528060016003811115610c5157fe5b815250603460008373ffffffffffffffffffffffffffffffffffffffff1673ffffffffffffffffffffffffffffffffffffffff16815260200190815260200160002060008201518160000160006101000a81548160ff02191690836003811115610cb757fe5b02179055509050507f4bb8f5497a4d4a4036670dab8c94b028b3fedc11ce7fbf55f3f57b3a4d355dc7816001604051808373ffffffffffffffffffffffffffffffffffffffff1673ffffffffffffffffffffffffffffffffffffffff168152602001826003811115610d2557fe5b60ff1681526020019250505060405180910390a150565b6000610d466118da565b905090565b600380811115610d5757fe5b60346000610d63611888565b73ffffffffffffffffffffffffffffffffffffffff1673ffffffffffffffffffffffffffffffffffffffff16815260200190815260200160002060000160009054906101000a900460ff166003811115610db957fe5b1015610e10576040517f08c379a000000000000000000000000000000000000000000000000000000000815260040180806020018281038252603b815260200180611cb9603b913960400191505060405180910390fd5b604051806020016040528060026003811115610e2857fe5b815250603460008373ffffffffffffffffffffffffffffffffffffffff1673ffffffffffffffffffffffffffffffffffffffff16815260200190815260200160002060008201518160000160006101000a81548160ff02191690836003811115610e8e57fe5b02179055509050507f4bb8f5497a4d4a4036670dab8c94b028b3fedc11ce7fbf55f3f57b3a4d355dc7816002604051808373ffffffffffffffffffffffffffffffffffffffff1673ffffffffffffffffffffffffffffffffffffffff168152602001826003811115610efc57fe5b60ff1681526020019250505060405180910390a150565b6000610f1d610d3c565b73ffffffffffffffffffffffffffffffffffffffff163373ffffffffffffffffffffffffffffffffffffffff1614610fa0576040517f08c379a0000000000000000000000000000000000000000000000000000000008152600401808060200182810382526026815260200180611c936026913960400191505060405180910390fd5b610fed83838080601f016020809104026020016040519081016040528093929190818152602001838380828437600081840152601f19601f8201169050808301925050505050505061190b565b905092915050565b600060019054906101000a900460ff16806110145750611013611912565b5b8061102b57506000809054906101000a900460ff16155b611080576040517f08c379a000000000000000000000000000000000000000000000000000000000815260040180806020018281038252602e815260200180611d1f602e913960400191505060405180910390fd5b60008060019054906101000a900460ff1615905080156110d0576001600060016101000a81548160ff02191690831515021790555060016000806101000a81548160ff0219169083151502179055505b6110d8611923565b80156110f95760008060016101000a81548160ff0219169083151502179055505b50565b60006060611108611a3f565b915091509b509b9950505050505050505050565b60038081111561112857fe5b60346000611134611888565b73ffffffffffffffffffffffffffffffffffffffff1673ffffffffffffffffffffffffffffffffffffffff16815260200190815260200160002060000160009054906101000a900460ff16600381111561118a57fe5b10156111e1576040517f08c379a000000000000000000000000000000000000000000000000000000000815260040180806020018281038252603b815260200180611cb9603b913960400191505060405180910390fd5b6040518060200160405280600060038111156111f957fe5b815250603460008373ffffffffffffffffffffffffffffffffffffffff1673ffffffffffffffffffffffffffffffffffffffff16815260200190815260200160002060008201518160000160006101000a81548160ff0219169083600381111561125f57fe5b02179055509050507f4bb8f5497a4d4a4036670dab8c94b028b3fedc11ce7fbf55f3f57b3a4d355dc7816000604051808373ffffffffffffffffffffffffffffffffffffffff1673ffffffffffffffffffffffffffffffffffffffff1681526020018260038111156112cd57fe5b60ff1681526020019250505060405180910390a150565b6000603360009054906101000a900473ffffffffffffffffffffffffffffffffffffffff16905090565b603360009054906101000a900473ffffffffffffffffffffffffffffffffffffffff1681565b60038081111561134057fe5b6034600061134c611888565b73ffffffffffffffffffffffffffffffffffffffff1673ffffffffffffffffffffffffffffffffffffffff16815260200190815260200160002060000160009054906101000a900460ff1660038111156113a257fe5b10156113f9576040517f08c379a000000000000000000000000000000000000000000000000000000000815260040180806020018281038252603b815260200180611cb9603b913960400191505060405180910390fd5b6001603560006101000a81548160ff021916908315150217905550565b6000611420610d3c565b73ffffffffffffffffffffffffffffffffffffffff166370a08231306040518263ffffffff1660e01b8152600401808273ffffffffffffffffffffffffffffffffffffffff1673ffffffffffffffffffffffffffffffffffffffff16815260200191505060206040518083038186803b15801561149c57600080fd5b505afa1580156114b0573d6000803e3d6000fd5b505050506040513d60208110156114c657600080fd5b8101908080519060200190929190505050905090565b60606040518060400160405280600581526020017f312e302e30000000000000000000000000000000000000000000000000000000815250905090565b6000603560009054906101000a900460ff168061159c57506001600381111561153e57fe5b603460008473ffffffffffffffffffffffffffffffffffffffff1673ffffffffffffffffffffffffffffffffffffffff16815260200190815260200160002060000160009054906101000a900460ff16600381111561159957fe5b10155b9050919050565b600060019054906101000a900460ff16806115c257506115c1611912565b5b806115d957506000809054906101000a900460ff16155b61162e576040517f08c379a000000000000000000000000000000000000000000000000000000000815260040180806020018281038252602e815260200180611d1f602e913960400191505060405180910390fd5b60008060019054906101000a900460ff16159050801561167e576001600060016101000a81548160ff02191690831515021790555060016000806101000a81548160ff0219169083151502179055505b611686610ff5565b61168f82611a63565b80156116b05760008060016101000a81548160ff0219169083151502179055505b5050565b603560009054906101000a900460ff1681565b6116cf610d3c565b73ffffffffffffffffffffffffffffffffffffffff163373ffffffffffffffffffffffffffffffffffffffff1614611752576040517f08c379a0000000000000000000000000000000000000000000000000000000008152600401808060200182810382526026815260200180611c936026913960400191505060405180910390fd5b6117a285858080601f016020809104026020016040519081016040528093929190818152602001838380828437600081840152601f19601f82011690508083019250505050505050848484611c04565b5050505050565b603360009054906101000a900473ffffffffffffffffffffffffffffffffffffffff1673ffffffffffffffffffffffffffffffffffffffff166117ea611888565b73ffffffffffffffffffffffffffffffffffffffff161461180a57600080fd5b600073ffffffffffffffffffffffffffffffffffffffff168173ffffffffffffffffffffffffffffffffffffffff16141561184457600080fd5b80603360006101000a81548173ffffffffffffffffffffffffffffffffffffffff021916908373ffffffffffffffffffffffffffffffffffffffff16021790555050565b60006118926118da565b73ffffffffffffffffffffffffffffffffffffffff163373ffffffffffffffffffffffffffffffffffffffff16146118cc573390506118d7565b6118d4611c0a565b90505b90565b6000807f06b7792c761dcc05af1761f0315ce8b01ac39c16cc934eb0b2f7a8e71414f26260001b9050805491505090565b6000919050565b600080303b90506000811491505090565b600060019054906101000a900460ff16806119425750611941611912565b5b8061195957506000809054906101000a900460ff16155b6119ae576040517f08c379a000000000000000000000000000000000000000000000000000000000815260040180806020018281038252602e815260200180611d1f602e913960400191505060405180910390fd5b60008060019054906101000a900460ff1615905080156119fe576001600060016101000a81548160ff02191690831515021790555060016000806101000a81548160ff0219169083151502179055505b611a1b73d216153c06e857cd7f72665e0af1d7d82172f494611a63565b8015611a3c5760008060016101000a81548160ff0219169083151502179055505b50565b60006060611a5b60405180602001604052806000815250611c82565b915091509091565b6000611a6d6118da565b9050600073ffffffffffffffffffffffffffffffffffffffff168273ffffffffffffffffffffffffffffffffffffffff161415611af5576040517f08c379a000000000000000000000000000000000000000000000000000000000815260040180806020018281038252602c815260200180611d4d602c913960400191505060405180910390fd5b8073ffffffffffffffffffffffffffffffffffffffff168273ffffffffffffffffffffffffffffffffffffffff161415611b7a576040517f08c379a000000000000000000000000000000000000000000000000000000000815260040180806020018281038252602b815260200180611cf4602b913960400191505060405180910390fd5b8173ffffffffffffffffffffffffffffffffffffffff168173ffffffffffffffffffffffffffffffffffffffff167fb9f84b8e65164b14439ae3620df0a4d8786d896996c0282b683f9d8c08f046e860405160405180910390a360007f06b7792c761dcc05af1761f0315ce8b01ac39c16cc934eb0b2f7a8e71414f26260001b9050828155505050565b50505050565b600060606000368080601f016020809104026020016040519081016040528093929190818152602001838380828437600081840152601f19601f820116905080830192505050505050509050600080369050905073ffffffffffffffffffffffffffffffffffffffff81830151169250829250505090565b600060606000839150915091509156fe47534e426f756e636572426173653a2063616c6c6572206973206e6f742052656c61794875624f6e6c79207573657220776974682041646d696e207065726d697373696f6e206c766c2063616e2063616c6c20746869732066756e6374696f6e2e47534e436f6e746578743a206e65772052656c6179487562206973207468652063757272656e74206f6e65436f6e747261637420696e7374616e63652068617320616c7265616479206265656e20696e697469616c697a656447534e436f6e746578743a206e65772052656c617948756220697320746865207a65726f2061646472657373a165627a7a723058204b532bed60a35e83e2adc2d5c4546ec7d4dcc9e4f6fbbbe350ae30f47c074bd7002947534e426f756e636572426173653a2063616c6c6572206973206e6f742052656c617948756247534e436f6e746578743a206e65772052656c6179487562206973207468652063757272656e74206f6e65436f6e747261637420696e7374616e63652068617320616c7265616479206265656e20696e697469616c697a656447534e436f6e746578743a206e65772052656c617948756220697320746865207a65726f2061646472657373a165627a7a72305820b80ec73eeeeebf0a1f7aa1245d84e5a70782d7c3c1bc6cf9baededde2118ea850029",
  "source": "pragma solidity ^0.5.0;\n\nimport \"./GSNAcl.sol\";\nimport \"./utils/GSN.sol\";\n\n/**\n * @title ACLFactory enables gas-free interactions with ACL from deployment to rights management.\n * @author Lukas Lukac, Lightstreams, 22.8.2018\n */\ncontract GSNAclFactory is GSN {\n    uint256 constant public aclFunding = 10 ether;\n\n    address[] acls;\n\n    event NewACL(address addr);\n\n    function() payable external {}\n\n    function newACL(address _owner) public returns (address) {\n        GSNAcl acl = new GSNAcl(_owner, false);\n        address addr = address(acl);\n\n        acl.initialize(_getRelayHub());\n        (IRelayHub(_getRelayHub())).depositFor.value(aclFunding)(addr);\n\n        emit NewACL(addr);\n\n        return addr;\n    }\n}\n",
  "sourcePath": "/home/ggarrido/lightstreams/workspace/lightstreams-js-sdk/contracts/GSNAclFactory.sol",
  "compiler": {
    "name": "solc",
    "version": "0.5.8+commit.23d335f2.Emscripten.clang"
  },
  "schemaVersion": "3.0.15",
  "updatedAt": "2019-09-18T17:12:29.316Z",
  "devdoc": {
    "author": "Lukas Lukac, Lightstreams, 22.8.2018",
    "methods": {
      "postRelayedCall(bytes,bool,uint256,bytes32)": {
        "details": "See `IRelayRecipient.postRelayedCall`.     * This function should not be overriden directly, use `_postRelayedCall` instead.     * * Requirements:     * - the caller must be the `RelayHub` contract."
      },
      "preRelayedCall(bytes)": {
        "details": "See `IRelayRecipient.preRelayedCall`.     * This function should not be overriden directly, use `_preRelayedCall` instead.     * * Requirements:     * - the caller must be the `RelayHub` contract."
      }
    },
    "title": "ACLFactory enables gas-free interactions with ACL from deployment to rights management."
  },
  "userdoc": {
    "methods": {}
  }
}