{
  "contractName": "GSNContext",
  "abi": [
    {
      "anonymous": false,
      "inputs": [
        {
          "indexed": true,
          "name": "oldRelayHub",
          "type": "address"
        },
        {
          "indexed": true,
          "name": "newRelayHub",
          "type": "address"
        }
      ],
      "name": "RelayHubChanged",
      "type": "event"
    },
    {
      "constant": false,
      "inputs": [],
      "name": "initialize",
      "outputs": [],
      "payable": false,
      "stateMutability": "nonpayable",
      "type": "function"
    }
  ],
  "bytecode": "0x60806040526103ea806100136000396000f3fe608060405234801561001057600080fd5b506004361061002b5760003560e01c80638129fc1c14610030575b600080fd5b61003861003a565b005b600060019054906101000a900460ff16806100595750610058610156565b5b8061007057506000809054906101000a900460ff16155b6100c5576040517f08c379a000000000000000000000000000000000000000000000000000000000815260040180806020018281038252602e815260200180610365602e913960400191505060405180910390fd5b60008060019054906101000a900460ff161590508015610115576001600060016101000a81548160ff02191690831515021790555060016000806101000a81548160ff0219169083151502179055505b61013273d216153c06e857cd7f72665e0af1d7d82172f494610167565b80156101535760008060016101000a81548160ff0219169083151502179055505b50565b600080303b90506000811491505090565b6000610171610308565b9050600073ffffffffffffffffffffffffffffffffffffffff168273ffffffffffffffffffffffffffffffffffffffff1614156101f9576040517f08c379a000000000000000000000000000000000000000000000000000000000815260040180806020018281038252602c815260200180610393602c913960400191505060405180910390fd5b8073ffffffffffffffffffffffffffffffffffffffff168273ffffffffffffffffffffffffffffffffffffffff16141561027e576040517f08c379a000000000000000000000000000000000000000000000000000000000815260040180806020018281038252602b81526020018061033a602b913960400191505060405180910390fd5b8173ffffffffffffffffffffffffffffffffffffffff168173ffffffffffffffffffffffffffffffffffffffff167fb9f84b8e65164b14439ae3620df0a4d8786d896996c0282b683f9d8c08f046e860405160405180910390a360007f06b7792c761dcc05af1761f0315ce8b01ac39c16cc934eb0b2f7a8e71414f26260001b9050828155505050565b6000807f06b7792c761dcc05af1761f0315ce8b01ac39c16cc934eb0b2f7a8e71414f26260001b905080549150509056fe47534e436f6e746578743a206e65772052656c6179487562206973207468652063757272656e74206f6e65436f6e747261637420696e7374616e63652068617320616c7265616479206265656e20696e697469616c697a656447534e436f6e746578743a206e65772052656c617948756220697320746865207a65726f2061646472657373a165627a7a72305820b8b4d82e34ce22bec9d69725470bbcd01fb58b4c487e9e1d353d87f3412f94560029",
  "source": "pragma solidity ^0.5.0;\n\nimport \"@openzeppelin/upgrades/contracts/Initializable.sol\";\nimport \"./Context.sol\";\n\n/*\n * @dev Enables GSN support on `Context` contracts by recognizing calls from\n * RelayHub and extracting the actual sender and call data from the received\n * calldata.\n *\n * > This contract does not perform all required tasks to implement a GSN\n * recipient contract: end users should use `GSNRecipient` instead.\n */\ncontract GSNContext is Initializable, Context {\n    // We use a random storage slot to allow proxy contracts to enable GSN support in an upgrade without changing their\n    // storage layout. This value is calculated as: keccak256('gsn.relayhub.address'), minus 1.\n    bytes32 private constant RELAY_HUB_ADDRESS_STORAGE_SLOT = 0x06b7792c761dcc05af1761f0315ce8b01ac39c16cc934eb0b2f7a8e71414f262;\n\n    event RelayHubChanged(address indexed oldRelayHub, address indexed newRelayHub);\n\n    function initialize() public initializer {\n        _upgradeRelayHub(0xD216153c06E857cD7f72665E0aF1d7D82172F494);\n    }\n\n    function _getRelayHub() internal view returns (address relayHub) {\n        bytes32 slot = RELAY_HUB_ADDRESS_STORAGE_SLOT;\n        // solhint-disable-next-line no-inline-assembly\n        assembly {\n            relayHub := sload(slot)\n        }\n    }\n\n    function _upgradeRelayHub(address newRelayHub) internal {\n        address currentRelayHub = _getRelayHub();\n        require(newRelayHub != address(0), \"GSNContext: new RelayHub is the zero address\");\n        require(newRelayHub != currentRelayHub, \"GSNContext: new RelayHub is the current one\");\n\n        emit RelayHubChanged(currentRelayHub, newRelayHub);\n\n        bytes32 slot = RELAY_HUB_ADDRESS_STORAGE_SLOT;\n        // solhint-disable-next-line no-inline-assembly\n        assembly {\n            sstore(slot, newRelayHub)\n        }\n    }\n\n    // Overrides for Context's functions: when called from RelayHub, sender and\n    // data require some pre-processing: the actual sender is stored at the end\n    // of the call data, which in turns means it needs to be removed from it\n    // when handling said data.\n\n    function _msgSender() internal view returns (address) {\n        if (msg.sender != _getRelayHub()) {\n            return msg.sender;\n        } else {\n            return _getRelayedCallSender();\n        }\n    }\n\n    function _msgData() internal view returns (bytes memory) {\n        if (msg.sender != _getRelayHub()) {\n            return msg.data;\n        } else {\n            return _getRelayedCallData();\n        }\n    }\n\n    function _getRelayedCallSender() private pure returns (address result) {\n        // We need to read 20 bytes (an address) located at array index msg.data.length - 20. In memory, the array\n        // is prefixed with a 32-byte length value, so we first add 32 to get the memory read index. However, doing\n        // so would leave the address in the upper 20 bytes of the 32-byte word, which is inconvenient and would\n        // require bit shifting. We therefore subtract 12 from the read index so the address lands on the lower 20\n        // bytes. This can always be done due to the 32-byte prefix.\n\n        // The final memory read index is msg.data.length - 20 + 32 - 12 = msg.data.length. Using inline assembly is the\n        // easiest/most-efficient way to perform this operation.\n\n        // These fields are not accessible from assembly\n        bytes memory array = msg.data;\n        uint256 index = msg.data.length;\n\n        // solhint-disable-next-line no-inline-assembly\n        assembly {\n            // Load the 32 bytes word from memory with the address on the lower 20 bytes, and mask those.\n            result := and(mload(add(array, index)), 0xffffffffffffffffffffffffffffffffffffffff)\n        }\n        return result;\n    }\n\n    function _getRelayedCallData() private pure returns (bytes memory) {\n        // RelayHub appends the sender address at the end of the calldata, so in order to retrieve the actual msg.data,\n        // we must strip the last 20 bytes (length of an address type) from it.\n\n        uint256 actualDataLength = msg.data.length - 20;\n        bytes memory actualData = new bytes(actualDataLength);\n\n        for (uint256 i = 0; i < actualDataLength; ++i) {\n            actualData[i] = msg.data[i];\n        }\n\n        return actualData;\n    }\n}\n",
  "sourcePath": "@openzeppelin/contracts-ethereum-package/contracts/GSN/GSNContext.sol",
  "compiler": {
    "name": "solc",
    "version": "0.5.8+commit.23d335f2.Emscripten.clang"
  },
  "schemaVersion": "3.0.23",
  "updatedAt": "2020-03-05T10:06:52.241Z",
  "devdoc": {
    "methods": {}
  },
  "userdoc": {
    "methods": {}
  }
}