{
  "contractName": "GSNProfile",
  "abi": [
    {
      "constant": false,
      "inputs": [
        {
          "name": "_owner",
          "type": "address"
        }
      ],
      "name": "removeOwner",
      "outputs": [],
      "payable": false,
      "stateMutability": "nonpayable",
      "type": "function"
    },
    {
      "constant": true,
      "inputs": [
        {
          "name": "_owner",
          "type": "address"
        }
      ],
      "name": "hasOwner",
      "outputs": [
        {
          "name": "",
          "type": "bool"
        }
      ],
      "payable": false,
      "stateMutability": "view",
      "type": "function"
    },
    {
      "constant": false,
      "inputs": [
        {
          "name": "_newOwner",
          "type": "address"
        }
      ],
      "name": "addOwner",
      "outputs": [],
      "payable": false,
      "stateMutability": "nonpayable",
      "type": "function"
    },
    {
      "constant": true,
      "inputs": [],
      "name": "getHubAddr",
      "outputs": [
        {
          "name": "",
          "type": "address"
        }
      ],
      "payable": false,
      "stateMutability": "view",
      "type": "function"
    },
    {
      "constant": false,
      "inputs": [
        {
          "name": "context",
          "type": "bytes"
        }
      ],
      "name": "preRelayedCall",
      "outputs": [
        {
          "name": "",
          "type": "bytes32"
        }
      ],
      "payable": false,
      "stateMutability": "nonpayable",
      "type": "function"
    },
    {
      "constant": true,
      "inputs": [],
      "name": "getOwners",
      "outputs": [
        {
          "name": "",
          "type": "address[]"
        }
      ],
      "payable": false,
      "stateMutability": "view",
      "type": "function"
    },
    {
      "constant": true,
      "inputs": [],
      "name": "relayHubVersion",
      "outputs": [
        {
          "name": "",
          "type": "string"
        }
      ],
      "payable": false,
      "stateMutability": "view",
      "type": "function"
    },
    {
      "constant": false,
      "inputs": [
        {
          "name": "context",
          "type": "bytes"
        },
        {
          "name": "success",
          "type": "bool"
        },
        {
          "name": "actualCharge",
          "type": "uint256"
        },
        {
          "name": "preRetVal",
          "type": "bytes32"
        }
      ],
      "name": "postRelayedCall",
      "outputs": [],
      "payable": false,
      "stateMutability": "nonpayable",
      "type": "function"
    },
    {
      "inputs": [
        {
          "name": "_owner",
          "type": "address"
        }
      ],
      "payable": false,
      "stateMutability": "nonpayable",
      "type": "constructor"
    },
    {
      "payable": true,
      "stateMutability": "payable",
      "type": "fallback"
    },
    {
      "anonymous": false,
      "inputs": [
        {
          "indexed": false,
          "name": "owner",
          "type": "address"
        },
        {
          "indexed": false,
          "name": "cid",
          "type": "bytes32"
        },
        {
          "indexed": false,
          "name": "acl",
          "type": "address"
        }
      ],
      "name": "FileAdded",
      "type": "event"
    },
    {
      "anonymous": false,
      "inputs": [
        {
          "indexed": false,
          "name": "owner",
          "type": "address"
        },
        {
          "indexed": false,
          "name": "cid",
          "type": "bytes32"
        },
        {
          "indexed": false,
          "name": "acl",
          "type": "address"
        }
      ],
      "name": "FileRemoved",
      "type": "event"
    },
    {
      "anonymous": false,
      "inputs": [
        {
          "indexed": false,
          "name": "cid",
          "type": "bytes32"
        },
        {
          "indexed": false,
          "name": "acl",
          "type": "address"
        },
        {
          "indexed": false,
          "name": "newOwner",
          "type": "address"
        },
        {
          "indexed": false,
          "name": "byOwner",
          "type": "address"
        }
      ],
      "name": "FileRecovered",
      "type": "event"
    },
    {
      "anonymous": false,
      "inputs": [
        {
          "indexed": false,
          "name": "newOwner",
          "type": "address"
        },
        {
          "indexed": false,
          "name": "byOwner",
          "type": "address"
        }
      ],
      "name": "OwnerRecovered",
      "type": "event"
    },
    {
      "anonymous": false,
      "inputs": [
        {
          "indexed": false,
          "name": "amount",
          "type": "uint256"
        }
      ],
      "name": "HatchedArtistTokens",
      "type": "event"
    },
    {
      "anonymous": false,
      "inputs": [
        {
          "indexed": false,
          "name": "amount",
          "type": "uint256"
        }
      ],
      "name": "ClaimedArtistTokens",
      "type": "event"
    },
    {
      "anonymous": false,
      "inputs": [
        {
          "indexed": false,
          "name": "amount",
          "type": "uint256"
        }
      ],
      "name": "RefundedTokens",
      "type": "event"
    },
    {
      "anonymous": false,
      "inputs": [
        {
          "indexed": false,
          "name": "amount",
          "type": "uint256"
        }
      ],
      "name": "BoughtArtistTokens",
      "type": "event"
    },
    {
      "anonymous": false,
      "inputs": [
        {
          "indexed": false,
          "name": "beneficiary",
          "type": "address"
        },
        {
          "indexed": false,
          "name": "amount",
          "type": "uint256"
        }
      ],
      "name": "TransferToken",
      "type": "event"
    },
    {
      "anonymous": false,
      "inputs": [
        {
          "indexed": false,
          "name": "wphtAddr",
          "type": "address"
        },
        {
          "indexed": false,
          "name": "beneficiary",
          "type": "address"
        },
        {
          "indexed": false,
          "name": "amount",
          "type": "uint256"
        }
      ],
      "name": "TransferIERC20Token",
      "type": "event"
    },
    {
      "anonymous": false,
      "inputs": [
        {
          "indexed": false,
          "name": "newOwner",
          "type": "address"
        },
        {
          "indexed": false,
          "name": "byOwner",
          "type": "address"
        }
      ],
      "name": "OwnerAdded",
      "type": "event"
    },
    {
      "anonymous": false,
      "inputs": [
        {
          "indexed": false,
          "name": "removedOwner",
          "type": "address"
        },
        {
          "indexed": false,
          "name": "byOwner",
          "type": "address"
        }
      ],
      "name": "OwnerRemoved",
      "type": "event"
    },
    {
      "anonymous": false,
      "inputs": [
        {
          "indexed": true,
          "name": "oldRelayHub",
          "type": "address"
        },
        {
          "indexed": true,
          "name": "newRelayHub",
          "type": "address"
        }
      ],
      "name": "RelayHubChanged",
      "type": "event"
    },
    {
      "constant": false,
      "inputs": [
        {
          "name": "_cid",
          "type": "bytes32"
        },
        {
          "name": "_acl",
          "type": "address"
        }
      ],
      "name": "addFile",
      "outputs": [],
      "payable": false,
      "stateMutability": "nonpayable",
      "type": "function"
    },
    {
      "constant": false,
      "inputs": [
        {
          "name": "_cid",
          "type": "bytes32"
        }
      ],
      "name": "removeFile",
      "outputs": [],
      "payable": false,
      "stateMutability": "nonpayable",
      "type": "function"
    },
    {
      "constant": false,
      "inputs": [
        {
          "name": "_newOwner",
          "type": "address"
        }
      ],
      "name": "recover",
      "outputs": [],
      "payable": false,
      "stateMutability": "nonpayable",
      "type": "function"
    },
    {
      "constant": false,
      "inputs": [
        {
          "name": "_beneficiary",
          "type": "address"
        },
        {
          "name": "_amount",
          "type": "uint256"
        }
      ],
      "name": "transferToken",
      "outputs": [],
      "payable": false,
      "stateMutability": "nonpayable",
      "type": "function"
    },
    {
      "constant": false,
      "inputs": [
        {
          "name": "_tokenAddr",
          "type": "address"
        },
        {
          "name": "_beneficiary",
          "type": "address"
        },
        {
          "name": "_amount",
          "type": "uint256"
        }
      ],
      "name": "transferIERC20Token",
      "outputs": [],
      "payable": false,
      "stateMutability": "nonpayable",
      "type": "function"
    },
    {
      "constant": false,
      "inputs": [
        {
          "name": "_tokenAddr",
          "type": "address"
        },
        {
          "name": "_wphtAddr",
          "type": "address"
        },
        {
          "name": "_amount",
          "type": "uint256"
        },
        {
          "name": "_runDeposit",
          "type": "bool"
        }
      ],
      "name": "hatchArtistToken",
      "outputs": [],
      "payable": false,
      "stateMutability": "nonpayable",
      "type": "function"
    },
    {
      "constant": false,
      "inputs": [
        {
          "name": "_tokenAddr",
          "type": "address"
        }
      ],
      "name": "claimArtistToken",
      "outputs": [],
      "payable": false,
      "stateMutability": "nonpayable",
      "type": "function"
    },
    {
      "constant": false,
      "inputs": [
        {
          "name": "_tokenAddr",
          "type": "address"
        }
      ],
      "name": "refundArtistToken",
      "outputs": [],
      "payable": false,
      "stateMutability": "nonpayable",
      "type": "function"
    },
    {
      "constant": false,
      "inputs": [
        {
          "name": "_tokenAddr",
          "type": "address"
        },
        {
          "name": "_amount",
          "type": "uint256"
        },
        {
          "name": "_runDeposit",
          "type": "bool"
        }
      ],
      "name": "buyArtistToken",
      "outputs": [],
      "payable": false,
      "stateMutability": "nonpayable",
      "type": "function"
    },
    {
      "constant": true,
      "inputs": [
        {
          "name": "_cid",
          "type": "bytes32"
        }
      ],
      "name": "hasFile",
      "outputs": [
        {
          "name": "",
          "type": "bool"
        }
      ],
      "payable": false,
      "stateMutability": "view",
      "type": "function"
    },
    {
      "constant": true,
      "inputs": [],
      "name": "getFiles",
      "outputs": [
        {
          "name": "",
          "type": "bytes32[]"
        }
      ],
      "payable": false,
      "stateMutability": "view",
      "type": "function"
    },
    {
      "constant": true,
      "inputs": [
        {
          "name": "_cid",
          "type": "bytes32"
        }
      ],
      "name": "getFileAcl",
      "outputs": [
        {
          "name": "",
          "type": "address"
        }
      ],
      "payable": false,
      "stateMutability": "view",
      "type": "function"
    },
    {
      "constant": false,
      "inputs": [
        {
          "name": "relayHub",
          "type": "address"
        }
      ],
      "name": "initialize",
      "outputs": [],
      "payable": false,
      "stateMutability": "nonpayable",
      "type": "function"
    },
    {
      "constant": false,
      "inputs": [],
      "name": "initialize",
      "outputs": [],
      "payable": false,
      "stateMutability": "nonpayable",
      "type": "function"
    },
    {
      "constant": true,
      "inputs": [
        {
          "name": "",
          "type": "address"
        },
        {
          "name": "",
          "type": "address"
        },
        {
          "name": "",
          "type": "bytes"
        },
        {
          "name": "",
          "type": "uint256"
        },
        {
          "name": "",
          "type": "uint256"
        },
        {
          "name": "",
          "type": "uint256"
        },
        {
          "name": "",
          "type": "uint256"
        },
        {
          "name": "",
          "type": "bytes"
        },
        {
          "name": "",
          "type": "uint256"
        }
      ],
      "name": "acceptRelayedCall",
      "outputs": [
        {
          "name": "",
          "type": "uint256"
        },
        {
          "name": "",
          "type": "bytes"
        }
      ],
      "payable": false,
      "stateMutability": "view",
      "type": "function"
    },
    {
      "constant": true,
      "inputs": [],
      "name": "getRecipientBalance",
      "outputs": [
        {
          "name": "",
          "type": "uint256"
        }
      ],
      "payable": false,
      "stateMutability": "view",
      "type": "function"
    },
    {
      "constant": true,
      "inputs": [],
      "name": "version",
      "outputs": [
        {
          "name": "",
          "type": "uint256"
        }
      ],
      "payable": false,
      "stateMutability": "pure",
      "type": "function"
    }
  ],
  "bytecode": "0x608060405234801561001057600080fd5b506040516020806130338339810180604052602081101561003057600080fd5b81019080805190602001909291905050508060338190806001815401808255809150509060018203906000526020600020016000909192909190916101000a81548173ffffffffffffffffffffffffffffffffffffffff021916908373ffffffffffffffffffffffffffffffffffffffff160217905550505050612f7a806100b96000396000f3fe6080604052600436106101655760003560e01c806374e861d6116100d15780639c77feee1161008a578063ac70905111610064578063ac70905114610a3e578063ad61ccd514610a91578063c4d66de814610b21578063e06e0e2214610b7257610165565b80639c77feee14610956578063a0e67e2b146109a7578063ac57041114610a1357610165565b806374e861d61461059e57806380274db7146105f55780638129fc1c1461068f57806383947ea0146106a6578063862e0bb6146108745780639a93e5dd146108fb57610165565b8063230b379011610123578063230b37901461036b5780632da96d73146103d457806331263386146104405780634e1b1e60146104a757806354fd4d50146105225780637065cb481461054d57610165565b80626b9f0e146101675780630bef429b146101e25780630cd865ec1461021d5780631072cbea1461026e578063148e168a146102c9578063173825d91461031a575b005b34801561017357600080fd5b506101e06004803603606081101561018a57600080fd5b81019080803573ffffffffffffffffffffffffffffffffffffffff169060200190929190803573ffffffffffffffffffffffffffffffffffffffff16906020019092919080359060200190929190505050610c18565b005b3480156101ee57600080fd5b5061021b6004803603602081101561020557600080fd5b8101908080359060200190929190505050610e44565b005b34801561022957600080fd5b5061026c6004803603602081101561024057600080fd5b81019080803573ffffffffffffffffffffffffffffffffffffffff169060200190929190505050611086565b005b34801561027a57600080fd5b506102c76004803603604081101561029157600080fd5b81019080803573ffffffffffffffffffffffffffffffffffffffff1690602001909291908035906020019092919050505061137a565b005b3480156102d557600080fd5b50610318600480360360208110156102ec57600080fd5b81019080803573ffffffffffffffffffffffffffffffffffffffff1690602001909291905050506114f5565b005b34801561032657600080fd5b506103696004803603602081101561033d57600080fd5b81019080803573ffffffffffffffffffffffffffffffffffffffff1690602001909291905050506115df565b005b34801561037757600080fd5b506103ba6004803603602081101561038e57600080fd5b81019080803573ffffffffffffffffffffffffffffffffffffffff169060200190929190505050611782565b604051808215151515815260200191505060405180910390f35b3480156103e057600080fd5b506103e961179a565b6040518080602001828103825283818151815260200191508051906020019060200280838360005b8381101561042c578082015181840152602081019050610411565b505050509050019250505060405180910390f35b34801561044c57600080fd5b506104a56004803603606081101561046357600080fd5b81019080803573ffffffffffffffffffffffffffffffffffffffff169060200190929190803590602001909291908035151590602001909291905050506117f2565b005b3480156104b357600080fd5b506104e0600480360360208110156104ca57600080fd5b8101908080359060200190929190505050611b27565b604051808273ffffffffffffffffffffffffffffffffffffffff1673ffffffffffffffffffffffffffffffffffffffff16815260200191505060405180910390f35b34801561052e57600080fd5b50610537611b8b565b6040518082815260200191505060405180910390f35b34801561055957600080fd5b5061059c6004803603602081101561057057600080fd5b81019080803573ffffffffffffffffffffffffffffffffffffffff169060200190929190505050611b94565b005b3480156105aa57600080fd5b506105b3611cd8565b604051808273ffffffffffffffffffffffffffffffffffffffff1673ffffffffffffffffffffffffffffffffffffffff16815260200191505060405180910390f35b34801561060157600080fd5b506106796004803603602081101561061857600080fd5b810190808035906020019064010000000081111561063557600080fd5b82018360208201111561064757600080fd5b8035906020019184600183028401116401000000008311171561066957600080fd5b9091929391929390505050611ce7565b6040518082815260200191505060405180910390f35b34801561069b57600080fd5b506106a4611dc9565b005b3480156106b257600080fd5b506107f260048036036101208110156106ca57600080fd5b81019080803573ffffffffffffffffffffffffffffffffffffffff169060200190929190803573ffffffffffffffffffffffffffffffffffffffff1690602001909291908035906020019064010000000081111561072757600080fd5b82018360208201111561073957600080fd5b8035906020019184600183028401116401000000008311171561075b57600080fd5b909192939192939080359060200190929190803590602001909291908035906020019092919080359060200190929190803590602001906401000000008111156107a457600080fd5b8201836020820111156107b657600080fd5b803590602001918460018302840111640100000000831117156107d857600080fd5b909192939192939080359060200190929190505050611ed0565b6040518083815260200180602001828103825283818151815260200191508051906020019080838360005b8381101561083857808201518184015260208101905061081d565b50505050905090810190601f1680156108655780820380516001836020036101000a031916815260200191505b50935050505060405180910390f35b34801561088057600080fd5b506108f96004803603608081101561089757600080fd5b81019080803573ffffffffffffffffffffffffffffffffffffffff169060200190929190803573ffffffffffffffffffffffffffffffffffffffff16906020019092919080359060200190929190803515159060200190929190505050611ef0565b005b34801561090757600080fd5b506109546004803603604081101561091e57600080fd5b8101908080359060200190929190803573ffffffffffffffffffffffffffffffffffffffff169060200190929190505050612119565b005b34801561096257600080fd5b506109a56004803603602081101561097957600080fd5b81019080803573ffffffffffffffffffffffffffffffffffffffff169060200190929190505050612353565b005b3480156109b357600080fd5b506109bc61252e565b6040518080602001828103825283818151815260200191508051906020019060200280838360005b838110156109ff5780820151818401526020810190506109e4565b505050509050019250505060405180910390f35b348015610a1f57600080fd5b50610a286125bc565b6040518082815260200191505060405180910390f35b348015610a4a57600080fd5b50610a7760048036036020811015610a6157600080fd5b8101908080359060200190929190505050612682565b604051808215151515815260200191505060405180910390f35b348015610a9d57600080fd5b50610aa661269a565b6040518080602001828103825283818151815260200191508051906020019080838360005b83811015610ae6578082015181840152602081019050610acb565b50505050905090810190601f168015610b135780820380516001836020036101000a031916815260200191505b509250505060405180910390f35b348015610b2d57600080fd5b50610b7060048036036020811015610b4457600080fd5b81019080803573ffffffffffffffffffffffffffffffffffffffff1690602001909291905050506126d7565b005b348015610b7e57600080fd5b50610c1660048036036080811015610b9557600080fd5b8101908080359060200190640100000000811115610bb257600080fd5b820183602082011115610bc457600080fd5b80359060200191846001830284011164010000000083111715610be657600080fd5b909192939192939080351515906020019092919080359060200190929190803590602001909291905050506127e8565b005b610c206128ca565b60011515610c2d82611782565b151514610c3957600080fd5b600073ffffffffffffffffffffffffffffffffffffffff168373ffffffffffffffffffffffffffffffffffffffff161415610cdc576040517f08c379a000000000000000000000000000000000000000000000000000000000815260040180806020018281038252601b8152602001807f496e76616c69642062656e65666963696172792061646472657373000000000081525060200191505060405180910390fd5b8373ffffffffffffffffffffffffffffffffffffffff1663a9059cbb84846040518363ffffffff1660e01b8152600401808373ffffffffffffffffffffffffffffffffffffffff1673ffffffffffffffffffffffffffffffffffffffff16815260200182815260200192505050602060405180830381600087803b158015610d6357600080fd5b505af1158015610d77573d6000803e3d6000fd5b505050506040513d6020811015610d8d57600080fd5b8101908080519060200190929190505050507f67f5ee3fcd02b5ac7bdb61265b0b6ad5809b06ee2e0988c32df34c67ed6aefcd848484604051808473ffffffffffffffffffffffffffffffffffffffff1673ffffffffffffffffffffffffffffffffffffffff1681526020018373ffffffffffffffffffffffffffffffffffffffff1673ffffffffffffffffffffffffffffffffffffffff168152602001828152602001935050505060405180910390a150505050565b610e4c6128ca565b60011515610e5982611782565b151514610e6557600080fd5b8160011515610e7382612682565b151514610e7f57600080fd5b600080610e8b8561291c565b915091506001151581151514610ea057600080fd5b600060358381548110610eaf57fe5b9060005260206000200160009054906101000a900473ffffffffffffffffffffffffffffffffffffffff169050603460016034805490500381548110610ef157fe5b906000526020600020015460348481548110610f0957fe5b9060005260206000200181905550603560016034805490500381548110610f2c57fe5b9060005260206000200160009054906101000a900473ffffffffffffffffffffffffffffffffffffffff1660358481548110610f6457fe5b9060005260206000200160006101000a81548173ffffffffffffffffffffffffffffffffffffffff021916908373ffffffffffffffffffffffffffffffffffffffff1602179055506034805480919060019003610fc19190612e01565b506035805480919060019003610fd79190612e2d565b507f18d0c92a01adb859e57b76c53f1801a82dd8f8419fac502b2a9b416c5d3999d46110016128ca565b8783604051808473ffffffffffffffffffffffffffffffffffffffff1673ffffffffffffffffffffffffffffffffffffffff1681526020018381526020018273ffffffffffffffffffffffffffffffffffffffff1673ffffffffffffffffffffffffffffffffffffffff168152602001935050505060405180910390a1505050505050565b61108e6128ca565b6001151561109b82611782565b1515146110a757600080fd5b6110b082611b94565b600060358054905011156112d85760008090505b60016035805490500381116112d657603581815481106110e057fe5b9060005260206000200160009054906101000a900473ffffffffffffffffffffffffffffffffffffffff1673ffffffffffffffffffffffffffffffffffffffff166335bb3e16846040518263ffffffff1660e01b8152600401808273ffffffffffffffffffffffffffffffffffffffff1673ffffffffffffffffffffffffffffffffffffffff168152602001915050600060405180830381600087803b15801561118957600080fd5b505af115801561119d573d6000803e3d6000fd5b505050507fb1d7980376ee442938a8f9cdc5c2b484565fdaeab23734357f65d747eaf23c0a603482815481106111cf57fe5b9060005260206000200154603583815481106111e757fe5b9060005260206000200160009054906101000a900473ffffffffffffffffffffffffffffffffffffffff168561121b6128ca565b604051808581526020018473ffffffffffffffffffffffffffffffffffffffff1673ffffffffffffffffffffffffffffffffffffffff1681526020018373ffffffffffffffffffffffffffffffffffffffff1673ffffffffffffffffffffffffffffffffffffffff1681526020018273ffffffffffffffffffffffffffffffffffffffff1673ffffffffffffffffffffffffffffffffffffffff16815260200194505050505060405180910390a180806001019150506110c4565b505b7f658a0f6969d7663ef009b782e098ec752cdf0beed99b9a188dd1d77d539a1a3e826113026128ca565b604051808373ffffffffffffffffffffffffffffffffffffffff1673ffffffffffffffffffffffffffffffffffffffff1681526020018273ffffffffffffffffffffffffffffffffffffffff1673ffffffffffffffffffffffffffffffffffffffff1681526020019250505060405180910390a15050565b6113826128ca565b6001151561138f82611782565b15151461139b57600080fd5b600073ffffffffffffffffffffffffffffffffffffffff168373ffffffffffffffffffffffffffffffffffffffff16141561143e576040517f08c379a000000000000000000000000000000000000000000000000000000000815260040180806020018281038252601b8152602001807f496e76616c69642062656e65666963696172792061646472657373000000000081525060200191505060405180910390fd5b8273ffffffffffffffffffffffffffffffffffffffff166108fc839081150290604051600060405180830381858888f19350505050158015611484573d6000803e3d6000fd5b507f9dd3045b6df532ed81beb2a333cec6249dafd3c2fc54c80c50155cb0e1a0ba1e8383604051808373ffffffffffffffffffffffffffffffffffffffff1673ffffffffffffffffffffffffffffffffffffffff1681526020018281526020019250505060405180910390a1505050565b6114fd6128ca565b6001151561150a82611782565b15151461151657600080fd5b600082905060008173ffffffffffffffffffffffffffffffffffffffff166348c54b9d6040518163ffffffff1660e01b8152600401602060405180830381600087803b15801561156557600080fd5b505af1158015611579573d6000803e3d6000fd5b505050506040513d602081101561158f57600080fd5b810190808051906020019092919050505090507ffe11244ccc2c0b43fe8b150e47015097234a496462ce356f01ddc7fa694f4504816040518082815260200191505060405180910390a150505050565b6115e76128ca565b600115156115f482611782565b15151461160057600080fd5b60016033805490501161161257600080fd5b60008061161e8461299b565b91509150600115158115151461163357600080fd5b60336001603380549050038154811061164857fe5b9060005260206000200160009054906101000a900473ffffffffffffffffffffffffffffffffffffffff166033838154811061168057fe5b9060005260206000200160006101000a81548173ffffffffffffffffffffffffffffffffffffffff021916908373ffffffffffffffffffffffffffffffffffffffff16021790555060338054809190600190036116dd9190612e2d565b507fe594d081b4382713733fe631966432c9cea5199afb2db5c3c1931f9f93003679846117086128ca565b604051808373ffffffffffffffffffffffffffffffffffffffff1673ffffffffffffffffffffffffffffffffffffffff1681526020018273ffffffffffffffffffffffffffffffffffffffff1673ffffffffffffffffffffffffffffffffffffffff1681526020019250505060405180910390a150505050565b60008061178e8361299b565b91505080915050919050565b606060348054806020026020016040519081016040528092919081815260200182805480156117e857602002820191906000526020600020905b8154815260200190600101908083116117d4575b5050505050905090565b6117fa6128ca565b6001151561180782611782565b15151461181357600080fd5b3073ffffffffffffffffffffffffffffffffffffffff16318311156118a0576040517f08c379a00000000000000000000000000000000000000000000000000000000081526004018080602001828103825260118152602001807f4e6f7420656e6f756768742066756e647300000000000000000000000000000081525060200191505060405180910390fd5b600084905060008173ffffffffffffffffffffffffffffffffffffffff1663c9828ae06040518163ffffffff1660e01b815260040160206040518083038186803b1580156118ed57600080fd5b505afa158015611901573d6000803e3d6000fd5b505050506040513d602081101561191757600080fd5b810190808051906020019092919050505090508315611992578073ffffffffffffffffffffffffffffffffffffffff1663d0e30db0866040518263ffffffff1660e01b81526004016000604051808303818588803b15801561197857600080fd5b505af115801561198c573d6000803e3d6000fd5b50505050505b8073ffffffffffffffffffffffffffffffffffffffff1663095ea7b387876040518363ffffffff1660e01b8152600401808373ffffffffffffffffffffffffffffffffffffffff1673ffffffffffffffffffffffffffffffffffffffff16815260200182815260200192505050602060405180830381600087803b158015611a1957600080fd5b505af1158015611a2d573d6000803e3d6000fd5b505050506040513d6020811015611a4357600080fd5b81019080805190602001909291905050505060008273ffffffffffffffffffffffffffffffffffffffff1663a0712d68876040518263ffffffff1660e01b815260040180828152602001915050602060405180830381600087803b158015611aaa57600080fd5b505af1158015611abe573d6000803e3d6000fd5b505050506040513d6020811015611ad457600080fd5b810190808051906020019092919050505090507f7ee2558e133354dfd47974426d36e85af456dc478949e0d387a4172806781cb6816040518082815260200191505060405180910390a150505050505050565b6000806000611b358461291c565b915091506001151581151514611b4a57600080fd5b60358281548110611b5757fe5b9060005260206000200160009054906101000a900473ffffffffffffffffffffffffffffffffffffffff1692505050919050565b60006003905090565b611b9c6128ca565b60011515611ba982611782565b151514611bb557600080fd5b8160001515611bc382611782565b151514611bcf57600080fd5b60338390806001815401808255809150509060018203906000526020600020016000909192909190916101000a81548173ffffffffffffffffffffffffffffffffffffffff021916908373ffffffffffffffffffffffffffffffffffffffff160217905550507fc82bdbbf677a2462f2a7e22e4ba9abd209496b69cd7b868b3b1d28f76e09a40a83611c5f6128ca565b604051808373ffffffffffffffffffffffffffffffffffffffff1673ffffffffffffffffffffffffffffffffffffffff1681526020018273ffffffffffffffffffffffffffffffffffffffff1673ffffffffffffffffffffffffffffffffffffffff1681526020019250505060405180910390a1505050565b6000611ce2612a49565b905090565b6000611cf1611cd8565b73ffffffffffffffffffffffffffffffffffffffff163373ffffffffffffffffffffffffffffffffffffffff1614611d74576040517f08c379a0000000000000000000000000000000000000000000000000000000008152600401808060200182810382526026815260200180612ea46026913960400191505060405180910390fd5b611dc183838080601f016020809104026020016040519081016040528093929190818152602001838380828437600081840152601f19601f82011690508083019250505050505050612a7a565b905092915050565b600060019054906101000a900460ff1680611de85750611de7612a81565b5b80611dff57506000809054906101000a900460ff16155b611e54576040517f08c379a000000000000000000000000000000000000000000000000000000000815260040180806020018281038252602e815260200180612ef5602e913960400191505060405180910390fd5b60008060019054906101000a900460ff161590508015611ea4576001600060016101000a81548160ff02191690831515021790555060016000806101000a81548160ff0219169083151502179055505b611eac612a92565b8015611ecd5760008060016101000a81548160ff0219169083151502179055505b50565b60006060611edc612bae565b915091509b509b9950505050505050505050565b611ef86128ca565b60011515611f0582611782565b151514611f1157600080fd5b600084905060008690508315611f83578173ffffffffffffffffffffffffffffffffffffffff1663d0e30db0866040518263ffffffff1660e01b81526004016000604051808303818588803b158015611f6957600080fd5b505af1158015611f7d573d6000803e3d6000fd5b50505050505b8173ffffffffffffffffffffffffffffffffffffffff1663095ea7b388876040518363ffffffff1660e01b8152600401808373ffffffffffffffffffffffffffffffffffffffff1673ffffffffffffffffffffffffffffffffffffffff16815260200182815260200192505050602060405180830381600087803b15801561200a57600080fd5b505af115801561201e573d6000803e3d6000fd5b505050506040513d602081101561203457600080fd5b81019080805190602001909291905050505060008173ffffffffffffffffffffffffffffffffffffffff1663c576a45b876040518263ffffffff1660e01b815260040180828152602001915050602060405180830381600087803b15801561209b57600080fd5b505af11580156120af573d6000803e3d6000fd5b505050506040513d60208110156120c557600080fd5b810190808051906020019092919050505090507f92e9286b02c7373ff8089a323b1bdd0666f3084ffd971c365388d292f1b604d4816040518082815260200191505060405180910390a15050505050505050565b6121216128ca565b6001151561212e82611782565b15151461213a57600080fd5b826000151561214882612682565b15151461215457600080fd5b8273ffffffffffffffffffffffffffffffffffffffff166335950fed306040518263ffffffff1660e01b8152600401808273ffffffffffffffffffffffffffffffffffffffff1673ffffffffffffffffffffffffffffffffffffffff16815260200191505060206040518083038186803b1580156121d157600080fd5b505afa1580156121e5573d6000803e3d6000fd5b505050506040513d60208110156121fb57600080fd5b810190808051906020019092919050505061221557600080fd5b603484908060018154018082558091505090600182039060005260206000200160009091929091909150555060358390806001815401808255809150509060018203906000526020600020016000909192909190916101000a81548173ffffffffffffffffffffffffffffffffffffffff021916908373ffffffffffffffffffffffffffffffffffffffff160217905550507fcbc3c5c4939f7c16221db31308c42ed19507b66ff7a18673a261ba7268bc9cb76122d06128ca565b8585604051808473ffffffffffffffffffffffffffffffffffffffff1673ffffffffffffffffffffffffffffffffffffffff1681526020018381526020018273ffffffffffffffffffffffffffffffffffffffff1673ffffffffffffffffffffffffffffffffffffffff168152602001935050505060405180910390a150505050565b61235b6128ca565b6001151561236882611782565b15151461237457600080fd5b600082905060008173ffffffffffffffffffffffffffffffffffffffff1663c9828ae06040518163ffffffff1660e01b815260040160206040518083038186803b1580156123c157600080fd5b505afa1580156123d5573d6000803e3d6000fd5b505050506040513d60208110156123eb57600080fd5b8101908080519060200190929190505050905060008273ffffffffffffffffffffffffffffffffffffffff1663590e1ae36040518163ffffffff1660e01b8152600401602060405180830381600087803b15801561244857600080fd5b505af115801561245c573d6000803e3d6000fd5b505050506040513d602081101561247257600080fd5b810190808051906020019092919050505090508173ffffffffffffffffffffffffffffffffffffffff16632e1a7d4d826040518263ffffffff1660e01b815260040180828152602001915050600060405180830381600087803b1580156124d857600080fd5b505af11580156124ec573d6000803e3d6000fd5b505050507feaf5918160130e50241b919847035e8191635bd54670a29c7e94c3560b66467a816040518082815260200191505060405180910390a15050505050565b606060338054806020026020016040519081016040528092919081815260200182805480156125b257602002820191906000526020600020905b8160009054906101000a900473ffffffffffffffffffffffffffffffffffffffff1673ffffffffffffffffffffffffffffffffffffffff1681526020019060010190808311612568575b5050505050905090565b60006125c6611cd8565b73ffffffffffffffffffffffffffffffffffffffff166370a08231306040518263ffffffff1660e01b8152600401808273ffffffffffffffffffffffffffffffffffffffff1673ffffffffffffffffffffffffffffffffffffffff16815260200191505060206040518083038186803b15801561264257600080fd5b505afa158015612656573d6000803e3d6000fd5b505050506040513d602081101561266c57600080fd5b8101908080519060200190929190505050905090565b60008061268e8361291c565b91505080915050919050565b60606040518060400160405280600581526020017f312e302e30000000000000000000000000000000000000000000000000000000815250905090565b600060019054906101000a900460ff16806126f657506126f5612a81565b5b8061270d57506000809054906101000a900460ff16155b612762576040517f08c379a000000000000000000000000000000000000000000000000000000000815260040180806020018281038252602e815260200180612ef5602e913960400191505060405180910390fd5b60008060019054906101000a900460ff1615905080156127b2576001600060016101000a81548160ff02191690831515021790555060016000806101000a81548160ff0219169083151502179055505b6127ba611dc9565b6127c382612bd2565b80156127e45760008060016101000a81548160ff0219169083151502179055505b5050565b6127f0611cd8565b73ffffffffffffffffffffffffffffffffffffffff163373ffffffffffffffffffffffffffffffffffffffff1614612873576040517f08c379a0000000000000000000000000000000000000000000000000000000008152600401808060200182810382526026815260200180612ea46026913960400191505060405180910390fd5b6128c385858080601f016020809104026020016040519081016040528093929190818152602001838380828437600081840152601f19601f82011690508083019250505050505050848484612d73565b5050505050565b60006128d4612a49565b73ffffffffffffffffffffffffffffffffffffffff163373ffffffffffffffffffffffffffffffffffffffff161461290e57339050612919565b612916612d79565b90505b90565b6000806000603480549050141561293c5760008081915091509150612996565b60008090505b600160348054905003811161298a57836034828154811061295f57fe5b9060005260206000200154141561297d578060019250925050612996565b8080600101915050612942565b50600080819150915091505b915091565b60008060008090505b6001603380549050038111612a38578373ffffffffffffffffffffffffffffffffffffffff16603382815481106129d757fe5b9060005260206000200160009054906101000a900473ffffffffffffffffffffffffffffffffffffffff1673ffffffffffffffffffffffffffffffffffffffff161415612a2b578060019250925050612a44565b80806001019150506129a4565b50600080819150915091505b915091565b6000807f06b7792c761dcc05af1761f0315ce8b01ac39c16cc934eb0b2f7a8e71414f26260001b9050805491505090565b6000919050565b600080303b90506000811491505090565b600060019054906101000a900460ff1680612ab15750612ab0612a81565b5b80612ac857506000809054906101000a900460ff16155b612b1d576040517f08c379a000000000000000000000000000000000000000000000000000000000815260040180806020018281038252602e815260200180612ef5602e913960400191505060405180910390fd5b60008060019054906101000a900460ff161590508015612b6d576001600060016101000a81548160ff02191690831515021790555060016000806101000a81548160ff0219169083151502179055505b612b8a73d216153c06e857cd7f72665e0af1d7d82172f494612bd2565b8015612bab5760008060016101000a81548160ff0219169083151502179055505b50565b60006060612bca60405180602001604052806000815250612df1565b915091509091565b6000612bdc612a49565b9050600073ffffffffffffffffffffffffffffffffffffffff168273ffffffffffffffffffffffffffffffffffffffff161415612c64576040517f08c379a000000000000000000000000000000000000000000000000000000000815260040180806020018281038252602c815260200180612f23602c913960400191505060405180910390fd5b8073ffffffffffffffffffffffffffffffffffffffff168273ffffffffffffffffffffffffffffffffffffffff161415612ce9576040517f08c379a000000000000000000000000000000000000000000000000000000000815260040180806020018281038252602b815260200180612eca602b913960400191505060405180910390fd5b8173ffffffffffffffffffffffffffffffffffffffff168173ffffffffffffffffffffffffffffffffffffffff167fb9f84b8e65164b14439ae3620df0a4d8786d896996c0282b683f9d8c08f046e860405160405180910390a360007f06b7792c761dcc05af1761f0315ce8b01ac39c16cc934eb0b2f7a8e71414f26260001b9050828155505050565b50505050565b600060606000368080601f016020809104026020016040519081016040528093929190818152602001838380828437600081840152601f19601f820116905080830192505050505050509050600080369050905073ffffffffffffffffffffffffffffffffffffffff81830151169250829250505090565b6000606060008391509150915091565b815481835581811115612e2857818360005260206000209182019101612e279190612e59565b5b505050565b815481835581811115612e5457818360005260206000209182019101612e539190612e7e565b5b505050565b612e7b91905b80821115612e77576000816000905550600101612e5f565b5090565b90565b612ea091905b80821115612e9c576000816000905550600101612e84565b5090565b9056fe47534e426f756e636572426173653a2063616c6c6572206973206e6f742052656c617948756247534e436f6e746578743a206e65772052656c6179487562206973207468652063757272656e74206f6e65436f6e747261637420696e7374616e63652068617320616c7265616479206265656e20696e697469616c697a656447534e436f6e746578743a206e65772052656c617948756220697320746865207a65726f2061646472657373a165627a7a72305820b63fc722ff47696abc252dac0c7ccb4b853097ef0aa6ac85252ec572ffaf4dd10029",
  "source": "pragma solidity ^0.5.0;\n\nimport \"@openzeppelin/upgrades/contracts/Initializable.sol\";\n\nimport \"./utils/GSNMultiOwnableRecipient.sol\";\nimport \"./bondingcurve/ArtistToken.sol\";\nimport \"./bondingcurve/vendor/ERC20/IERC20.sol\";\nimport \"./bondingcurve/vendor/ERC20/WPHT.sol\";\nimport \"./Acl.sol\";\n\n/**\n * @title Profile groups together all user's SmartVault activities and enables data control recovery\n * @author Lukas Lukac, Lightstreams, 24.9.2019\n */\ncontract GSNProfile is Initializable, GSNMultiOwnableRecipient {\n    // @dev Base58 decoded CID is stored WITHOUT the leading \"Qm\" to optimise storage space for 32 bytes as SmartVault only uses CID v0.\n    bytes32[] files;\n    address[] acls;\n\n    event FileAdded(address owner, bytes32 cid, address acl);\n    event FileRemoved(address owner, bytes32 cid, address acl);\n    event FileRecovered(bytes32 cid, address acl, address newOwner, address byOwner);\n    event OwnerRecovered(address newOwner, address byOwner);\n\n    event HatchedArtistTokens(uint256 amount);\n    event ClaimedArtistTokens(uint256 amount);\n    event RefundedTokens(uint256 amount);\n    event BoughtArtistTokens(uint256 amount);\n\n    event TransferToken(address beneficiary, uint256 amount);\n    event TransferIERC20Token(address wphtAddr, address beneficiary, uint256 amount);\n\n    modifier fileExists(bytes32 _cid) {\n        require(hasFile(_cid) == true);\n        _;\n    }\n\n    modifier fileNotExists(bytes32 _cid) {\n        require(hasFile(_cid) == false);\n        _;\n    }\n\n    constructor(address _owner) public GSNMultiOwnableRecipient(_owner) {\n    }\n\n    function() payable external {}\n\n    function addFile(bytes32 _cid, address _acl) public isOwner(_msgSender()) fileNotExists(_cid) {\n        require(ACL(_acl).hasAdmin(address(this)));\n\n        files.push(_cid);\n        acls.push(_acl);\n\n        emit FileAdded(_msgSender(), _cid, _acl);\n    }\n\n    function removeFile(bytes32 _cid) public isOwner(_msgSender()) fileExists(_cid) {\n        (uint256 fileIndex, bool exists) = getFileIndex(_cid);\n        require(exists == true);\n\n        address acl = acls[fileIndex];\n\n        files[fileIndex] = files[files.length - 1];\n        acls[fileIndex] = acls[files.length - 1];\n        files.length--;\n        acls.length--;\n\n        emit FileRemoved(_msgSender(), _cid, acl);\n    }\n\n    function recover(address _newOwner) public isOwner(_msgSender()) {\n        addOwner(_newOwner);\n\n        if (acls.length > 0) {\n            for (uint i = 0; i <= acls.length - 1; i++) {\n                ACL(acls[i]).grantAdmin(_newOwner);\n                emit FileRecovered(files[i], acls[i], _newOwner, _msgSender());\n            }\n        }\n\n        emit OwnerRecovered(_newOwner, _msgSender());\n    }\n\n    function transferToken(address payable _beneficiary, uint256 _amount) public isOwner(_msgSender()) {\n        require(_beneficiary != address(0), \"Invalid beneficiary address\");\n        _beneficiary.transfer(_amount);\n        emit TransferToken(_beneficiary, _amount);\n    }\n\n    function transferIERC20Token(address payable _tokenAddr, address payable _beneficiary, uint256 _amount) public isOwner(_msgSender()) {\n        require(_beneficiary != address(0), \"Invalid beneficiary address\");\n\n        IERC20(_tokenAddr).transfer(_beneficiary, _amount);\n        emit TransferIERC20Token(_tokenAddr, _beneficiary, _amount);\n    }\n\n    function hatchArtistToken(address _tokenAddr, address payable _wphtAddr, uint256 _amount, bool _runDeposit) public isOwner(_msgSender()) {\n        WPHT wphtInstance = WPHT(_wphtAddr);\n        ArtistToken tokenInstance = ArtistToken(_tokenAddr);\n        if (_runDeposit) {\n            wphtInstance.deposit.value(_amount)();\n        }\n\n        wphtInstance.approve(_tokenAddr, _amount);\n        uint256 hatchedAmount = tokenInstance.hatchContribute(_amount);\n        emit HatchedArtistTokens(hatchedAmount);\n    }\n\n    function claimArtistToken(address _tokenAddr) public isOwner(_msgSender()) {\n        ArtistToken tokenInstance = ArtistToken(_tokenAddr);\n        uint256 unlockAmount = tokenInstance.claimTokens();\n        emit ClaimedArtistTokens(unlockAmount);\n    }\n\n    function refundArtistToken(address _tokenAddr) public isOwner(_msgSender()) {\n        ArtistToken tokenInstance = ArtistToken(_tokenAddr);\n        WPHT wphtInstance = WPHT(address(uint160(address(tokenInstance.externalToken()))));\n        uint256 refundedAmount = tokenInstance.refund();\n        wphtInstance.withdraw(refundedAmount);\n        emit RefundedTokens(refundedAmount);\n    }\n\n    function buyArtistToken(address _tokenAddr, uint256 _amount, bool _runDeposit) public isOwner(_msgSender()) {\n        require(_amount <= address(this).balance, \"Not enought funds\");\n        ArtistToken tokenInstance = ArtistToken(_tokenAddr);\n        WPHT wphtInstance = WPHT(address(uint160(address(tokenInstance.externalToken()))));\n        if (_runDeposit) {\n            wphtInstance.deposit.value(_amount)();\n        }\n\n        wphtInstance.approve(_tokenAddr, _amount);\n        uint256 boughtAmount = tokenInstance.mint(_amount);\n        emit BoughtArtistTokens(boughtAmount);\n    }\n\n    /*\n     * READ-ONLY METHODS\n     */\n\n    function hasFile(bytes32 _cid) view public returns (bool) {\n        (, bool exists) = getFileIndex(_cid);\n\n        return exists;\n    }\n\n    function getFiles() view public returns (bytes32[] memory) {\n        return files;\n    }\n\n    function getFileAcl(bytes32 _cid) public view returns (address) {\n        (uint256 fileIndex, bool exists) = getFileIndex(_cid);\n        require(exists == true);\n\n        return acls[fileIndex];\n    }\n\n    function getFileIndex(bytes32 _cid) internal view returns (uint256 index, bool exists) {\n        if (files.length == 0) {\n            return (0, false);\n        }\n\n        for (uint i = 0; i <= files.length - 1; i++) {\n            if (files[i] == _cid) {\n                return (i, true);\n            }\n        }\n\n        return (0, false);\n    }\n\n    // GSN ACTIVATION\n    function initialize(address relayHub) public initializer {\n        GSNRecipient.initialize();\n        _upgradeRelayHub(relayHub);\n    }\n\n    function acceptRelayedCall(\n        address,\n        address,\n        bytes calldata,\n        uint256,\n        uint256,\n        uint256,\n        uint256,\n        bytes calldata,\n        uint256\n    ) external view returns (uint256, bytes memory) {\n        return _approveRelayedCall();\n    }\n\n    function getRecipientBalance() public view returns (uint) {\n        return IRelayHub(getHubAddr()).balanceOf(address(this));\n    }\n\n    function version() public pure returns (uint256) {\n        return 3;\n    }\n}\n",
  "sourcePath": "/home/ggarrido/lightstreams/workspace/lightstreams-js-sdk/contracts/GSNProfile.sol",
  "compiler": {
    "name": "solc",
    "version": "0.5.8+commit.23d335f2.Emscripten.clang"
  },
  "schemaVersion": "3.0.23",
  "updatedAt": "2020-03-04T12:56:10.229Z",
  "devdoc": {
    "author": "Lukas Lukac, Lightstreams, 24.9.2019",
    "methods": {
      "postRelayedCall(bytes,bool,uint256,bytes32)": {
        "details": "See `IRelayRecipient.postRelayedCall`.     * This function should not be overriden directly, use `_postRelayedCall` instead.     * * Requirements:     * - the caller must be the `RelayHub` contract."
      },
      "preRelayedCall(bytes)": {
        "details": "See `IRelayRecipient.preRelayedCall`.     * This function should not be overriden directly, use `_preRelayedCall` instead.     * * Requirements:     * - the caller must be the `RelayHub` contract."
      }
    },
    "title": "Profile groups together all user's SmartVault activities and enables data control recovery"
  },
  "userdoc": {
    "methods": {}
  }
}