{
  "contractName": "GSNProfile",
  "abi": [
    {
      "constant": false,
      "inputs": [
        {
          "name": "_owner",
          "type": "address"
        }
      ],
      "name": "removeOwner",
      "outputs": [],
      "payable": false,
      "stateMutability": "nonpayable",
      "type": "function"
    },
    {
      "constant": true,
      "inputs": [
        {
          "name": "_owner",
          "type": "address"
        }
      ],
      "name": "hasOwner",
      "outputs": [
        {
          "name": "",
          "type": "bool"
        }
      ],
      "payable": false,
      "stateMutability": "view",
      "type": "function"
    },
    {
      "constant": false,
      "inputs": [
        {
          "name": "_newOwner",
          "type": "address"
        }
      ],
      "name": "addOwner",
      "outputs": [],
      "payable": false,
      "stateMutability": "nonpayable",
      "type": "function"
    },
    {
      "constant": true,
      "inputs": [],
      "name": "getHubAddr",
      "outputs": [
        {
          "name": "",
          "type": "address"
        }
      ],
      "payable": false,
      "stateMutability": "view",
      "type": "function"
    },
    {
      "constant": false,
      "inputs": [
        {
          "name": "context",
          "type": "bytes"
        }
      ],
      "name": "preRelayedCall",
      "outputs": [
        {
          "name": "",
          "type": "bytes32"
        }
      ],
      "payable": false,
      "stateMutability": "nonpayable",
      "type": "function"
    },
    {
      "constant": true,
      "inputs": [],
      "name": "getOwners",
      "outputs": [
        {
          "name": "",
          "type": "address[]"
        }
      ],
      "payable": false,
      "stateMutability": "view",
      "type": "function"
    },
    {
      "constant": true,
      "inputs": [],
      "name": "relayHubVersion",
      "outputs": [
        {
          "name": "",
          "type": "string"
        }
      ],
      "payable": false,
      "stateMutability": "view",
      "type": "function"
    },
    {
      "constant": false,
      "inputs": [
        {
          "name": "context",
          "type": "bytes"
        },
        {
          "name": "success",
          "type": "bool"
        },
        {
          "name": "actualCharge",
          "type": "uint256"
        },
        {
          "name": "preRetVal",
          "type": "bytes32"
        }
      ],
      "name": "postRelayedCall",
      "outputs": [],
      "payable": false,
      "stateMutability": "nonpayable",
      "type": "function"
    },
    {
      "inputs": [
        {
          "name": "_owner",
          "type": "address"
        }
      ],
      "payable": false,
      "stateMutability": "nonpayable",
      "type": "constructor"
    },
    {
      "anonymous": false,
      "inputs": [
        {
          "indexed": false,
          "name": "owner",
          "type": "address"
        },
        {
          "indexed": false,
          "name": "cid",
          "type": "bytes32"
        },
        {
          "indexed": false,
          "name": "acl",
          "type": "address"
        }
      ],
      "name": "FileAdded",
      "type": "event"
    },
    {
      "anonymous": false,
      "inputs": [
        {
          "indexed": false,
          "name": "owner",
          "type": "address"
        },
        {
          "indexed": false,
          "name": "cid",
          "type": "bytes32"
        },
        {
          "indexed": false,
          "name": "acl",
          "type": "address"
        }
      ],
      "name": "FileRemoved",
      "type": "event"
    },
    {
      "anonymous": false,
      "inputs": [
        {
          "indexed": false,
          "name": "cid",
          "type": "bytes32"
        },
        {
          "indexed": false,
          "name": "acl",
          "type": "address"
        },
        {
          "indexed": false,
          "name": "newOwner",
          "type": "address"
        },
        {
          "indexed": false,
          "name": "byOwner",
          "type": "address"
        }
      ],
      "name": "FileRecovered",
      "type": "event"
    },
    {
      "anonymous": false,
      "inputs": [
        {
          "indexed": false,
          "name": "newOwner",
          "type": "address"
        },
        {
          "indexed": false,
          "name": "byOwner",
          "type": "address"
        }
      ],
      "name": "OwnerRecovered",
      "type": "event"
    },
    {
      "anonymous": false,
      "inputs": [
        {
          "indexed": false,
          "name": "newOwner",
          "type": "address"
        },
        {
          "indexed": false,
          "name": "byOwner",
          "type": "address"
        }
      ],
      "name": "OwnerAdded",
      "type": "event"
    },
    {
      "anonymous": false,
      "inputs": [
        {
          "indexed": false,
          "name": "removedOwner",
          "type": "address"
        },
        {
          "indexed": false,
          "name": "byOwner",
          "type": "address"
        }
      ],
      "name": "OwnerRemoved",
      "type": "event"
    },
    {
      "anonymous": false,
      "inputs": [
        {
          "indexed": true,
          "name": "oldRelayHub",
          "type": "address"
        },
        {
          "indexed": true,
          "name": "newRelayHub",
          "type": "address"
        }
      ],
      "name": "RelayHubChanged",
      "type": "event"
    },
    {
      "constant": false,
      "inputs": [
        {
          "name": "_cid",
          "type": "bytes32"
        },
        {
          "name": "_acl",
          "type": "address"
        }
      ],
      "name": "addFile",
      "outputs": [],
      "payable": false,
      "stateMutability": "nonpayable",
      "type": "function"
    },
    {
      "constant": false,
      "inputs": [
        {
          "name": "_cid",
          "type": "bytes32"
        }
      ],
      "name": "removeFile",
      "outputs": [],
      "payable": false,
      "stateMutability": "nonpayable",
      "type": "function"
    },
    {
      "constant": true,
      "inputs": [
        {
          "name": "_cid",
          "type": "bytes32"
        }
      ],
      "name": "hasFile",
      "outputs": [
        {
          "name": "",
          "type": "bool"
        }
      ],
      "payable": false,
      "stateMutability": "view",
      "type": "function"
    },
    {
      "constant": true,
      "inputs": [],
      "name": "getFiles",
      "outputs": [
        {
          "name": "",
          "type": "bytes32[]"
        }
      ],
      "payable": false,
      "stateMutability": "view",
      "type": "function"
    },
    {
      "constant": true,
      "inputs": [
        {
          "name": "_cid",
          "type": "bytes32"
        }
      ],
      "name": "getFileAcl",
      "outputs": [
        {
          "name": "",
          "type": "address"
        }
      ],
      "payable": false,
      "stateMutability": "view",
      "type": "function"
    },
    {
      "constant": false,
      "inputs": [
        {
          "name": "_newOwner",
          "type": "address"
        }
      ],
      "name": "recover",
      "outputs": [],
      "payable": false,
      "stateMutability": "nonpayable",
      "type": "function"
    },
    {
      "constant": false,
      "inputs": [
        {
          "name": "relayHub",
          "type": "address"
        }
      ],
      "name": "initialize",
      "outputs": [],
      "payable": false,
      "stateMutability": "nonpayable",
      "type": "function"
    },
    {
      "constant": false,
      "inputs": [],
      "name": "initialize",
      "outputs": [],
      "payable": false,
      "stateMutability": "nonpayable",
      "type": "function"
    },
    {
      "constant": true,
      "inputs": [
        {
          "name": "",
          "type": "address"
        },
        {
          "name": "",
          "type": "address"
        },
        {
          "name": "",
          "type": "bytes"
        },
        {
          "name": "",
          "type": "uint256"
        },
        {
          "name": "",
          "type": "uint256"
        },
        {
          "name": "",
          "type": "uint256"
        },
        {
          "name": "",
          "type": "uint256"
        },
        {
          "name": "",
          "type": "bytes"
        },
        {
          "name": "",
          "type": "uint256"
        }
      ],
      "name": "acceptRelayedCall",
      "outputs": [
        {
          "name": "",
          "type": "uint256"
        },
        {
          "name": "",
          "type": "bytes"
        }
      ],
      "payable": false,
      "stateMutability": "view",
      "type": "function"
    },
    {
      "constant": true,
      "inputs": [],
      "name": "getRecipientBalance",
      "outputs": [
        {
          "name": "",
          "type": "uint256"
        }
      ],
      "payable": false,
      "stateMutability": "view",
      "type": "function"
    },
    {
      "constant": true,
      "inputs": [],
      "name": "version",
      "outputs": [
        {
          "name": "",
          "type": "uint256"
        }
      ],
      "payable": false,
      "stateMutability": "pure",
      "type": "function"
    }
  ],
  "bytecode": "0x608060405234801561001057600080fd5b506040516020806120cb8339810180604052602081101561003057600080fd5b81019080805190602001909291905050508060338190806001815401808255809150509060018203906000526020600020016000909192909190916101000a81548173ffffffffffffffffffffffffffffffffffffffff021916908373ffffffffffffffffffffffffffffffffffffffff160217905550505050612012806100b96000396000f3fe608060405234801561001057600080fd5b50600436106101215760003560e01c806380274db7116100ad578063ac57041111610071578063ac570411146106b6578063ac709051146106d4578063ad61ccd51461071a578063c4d66de81461079d578063e06e0e22146107e157610121565b806380274db7146103b15780638129fc1c1461043e57806383947ea0146104485780639a93e5dd14610609578063a0e67e2b1461065757610121565b80632da96d73116100f45780632da96d73146102385780634e1b1e601461029757806354fd4d50146103055780637065cb481461032357806374e861d61461036757610121565b80630bef429b146101265780630cd865ec14610154578063173825d914610198578063230b3790146101dc575b600080fd5b6101526004803603602081101561013c57600080fd5b810190808035906020019092919050505061087a565b005b6101966004803603602081101561016a57600080fd5b81019080803573ffffffffffffffffffffffffffffffffffffffff169060200190929190505050610abc565b005b6101da600480360360208110156101ae57600080fd5b81019080803573ffffffffffffffffffffffffffffffffffffffff169060200190929190505050610db0565b005b61021e600480360360208110156101f257600080fd5b81019080803573ffffffffffffffffffffffffffffffffffffffff169060200190929190505050610f53565b604051808215151515815260200191505060405180910390f35b610240610f6b565b6040518080602001828103825283818151815260200191508051906020019060200280838360005b83811015610283578082015181840152602081019050610268565b505050509050019250505060405180910390f35b6102c3600480360360208110156102ad57600080fd5b8101908080359060200190929190505050610fc3565b604051808273ffffffffffffffffffffffffffffffffffffffff1673ffffffffffffffffffffffffffffffffffffffff16815260200191505060405180910390f35b61030d611027565b6040518082815260200191505060405180910390f35b6103656004803603602081101561033957600080fd5b81019080803573ffffffffffffffffffffffffffffffffffffffff169060200190929190505050611030565b005b61036f611174565b604051808273ffffffffffffffffffffffffffffffffffffffff1673ffffffffffffffffffffffffffffffffffffffff16815260200191505060405180910390f35b610428600480360360208110156103c757600080fd5b81019080803590602001906401000000008111156103e457600080fd5b8201836020820111156103f657600080fd5b8035906020019184600183028401116401000000008311171561041857600080fd5b9091929391929390505050611183565b6040518082815260200191505060405180910390f35b610446611265565b005b610587600480360361012081101561045f57600080fd5b81019080803573ffffffffffffffffffffffffffffffffffffffff169060200190929190803573ffffffffffffffffffffffffffffffffffffffff169060200190929190803590602001906401000000008111156104bc57600080fd5b8201836020820111156104ce57600080fd5b803590602001918460018302840111640100000000831117156104f057600080fd5b9091929391929390803590602001909291908035906020019092919080359060200190929190803590602001909291908035906020019064010000000081111561053957600080fd5b82018360208201111561054b57600080fd5b8035906020019184600183028401116401000000008311171561056d57600080fd5b90919293919293908035906020019092919050505061136c565b6040518083815260200180602001828103825283818151815260200191508051906020019080838360005b838110156105cd5780820151818401526020810190506105b2565b50505050905090810190601f1680156105fa5780820380516001836020036101000a031916815260200191505b50935050505060405180910390f35b6106556004803603604081101561061f57600080fd5b8101908080359060200190929190803573ffffffffffffffffffffffffffffffffffffffff16906020019092919050505061138c565b005b61065f6115c6565b6040518080602001828103825283818151815260200191508051906020019060200280838360005b838110156106a2578082015181840152602081019050610687565b505050509050019250505060405180910390f35b6106be611654565b6040518082815260200191505060405180910390f35b610700600480360360208110156106ea57600080fd5b810190808035906020019092919050505061171a565b604051808215151515815260200191505060405180910390f35b610722611732565b6040518080602001828103825283818151815260200191508051906020019080838360005b83811015610762578082015181840152602081019050610747565b50505050905090810190601f16801561078f5780820380516001836020036101000a031916815260200191505b509250505060405180910390f35b6107df600480360360208110156107b357600080fd5b81019080803573ffffffffffffffffffffffffffffffffffffffff16906020019092919050505061176f565b005b610878600480360360808110156107f757600080fd5b810190808035906020019064010000000081111561081457600080fd5b82018360208201111561082657600080fd5b8035906020019184600183028401116401000000008311171561084857600080fd5b90919293919293908035151590602001909291908035906020019092919080359060200190929190505050611880565b005b610882611962565b6001151561088f82610f53565b15151461089b57600080fd5b81600115156108a98261171a565b1515146108b557600080fd5b6000806108c1856119b4565b9150915060011515811515146108d657600080fd5b6000603583815481106108e557fe5b9060005260206000200160009054906101000a900473ffffffffffffffffffffffffffffffffffffffff16905060346001603480549050038154811061092757fe5b90600052602060002001546034848154811061093f57fe5b906000526020600020018190555060356001603480549050038154811061096257fe5b9060005260206000200160009054906101000a900473ffffffffffffffffffffffffffffffffffffffff166035848154811061099a57fe5b9060005260206000200160006101000a81548173ffffffffffffffffffffffffffffffffffffffff021916908373ffffffffffffffffffffffffffffffffffffffff16021790555060348054809190600190036109f79190611e99565b506035805480919060019003610a0d9190611ec5565b507f18d0c92a01adb859e57b76c53f1801a82dd8f8419fac502b2a9b416c5d3999d4610a37611962565b8783604051808473ffffffffffffffffffffffffffffffffffffffff1673ffffffffffffffffffffffffffffffffffffffff1681526020018381526020018273ffffffffffffffffffffffffffffffffffffffff1673ffffffffffffffffffffffffffffffffffffffff168152602001935050505060405180910390a1505050505050565b610ac4611962565b60011515610ad182610f53565b151514610add57600080fd5b610ae682611030565b60006035805490501115610d0e5760008090505b6001603580549050038111610d0c5760358181548110610b1657fe5b9060005260206000200160009054906101000a900473ffffffffffffffffffffffffffffffffffffffff1673ffffffffffffffffffffffffffffffffffffffff166335bb3e16846040518263ffffffff1660e01b8152600401808273ffffffffffffffffffffffffffffffffffffffff1673ffffffffffffffffffffffffffffffffffffffff168152602001915050600060405180830381600087803b158015610bbf57600080fd5b505af1158015610bd3573d6000803e3d6000fd5b505050507fb1d7980376ee442938a8f9cdc5c2b484565fdaeab23734357f65d747eaf23c0a60348281548110610c0557fe5b906000526020600020015460358381548110610c1d57fe5b9060005260206000200160009054906101000a900473ffffffffffffffffffffffffffffffffffffffff1685610c51611962565b604051808581526020018473ffffffffffffffffffffffffffffffffffffffff1673ffffffffffffffffffffffffffffffffffffffff1681526020018373ffffffffffffffffffffffffffffffffffffffff1673ffffffffffffffffffffffffffffffffffffffff1681526020018273ffffffffffffffffffffffffffffffffffffffff1673ffffffffffffffffffffffffffffffffffffffff16815260200194505050505060405180910390a18080600101915050610afa565b505b7f658a0f6969d7663ef009b782e098ec752cdf0beed99b9a188dd1d77d539a1a3e82610d38611962565b604051808373ffffffffffffffffffffffffffffffffffffffff1673ffffffffffffffffffffffffffffffffffffffff1681526020018273ffffffffffffffffffffffffffffffffffffffff1673ffffffffffffffffffffffffffffffffffffffff1681526020019250505060405180910390a15050565b610db8611962565b60011515610dc582610f53565b151514610dd157600080fd5b600160338054905011610de357600080fd5b600080610def84611a33565b915091506001151581151514610e0457600080fd5b603360016033805490500381548110610e1957fe5b9060005260206000200160009054906101000a900473ffffffffffffffffffffffffffffffffffffffff1660338381548110610e5157fe5b9060005260206000200160006101000a81548173ffffffffffffffffffffffffffffffffffffffff021916908373ffffffffffffffffffffffffffffffffffffffff1602179055506033805480919060019003610eae9190611ec5565b507fe594d081b4382713733fe631966432c9cea5199afb2db5c3c1931f9f9300367984610ed9611962565b604051808373ffffffffffffffffffffffffffffffffffffffff1673ffffffffffffffffffffffffffffffffffffffff1681526020018273ffffffffffffffffffffffffffffffffffffffff1673ffffffffffffffffffffffffffffffffffffffff1681526020019250505060405180910390a150505050565b600080610f5f83611a33565b91505080915050919050565b60606034805480602002602001604051908101604052809291908181526020018280548015610fb957602002820191906000526020600020905b815481526020019060010190808311610fa5575b5050505050905090565b6000806000610fd1846119b4565b915091506001151581151514610fe657600080fd5b60358281548110610ff357fe5b9060005260206000200160009054906101000a900473ffffffffffffffffffffffffffffffffffffffff1692505050919050565b60006003905090565b611038611962565b6001151561104582610f53565b15151461105157600080fd5b816000151561105f82610f53565b15151461106b57600080fd5b60338390806001815401808255809150509060018203906000526020600020016000909192909190916101000a81548173ffffffffffffffffffffffffffffffffffffffff021916908373ffffffffffffffffffffffffffffffffffffffff160217905550507fc82bdbbf677a2462f2a7e22e4ba9abd209496b69cd7b868b3b1d28f76e09a40a836110fb611962565b604051808373ffffffffffffffffffffffffffffffffffffffff1673ffffffffffffffffffffffffffffffffffffffff1681526020018273ffffffffffffffffffffffffffffffffffffffff1673ffffffffffffffffffffffffffffffffffffffff1681526020019250505060405180910390a1505050565b600061117e611ae1565b905090565b600061118d611174565b73ffffffffffffffffffffffffffffffffffffffff163373ffffffffffffffffffffffffffffffffffffffff1614611210576040517f08c379a0000000000000000000000000000000000000000000000000000000008152600401808060200182810382526026815260200180611f3c6026913960400191505060405180910390fd5b61125d83838080601f016020809104026020016040519081016040528093929190818152602001838380828437600081840152601f19601f82011690508083019250505050505050611b12565b905092915050565b600060019054906101000a900460ff16806112845750611283611b19565b5b8061129b57506000809054906101000a900460ff16155b6112f0576040517f08c379a000000000000000000000000000000000000000000000000000000000815260040180806020018281038252602e815260200180611f8d602e913960400191505060405180910390fd5b60008060019054906101000a900460ff161590508015611340576001600060016101000a81548160ff02191690831515021790555060016000806101000a81548160ff0219169083151502179055505b611348611b2a565b80156113695760008060016101000a81548160ff0219169083151502179055505b50565b60006060611378611c46565b915091509b509b9950505050505050505050565b611394611962565b600115156113a182610f53565b1515146113ad57600080fd5b82600015156113bb8261171a565b1515146113c757600080fd5b8273ffffffffffffffffffffffffffffffffffffffff166335950fed306040518263ffffffff1660e01b8152600401808273ffffffffffffffffffffffffffffffffffffffff1673ffffffffffffffffffffffffffffffffffffffff16815260200191505060206040518083038186803b15801561144457600080fd5b505afa158015611458573d6000803e3d6000fd5b505050506040513d602081101561146e57600080fd5b810190808051906020019092919050505061148857600080fd5b603484908060018154018082558091505090600182039060005260206000200160009091929091909150555060358390806001815401808255809150509060018203906000526020600020016000909192909190916101000a81548173ffffffffffffffffffffffffffffffffffffffff021916908373ffffffffffffffffffffffffffffffffffffffff160217905550507fcbc3c5c4939f7c16221db31308c42ed19507b66ff7a18673a261ba7268bc9cb7611543611962565b8585604051808473ffffffffffffffffffffffffffffffffffffffff1673ffffffffffffffffffffffffffffffffffffffff1681526020018381526020018273ffffffffffffffffffffffffffffffffffffffff1673ffffffffffffffffffffffffffffffffffffffff168152602001935050505060405180910390a150505050565b6060603380548060200260200160405190810160405280929190818152602001828054801561164a57602002820191906000526020600020905b8160009054906101000a900473ffffffffffffffffffffffffffffffffffffffff1673ffffffffffffffffffffffffffffffffffffffff1681526020019060010190808311611600575b5050505050905090565b600061165e611174565b73ffffffffffffffffffffffffffffffffffffffff166370a08231306040518263ffffffff1660e01b8152600401808273ffffffffffffffffffffffffffffffffffffffff1673ffffffffffffffffffffffffffffffffffffffff16815260200191505060206040518083038186803b1580156116da57600080fd5b505afa1580156116ee573d6000803e3d6000fd5b505050506040513d602081101561170457600080fd5b8101908080519060200190929190505050905090565b600080611726836119b4565b91505080915050919050565b60606040518060400160405280600581526020017f312e302e30000000000000000000000000000000000000000000000000000000815250905090565b600060019054906101000a900460ff168061178e575061178d611b19565b5b806117a557506000809054906101000a900460ff16155b6117fa576040517f08c379a000000000000000000000000000000000000000000000000000000000815260040180806020018281038252602e815260200180611f8d602e913960400191505060405180910390fd5b60008060019054906101000a900460ff16159050801561184a576001600060016101000a81548160ff02191690831515021790555060016000806101000a81548160ff0219169083151502179055505b611852611265565b61185b82611c6a565b801561187c5760008060016101000a81548160ff0219169083151502179055505b5050565b611888611174565b73ffffffffffffffffffffffffffffffffffffffff163373ffffffffffffffffffffffffffffffffffffffff161461190b576040517f08c379a0000000000000000000000000000000000000000000000000000000008152600401808060200182810382526026815260200180611f3c6026913960400191505060405180910390fd5b61195b85858080601f016020809104026020016040519081016040528093929190818152602001838380828437600081840152601f19601f82011690508083019250505050505050848484611e0b565b5050505050565b600061196c611ae1565b73ffffffffffffffffffffffffffffffffffffffff163373ffffffffffffffffffffffffffffffffffffffff16146119a6573390506119b1565b6119ae611e11565b90505b90565b600080600060348054905014156119d45760008081915091509150611a2e565b60008090505b6001603480549050038111611a225783603482815481106119f757fe5b90600052602060002001541415611a15578060019250925050611a2e565b80806001019150506119da565b50600080819150915091505b915091565b60008060008090505b6001603380549050038111611ad0578373ffffffffffffffffffffffffffffffffffffffff1660338281548110611a6f57fe5b9060005260206000200160009054906101000a900473ffffffffffffffffffffffffffffffffffffffff1673ffffffffffffffffffffffffffffffffffffffff161415611ac3578060019250925050611adc565b8080600101915050611a3c565b50600080819150915091505b915091565b6000807f06b7792c761dcc05af1761f0315ce8b01ac39c16cc934eb0b2f7a8e71414f26260001b9050805491505090565b6000919050565b600080303b90506000811491505090565b600060019054906101000a900460ff1680611b495750611b48611b19565b5b80611b6057506000809054906101000a900460ff16155b611bb5576040517f08c379a000000000000000000000000000000000000000000000000000000000815260040180806020018281038252602e815260200180611f8d602e913960400191505060405180910390fd5b60008060019054906101000a900460ff161590508015611c05576001600060016101000a81548160ff02191690831515021790555060016000806101000a81548160ff0219169083151502179055505b611c2273d216153c06e857cd7f72665e0af1d7d82172f494611c6a565b8015611c435760008060016101000a81548160ff0219169083151502179055505b50565b60006060611c6260405180602001604052806000815250611e89565b915091509091565b6000611c74611ae1565b9050600073ffffffffffffffffffffffffffffffffffffffff168273ffffffffffffffffffffffffffffffffffffffff161415611cfc576040517f08c379a000000000000000000000000000000000000000000000000000000000815260040180806020018281038252602c815260200180611fbb602c913960400191505060405180910390fd5b8073ffffffffffffffffffffffffffffffffffffffff168273ffffffffffffffffffffffffffffffffffffffff161415611d81576040517f08c379a000000000000000000000000000000000000000000000000000000000815260040180806020018281038252602b815260200180611f62602b913960400191505060405180910390fd5b8173ffffffffffffffffffffffffffffffffffffffff168173ffffffffffffffffffffffffffffffffffffffff167fb9f84b8e65164b14439ae3620df0a4d8786d896996c0282b683f9d8c08f046e860405160405180910390a360007f06b7792c761dcc05af1761f0315ce8b01ac39c16cc934eb0b2f7a8e71414f26260001b9050828155505050565b50505050565b600060606000368080601f016020809104026020016040519081016040528093929190818152602001838380828437600081840152601f19601f820116905080830192505050505050509050600080369050905073ffffffffffffffffffffffffffffffffffffffff81830151169250829250505090565b6000606060008391509150915091565b815481835581811115611ec057818360005260206000209182019101611ebf9190611ef1565b5b505050565b815481835581811115611eec57818360005260206000209182019101611eeb9190611f16565b5b505050565b611f1391905b80821115611f0f576000816000905550600101611ef7565b5090565b90565b611f3891905b80821115611f34576000816000905550600101611f1c565b5090565b9056fe47534e426f756e636572426173653a2063616c6c6572206973206e6f742052656c617948756247534e436f6e746578743a206e65772052656c6179487562206973207468652063757272656e74206f6e65436f6e747261637420696e7374616e63652068617320616c7265616479206265656e20696e697469616c697a656447534e436f6e746578743a206e65772052656c617948756220697320746865207a65726f2061646472657373a165627a7a72305820ea155bf426730f760edc7a077658de202a11a56e37de0c6abfe6ffbf0b92cad40029",
  "source": "pragma solidity ^0.5.0;\n\nimport \"@openzeppelin/upgrades/contracts/Initializable.sol\";\nimport \"./utils/GSNMultiOwnableRecipient.sol\";\nimport \"./Acl.sol\";\n\n/**\n * @title Profile groups together all user's SmartVault activities and enables data control recovery\n * @author Lukas Lukac, Lightstreams, 24.9.2019\n */\ncontract GSNProfile is Initializable, GSNMultiOwnableRecipient {\n    // @dev Base58 decoded CID is stored WITHOUT the leading \"Qm\" to optimise storage space for 32 bytes as SmartVault only uses CID v0.\n    bytes32[] files;\n    address[] acls;\n\n    event FileAdded(address owner, bytes32 cid, address acl);\n    event FileRemoved(address owner, bytes32 cid, address acl);\n    event FileRecovered(bytes32 cid, address acl, address newOwner, address byOwner);\n    event OwnerRecovered(address newOwner, address byOwner);\n\n    modifier fileExists(bytes32 _cid) {\n        require(hasFile(_cid) == true);\n        _;\n    }\n\n    modifier fileNotExists(bytes32 _cid) {\n        require(hasFile(_cid) == false);\n        _;\n    }\n\n    constructor(address _owner) public GSNMultiOwnableRecipient(_owner) {\n    }\n\n    function addFile(bytes32 _cid, address _acl) public isOwner(_msgSender()) fileNotExists(_cid) {\n        require(ACL(_acl).hasAdmin(address(this)));\n\n        files.push(_cid);\n        acls.push(_acl);\n\n        emit FileAdded(_msgSender(), _cid, _acl);\n    }\n\n    function removeFile(bytes32 _cid) public isOwner(_msgSender()) fileExists(_cid) {\n        (uint256 fileIndex, bool exists) = getFileIndex(_cid);\n        require(exists == true);\n\n        address acl = acls[fileIndex];\n\n        files[fileIndex] = files[files.length - 1];\n        acls[fileIndex] = acls[files.length - 1];\n        files.length--;\n        acls.length--;\n\n        emit FileRemoved(_msgSender(), _cid, acl);\n    }\n\n    function hasFile(bytes32 _cid) view public returns (bool) {\n        (, bool exists) = getFileIndex(_cid);\n\n        return exists;\n    }\n\n    function getFiles() view public returns (bytes32[] memory) {\n        return files;\n    }\n\n    function getFileAcl(bytes32 _cid) public view returns (address) {\n        (uint256 fileIndex, bool exists) = getFileIndex(_cid);\n        require(exists == true);\n\n        return acls[fileIndex];\n    }\n\n    function recover(address _newOwner) public isOwner(_msgSender()) {\n        addOwner(_newOwner);\n\n        if (acls.length > 0) {\n            for (uint i = 0; i <= acls.length - 1; i++) {\n                ACL(acls[i]).grantAdmin(_newOwner);\n                emit FileRecovered(files[i], acls[i], _newOwner, _msgSender());\n            }\n        }\n\n        emit OwnerRecovered(_newOwner, _msgSender());\n    }\n\n    function getFileIndex(bytes32 _cid) internal view returns (uint256 index, bool exists) {\n        if (files.length == 0) {\n            return (0, false);\n        }\n\n        for (uint i = 0; i <= files.length - 1; i++) {\n            if (files[i] == _cid) {\n                return (i, true);\n            }\n        }\n\n        return (0, false);\n    }\n\n    // GSN ACTIVATION\n    function initialize(address relayHub) public initializer {\n        GSNRecipient.initialize();\n        _upgradeRelayHub(relayHub);\n    }\n\n    function acceptRelayedCall(\n        address,\n        address,\n        bytes calldata,\n        uint256,\n        uint256,\n        uint256,\n        uint256,\n        bytes calldata,\n        uint256\n    ) external view returns (uint256, bytes memory) {\n        return _approveRelayedCall();\n    }\n\n    function getRecipientBalance() public view returns (uint) {\n        return IRelayHub(getHubAddr()).balanceOf(address(this));\n    }\n\n    function version() public pure returns (uint256) {\n        return 3;\n    }\n}\n",
  "sourcePath": "/home/ggarrido/lightstreams/workspace/lightstreams-js-sdk/contracts/GSNProfile.sol",
  "compiler": {
    "name": "solc",
    "version": "0.5.8+commit.23d335f2.Emscripten.clang"
  },
  "schemaVersion": "3.0.15",
  "updatedAt": "2020-02-05T14:27:56.272Z",
  "devdoc": {
    "author": "Lukas Lukac, Lightstreams, 24.9.2019",
    "methods": {
      "postRelayedCall(bytes,bool,uint256,bytes32)": {
        "details": "See `IRelayRecipient.postRelayedCall`.     * This function should not be overriden directly, use `_postRelayedCall` instead.     * * Requirements:     * - the caller must be the `RelayHub` contract."
      },
      "preRelayedCall(bytes)": {
        "details": "See `IRelayRecipient.preRelayedCall`.     * This function should not be overriden directly, use `_preRelayedCall` instead.     * * Requirements:     * - the caller must be the `RelayHub` contract."
      }
    },
    "title": "Profile groups together all user's SmartVault activities and enables data control recovery"
  },
  "userdoc": {
    "methods": {}
  }
}