{
  "contractName": "GSNProfile",
  "abi": [
    {
      "constant": false,
      "inputs": [
        {
          "name": "_owner",
          "type": "address"
        }
      ],
      "name": "removeOwner",
      "outputs": [],
      "payable": false,
      "stateMutability": "nonpayable",
      "type": "function"
    },
    {
      "constant": true,
      "inputs": [
        {
          "name": "_owner",
          "type": "address"
        }
      ],
      "name": "hasOwner",
      "outputs": [
        {
          "name": "",
          "type": "bool"
        }
      ],
      "payable": false,
      "stateMutability": "view",
      "type": "function"
    },
    {
      "constant": false,
      "inputs": [
        {
          "name": "_newOwner",
          "type": "address"
        }
      ],
      "name": "addOwner",
      "outputs": [],
      "payable": false,
      "stateMutability": "nonpayable",
      "type": "function"
    },
    {
      "constant": true,
      "inputs": [],
      "name": "getHubAddr",
      "outputs": [
        {
          "name": "",
          "type": "address"
        }
      ],
      "payable": false,
      "stateMutability": "view",
      "type": "function"
    },
    {
      "constant": false,
      "inputs": [
        {
          "name": "context",
          "type": "bytes"
        }
      ],
      "name": "preRelayedCall",
      "outputs": [
        {
          "name": "",
          "type": "bytes32"
        }
      ],
      "payable": false,
      "stateMutability": "nonpayable",
      "type": "function"
    },
    {
      "constant": true,
      "inputs": [],
      "name": "getOwners",
      "outputs": [
        {
          "name": "",
          "type": "address[]"
        }
      ],
      "payable": false,
      "stateMutability": "view",
      "type": "function"
    },
    {
      "constant": true,
      "inputs": [],
      "name": "relayHubVersion",
      "outputs": [
        {
          "name": "",
          "type": "string"
        }
      ],
      "payable": false,
      "stateMutability": "view",
      "type": "function"
    },
    {
      "constant": false,
      "inputs": [
        {
          "name": "context",
          "type": "bytes"
        },
        {
          "name": "success",
          "type": "bool"
        },
        {
          "name": "actualCharge",
          "type": "uint256"
        },
        {
          "name": "preRetVal",
          "type": "bytes32"
        }
      ],
      "name": "postRelayedCall",
      "outputs": [],
      "payable": false,
      "stateMutability": "nonpayable",
      "type": "function"
    },
    {
      "inputs": [
        {
          "name": "_owner",
          "type": "address"
        }
      ],
      "payable": false,
      "stateMutability": "nonpayable",
      "type": "constructor"
    },
    {
      "payable": true,
      "stateMutability": "payable",
      "type": "fallback"
    },
    {
      "anonymous": false,
      "inputs": [
        {
          "indexed": false,
          "name": "owner",
          "type": "address"
        },
        {
          "indexed": false,
          "name": "cid",
          "type": "bytes32"
        },
        {
          "indexed": false,
          "name": "acl",
          "type": "address"
        }
      ],
      "name": "FileAdded",
      "type": "event"
    },
    {
      "anonymous": false,
      "inputs": [
        {
          "indexed": false,
          "name": "owner",
          "type": "address"
        },
        {
          "indexed": false,
          "name": "cid",
          "type": "bytes32"
        },
        {
          "indexed": false,
          "name": "acl",
          "type": "address"
        }
      ],
      "name": "FileRemoved",
      "type": "event"
    },
    {
      "anonymous": false,
      "inputs": [
        {
          "indexed": false,
          "name": "cid",
          "type": "bytes32"
        },
        {
          "indexed": false,
          "name": "acl",
          "type": "address"
        },
        {
          "indexed": false,
          "name": "newOwner",
          "type": "address"
        },
        {
          "indexed": false,
          "name": "byOwner",
          "type": "address"
        }
      ],
      "name": "FileRecovered",
      "type": "event"
    },
    {
      "anonymous": false,
      "inputs": [
        {
          "indexed": false,
          "name": "newOwner",
          "type": "address"
        },
        {
          "indexed": false,
          "name": "byOwner",
          "type": "address"
        }
      ],
      "name": "OwnerRecovered",
      "type": "event"
    },
    {
      "anonymous": false,
      "inputs": [
        {
          "indexed": false,
          "name": "amount",
          "type": "uint256"
        }
      ],
      "name": "HatchedArtistTokens",
      "type": "event"
    },
    {
      "anonymous": false,
      "inputs": [
        {
          "indexed": false,
          "name": "amount",
          "type": "uint256"
        }
      ],
      "name": "ClaimedArtistTokens",
      "type": "event"
    },
    {
      "anonymous": false,
      "inputs": [
        {
          "indexed": false,
          "name": "amount",
          "type": "uint256"
        }
      ],
      "name": "RefundedTokens",
      "type": "event"
    },
    {
      "anonymous": false,
      "inputs": [
        {
          "indexed": false,
          "name": "amount",
          "type": "uint256"
        }
      ],
      "name": "BoughtArtistTokens",
      "type": "event"
    },
    {
      "anonymous": false,
      "inputs": [
        {
          "indexed": false,
          "name": "tokenAddr",
          "type": "address"
        },
        {
          "indexed": false,
          "name": "beneficiary",
          "type": "address"
        },
        {
          "indexed": false,
          "name": "amount",
          "type": "uint256"
        }
      ],
      "name": "TransferArtistTokens",
      "type": "event"
    },
    {
      "anonymous": false,
      "inputs": [
        {
          "indexed": false,
          "name": "beneficiary",
          "type": "address"
        },
        {
          "indexed": false,
          "name": "amount",
          "type": "uint256"
        }
      ],
      "name": "TransferTokens",
      "type": "event"
    },
    {
      "anonymous": false,
      "inputs": [
        {
          "indexed": false,
          "name": "newOwner",
          "type": "address"
        },
        {
          "indexed": false,
          "name": "byOwner",
          "type": "address"
        }
      ],
      "name": "OwnerAdded",
      "type": "event"
    },
    {
      "anonymous": false,
      "inputs": [
        {
          "indexed": false,
          "name": "removedOwner",
          "type": "address"
        },
        {
          "indexed": false,
          "name": "byOwner",
          "type": "address"
        }
      ],
      "name": "OwnerRemoved",
      "type": "event"
    },
    {
      "anonymous": false,
      "inputs": [
        {
          "indexed": true,
          "name": "oldRelayHub",
          "type": "address"
        },
        {
          "indexed": true,
          "name": "newRelayHub",
          "type": "address"
        }
      ],
      "name": "RelayHubChanged",
      "type": "event"
    },
    {
      "constant": false,
      "inputs": [
        {
          "name": "_cid",
          "type": "bytes32"
        },
        {
          "name": "_acl",
          "type": "address"
        }
      ],
      "name": "addFile",
      "outputs": [],
      "payable": false,
      "stateMutability": "nonpayable",
      "type": "function"
    },
    {
      "constant": false,
      "inputs": [
        {
          "name": "_cid",
          "type": "bytes32"
        }
      ],
      "name": "removeFile",
      "outputs": [],
      "payable": false,
      "stateMutability": "nonpayable",
      "type": "function"
    },
    {
      "constant": false,
      "inputs": [
        {
          "name": "_newOwner",
          "type": "address"
        }
      ],
      "name": "recover",
      "outputs": [],
      "payable": false,
      "stateMutability": "nonpayable",
      "type": "function"
    },
    {
      "constant": false,
      "inputs": [
        {
          "name": "_beneficiary",
          "type": "address"
        },
        {
          "name": "_amount",
          "type": "uint256"
        }
      ],
      "name": "transferTokens",
      "outputs": [],
      "payable": false,
      "stateMutability": "nonpayable",
      "type": "function"
    },
    {
      "constant": false,
      "inputs": [
        {
          "name": "_tokenAddr",
          "type": "address"
        },
        {
          "name": "_wphtAddr",
          "type": "address"
        },
        {
          "name": "_amount",
          "type": "uint256"
        },
        {
          "name": "_runDeposit",
          "type": "bool"
        }
      ],
      "name": "hatchArtistToken",
      "outputs": [],
      "payable": false,
      "stateMutability": "nonpayable",
      "type": "function"
    },
    {
      "constant": false,
      "inputs": [
        {
          "name": "_tokenAddr",
          "type": "address"
        }
      ],
      "name": "claimArtistToken",
      "outputs": [],
      "payable": false,
      "stateMutability": "nonpayable",
      "type": "function"
    },
    {
      "constant": false,
      "inputs": [
        {
          "name": "_tokenAddr",
          "type": "address"
        },
        {
          "name": "_wphtAddr",
          "type": "address"
        }
      ],
      "name": "refundArtistToken",
      "outputs": [],
      "payable": false,
      "stateMutability": "nonpayable",
      "type": "function"
    },
    {
      "constant": false,
      "inputs": [
        {
          "name": "_tokenAddr",
          "type": "address"
        },
        {
          "name": "_wphtAddr",
          "type": "address"
        },
        {
          "name": "_amount",
          "type": "uint256"
        },
        {
          "name": "_runDeposit",
          "type": "bool"
        }
      ],
      "name": "buyArtistToken",
      "outputs": [],
      "payable": false,
      "stateMutability": "nonpayable",
      "type": "function"
    },
    {
      "constant": false,
      "inputs": [
        {
          "name": "_tokenAddr",
          "type": "address"
        },
        {
          "name": "_beneficiary",
          "type": "address"
        },
        {
          "name": "_amount",
          "type": "uint256"
        }
      ],
      "name": "transferArtistTokens",
      "outputs": [],
      "payable": false,
      "stateMutability": "nonpayable",
      "type": "function"
    },
    {
      "constant": true,
      "inputs": [
        {
          "name": "_cid",
          "type": "bytes32"
        }
      ],
      "name": "hasFile",
      "outputs": [
        {
          "name": "",
          "type": "bool"
        }
      ],
      "payable": false,
      "stateMutability": "view",
      "type": "function"
    },
    {
      "constant": true,
      "inputs": [],
      "name": "getFiles",
      "outputs": [
        {
          "name": "",
          "type": "bytes32[]"
        }
      ],
      "payable": false,
      "stateMutability": "view",
      "type": "function"
    },
    {
      "constant": true,
      "inputs": [
        {
          "name": "_cid",
          "type": "bytes32"
        }
      ],
      "name": "getFileAcl",
      "outputs": [
        {
          "name": "",
          "type": "address"
        }
      ],
      "payable": false,
      "stateMutability": "view",
      "type": "function"
    },
    {
      "constant": false,
      "inputs": [
        {
          "name": "relayHub",
          "type": "address"
        }
      ],
      "name": "initialize",
      "outputs": [],
      "payable": false,
      "stateMutability": "nonpayable",
      "type": "function"
    },
    {
      "constant": false,
      "inputs": [],
      "name": "initialize",
      "outputs": [],
      "payable": false,
      "stateMutability": "nonpayable",
      "type": "function"
    },
    {
      "constant": true,
      "inputs": [
        {
          "name": "",
          "type": "address"
        },
        {
          "name": "",
          "type": "address"
        },
        {
          "name": "",
          "type": "bytes"
        },
        {
          "name": "",
          "type": "uint256"
        },
        {
          "name": "",
          "type": "uint256"
        },
        {
          "name": "",
          "type": "uint256"
        },
        {
          "name": "",
          "type": "uint256"
        },
        {
          "name": "",
          "type": "bytes"
        },
        {
          "name": "",
          "type": "uint256"
        }
      ],
      "name": "acceptRelayedCall",
      "outputs": [
        {
          "name": "",
          "type": "uint256"
        },
        {
          "name": "",
          "type": "bytes"
        }
      ],
      "payable": false,
      "stateMutability": "view",
      "type": "function"
    },
    {
      "constant": true,
      "inputs": [],
      "name": "getRecipientBalance",
      "outputs": [
        {
          "name": "",
          "type": "uint256"
        }
      ],
      "payable": false,
      "stateMutability": "view",
      "type": "function"
    },
    {
      "constant": true,
      "inputs": [],
      "name": "version",
      "outputs": [
        {
          "name": "",
          "type": "uint256"
        }
      ],
      "payable": false,
      "stateMutability": "pure",
      "type": "function"
    }
  ],
  "bytecode": "0x608060405234801561001057600080fd5b5060405160208061301f8339810180604052602081101561003057600080fd5b81019080805190602001909291905050508060338190806001815401808255809150509060018203906000526020600020016000909192909190916101000a81548173ffffffffffffffffffffffffffffffffffffffff021916908373ffffffffffffffffffffffffffffffffffffffff160217905550505050612f66806100b96000396000f3fe6080604052600436106101665760003560e01c806380274db7116100d1578063ac5704111161008a578063bec3fa1711610064578063bec3fa1714610a8c578063c4d66de814610ae7578063dafbcdb714610b38578063e06e0e2214610bb357610166565b8063ac5704111461097e578063ac709051146109a9578063ad61ccd5146109fc57610166565b806380274db7146105b15780638129fc1c1461064b57806383947ea014610662578063862e0bb6146108305780639a93e5dd146108b7578063a0e67e2b1461091257610166565b8063452eded611610123578063452eded61461036b5780634e1b1e60146103f2578063514d7ddb1461046d57806354fd4d50146104de5780637065cb481461050957806374e861d61461055a57610166565b80630bef429b146101685780630cd865ec146101a3578063148e168a146101f4578063173825d914610245578063230b3790146102965780632da96d73146102ff575b005b34801561017457600080fd5b506101a16004803603602081101561018b57600080fd5b8101908080359060200190929190505050610c59565b005b3480156101af57600080fd5b506101f2600480360360208110156101c657600080fd5b81019080803573ffffffffffffffffffffffffffffffffffffffff169060200190929190505050610e9b565b005b34801561020057600080fd5b506102436004803603602081101561021757600080fd5b81019080803573ffffffffffffffffffffffffffffffffffffffff16906020019092919050505061118f565b005b34801561025157600080fd5b506102946004803603602081101561026857600080fd5b81019080803573ffffffffffffffffffffffffffffffffffffffff169060200190929190505050611279565b005b3480156102a257600080fd5b506102e5600480360360208110156102b957600080fd5b81019080803573ffffffffffffffffffffffffffffffffffffffff16906020019092919050505061141c565b604051808215151515815260200191505060405180910390f35b34801561030b57600080fd5b50610314611434565b6040518080602001828103825283818151815260200191508051906020019060200280838360005b8381101561035757808201518184015260208101905061033c565b505050509050019250505060405180910390f35b34801561037757600080fd5b506103f06004803603608081101561038e57600080fd5b81019080803573ffffffffffffffffffffffffffffffffffffffff169060200190929190803573ffffffffffffffffffffffffffffffffffffffff1690602001909291908035906020019092919080351515906020019092919050505061148c565b005b3480156103fe57600080fd5b5061042b6004803603602081101561041557600080fd5b8101908080359060200190929190505050611742565b604051808273ffffffffffffffffffffffffffffffffffffffff1673ffffffffffffffffffffffffffffffffffffffff16815260200191505060405180910390f35b34801561047957600080fd5b506104dc6004803603604081101561049057600080fd5b81019080803573ffffffffffffffffffffffffffffffffffffffff169060200190929190803573ffffffffffffffffffffffffffffffffffffffff1690602001909291905050506117a6565b005b3480156104ea57600080fd5b506104f3611902565b6040518082815260200191505060405180910390f35b34801561051557600080fd5b506105586004803603602081101561052c57600080fd5b81019080803573ffffffffffffffffffffffffffffffffffffffff16906020019092919050505061190b565b005b34801561056657600080fd5b5061056f611a4f565b604051808273ffffffffffffffffffffffffffffffffffffffff1673ffffffffffffffffffffffffffffffffffffffff16815260200191505060405180910390f35b3480156105bd57600080fd5b50610635600480360360208110156105d457600080fd5b81019080803590602001906401000000008111156105f157600080fd5b82018360208201111561060357600080fd5b8035906020019184600183028401116401000000008311171561062557600080fd5b9091929391929390505050611a5e565b6040518082815260200191505060405180910390f35b34801561065757600080fd5b50610660611b40565b005b34801561066e57600080fd5b506107ae600480360361012081101561068657600080fd5b81019080803573ffffffffffffffffffffffffffffffffffffffff169060200190929190803573ffffffffffffffffffffffffffffffffffffffff169060200190929190803590602001906401000000008111156106e357600080fd5b8201836020820111156106f557600080fd5b8035906020019184600183028401116401000000008311171561071757600080fd5b9091929391929390803590602001909291908035906020019092919080359060200190929190803590602001909291908035906020019064010000000081111561076057600080fd5b82018360208201111561077257600080fd5b8035906020019184600183028401116401000000008311171561079457600080fd5b909192939192939080359060200190929190505050611c47565b6040518083815260200180602001828103825283818151815260200191508051906020019080838360005b838110156107f45780820151818401526020810190506107d9565b50505050905090810190601f1680156108215780820380516001836020036101000a031916815260200191505b50935050505060405180910390f35b34801561083c57600080fd5b506108b56004803603608081101561085357600080fd5b81019080803573ffffffffffffffffffffffffffffffffffffffff169060200190929190803573ffffffffffffffffffffffffffffffffffffffff16906020019092919080359060200190929190803515159060200190929190505050611c67565b005b3480156108c357600080fd5b50610910600480360360408110156108da57600080fd5b8101908080359060200190929190803573ffffffffffffffffffffffffffffffffffffffff169060200190929190505050611e90565b005b34801561091e57600080fd5b506109276120ca565b6040518080602001828103825283818151815260200191508051906020019060200280838360005b8381101561096a57808201518184015260208101905061094f565b505050509050019250505060405180910390f35b34801561098a57600080fd5b50610993612158565b6040518082815260200191505060405180910390f35b3480156109b557600080fd5b506109e2600480360360208110156109cc57600080fd5b810190808035906020019092919050505061221e565b604051808215151515815260200191505060405180910390f35b348015610a0857600080fd5b50610a11612236565b6040518080602001828103825283818151815260200191508051906020019080838360005b83811015610a51578082015181840152602081019050610a36565b50505050905090810190601f168015610a7e5780820380516001836020036101000a031916815260200191505b509250505060405180910390f35b348015610a9857600080fd5b50610ae560048036036040811015610aaf57600080fd5b81019080803573ffffffffffffffffffffffffffffffffffffffff16906020019092919080359060200190929190505050612273565b005b348015610af357600080fd5b50610b3660048036036020811015610b0a57600080fd5b81019080803573ffffffffffffffffffffffffffffffffffffffff1690602001909291905050506123ee565b005b348015610b4457600080fd5b50610bb160048036036060811015610b5b57600080fd5b81019080803573ffffffffffffffffffffffffffffffffffffffff169060200190929190803573ffffffffffffffffffffffffffffffffffffffff169060200190929190803590602001909291905050506124ff565b005b348015610bbf57600080fd5b50610c5760048036036080811015610bd657600080fd5b8101908080359060200190640100000000811115610bf357600080fd5b820183602082011115610c0557600080fd5b80359060200191846001830284011164010000000083111715610c2757600080fd5b909192939192939080351515906020019092919080359060200190929190803590602001909291905050506127d4565b005b610c616128b6565b60011515610c6e8261141c565b151514610c7a57600080fd5b8160011515610c888261221e565b151514610c9457600080fd5b600080610ca085612908565b915091506001151581151514610cb557600080fd5b600060358381548110610cc457fe5b9060005260206000200160009054906101000a900473ffffffffffffffffffffffffffffffffffffffff169050603460016034805490500381548110610d0657fe5b906000526020600020015460348481548110610d1e57fe5b9060005260206000200181905550603560016034805490500381548110610d4157fe5b9060005260206000200160009054906101000a900473ffffffffffffffffffffffffffffffffffffffff1660358481548110610d7957fe5b9060005260206000200160006101000a81548173ffffffffffffffffffffffffffffffffffffffff021916908373ffffffffffffffffffffffffffffffffffffffff1602179055506034805480919060019003610dd69190612ded565b506035805480919060019003610dec9190612e19565b507f18d0c92a01adb859e57b76c53f1801a82dd8f8419fac502b2a9b416c5d3999d4610e166128b6565b8783604051808473ffffffffffffffffffffffffffffffffffffffff1673ffffffffffffffffffffffffffffffffffffffff1681526020018381526020018273ffffffffffffffffffffffffffffffffffffffff1673ffffffffffffffffffffffffffffffffffffffff168152602001935050505060405180910390a1505050505050565b610ea36128b6565b60011515610eb08261141c565b151514610ebc57600080fd5b610ec58261190b565b600060358054905011156110ed5760008090505b60016035805490500381116110eb5760358181548110610ef557fe5b9060005260206000200160009054906101000a900473ffffffffffffffffffffffffffffffffffffffff1673ffffffffffffffffffffffffffffffffffffffff166335bb3e16846040518263ffffffff1660e01b8152600401808273ffffffffffffffffffffffffffffffffffffffff1673ffffffffffffffffffffffffffffffffffffffff168152602001915050600060405180830381600087803b158015610f9e57600080fd5b505af1158015610fb2573d6000803e3d6000fd5b505050507fb1d7980376ee442938a8f9cdc5c2b484565fdaeab23734357f65d747eaf23c0a60348281548110610fe457fe5b906000526020600020015460358381548110610ffc57fe5b9060005260206000200160009054906101000a900473ffffffffffffffffffffffffffffffffffffffff16856110306128b6565b604051808581526020018473ffffffffffffffffffffffffffffffffffffffff1673ffffffffffffffffffffffffffffffffffffffff1681526020018373ffffffffffffffffffffffffffffffffffffffff1673ffffffffffffffffffffffffffffffffffffffff1681526020018273ffffffffffffffffffffffffffffffffffffffff1673ffffffffffffffffffffffffffffffffffffffff16815260200194505050505060405180910390a18080600101915050610ed9565b505b7f658a0f6969d7663ef009b782e098ec752cdf0beed99b9a188dd1d77d539a1a3e826111176128b6565b604051808373ffffffffffffffffffffffffffffffffffffffff1673ffffffffffffffffffffffffffffffffffffffff1681526020018273ffffffffffffffffffffffffffffffffffffffff1673ffffffffffffffffffffffffffffffffffffffff1681526020019250505060405180910390a15050565b6111976128b6565b600115156111a48261141c565b1515146111b057600080fd5b600082905060008173ffffffffffffffffffffffffffffffffffffffff166348c54b9d6040518163ffffffff1660e01b8152600401602060405180830381600087803b1580156111ff57600080fd5b505af1158015611213573d6000803e3d6000fd5b505050506040513d602081101561122957600080fd5b810190808051906020019092919050505090507ffe11244ccc2c0b43fe8b150e47015097234a496462ce356f01ddc7fa694f4504816040518082815260200191505060405180910390a150505050565b6112816128b6565b6001151561128e8261141c565b15151461129a57600080fd5b6001603380549050116112ac57600080fd5b6000806112b884612987565b9150915060011515811515146112cd57600080fd5b6033600160338054905003815481106112e257fe5b9060005260206000200160009054906101000a900473ffffffffffffffffffffffffffffffffffffffff166033838154811061131a57fe5b9060005260206000200160006101000a81548173ffffffffffffffffffffffffffffffffffffffff021916908373ffffffffffffffffffffffffffffffffffffffff16021790555060338054809190600190036113779190612e19565b507fe594d081b4382713733fe631966432c9cea5199afb2db5c3c1931f9f93003679846113a26128b6565b604051808373ffffffffffffffffffffffffffffffffffffffff1673ffffffffffffffffffffffffffffffffffffffff1681526020018273ffffffffffffffffffffffffffffffffffffffff1673ffffffffffffffffffffffffffffffffffffffff1681526020019250505060405180910390a150505050565b60008061142883612987565b91505080915050919050565b6060603480548060200260200160405190810160405280929190818152602001828054801561148257602002820191906000526020600020905b81548152602001906001019080831161146e575b5050505050905090565b6114946128b6565b600115156114a18261141c565b1515146114ad57600080fd5b3073ffffffffffffffffffffffffffffffffffffffff163183111561153a576040517f08c379a00000000000000000000000000000000000000000000000000000000081526004018080602001828103825260118152602001807f4e6f7420656e6f756768742066756e647300000000000000000000000000000081525060200191505060405180910390fd5b6000849050600086905083156115ac578173ffffffffffffffffffffffffffffffffffffffff1663d0e30db0866040518263ffffffff1660e01b81526004016000604051808303818588803b15801561159257600080fd5b505af11580156115a6573d6000803e3d6000fd5b50505050505b8173ffffffffffffffffffffffffffffffffffffffff1663095ea7b388876040518363ffffffff1660e01b8152600401808373ffffffffffffffffffffffffffffffffffffffff1673ffffffffffffffffffffffffffffffffffffffff16815260200182815260200192505050602060405180830381600087803b15801561163357600080fd5b505af1158015611647573d6000803e3d6000fd5b505050506040513d602081101561165d57600080fd5b81019080805190602001909291905050505060008173ffffffffffffffffffffffffffffffffffffffff1663a0712d68876040518263ffffffff1660e01b815260040180828152602001915050602060405180830381600087803b1580156116c457600080fd5b505af11580156116d8573d6000803e3d6000fd5b505050506040513d60208110156116ee57600080fd5b810190808051906020019092919050505090507f7ee2558e133354dfd47974426d36e85af456dc478949e0d387a4172806781cb6816040518082815260200191505060405180910390a15050505050505050565b600080600061175084612908565b91509150600115158115151461176557600080fd5b6035828154811061177257fe5b9060005260206000200160009054906101000a900473ffffffffffffffffffffffffffffffffffffffff1692505050919050565b6117ae6128b6565b600115156117bb8261141c565b1515146117c757600080fd5b6000839050600083905060008273ffffffffffffffffffffffffffffffffffffffff1663590e1ae36040518163ffffffff1660e01b8152600401602060405180830381600087803b15801561181b57600080fd5b505af115801561182f573d6000803e3d6000fd5b505050506040513d602081101561184557600080fd5b810190808051906020019092919050505090508173ffffffffffffffffffffffffffffffffffffffff16632e1a7d4d826040518263ffffffff1660e01b815260040180828152602001915050600060405180830381600087803b1580156118ab57600080fd5b505af11580156118bf573d6000803e3d6000fd5b505050507feaf5918160130e50241b919847035e8191635bd54670a29c7e94c3560b66467a816040518082815260200191505060405180910390a1505050505050565b60006003905090565b6119136128b6565b600115156119208261141c565b15151461192c57600080fd5b816000151561193a8261141c565b15151461194657600080fd5b60338390806001815401808255809150509060018203906000526020600020016000909192909190916101000a81548173ffffffffffffffffffffffffffffffffffffffff021916908373ffffffffffffffffffffffffffffffffffffffff160217905550507fc82bdbbf677a2462f2a7e22e4ba9abd209496b69cd7b868b3b1d28f76e09a40a836119d66128b6565b604051808373ffffffffffffffffffffffffffffffffffffffff1673ffffffffffffffffffffffffffffffffffffffff1681526020018273ffffffffffffffffffffffffffffffffffffffff1673ffffffffffffffffffffffffffffffffffffffff1681526020019250505060405180910390a1505050565b6000611a59612a35565b905090565b6000611a68611a4f565b73ffffffffffffffffffffffffffffffffffffffff163373ffffffffffffffffffffffffffffffffffffffff1614611aeb576040517f08c379a0000000000000000000000000000000000000000000000000000000008152600401808060200182810382526026815260200180612e906026913960400191505060405180910390fd5b611b3883838080601f016020809104026020016040519081016040528093929190818152602001838380828437600081840152601f19601f82011690508083019250505050505050612a66565b905092915050565b600060019054906101000a900460ff1680611b5f5750611b5e612a6d565b5b80611b7657506000809054906101000a900460ff16155b611bcb576040517f08c379a000000000000000000000000000000000000000000000000000000000815260040180806020018281038252602e815260200180612ee1602e913960400191505060405180910390fd5b60008060019054906101000a900460ff161590508015611c1b576001600060016101000a81548160ff02191690831515021790555060016000806101000a81548160ff0219169083151502179055505b611c23612a7e565b8015611c445760008060016101000a81548160ff0219169083151502179055505b50565b60006060611c53612b9a565b915091509b509b9950505050505050505050565b611c6f6128b6565b60011515611c7c8261141c565b151514611c8857600080fd5b600084905060008690508315611cfa578173ffffffffffffffffffffffffffffffffffffffff1663d0e30db0866040518263ffffffff1660e01b81526004016000604051808303818588803b158015611ce057600080fd5b505af1158015611cf4573d6000803e3d6000fd5b50505050505b8173ffffffffffffffffffffffffffffffffffffffff1663095ea7b388876040518363ffffffff1660e01b8152600401808373ffffffffffffffffffffffffffffffffffffffff1673ffffffffffffffffffffffffffffffffffffffff16815260200182815260200192505050602060405180830381600087803b158015611d8157600080fd5b505af1158015611d95573d6000803e3d6000fd5b505050506040513d6020811015611dab57600080fd5b81019080805190602001909291905050505060008173ffffffffffffffffffffffffffffffffffffffff1663c576a45b876040518263ffffffff1660e01b815260040180828152602001915050602060405180830381600087803b158015611e1257600080fd5b505af1158015611e26573d6000803e3d6000fd5b505050506040513d6020811015611e3c57600080fd5b810190808051906020019092919050505090507f92e9286b02c7373ff8089a323b1bdd0666f3084ffd971c365388d292f1b604d4816040518082815260200191505060405180910390a15050505050505050565b611e986128b6565b60011515611ea58261141c565b151514611eb157600080fd5b8260001515611ebf8261221e565b151514611ecb57600080fd5b8273ffffffffffffffffffffffffffffffffffffffff166335950fed306040518263ffffffff1660e01b8152600401808273ffffffffffffffffffffffffffffffffffffffff1673ffffffffffffffffffffffffffffffffffffffff16815260200191505060206040518083038186803b158015611f4857600080fd5b505afa158015611f5c573d6000803e3d6000fd5b505050506040513d6020811015611f7257600080fd5b8101908080519060200190929190505050611f8c57600080fd5b603484908060018154018082558091505090600182039060005260206000200160009091929091909150555060358390806001815401808255809150509060018203906000526020600020016000909192909190916101000a81548173ffffffffffffffffffffffffffffffffffffffff021916908373ffffffffffffffffffffffffffffffffffffffff160217905550507fcbc3c5c4939f7c16221db31308c42ed19507b66ff7a18673a261ba7268bc9cb76120476128b6565b8585604051808473ffffffffffffffffffffffffffffffffffffffff1673ffffffffffffffffffffffffffffffffffffffff1681526020018381526020018273ffffffffffffffffffffffffffffffffffffffff1673ffffffffffffffffffffffffffffffffffffffff168152602001935050505060405180910390a150505050565b6060603380548060200260200160405190810160405280929190818152602001828054801561214e57602002820191906000526020600020905b8160009054906101000a900473ffffffffffffffffffffffffffffffffffffffff1673ffffffffffffffffffffffffffffffffffffffff1681526020019060010190808311612104575b5050505050905090565b6000612162611a4f565b73ffffffffffffffffffffffffffffffffffffffff166370a08231306040518263ffffffff1660e01b8152600401808273ffffffffffffffffffffffffffffffffffffffff1673ffffffffffffffffffffffffffffffffffffffff16815260200191505060206040518083038186803b1580156121de57600080fd5b505afa1580156121f2573d6000803e3d6000fd5b505050506040513d602081101561220857600080fd5b8101908080519060200190929190505050905090565b60008061222a83612908565b91505080915050919050565b60606040518060400160405280600581526020017f312e302e30000000000000000000000000000000000000000000000000000000815250905090565b61227b6128b6565b600115156122888261141c565b15151461229457600080fd5b600073ffffffffffffffffffffffffffffffffffffffff168373ffffffffffffffffffffffffffffffffffffffff161415612337576040517f08c379a000000000000000000000000000000000000000000000000000000000815260040180806020018281038252601b8152602001807f496e76616c69642062656e65666963696172792061646472657373000000000081525060200191505060405180910390fd5b8273ffffffffffffffffffffffffffffffffffffffff166108fc839081150290604051600060405180830381858888f1935050505015801561237d573d6000803e3d6000fd5b507f7cbfb8a5c69722670db81365c97149301df8bf0b0afe48f73787d6a6a43859548383604051808373ffffffffffffffffffffffffffffffffffffffff1673ffffffffffffffffffffffffffffffffffffffff1681526020018281526020019250505060405180910390a1505050565b600060019054906101000a900460ff168061240d575061240c612a6d565b5b8061242457506000809054906101000a900460ff16155b612479576040517f08c379a000000000000000000000000000000000000000000000000000000000815260040180806020018281038252602e815260200180612ee1602e913960400191505060405180910390fd5b60008060019054906101000a900460ff1615905080156124c9576001600060016101000a81548160ff02191690831515021790555060016000806101000a81548160ff0219169083151502179055505b6124d1611b40565b6124da82612bbe565b80156124fb5760008060016101000a81548160ff0219169083151502179055505b5050565b6125076128b6565b600115156125148261141c565b15151461252057600080fd5b600073ffffffffffffffffffffffffffffffffffffffff168373ffffffffffffffffffffffffffffffffffffffff1614156125c3576040517f08c379a000000000000000000000000000000000000000000000000000000000815260040180806020018281038252601b8152602001807f496e76616c69642062656e65666963696172792061646472657373000000000081525060200191505060405180910390fd5b600073ffffffffffffffffffffffffffffffffffffffff168473ffffffffffffffffffffffffffffffffffffffff161415612666576040517f08c379a00000000000000000000000000000000000000000000000000000000081526004018080602001828103825260138152602001807f546f6b656e20776173206e6f742061646465640000000000000000000000000081525060200191505060405180910390fd5b60008490508073ffffffffffffffffffffffffffffffffffffffff1663a9059cbb85856040518363ffffffff1660e01b8152600401808373ffffffffffffffffffffffffffffffffffffffff1673ffffffffffffffffffffffffffffffffffffffff16815260200182815260200192505050602060405180830381600087803b1580156126f257600080fd5b505af1158015612706573d6000803e3d6000fd5b505050506040513d602081101561271c57600080fd5b8101908080519060200190929190505050507f377ead36c61aa23f0ebb9873b3e4eba1d37ba6686bedca4c297083c2b5f2c18b858585604051808473ffffffffffffffffffffffffffffffffffffffff1673ffffffffffffffffffffffffffffffffffffffff1681526020018373ffffffffffffffffffffffffffffffffffffffff1673ffffffffffffffffffffffffffffffffffffffff168152602001828152602001935050505060405180910390a15050505050565b6127dc611a4f565b73ffffffffffffffffffffffffffffffffffffffff163373ffffffffffffffffffffffffffffffffffffffff161461285f576040517f08c379a0000000000000000000000000000000000000000000000000000000008152600401808060200182810382526026815260200180612e906026913960400191505060405180910390fd5b6128af85858080601f016020809104026020016040519081016040528093929190818152602001838380828437600081840152601f19601f82011690508083019250505050505050848484612d5f565b5050505050565b60006128c0612a35565b73ffffffffffffffffffffffffffffffffffffffff163373ffffffffffffffffffffffffffffffffffffffff16146128fa57339050612905565b612902612d65565b90505b90565b600080600060348054905014156129285760008081915091509150612982565b60008090505b600160348054905003811161297657836034828154811061294b57fe5b90600052602060002001541415612969578060019250925050612982565b808060010191505061292e565b50600080819150915091505b915091565b60008060008090505b6001603380549050038111612a24578373ffffffffffffffffffffffffffffffffffffffff16603382815481106129c357fe5b9060005260206000200160009054906101000a900473ffffffffffffffffffffffffffffffffffffffff1673ffffffffffffffffffffffffffffffffffffffff161415612a17578060019250925050612a30565b8080600101915050612990565b50600080819150915091505b915091565b6000807f06b7792c761dcc05af1761f0315ce8b01ac39c16cc934eb0b2f7a8e71414f26260001b9050805491505090565b6000919050565b600080303b90506000811491505090565b600060019054906101000a900460ff1680612a9d5750612a9c612a6d565b5b80612ab457506000809054906101000a900460ff16155b612b09576040517f08c379a000000000000000000000000000000000000000000000000000000000815260040180806020018281038252602e815260200180612ee1602e913960400191505060405180910390fd5b60008060019054906101000a900460ff161590508015612b59576001600060016101000a81548160ff02191690831515021790555060016000806101000a81548160ff0219169083151502179055505b612b7673d216153c06e857cd7f72665e0af1d7d82172f494612bbe565b8015612b975760008060016101000a81548160ff0219169083151502179055505b50565b60006060612bb660405180602001604052806000815250612ddd565b915091509091565b6000612bc8612a35565b9050600073ffffffffffffffffffffffffffffffffffffffff168273ffffffffffffffffffffffffffffffffffffffff161415612c50576040517f08c379a000000000000000000000000000000000000000000000000000000000815260040180806020018281038252602c815260200180612f0f602c913960400191505060405180910390fd5b8073ffffffffffffffffffffffffffffffffffffffff168273ffffffffffffffffffffffffffffffffffffffff161415612cd5576040517f08c379a000000000000000000000000000000000000000000000000000000000815260040180806020018281038252602b815260200180612eb6602b913960400191505060405180910390fd5b8173ffffffffffffffffffffffffffffffffffffffff168173ffffffffffffffffffffffffffffffffffffffff167fb9f84b8e65164b14439ae3620df0a4d8786d896996c0282b683f9d8c08f046e860405160405180910390a360007f06b7792c761dcc05af1761f0315ce8b01ac39c16cc934eb0b2f7a8e71414f26260001b9050828155505050565b50505050565b600060606000368080601f016020809104026020016040519081016040528093929190818152602001838380828437600081840152601f19601f820116905080830192505050505050509050600080369050905073ffffffffffffffffffffffffffffffffffffffff81830151169250829250505090565b6000606060008391509150915091565b815481835581811115612e1457818360005260206000209182019101612e139190612e45565b5b505050565b815481835581811115612e4057818360005260206000209182019101612e3f9190612e6a565b5b505050565b612e6791905b80821115612e63576000816000905550600101612e4b565b5090565b90565b612e8c91905b80821115612e88576000816000905550600101612e70565b5090565b9056fe47534e426f756e636572426173653a2063616c6c6572206973206e6f742052656c617948756247534e436f6e746578743a206e65772052656c6179487562206973207468652063757272656e74206f6e65436f6e747261637420696e7374616e63652068617320616c7265616479206265656e20696e697469616c697a656447534e436f6e746578743a206e65772052656c617948756220697320746865207a65726f2061646472657373a165627a7a72305820be059032b9271e0ccee259729a5609d5f9700cdd646114551c1bb3216a232de30029",
  "source": "pragma solidity ^0.5.0;\n\nimport \"@openzeppelin/upgrades/contracts/Initializable.sol\";\n\nimport \"./utils/GSNMultiOwnableRecipient.sol\";\nimport \"./bondingcurve/ArtistToken.sol\";\nimport \"./bondingcurve/vendor/ERC20/WPHT.sol\";\nimport \"./Acl.sol\";\n\n/**\n * @title Profile groups together all user's SmartVault activities and enables data control recovery\n * @author Lukas Lukac, Lightstreams, 24.9.2019\n */\ncontract GSNProfile is Initializable, GSNMultiOwnableRecipient {\n    // @dev Base58 decoded CID is stored WITHOUT the leading \"Qm\" to optimise storage space for 32 bytes as SmartVault only uses CID v0.\n    bytes32[] files;\n    address[] acls;\n\n    event FileAdded(address owner, bytes32 cid, address acl);\n    event FileRemoved(address owner, bytes32 cid, address acl);\n    event FileRecovered(bytes32 cid, address acl, address newOwner, address byOwner);\n    event OwnerRecovered(address newOwner, address byOwner);\n\n    event HatchedArtistTokens(uint256 amount);\n    event ClaimedArtistTokens(uint256 amount);\n    event RefundedTokens(uint256 amount);\n    event BoughtArtistTokens(uint256 amount);\n    event TransferArtistTokens(address tokenAddr, address beneficiary, uint256 amount);\n\n    event TransferTokens(address beneficiary, uint256 amount);\n\n    modifier fileExists(bytes32 _cid) {\n        require(hasFile(_cid) == true);\n        _;\n    }\n\n    modifier fileNotExists(bytes32 _cid) {\n        require(hasFile(_cid) == false);\n        _;\n    }\n\n    constructor(address _owner) public GSNMultiOwnableRecipient(_owner) {\n    }\n\n    function() payable external {}\n\n    function addFile(bytes32 _cid, address _acl) public isOwner(_msgSender()) fileNotExists(_cid) {\n        require(ACL(_acl).hasAdmin(address(this)));\n\n        files.push(_cid);\n        acls.push(_acl);\n\n        emit FileAdded(_msgSender(), _cid, _acl);\n    }\n\n    function removeFile(bytes32 _cid) public isOwner(_msgSender()) fileExists(_cid) {\n        (uint256 fileIndex, bool exists) = getFileIndex(_cid);\n        require(exists == true);\n\n        address acl = acls[fileIndex];\n\n        files[fileIndex] = files[files.length - 1];\n        acls[fileIndex] = acls[files.length - 1];\n        files.length--;\n        acls.length--;\n\n        emit FileRemoved(_msgSender(), _cid, acl);\n    }\n\n    function recover(address _newOwner) public isOwner(_msgSender()) {\n        addOwner(_newOwner);\n\n        if (acls.length > 0) {\n            for (uint i = 0; i <= acls.length - 1; i++) {\n                ACL(acls[i]).grantAdmin(_newOwner);\n                emit FileRecovered(files[i], acls[i], _newOwner, _msgSender());\n            }\n        }\n\n        emit OwnerRecovered(_newOwner, _msgSender());\n    }\n\n    function transferTokens(address payable _beneficiary, uint256 _amount) public isOwner(_msgSender()) {\n        require(_beneficiary != address(0), \"Invalid beneficiary address\");\n        _beneficiary.transfer(_amount);\n        emit TransferTokens(_beneficiary, _amount);\n    }\n\n    function hatchArtistToken(address _tokenAddr, address payable _wphtAddr, uint256 _amount, bool _runDeposit) public isOwner(_msgSender()) {\n        WPHT wphtInstance = WPHT(_wphtAddr);\n        ArtistToken tokenInstance = ArtistToken(_tokenAddr);\n        if (_runDeposit) {\n            wphtInstance.deposit.value(_amount)();\n        }\n\n        wphtInstance.approve(_tokenAddr, _amount);\n        uint256 hatchedAmount = tokenInstance.hatchContribute(_amount);\n        emit HatchedArtistTokens(hatchedAmount);\n    }\n\n    function claimArtistToken(address _tokenAddr) public isOwner(_msgSender()) {\n        ArtistToken tokenInstance = ArtistToken(_tokenAddr);\n        uint256 unlockAmount = tokenInstance.claimTokens();\n        emit ClaimedArtistTokens(unlockAmount);\n    }\n\n    function refundArtistToken(address _tokenAddr, address payable _wphtAddr) public isOwner(_msgSender()) {\n        ArtistToken tokenInstance = ArtistToken(_tokenAddr);\n        WPHT wphtInstance = WPHT(_wphtAddr);\n        uint256 refundedAmount = tokenInstance.refund();\n        wphtInstance.withdraw(refundedAmount);\n        emit RefundedTokens(refundedAmount);\n    }\n\n    function buyArtistToken(address _tokenAddr, address payable _wphtAddr, uint256 _amount, bool _runDeposit) public isOwner(_msgSender()) {\n        require(_amount <= address(this).balance, \"Not enought funds\");\n        WPHT wphtInstance = WPHT(_wphtAddr);\n        ArtistToken tokenInstance = ArtistToken(_tokenAddr);\n        if (_runDeposit) {\n            wphtInstance.deposit.value(_amount)();\n        }\n\n        wphtInstance.approve(_tokenAddr, _amount);\n        uint256 boughtAmount = tokenInstance.mint(_amount);\n        emit BoughtArtistTokens(boughtAmount);\n    }\n\n    function transferArtistTokens(address _tokenAddr, address payable _beneficiary, uint256 _amount) public isOwner(_msgSender()) {\n        require(_beneficiary != address(0), \"Invalid beneficiary address\");\n        require(_tokenAddr != address(0), \"Token was not added\");\n\n        ArtistToken tokenInstance = ArtistToken(_tokenAddr);\n        tokenInstance.transfer(_beneficiary, _amount);\n        emit TransferArtistTokens(_tokenAddr, _beneficiary, _amount);\n    }\n\n    /*\n     * READ-ONLY METHODS\n     */\n\n    function hasFile(bytes32 _cid) view public returns (bool) {\n        (, bool exists) = getFileIndex(_cid);\n\n        return exists;\n    }\n\n    function getFiles() view public returns (bytes32[] memory) {\n        return files;\n    }\n\n    function getFileAcl(bytes32 _cid) public view returns (address) {\n        (uint256 fileIndex, bool exists) = getFileIndex(_cid);\n        require(exists == true);\n\n        return acls[fileIndex];\n    }\n\n    function getFileIndex(bytes32 _cid) internal view returns (uint256 index, bool exists) {\n        if (files.length == 0) {\n            return (0, false);\n        }\n\n        for (uint i = 0; i <= files.length - 1; i++) {\n            if (files[i] == _cid) {\n                return (i, true);\n            }\n        }\n\n        return (0, false);\n    }\n\n    // GSN ACTIVATION\n    function initialize(address relayHub) public initializer {\n        GSNRecipient.initialize();\n        _upgradeRelayHub(relayHub);\n    }\n\n    function acceptRelayedCall(\n        address,\n        address,\n        bytes calldata,\n        uint256,\n        uint256,\n        uint256,\n        uint256,\n        bytes calldata,\n        uint256\n    ) external view returns (uint256, bytes memory) {\n        return _approveRelayedCall();\n    }\n\n    function getRecipientBalance() public view returns (uint) {\n        return IRelayHub(getHubAddr()).balanceOf(address(this));\n    }\n\n    function version() public pure returns (uint256) {\n        return 3;\n    }\n}\n",
  "sourcePath": "/home/ggarrido/lightstreams/workspace/lightstreams-js-sdk/contracts/GSNProfile.sol",
  "compiler": {
    "name": "solc",
    "version": "0.5.8+commit.23d335f2.Emscripten.clang"
  },
  "schemaVersion": "3.0.23",
  "updatedAt": "2020-02-07T13:35:31.338Z",
  "devdoc": {
    "author": "Lukas Lukac, Lightstreams, 24.9.2019",
    "methods": {
      "postRelayedCall(bytes,bool,uint256,bytes32)": {
        "details": "See `IRelayRecipient.postRelayedCall`.     * This function should not be overriden directly, use `_postRelayedCall` instead.     * * Requirements:     * - the caller must be the `RelayHub` contract."
      },
      "preRelayedCall(bytes)": {
        "details": "See `IRelayRecipient.preRelayedCall`.     * This function should not be overriden directly, use `_preRelayedCall` instead.     * * Requirements:     * - the caller must be the `RelayHub` contract."
      }
    },
    "title": "Profile groups together all user's SmartVault activities and enables data control recovery"
  },
  "userdoc": {
    "methods": {}
  }
}