{
  "contractName": "GSNProfile",
  "abi": [
    {
      "constant": false,
      "inputs": [
        {
          "name": "_owner",
          "type": "address"
        }
      ],
      "name": "removeOwner",
      "outputs": [],
      "payable": false,
      "stateMutability": "nonpayable",
      "type": "function"
    },
    {
      "constant": true,
      "inputs": [
        {
          "name": "_owner",
          "type": "address"
        }
      ],
      "name": "hasOwner",
      "outputs": [
        {
          "name": "",
          "type": "bool"
        }
      ],
      "payable": false,
      "stateMutability": "view",
      "type": "function"
    },
    {
      "constant": false,
      "inputs": [
        {
          "name": "_newOwner",
          "type": "address"
        }
      ],
      "name": "addOwner",
      "outputs": [],
      "payable": false,
      "stateMutability": "nonpayable",
      "type": "function"
    },
    {
      "constant": true,
      "inputs": [],
      "name": "getHubAddr",
      "outputs": [
        {
          "name": "",
          "type": "address"
        }
      ],
      "payable": false,
      "stateMutability": "view",
      "type": "function"
    },
    {
      "constant": false,
      "inputs": [
        {
          "name": "context",
          "type": "bytes"
        }
      ],
      "name": "preRelayedCall",
      "outputs": [
        {
          "name": "",
          "type": "bytes32"
        }
      ],
      "payable": false,
      "stateMutability": "nonpayable",
      "type": "function"
    },
    {
      "constant": true,
      "inputs": [],
      "name": "getOwners",
      "outputs": [
        {
          "name": "",
          "type": "address[]"
        }
      ],
      "payable": false,
      "stateMutability": "view",
      "type": "function"
    },
    {
      "constant": true,
      "inputs": [],
      "name": "relayHubVersion",
      "outputs": [
        {
          "name": "",
          "type": "string"
        }
      ],
      "payable": false,
      "stateMutability": "view",
      "type": "function"
    },
    {
      "constant": false,
      "inputs": [
        {
          "name": "context",
          "type": "bytes"
        },
        {
          "name": "success",
          "type": "bool"
        },
        {
          "name": "actualCharge",
          "type": "uint256"
        },
        {
          "name": "preRetVal",
          "type": "bytes32"
        }
      ],
      "name": "postRelayedCall",
      "outputs": [],
      "payable": false,
      "stateMutability": "nonpayable",
      "type": "function"
    },
    {
      "inputs": [
        {
          "name": "_owner",
          "type": "address"
        }
      ],
      "payable": false,
      "stateMutability": "nonpayable",
      "type": "constructor"
    },
    {
      "anonymous": false,
      "inputs": [
        {
          "indexed": false,
          "name": "owner",
          "type": "address"
        },
        {
          "indexed": false,
          "name": "cid",
          "type": "bytes32"
        },
        {
          "indexed": false,
          "name": "acl",
          "type": "address"
        }
      ],
      "name": "FileAdded",
      "type": "event"
    },
    {
      "anonymous": false,
      "inputs": [
        {
          "indexed": false,
          "name": "owner",
          "type": "address"
        },
        {
          "indexed": false,
          "name": "cid",
          "type": "bytes32"
        },
        {
          "indexed": false,
          "name": "acl",
          "type": "address"
        }
      ],
      "name": "FileRemoved",
      "type": "event"
    },
    {
      "anonymous": false,
      "inputs": [
        {
          "indexed": false,
          "name": "cid",
          "type": "bytes32"
        },
        {
          "indexed": false,
          "name": "acl",
          "type": "address"
        },
        {
          "indexed": false,
          "name": "newOwner",
          "type": "address"
        },
        {
          "indexed": false,
          "name": "byOwner",
          "type": "address"
        }
      ],
      "name": "FileRecovered",
      "type": "event"
    },
    {
      "anonymous": false,
      "inputs": [
        {
          "indexed": false,
          "name": "newOwner",
          "type": "address"
        },
        {
          "indexed": false,
          "name": "byOwner",
          "type": "address"
        }
      ],
      "name": "OwnerRecovered",
      "type": "event"
    },
    {
      "anonymous": false,
      "inputs": [
        {
          "indexed": false,
          "name": "beneficiary",
          "type": "address"
        },
        {
          "indexed": false,
          "name": "withdrawn",
          "type": "uint256"
        }
      ],
      "name": "Withdraw",
      "type": "event"
    },
    {
      "anonymous": false,
      "inputs": [
        {
          "indexed": false,
          "name": "tokenAddr",
          "type": "address"
        },
        {
          "indexed": false,
          "name": "beneficiary",
          "type": "address"
        },
        {
          "indexed": false,
          "name": "withdrawn",
          "type": "uint256"
        }
      ],
      "name": "WithdrawToken",
      "type": "event"
    },
    {
      "anonymous": false,
      "inputs": [
        {
          "indexed": false,
          "name": "newOwner",
          "type": "address"
        },
        {
          "indexed": false,
          "name": "byOwner",
          "type": "address"
        }
      ],
      "name": "OwnerAdded",
      "type": "event"
    },
    {
      "anonymous": false,
      "inputs": [
        {
          "indexed": false,
          "name": "removedOwner",
          "type": "address"
        },
        {
          "indexed": false,
          "name": "byOwner",
          "type": "address"
        }
      ],
      "name": "OwnerRemoved",
      "type": "event"
    },
    {
      "anonymous": false,
      "inputs": [
        {
          "indexed": true,
          "name": "oldRelayHub",
          "type": "address"
        },
        {
          "indexed": true,
          "name": "newRelayHub",
          "type": "address"
        }
      ],
      "name": "RelayHubChanged",
      "type": "event"
    },
    {
      "constant": false,
      "inputs": [
        {
          "name": "_cid",
          "type": "bytes32"
        },
        {
          "name": "_acl",
          "type": "address"
        }
      ],
      "name": "addFile",
      "outputs": [],
      "payable": false,
      "stateMutability": "nonpayable",
      "type": "function"
    },
    {
      "constant": false,
      "inputs": [
        {
          "name": "_cid",
          "type": "bytes32"
        }
      ],
      "name": "removeFile",
      "outputs": [],
      "payable": false,
      "stateMutability": "nonpayable",
      "type": "function"
    },
    {
      "constant": false,
      "inputs": [
        {
          "name": "_newOwner",
          "type": "address"
        }
      ],
      "name": "recover",
      "outputs": [],
      "payable": false,
      "stateMutability": "nonpayable",
      "type": "function"
    },
    {
      "constant": false,
      "inputs": [
        {
          "name": "_beneficiary",
          "type": "address"
        },
        {
          "name": "_amount",
          "type": "uint256"
        }
      ],
      "name": "withdraw",
      "outputs": [],
      "payable": false,
      "stateMutability": "nonpayable",
      "type": "function"
    },
    {
      "constant": false,
      "inputs": [
        {
          "name": "_tokenAddr",
          "type": "address"
        },
        {
          "name": "_beneficiary",
          "type": "address"
        },
        {
          "name": "_amount",
          "type": "uint256"
        }
      ],
      "name": "withdrawArtistTokens",
      "outputs": [],
      "payable": false,
      "stateMutability": "nonpayable",
      "type": "function"
    },
    {
      "constant": true,
      "inputs": [
        {
          "name": "_cid",
          "type": "bytes32"
        }
      ],
      "name": "hasFile",
      "outputs": [
        {
          "name": "",
          "type": "bool"
        }
      ],
      "payable": false,
      "stateMutability": "view",
      "type": "function"
    },
    {
      "constant": true,
      "inputs": [],
      "name": "getFiles",
      "outputs": [
        {
          "name": "",
          "type": "bytes32[]"
        }
      ],
      "payable": false,
      "stateMutability": "view",
      "type": "function"
    },
    {
      "constant": true,
      "inputs": [
        {
          "name": "_cid",
          "type": "bytes32"
        }
      ],
      "name": "getFileAcl",
      "outputs": [
        {
          "name": "",
          "type": "address"
        }
      ],
      "payable": false,
      "stateMutability": "view",
      "type": "function"
    },
    {
      "constant": false,
      "inputs": [
        {
          "name": "relayHub",
          "type": "address"
        }
      ],
      "name": "initialize",
      "outputs": [],
      "payable": false,
      "stateMutability": "nonpayable",
      "type": "function"
    },
    {
      "constant": false,
      "inputs": [],
      "name": "initialize",
      "outputs": [],
      "payable": false,
      "stateMutability": "nonpayable",
      "type": "function"
    },
    {
      "constant": true,
      "inputs": [
        {
          "name": "",
          "type": "address"
        },
        {
          "name": "",
          "type": "address"
        },
        {
          "name": "",
          "type": "bytes"
        },
        {
          "name": "",
          "type": "uint256"
        },
        {
          "name": "",
          "type": "uint256"
        },
        {
          "name": "",
          "type": "uint256"
        },
        {
          "name": "",
          "type": "uint256"
        },
        {
          "name": "",
          "type": "bytes"
        },
        {
          "name": "",
          "type": "uint256"
        }
      ],
      "name": "acceptRelayedCall",
      "outputs": [
        {
          "name": "",
          "type": "uint256"
        },
        {
          "name": "",
          "type": "bytes"
        }
      ],
      "payable": false,
      "stateMutability": "view",
      "type": "function"
    },
    {
      "constant": true,
      "inputs": [],
      "name": "getRecipientBalance",
      "outputs": [
        {
          "name": "",
          "type": "uint256"
        }
      ],
      "payable": false,
      "stateMutability": "view",
      "type": "function"
    },
    {
      "constant": true,
      "inputs": [],
      "name": "version",
      "outputs": [
        {
          "name": "",
          "type": "uint256"
        }
      ],
      "payable": false,
      "stateMutability": "pure",
      "type": "function"
    }
  ],
  "bytecode": "0x608060405234801561001057600080fd5b506040516020806125ed8339810180604052602081101561003057600080fd5b81019080805190602001909291905050508060338190806001815401808255809150509060018203906000526020600020016000909192909190916101000a81548173ffffffffffffffffffffffffffffffffffffffff021916908373ffffffffffffffffffffffffffffffffffffffff160217905550505050612534806100b96000396000f3fe608060405234801561001057600080fd5b50600436106101375760003560e01c806380274db7116100b8578063ac5704111161007c578063ac5704111461073a578063ac70905114610758578063ad61ccd51461079e578063c4d66de814610821578063e06e0e2214610865578063f3fef3a3146108fe57610137565b806380274db7146104355780638129fc1c146104c257806383947ea0146104cc5780639a93e5dd1461068d578063a0e67e2b146106db57610137565b80632da96d73116100ff5780632da96d73146102bc5780634e1b1e601461031b57806354fd4d50146103895780637065cb48146103a757806374e861d6146103eb57610137565b80630bef429b1461013c5780630cd865ec1461016a578063173825d9146101ae578063230b3790146101f25780632c290b501461024e575b600080fd5b6101686004803603602081101561015257600080fd5b810190808035906020019092919050505061094c565b005b6101ac6004803603602081101561018057600080fd5b81019080803573ffffffffffffffffffffffffffffffffffffffff169060200190929190505050610b8e565b005b6101f0600480360360208110156101c457600080fd5b81019080803573ffffffffffffffffffffffffffffffffffffffff169060200190929190505050610e82565b005b6102346004803603602081101561020857600080fd5b81019080803573ffffffffffffffffffffffffffffffffffffffff169060200190929190505050611025565b604051808215151515815260200191505060405180910390f35b6102ba6004803603606081101561026457600080fd5b81019080803573ffffffffffffffffffffffffffffffffffffffff169060200190929190803573ffffffffffffffffffffffffffffffffffffffff1690602001909291908035906020019092919050505061103d565b005b6102c4611312565b6040518080602001828103825283818151815260200191508051906020019060200280838360005b838110156103075780820151818401526020810190506102ec565b505050509050019250505060405180910390f35b6103476004803603602081101561033157600080fd5b810190808035906020019092919050505061136a565b604051808273ffffffffffffffffffffffffffffffffffffffff1673ffffffffffffffffffffffffffffffffffffffff16815260200191505060405180910390f35b6103916113ce565b6040518082815260200191505060405180910390f35b6103e9600480360360208110156103bd57600080fd5b81019080803573ffffffffffffffffffffffffffffffffffffffff1690602001909291905050506113d7565b005b6103f361151b565b604051808273ffffffffffffffffffffffffffffffffffffffff1673ffffffffffffffffffffffffffffffffffffffff16815260200191505060405180910390f35b6104ac6004803603602081101561044b57600080fd5b810190808035906020019064010000000081111561046857600080fd5b82018360208201111561047a57600080fd5b8035906020019184600183028401116401000000008311171561049c57600080fd5b909192939192939050505061152a565b6040518082815260200191505060405180910390f35b6104ca61160c565b005b61060b60048036036101208110156104e357600080fd5b81019080803573ffffffffffffffffffffffffffffffffffffffff169060200190929190803573ffffffffffffffffffffffffffffffffffffffff1690602001909291908035906020019064010000000081111561054057600080fd5b82018360208201111561055257600080fd5b8035906020019184600183028401116401000000008311171561057457600080fd5b909192939192939080359060200190929190803590602001909291908035906020019092919080359060200190929190803590602001906401000000008111156105bd57600080fd5b8201836020820111156105cf57600080fd5b803590602001918460018302840111640100000000831117156105f157600080fd5b909192939192939080359060200190929190505050611713565b6040518083815260200180602001828103825283818151815260200191508051906020019080838360005b83811015610651578082015181840152602081019050610636565b50505050905090810190601f16801561067e5780820380516001836020036101000a031916815260200191505b50935050505060405180910390f35b6106d9600480360360408110156106a357600080fd5b8101908080359060200190929190803573ffffffffffffffffffffffffffffffffffffffff169060200190929190505050611733565b005b6106e361196d565b6040518080602001828103825283818151815260200191508051906020019060200280838360005b8381101561072657808201518184015260208101905061070b565b505050509050019250505060405180910390f35b6107426119fb565b6040518082815260200191505060405180910390f35b6107846004803603602081101561076e57600080fd5b8101908080359060200190929190505050611ac1565b604051808215151515815260200191505060405180910390f35b6107a6611ad9565b6040518080602001828103825283818151815260200191508051906020019080838360005b838110156107e65780820151818401526020810190506107cb565b50505050905090810190601f1680156108135780820380516001836020036101000a031916815260200191505b509250505060405180910390f35b6108636004803603602081101561083757600080fd5b81019080803573ffffffffffffffffffffffffffffffffffffffff169060200190929190505050611b16565b005b6108fc6004803603608081101561087b57600080fd5b810190808035906020019064010000000081111561089857600080fd5b8201836020820111156108aa57600080fd5b803590602001918460018302840111640100000000831117156108cc57600080fd5b90919293919293908035151590602001909291908035906020019092919080359060200190929190505050611c27565b005b61094a6004803603604081101561091457600080fd5b81019080803573ffffffffffffffffffffffffffffffffffffffff16906020019092919080359060200190929190505050611d09565b005b610954611e84565b6001151561096182611025565b15151461096d57600080fd5b816001151561097b82611ac1565b15151461098757600080fd5b60008061099385611ed6565b9150915060011515811515146109a857600080fd5b6000603583815481106109b757fe5b9060005260206000200160009054906101000a900473ffffffffffffffffffffffffffffffffffffffff1690506034600160348054905003815481106109f957fe5b906000526020600020015460348481548110610a1157fe5b9060005260206000200181905550603560016034805490500381548110610a3457fe5b9060005260206000200160009054906101000a900473ffffffffffffffffffffffffffffffffffffffff1660358481548110610a6c57fe5b9060005260206000200160006101000a81548173ffffffffffffffffffffffffffffffffffffffff021916908373ffffffffffffffffffffffffffffffffffffffff1602179055506034805480919060019003610ac991906123bb565b506035805480919060019003610adf91906123e7565b507f18d0c92a01adb859e57b76c53f1801a82dd8f8419fac502b2a9b416c5d3999d4610b09611e84565b8783604051808473ffffffffffffffffffffffffffffffffffffffff1673ffffffffffffffffffffffffffffffffffffffff1681526020018381526020018273ffffffffffffffffffffffffffffffffffffffff1673ffffffffffffffffffffffffffffffffffffffff168152602001935050505060405180910390a1505050505050565b610b96611e84565b60011515610ba382611025565b151514610baf57600080fd5b610bb8826113d7565b60006035805490501115610de05760008090505b6001603580549050038111610dde5760358181548110610be857fe5b9060005260206000200160009054906101000a900473ffffffffffffffffffffffffffffffffffffffff1673ffffffffffffffffffffffffffffffffffffffff166335bb3e16846040518263ffffffff1660e01b8152600401808273ffffffffffffffffffffffffffffffffffffffff1673ffffffffffffffffffffffffffffffffffffffff168152602001915050600060405180830381600087803b158015610c9157600080fd5b505af1158015610ca5573d6000803e3d6000fd5b505050507fb1d7980376ee442938a8f9cdc5c2b484565fdaeab23734357f65d747eaf23c0a60348281548110610cd757fe5b906000526020600020015460358381548110610cef57fe5b9060005260206000200160009054906101000a900473ffffffffffffffffffffffffffffffffffffffff1685610d23611e84565b604051808581526020018473ffffffffffffffffffffffffffffffffffffffff1673ffffffffffffffffffffffffffffffffffffffff1681526020018373ffffffffffffffffffffffffffffffffffffffff1673ffffffffffffffffffffffffffffffffffffffff1681526020018273ffffffffffffffffffffffffffffffffffffffff1673ffffffffffffffffffffffffffffffffffffffff16815260200194505050505060405180910390a18080600101915050610bcc565b505b7f658a0f6969d7663ef009b782e098ec752cdf0beed99b9a188dd1d77d539a1a3e82610e0a611e84565b604051808373ffffffffffffffffffffffffffffffffffffffff1673ffffffffffffffffffffffffffffffffffffffff1681526020018273ffffffffffffffffffffffffffffffffffffffff1673ffffffffffffffffffffffffffffffffffffffff1681526020019250505060405180910390a15050565b610e8a611e84565b60011515610e9782611025565b151514610ea357600080fd5b600160338054905011610eb557600080fd5b600080610ec184611f55565b915091506001151581151514610ed657600080fd5b603360016033805490500381548110610eeb57fe5b9060005260206000200160009054906101000a900473ffffffffffffffffffffffffffffffffffffffff1660338381548110610f2357fe5b9060005260206000200160006101000a81548173ffffffffffffffffffffffffffffffffffffffff021916908373ffffffffffffffffffffffffffffffffffffffff1602179055506033805480919060019003610f8091906123e7565b507fe594d081b4382713733fe631966432c9cea5199afb2db5c3c1931f9f9300367984610fab611e84565b604051808373ffffffffffffffffffffffffffffffffffffffff1673ffffffffffffffffffffffffffffffffffffffff1681526020018273ffffffffffffffffffffffffffffffffffffffff1673ffffffffffffffffffffffffffffffffffffffff1681526020019250505060405180910390a150505050565b60008061103183611f55565b91505080915050919050565b611045611e84565b6001151561105282611025565b15151461105e57600080fd5b600073ffffffffffffffffffffffffffffffffffffffff168373ffffffffffffffffffffffffffffffffffffffff161415611101576040517f08c379a000000000000000000000000000000000000000000000000000000000815260040180806020018281038252601b8152602001807f496e76616c69642062656e65666963696172792061646472657373000000000081525060200191505060405180910390fd5b600073ffffffffffffffffffffffffffffffffffffffff168473ffffffffffffffffffffffffffffffffffffffff1614156111a4576040517f08c379a00000000000000000000000000000000000000000000000000000000081526004018080602001828103825260138152602001807f546f6b656e20776173206e6f742061646465640000000000000000000000000081525060200191505060405180910390fd5b60008490508073ffffffffffffffffffffffffffffffffffffffff1663a9059cbb85856040518363ffffffff1660e01b8152600401808373ffffffffffffffffffffffffffffffffffffffff1673ffffffffffffffffffffffffffffffffffffffff16815260200182815260200192505050602060405180830381600087803b15801561123057600080fd5b505af1158015611244573d6000803e3d6000fd5b505050506040513d602081101561125a57600080fd5b8101908080519060200190929190505050507f037238854fe57fbf51f09946f854fc3916fe83938d6521f09bd05463839f1304858585604051808473ffffffffffffffffffffffffffffffffffffffff1673ffffffffffffffffffffffffffffffffffffffff1681526020018373ffffffffffffffffffffffffffffffffffffffff1673ffffffffffffffffffffffffffffffffffffffff168152602001828152602001935050505060405180910390a15050505050565b6060603480548060200260200160405190810160405280929190818152602001828054801561136057602002820191906000526020600020905b81548152602001906001019080831161134c575b5050505050905090565b600080600061137884611ed6565b91509150600115158115151461138d57600080fd5b6035828154811061139a57fe5b9060005260206000200160009054906101000a900473ffffffffffffffffffffffffffffffffffffffff1692505050919050565b60006003905090565b6113df611e84565b600115156113ec82611025565b1515146113f857600080fd5b816000151561140682611025565b15151461141257600080fd5b60338390806001815401808255809150509060018203906000526020600020016000909192909190916101000a81548173ffffffffffffffffffffffffffffffffffffffff021916908373ffffffffffffffffffffffffffffffffffffffff160217905550507fc82bdbbf677a2462f2a7e22e4ba9abd209496b69cd7b868b3b1d28f76e09a40a836114a2611e84565b604051808373ffffffffffffffffffffffffffffffffffffffff1673ffffffffffffffffffffffffffffffffffffffff1681526020018273ffffffffffffffffffffffffffffffffffffffff1673ffffffffffffffffffffffffffffffffffffffff1681526020019250505060405180910390a1505050565b6000611525612003565b905090565b600061153461151b565b73ffffffffffffffffffffffffffffffffffffffff163373ffffffffffffffffffffffffffffffffffffffff16146115b7576040517f08c379a000000000000000000000000000000000000000000000000000000000815260040180806020018281038252602681526020018061245e6026913960400191505060405180910390fd5b61160483838080601f016020809104026020016040519081016040528093929190818152602001838380828437600081840152601f19601f82011690508083019250505050505050612034565b905092915050565b600060019054906101000a900460ff168061162b575061162a61203b565b5b8061164257506000809054906101000a900460ff16155b611697576040517f08c379a000000000000000000000000000000000000000000000000000000000815260040180806020018281038252602e8152602001806124af602e913960400191505060405180910390fd5b60008060019054906101000a900460ff1615905080156116e7576001600060016101000a81548160ff02191690831515021790555060016000806101000a81548160ff0219169083151502179055505b6116ef61204c565b80156117105760008060016101000a81548160ff0219169083151502179055505b50565b6000606061171f612168565b915091509b509b9950505050505050505050565b61173b611e84565b6001151561174882611025565b15151461175457600080fd5b826000151561176282611ac1565b15151461176e57600080fd5b8273ffffffffffffffffffffffffffffffffffffffff166335950fed306040518263ffffffff1660e01b8152600401808273ffffffffffffffffffffffffffffffffffffffff1673ffffffffffffffffffffffffffffffffffffffff16815260200191505060206040518083038186803b1580156117eb57600080fd5b505afa1580156117ff573d6000803e3d6000fd5b505050506040513d602081101561181557600080fd5b810190808051906020019092919050505061182f57600080fd5b603484908060018154018082558091505090600182039060005260206000200160009091929091909150555060358390806001815401808255809150509060018203906000526020600020016000909192909190916101000a81548173ffffffffffffffffffffffffffffffffffffffff021916908373ffffffffffffffffffffffffffffffffffffffff160217905550507fcbc3c5c4939f7c16221db31308c42ed19507b66ff7a18673a261ba7268bc9cb76118ea611e84565b8585604051808473ffffffffffffffffffffffffffffffffffffffff1673ffffffffffffffffffffffffffffffffffffffff1681526020018381526020018273ffffffffffffffffffffffffffffffffffffffff1673ffffffffffffffffffffffffffffffffffffffff168152602001935050505060405180910390a150505050565b606060338054806020026020016040519081016040528092919081815260200182805480156119f157602002820191906000526020600020905b8160009054906101000a900473ffffffffffffffffffffffffffffffffffffffff1673ffffffffffffffffffffffffffffffffffffffff16815260200190600101908083116119a7575b5050505050905090565b6000611a0561151b565b73ffffffffffffffffffffffffffffffffffffffff166370a08231306040518263ffffffff1660e01b8152600401808273ffffffffffffffffffffffffffffffffffffffff1673ffffffffffffffffffffffffffffffffffffffff16815260200191505060206040518083038186803b158015611a8157600080fd5b505afa158015611a95573d6000803e3d6000fd5b505050506040513d6020811015611aab57600080fd5b8101908080519060200190929190505050905090565b600080611acd83611ed6565b91505080915050919050565b60606040518060400160405280600581526020017f312e302e30000000000000000000000000000000000000000000000000000000815250905090565b600060019054906101000a900460ff1680611b355750611b3461203b565b5b80611b4c57506000809054906101000a900460ff16155b611ba1576040517f08c379a000000000000000000000000000000000000000000000000000000000815260040180806020018281038252602e8152602001806124af602e913960400191505060405180910390fd5b60008060019054906101000a900460ff161590508015611bf1576001600060016101000a81548160ff02191690831515021790555060016000806101000a81548160ff0219169083151502179055505b611bf961160c565b611c028261218c565b8015611c235760008060016101000a81548160ff0219169083151502179055505b5050565b611c2f61151b565b73ffffffffffffffffffffffffffffffffffffffff163373ffffffffffffffffffffffffffffffffffffffff1614611cb2576040517f08c379a000000000000000000000000000000000000000000000000000000000815260040180806020018281038252602681526020018061245e6026913960400191505060405180910390fd5b611d0285858080601f016020809104026020016040519081016040528093929190818152602001838380828437600081840152601f19601f8201169050808301925050505050505084848461232d565b5050505050565b611d11611e84565b60011515611d1e82611025565b151514611d2a57600080fd5b600073ffffffffffffffffffffffffffffffffffffffff168373ffffffffffffffffffffffffffffffffffffffff161415611dcd576040517f08c379a000000000000000000000000000000000000000000000000000000000815260040180806020018281038252601b8152602001807f496e76616c69642062656e65666963696172792061646472657373000000000081525060200191505060405180910390fd5b8273ffffffffffffffffffffffffffffffffffffffff166108fc839081150290604051600060405180830381858888f19350505050158015611e13573d6000803e3d6000fd5b507f884edad9ce6fa2440d8a54cc123490eb96d2768479d49ff9c7366125a94243648383604051808373ffffffffffffffffffffffffffffffffffffffff1673ffffffffffffffffffffffffffffffffffffffff1681526020018281526020019250505060405180910390a1505050565b6000611e8e612003565b73ffffffffffffffffffffffffffffffffffffffff163373ffffffffffffffffffffffffffffffffffffffff1614611ec857339050611ed3565b611ed0612333565b90505b90565b60008060006034805490501415611ef65760008081915091509150611f50565b60008090505b6001603480549050038111611f44578360348281548110611f1957fe5b90600052602060002001541415611f37578060019250925050611f50565b8080600101915050611efc565b50600080819150915091505b915091565b60008060008090505b6001603380549050038111611ff2578373ffffffffffffffffffffffffffffffffffffffff1660338281548110611f9157fe5b9060005260206000200160009054906101000a900473ffffffffffffffffffffffffffffffffffffffff1673ffffffffffffffffffffffffffffffffffffffff161415611fe5578060019250925050611ffe565b8080600101915050611f5e565b50600080819150915091505b915091565b6000807f06b7792c761dcc05af1761f0315ce8b01ac39c16cc934eb0b2f7a8e71414f26260001b9050805491505090565b6000919050565b600080303b90506000811491505090565b600060019054906101000a900460ff168061206b575061206a61203b565b5b8061208257506000809054906101000a900460ff16155b6120d7576040517f08c379a000000000000000000000000000000000000000000000000000000000815260040180806020018281038252602e8152602001806124af602e913960400191505060405180910390fd5b60008060019054906101000a900460ff161590508015612127576001600060016101000a81548160ff02191690831515021790555060016000806101000a81548160ff0219169083151502179055505b61214473d216153c06e857cd7f72665e0af1d7d82172f49461218c565b80156121655760008060016101000a81548160ff0219169083151502179055505b50565b60006060612184604051806020016040528060008152506123ab565b915091509091565b6000612196612003565b9050600073ffffffffffffffffffffffffffffffffffffffff168273ffffffffffffffffffffffffffffffffffffffff16141561221e576040517f08c379a000000000000000000000000000000000000000000000000000000000815260040180806020018281038252602c8152602001806124dd602c913960400191505060405180910390fd5b8073ffffffffffffffffffffffffffffffffffffffff168273ffffffffffffffffffffffffffffffffffffffff1614156122a3576040517f08c379a000000000000000000000000000000000000000000000000000000000815260040180806020018281038252602b815260200180612484602b913960400191505060405180910390fd5b8173ffffffffffffffffffffffffffffffffffffffff168173ffffffffffffffffffffffffffffffffffffffff167fb9f84b8e65164b14439ae3620df0a4d8786d896996c0282b683f9d8c08f046e860405160405180910390a360007f06b7792c761dcc05af1761f0315ce8b01ac39c16cc934eb0b2f7a8e71414f26260001b9050828155505050565b50505050565b600060606000368080601f016020809104026020016040519081016040528093929190818152602001838380828437600081840152601f19601f820116905080830192505050505050509050600080369050905073ffffffffffffffffffffffffffffffffffffffff81830151169250829250505090565b6000606060008391509150915091565b8154818355818111156123e2578183600052602060002091820191016123e19190612413565b5b505050565b81548183558181111561240e5781836000526020600020918201910161240d9190612438565b5b505050565b61243591905b80821115612431576000816000905550600101612419565b5090565b90565b61245a91905b8082111561245657600081600090555060010161243e565b5090565b9056fe47534e426f756e636572426173653a2063616c6c6572206973206e6f742052656c617948756247534e436f6e746578743a206e65772052656c6179487562206973207468652063757272656e74206f6e65436f6e747261637420696e7374616e63652068617320616c7265616479206265656e20696e697469616c697a656447534e436f6e746578743a206e65772052656c617948756220697320746865207a65726f2061646472657373a165627a7a7230582058ec32f448ff9e29a0443e6bc7702afeecab6181d52e3952c7796eee38f751760029",
  "source": "pragma solidity ^0.5.0;\n\nimport \"@openzeppelin/upgrades/contracts/Initializable.sol\";\n\nimport \"./utils/GSNMultiOwnableRecipient.sol\";\nimport \"./bondingcurve/ArtistToken.sol\";\nimport \"./Acl.sol\";\n\n/**\n * @title Profile groups together all user's SmartVault activities and enables data control recovery\n * @author Lukas Lukac, Lightstreams, 24.9.2019\n */\ncontract GSNProfile is Initializable, GSNMultiOwnableRecipient {\n    // @dev Base58 decoded CID is stored WITHOUT the leading \"Qm\" to optimise storage space for 32 bytes as SmartVault only uses CID v0.\n    bytes32[] files;\n    address[] acls;\n\n    event FileAdded(address owner, bytes32 cid, address acl);\n    event FileRemoved(address owner, bytes32 cid, address acl);\n    event FileRecovered(bytes32 cid, address acl, address newOwner, address byOwner);\n    event OwnerRecovered(address newOwner, address byOwner);\n\n    event Withdraw(address beneficiary, uint256 withdrawn);\n    event WithdrawToken(address tokenAddr, address beneficiary, uint256 withdrawn);\n\n    modifier fileExists(bytes32 _cid) {\n        require(hasFile(_cid) == true);\n        _;\n    }\n\n    modifier fileNotExists(bytes32 _cid) {\n        require(hasFile(_cid) == false);\n        _;\n    }\n\n    constructor(address _owner) public GSNMultiOwnableRecipient(_owner) {\n    }\n\n    function addFile(bytes32 _cid, address _acl) public isOwner(_msgSender()) fileNotExists(_cid) {\n        require(ACL(_acl).hasAdmin(address(this)));\n\n        files.push(_cid);\n        acls.push(_acl);\n\n        emit FileAdded(_msgSender(), _cid, _acl);\n    }\n\n    function removeFile(bytes32 _cid) public isOwner(_msgSender()) fileExists(_cid) {\n        (uint256 fileIndex, bool exists) = getFileIndex(_cid);\n        require(exists == true);\n\n        address acl = acls[fileIndex];\n\n        files[fileIndex] = files[files.length - 1];\n        acls[fileIndex] = acls[files.length - 1];\n        files.length--;\n        acls.length--;\n\n        emit FileRemoved(_msgSender(), _cid, acl);\n    }\n\n    function recover(address _newOwner) public isOwner(_msgSender()) {\n        addOwner(_newOwner);\n\n        if (acls.length > 0) {\n            for (uint i = 0; i <= acls.length - 1; i++) {\n                ACL(acls[i]).grantAdmin(_newOwner);\n                emit FileRecovered(files[i], acls[i], _newOwner, _msgSender());\n            }\n        }\n\n        emit OwnerRecovered(_newOwner, _msgSender());\n    }\n\n    function withdraw(address payable _beneficiary, uint256 _amount) public isOwner(_msgSender()) {\n        require(_beneficiary != address(0), \"Invalid beneficiary address\");\n\n//        uint256 _withdrawable = address(this).balance;\n//        if (_amount > _withdrawable) {\n//            revert(\"There is not sufficient funds\");\n//        }\n\n        _beneficiary.transfer(_amount);\n        emit Withdraw(_beneficiary, _amount);\n    }\n\n    function withdrawArtistTokens(address _tokenAddr, address payable _beneficiary, uint256 _amount) public isOwner(_msgSender()) {\n        require(_beneficiary != address(0), \"Invalid beneficiary address\");\n        require(_tokenAddr != address(0), \"Token was not added\");\n\n        ArtistToken tokenInstance = ArtistToken(_tokenAddr);\n//        uint256 _withdrawable = tokenInstance.balanceOf(address(this));\n//        if (_amount > _withdrawable) {\n//            revert(\"There is not sufficient funds\");\n//        }\n\n        tokenInstance.transfer(_beneficiary, _amount);\n        emit WithdrawToken(_tokenAddr, _beneficiary, _amount);\n    }\n\n    /*\n     * READ-ONLY METHODS\n     */\n\n    function hasFile(bytes32 _cid) view public returns (bool) {\n        (, bool exists) = getFileIndex(_cid);\n\n        return exists;\n    }\n\n    function getFiles() view public returns (bytes32[] memory) {\n        return files;\n    }\n\n    function getFileAcl(bytes32 _cid) public view returns (address) {\n        (uint256 fileIndex, bool exists) = getFileIndex(_cid);\n        require(exists == true);\n\n        return acls[fileIndex];\n    }\n\n    function getFileIndex(bytes32 _cid) internal view returns (uint256 index, bool exists) {\n        if (files.length == 0) {\n            return (0, false);\n        }\n\n        for (uint i = 0; i <= files.length - 1; i++) {\n            if (files[i] == _cid) {\n                return (i, true);\n            }\n        }\n\n        return (0, false);\n    }\n\n    // GSN ACTIVATION\n    function initialize(address relayHub) public initializer {\n        GSNRecipient.initialize();\n        _upgradeRelayHub(relayHub);\n    }\n\n    function acceptRelayedCall(\n        address,\n        address,\n        bytes calldata,\n        uint256,\n        uint256,\n        uint256,\n        uint256,\n        bytes calldata,\n        uint256\n    ) external view returns (uint256, bytes memory) {\n        return _approveRelayedCall();\n    }\n\n    function getRecipientBalance() public view returns (uint) {\n        return IRelayHub(getHubAddr()).balanceOf(address(this));\n    }\n\n    function version() public pure returns (uint256) {\n        return 3;\n    }\n}\n",
  "sourcePath": "/home/ggarrido/lightstreams/workspace/lightstreams-js-sdk/contracts/GSNProfile.sol",
  "compiler": {
    "name": "solc",
    "version": "0.5.8+commit.23d335f2.Emscripten.clang"
  },
  "schemaVersion": "3.0.23",
  "updatedAt": "2020-02-06T12:01:50.253Z",
  "devdoc": {
    "author": "Lukas Lukac, Lightstreams, 24.9.2019",
    "methods": {
      "postRelayedCall(bytes,bool,uint256,bytes32)": {
        "details": "See `IRelayRecipient.postRelayedCall`.     * This function should not be overriden directly, use `_postRelayedCall` instead.     * * Requirements:     * - the caller must be the `RelayHub` contract."
      },
      "preRelayedCall(bytes)": {
        "details": "See `IRelayRecipient.preRelayedCall`.     * This function should not be overriden directly, use `_preRelayedCall` instead.     * * Requirements:     * - the caller must be the `RelayHub` contract."
      }
    },
    "title": "Profile groups together all user's SmartVault activities and enables data control recovery"
  },
  "userdoc": {
    "methods": {}
  }
}