{
  "contractName": "GSNProfileFactory",
  "abi": [
    {
      "constant": true,
      "inputs": [],
      "name": "version",
      "outputs": [
        {
          "name": "",
          "type": "uint256"
        }
      ],
      "payable": false,
      "stateMutability": "pure",
      "type": "function"
    },
    {
      "constant": true,
      "inputs": [],
      "name": "getHubAddr",
      "outputs": [
        {
          "name": "",
          "type": "address"
        }
      ],
      "payable": false,
      "stateMutability": "view",
      "type": "function"
    },
    {
      "constant": false,
      "inputs": [
        {
          "name": "context",
          "type": "bytes"
        }
      ],
      "name": "preRelayedCall",
      "outputs": [
        {
          "name": "",
          "type": "bytes32"
        }
      ],
      "payable": false,
      "stateMutability": "nonpayable",
      "type": "function"
    },
    {
      "constant": false,
      "inputs": [],
      "name": "initialize",
      "outputs": [],
      "payable": false,
      "stateMutability": "nonpayable",
      "type": "function"
    },
    {
      "constant": true,
      "inputs": [
        {
          "name": "",
          "type": "address"
        },
        {
          "name": "",
          "type": "address"
        },
        {
          "name": "",
          "type": "bytes"
        },
        {
          "name": "",
          "type": "uint256"
        },
        {
          "name": "",
          "type": "uint256"
        },
        {
          "name": "",
          "type": "uint256"
        },
        {
          "name": "",
          "type": "uint256"
        },
        {
          "name": "",
          "type": "bytes"
        },
        {
          "name": "",
          "type": "uint256"
        }
      ],
      "name": "acceptRelayedCall",
      "outputs": [
        {
          "name": "",
          "type": "uint256"
        },
        {
          "name": "",
          "type": "bytes"
        }
      ],
      "payable": false,
      "stateMutability": "view",
      "type": "function"
    },
    {
      "constant": true,
      "inputs": [],
      "name": "getRecipientBalance",
      "outputs": [
        {
          "name": "",
          "type": "uint256"
        }
      ],
      "payable": false,
      "stateMutability": "view",
      "type": "function"
    },
    {
      "constant": true,
      "inputs": [],
      "name": "relayHubVersion",
      "outputs": [
        {
          "name": "",
          "type": "string"
        }
      ],
      "payable": false,
      "stateMutability": "view",
      "type": "function"
    },
    {
      "constant": true,
      "inputs": [],
      "name": "profileFunding",
      "outputs": [
        {
          "name": "",
          "type": "uint256"
        }
      ],
      "payable": false,
      "stateMutability": "view",
      "type": "function"
    },
    {
      "constant": false,
      "inputs": [
        {
          "name": "relayHub",
          "type": "address"
        }
      ],
      "name": "initialize",
      "outputs": [],
      "payable": false,
      "stateMutability": "nonpayable",
      "type": "function"
    },
    {
      "constant": false,
      "inputs": [
        {
          "name": "context",
          "type": "bytes"
        },
        {
          "name": "success",
          "type": "bool"
        },
        {
          "name": "actualCharge",
          "type": "uint256"
        },
        {
          "name": "preRetVal",
          "type": "bytes32"
        }
      ],
      "name": "postRelayedCall",
      "outputs": [],
      "payable": false,
      "stateMutability": "nonpayable",
      "type": "function"
    },
    {
      "inputs": [
        {
          "name": "_profileFunding",
          "type": "uint256"
        }
      ],
      "payable": false,
      "stateMutability": "nonpayable",
      "type": "constructor"
    },
    {
      "payable": true,
      "stateMutability": "payable",
      "type": "fallback"
    },
    {
      "anonymous": false,
      "inputs": [
        {
          "indexed": false,
          "name": "addr",
          "type": "address"
        },
        {
          "indexed": false,
          "name": "owner",
          "type": "address"
        }
      ],
      "name": "NewProfile",
      "type": "event"
    },
    {
      "anonymous": false,
      "inputs": [
        {
          "indexed": true,
          "name": "oldRelayHub",
          "type": "address"
        },
        {
          "indexed": true,
          "name": "newRelayHub",
          "type": "address"
        }
      ],
      "name": "RelayHubChanged",
      "type": "event"
    },
    {
      "constant": false,
      "inputs": [
        {
          "name": "_owner",
          "type": "address"
        }
      ],
      "name": "newProfile",
      "outputs": [
        {
          "name": "",
          "type": "address"
        }
      ],
      "payable": false,
      "stateMutability": "nonpayable",
      "type": "function"
    }
  ],
  "bytecode": "0x608060405234801561001057600080fd5b506040516020806137dd8339810180604052602081101561003057600080fd5b81019080805190602001909291905050508060338190555050613785806100586000396000f3fe60806040526004361061009c5760003560e01c8063a5d7118111610064578063a5d711811461039f578063ac57041114610430578063ad61ccd51461045b578063beba5cbf146104eb578063c4d66de814610516578063e06e0e22146105675761009c565b806354fd4d501461009e57806374e861d6146100c957806380274db7146101205780638129fc1c146101ba57806383947ea0146101d1575b005b3480156100aa57600080fd5b506100b361060d565b6040518082815260200191505060405180910390f35b3480156100d557600080fd5b506100de610616565b604051808273ffffffffffffffffffffffffffffffffffffffff1673ffffffffffffffffffffffffffffffffffffffff16815260200191505060405180910390f35b34801561012c57600080fd5b506101a46004803603602081101561014357600080fd5b810190808035906020019064010000000081111561016057600080fd5b82018360208201111561017257600080fd5b8035906020019184600183028401116401000000008311171561019457600080fd5b9091929391929390505050610625565b6040518082815260200191505060405180910390f35b3480156101c657600080fd5b506101cf610707565b005b3480156101dd57600080fd5b5061031d60048036036101208110156101f557600080fd5b81019080803573ffffffffffffffffffffffffffffffffffffffff169060200190929190803573ffffffffffffffffffffffffffffffffffffffff1690602001909291908035906020019064010000000081111561025257600080fd5b82018360208201111561026457600080fd5b8035906020019184600183028401116401000000008311171561028657600080fd5b909192939192939080359060200190929190803590602001909291908035906020019092919080359060200190929190803590602001906401000000008111156102cf57600080fd5b8201836020820111156102e157600080fd5b8035906020019184600183028401116401000000008311171561030357600080fd5b90919293919293908035906020019092919050505061080e565b6040518083815260200180602001828103825283818151815260200191508051906020019080838360005b83811015610363578082015181840152602081019050610348565b50505050905090810190601f1680156103905780820380516001836020036101000a031916815260200191505b50935050505060405180910390f35b3480156103ab57600080fd5b506103ee600480360360208110156103c257600080fd5b81019080803573ffffffffffffffffffffffffffffffffffffffff16906020019092919050505061082e565b604051808273ffffffffffffffffffffffffffffffffffffffff1673ffffffffffffffffffffffffffffffffffffffff16815260200191505060405180910390f35b34801561043c57600080fd5b50610445610a78565b6040518082815260200191505060405180910390f35b34801561046757600080fd5b50610470610b3e565b6040518080602001828103825283818151815260200191508051906020019080838360005b838110156104b0578082015181840152602081019050610495565b50505050905090810190601f1680156104dd5780820380516001836020036101000a031916815260200191505b509250505060405180910390f35b3480156104f757600080fd5b50610500610b7b565b6040518082815260200191505060405180910390f35b34801561052257600080fd5b506105656004803603602081101561053957600080fd5b81019080803573ffffffffffffffffffffffffffffffffffffffff169060200190929190505050610b81565b005b34801561057357600080fd5b5061060b6004803603608081101561058a57600080fd5b81019080803590602001906401000000008111156105a757600080fd5b8201836020820111156105b957600080fd5b803590602001918460018302840111640100000000831117156105db57600080fd5b90919293919293908035151590602001909291908035906020019092919080359060200190929190505050610c92565b005b60006001905090565b6000610620610d74565b905090565b600061062f610616565b73ffffffffffffffffffffffffffffffffffffffff163373ffffffffffffffffffffffffffffffffffffffff16146106b2576040517f08c379a00000000000000000000000000000000000000000000000000000000081526004018080602001828103825260268152602001806136af6026913960400191505060405180910390fd5b6106ff83838080601f016020809104026020016040519081016040528093929190818152602001838380828437600081840152601f19601f82011690508083019250505050505050610da5565b905092915050565b600060019054906101000a900460ff16806107265750610725610dac565b5b8061073d57506000809054906101000a900460ff16155b610792576040517f08c379a000000000000000000000000000000000000000000000000000000000815260040180806020018281038252602e815260200180613700602e913960400191505060405180910390fd5b60008060019054906101000a900460ff1615905080156107e2576001600060016101000a81548160ff02191690831515021790555060016000806101000a81548160ff0219169083151502179055505b6107ea610dbd565b801561080b5760008060016101000a81548160ff0219169083151502179055505b50565b6000606061081a610ed9565b915091509b509b9950505050505050505050565b6000808260405161083e906110b4565b808273ffffffffffffffffffffffffffffffffffffffff1673ffffffffffffffffffffffffffffffffffffffff168152602001915050604051809103906000f080158015610890573d6000803e3d6000fd5b50905060008190508173ffffffffffffffffffffffffffffffffffffffff1663c4d66de86108bc610d74565b6040518263ffffffff1660e01b8152600401808273ffffffffffffffffffffffffffffffffffffffff1673ffffffffffffffffffffffffffffffffffffffff168152602001915050600060405180830381600087803b15801561091e57600080fd5b505af1158015610932573d6000803e3d6000fd5b5050505061093e610d74565b73ffffffffffffffffffffffffffffffffffffffff1663aa67c919603354836040518363ffffffff1660e01b8152600401808273ffffffffffffffffffffffffffffffffffffffff1673ffffffffffffffffffffffffffffffffffffffff1681526020019150506000604051808303818588803b1580156109be57600080fd5b505af11580156109d2573d6000803e3d6000fd5b50505050507ffbbd8673ac35b6fcd08a2e1c940f78591e620a9e0aba61649d9d72322bfba7e68185604051808373ffffffffffffffffffffffffffffffffffffffff1673ffffffffffffffffffffffffffffffffffffffff1681526020018273ffffffffffffffffffffffffffffffffffffffff1673ffffffffffffffffffffffffffffffffffffffff1681526020019250505060405180910390a18092505050919050565b6000610a82610616565b73ffffffffffffffffffffffffffffffffffffffff166370a08231306040518263ffffffff1660e01b8152600401808273ffffffffffffffffffffffffffffffffffffffff1673ffffffffffffffffffffffffffffffffffffffff16815260200191505060206040518083038186803b158015610afe57600080fd5b505afa158015610b12573d6000803e3d6000fd5b505050506040513d6020811015610b2857600080fd5b8101908080519060200190929190505050905090565b60606040518060400160405280600581526020017f312e302e30000000000000000000000000000000000000000000000000000000815250905090565b60335481565b600060019054906101000a900460ff1680610ba05750610b9f610dac565b5b80610bb757506000809054906101000a900460ff16155b610c0c576040517f08c379a000000000000000000000000000000000000000000000000000000000815260040180806020018281038252602e815260200180613700602e913960400191505060405180910390fd5b60008060019054906101000a900460ff161590508015610c5c576001600060016101000a81548160ff02191690831515021790555060016000806101000a81548160ff0219169083151502179055505b610c64610707565b610c6d82610efd565b8015610c8e5760008060016101000a81548160ff0219169083151502179055505b5050565b610c9a610616565b73ffffffffffffffffffffffffffffffffffffffff163373ffffffffffffffffffffffffffffffffffffffff1614610d1d576040517f08c379a00000000000000000000000000000000000000000000000000000000081526004018080602001828103825260268152602001806136af6026913960400191505060405180910390fd5b610d6d85858080601f016020809104026020016040519081016040528093929190818152602001838380828437600081840152601f19601f8201169050808301925050505050505084848461109e565b5050505050565b6000807f06b7792c761dcc05af1761f0315ce8b01ac39c16cc934eb0b2f7a8e71414f26260001b9050805491505090565b6000919050565b600080303b90506000811491505090565b600060019054906101000a900460ff1680610ddc5750610ddb610dac565b5b80610df357506000809054906101000a900460ff16155b610e48576040517f08c379a000000000000000000000000000000000000000000000000000000000815260040180806020018281038252602e815260200180613700602e913960400191505060405180910390fd5b60008060019054906101000a900460ff161590508015610e98576001600060016101000a81548160ff02191690831515021790555060016000806101000a81548160ff0219169083151502179055505b610eb573d216153c06e857cd7f72665e0af1d7d82172f494610efd565b8015610ed65760008060016101000a81548160ff0219169083151502179055505b50565b60006060610ef5604051806020016040528060008152506110a4565b915091509091565b6000610f07610d74565b9050600073ffffffffffffffffffffffffffffffffffffffff168273ffffffffffffffffffffffffffffffffffffffff161415610f8f576040517f08c379a000000000000000000000000000000000000000000000000000000000815260040180806020018281038252602c81526020018061372e602c913960400191505060405180910390fd5b8073ffffffffffffffffffffffffffffffffffffffff168273ffffffffffffffffffffffffffffffffffffffff161415611014576040517f08c379a000000000000000000000000000000000000000000000000000000000815260040180806020018281038252602b8152602001806136d5602b913960400191505060405180910390fd5b8173ffffffffffffffffffffffffffffffffffffffff168173ffffffffffffffffffffffffffffffffffffffff167fb9f84b8e65164b14439ae3620df0a4d8786d896996c0282b683f9d8c08f046e860405160405180910390a360007f06b7792c761dcc05af1761f0315ce8b01ac39c16cc934eb0b2f7a8e71414f26260001b9050828155505050565b50505050565b6000606060008391509150915091565b6125ed806110c28339019056fe608060405234801561001057600080fd5b506040516020806125ed8339810180604052602081101561003057600080fd5b81019080805190602001909291905050508060338190806001815401808255809150509060018203906000526020600020016000909192909190916101000a81548173ffffffffffffffffffffffffffffffffffffffff021916908373ffffffffffffffffffffffffffffffffffffffff160217905550505050612534806100b96000396000f3fe608060405234801561001057600080fd5b50600436106101375760003560e01c806380274db7116100b8578063ac5704111161007c578063ac5704111461073a578063ac70905114610758578063ad61ccd51461079e578063c4d66de814610821578063e06e0e2214610865578063f3fef3a3146108fe57610137565b806380274db7146104355780638129fc1c146104c257806383947ea0146104cc5780639a93e5dd1461068d578063a0e67e2b146106db57610137565b80632da96d73116100ff5780632da96d73146102bc5780634e1b1e601461031b57806354fd4d50146103895780637065cb48146103a757806374e861d6146103eb57610137565b80630bef429b1461013c5780630cd865ec1461016a578063173825d9146101ae578063230b3790146101f25780632c290b501461024e575b600080fd5b6101686004803603602081101561015257600080fd5b810190808035906020019092919050505061094c565b005b6101ac6004803603602081101561018057600080fd5b81019080803573ffffffffffffffffffffffffffffffffffffffff169060200190929190505050610b8e565b005b6101f0600480360360208110156101c457600080fd5b81019080803573ffffffffffffffffffffffffffffffffffffffff169060200190929190505050610e82565b005b6102346004803603602081101561020857600080fd5b81019080803573ffffffffffffffffffffffffffffffffffffffff169060200190929190505050611025565b604051808215151515815260200191505060405180910390f35b6102ba6004803603606081101561026457600080fd5b81019080803573ffffffffffffffffffffffffffffffffffffffff169060200190929190803573ffffffffffffffffffffffffffffffffffffffff1690602001909291908035906020019092919050505061103d565b005b6102c4611312565b6040518080602001828103825283818151815260200191508051906020019060200280838360005b838110156103075780820151818401526020810190506102ec565b505050509050019250505060405180910390f35b6103476004803603602081101561033157600080fd5b810190808035906020019092919050505061136a565b604051808273ffffffffffffffffffffffffffffffffffffffff1673ffffffffffffffffffffffffffffffffffffffff16815260200191505060405180910390f35b6103916113ce565b6040518082815260200191505060405180910390f35b6103e9600480360360208110156103bd57600080fd5b81019080803573ffffffffffffffffffffffffffffffffffffffff1690602001909291905050506113d7565b005b6103f361151b565b604051808273ffffffffffffffffffffffffffffffffffffffff1673ffffffffffffffffffffffffffffffffffffffff16815260200191505060405180910390f35b6104ac6004803603602081101561044b57600080fd5b810190808035906020019064010000000081111561046857600080fd5b82018360208201111561047a57600080fd5b8035906020019184600183028401116401000000008311171561049c57600080fd5b909192939192939050505061152a565b6040518082815260200191505060405180910390f35b6104ca61160c565b005b61060b60048036036101208110156104e357600080fd5b81019080803573ffffffffffffffffffffffffffffffffffffffff169060200190929190803573ffffffffffffffffffffffffffffffffffffffff1690602001909291908035906020019064010000000081111561054057600080fd5b82018360208201111561055257600080fd5b8035906020019184600183028401116401000000008311171561057457600080fd5b909192939192939080359060200190929190803590602001909291908035906020019092919080359060200190929190803590602001906401000000008111156105bd57600080fd5b8201836020820111156105cf57600080fd5b803590602001918460018302840111640100000000831117156105f157600080fd5b909192939192939080359060200190929190505050611713565b6040518083815260200180602001828103825283818151815260200191508051906020019080838360005b83811015610651578082015181840152602081019050610636565b50505050905090810190601f16801561067e5780820380516001836020036101000a031916815260200191505b50935050505060405180910390f35b6106d9600480360360408110156106a357600080fd5b8101908080359060200190929190803573ffffffffffffffffffffffffffffffffffffffff169060200190929190505050611733565b005b6106e361196d565b6040518080602001828103825283818151815260200191508051906020019060200280838360005b8381101561072657808201518184015260208101905061070b565b505050509050019250505060405180910390f35b6107426119fb565b6040518082815260200191505060405180910390f35b6107846004803603602081101561076e57600080fd5b8101908080359060200190929190505050611ac1565b604051808215151515815260200191505060405180910390f35b6107a6611ad9565b6040518080602001828103825283818151815260200191508051906020019080838360005b838110156107e65780820151818401526020810190506107cb565b50505050905090810190601f1680156108135780820380516001836020036101000a031916815260200191505b509250505060405180910390f35b6108636004803603602081101561083757600080fd5b81019080803573ffffffffffffffffffffffffffffffffffffffff169060200190929190505050611b16565b005b6108fc6004803603608081101561087b57600080fd5b810190808035906020019064010000000081111561089857600080fd5b8201836020820111156108aa57600080fd5b803590602001918460018302840111640100000000831117156108cc57600080fd5b90919293919293908035151590602001909291908035906020019092919080359060200190929190505050611c27565b005b61094a6004803603604081101561091457600080fd5b81019080803573ffffffffffffffffffffffffffffffffffffffff16906020019092919080359060200190929190505050611d09565b005b610954611e84565b6001151561096182611025565b15151461096d57600080fd5b816001151561097b82611ac1565b15151461098757600080fd5b60008061099385611ed6565b9150915060011515811515146109a857600080fd5b6000603583815481106109b757fe5b9060005260206000200160009054906101000a900473ffffffffffffffffffffffffffffffffffffffff1690506034600160348054905003815481106109f957fe5b906000526020600020015460348481548110610a1157fe5b9060005260206000200181905550603560016034805490500381548110610a3457fe5b9060005260206000200160009054906101000a900473ffffffffffffffffffffffffffffffffffffffff1660358481548110610a6c57fe5b9060005260206000200160006101000a81548173ffffffffffffffffffffffffffffffffffffffff021916908373ffffffffffffffffffffffffffffffffffffffff1602179055506034805480919060019003610ac991906123bb565b506035805480919060019003610adf91906123e7565b507f18d0c92a01adb859e57b76c53f1801a82dd8f8419fac502b2a9b416c5d3999d4610b09611e84565b8783604051808473ffffffffffffffffffffffffffffffffffffffff1673ffffffffffffffffffffffffffffffffffffffff1681526020018381526020018273ffffffffffffffffffffffffffffffffffffffff1673ffffffffffffffffffffffffffffffffffffffff168152602001935050505060405180910390a1505050505050565b610b96611e84565b60011515610ba382611025565b151514610baf57600080fd5b610bb8826113d7565b60006035805490501115610de05760008090505b6001603580549050038111610dde5760358181548110610be857fe5b9060005260206000200160009054906101000a900473ffffffffffffffffffffffffffffffffffffffff1673ffffffffffffffffffffffffffffffffffffffff166335bb3e16846040518263ffffffff1660e01b8152600401808273ffffffffffffffffffffffffffffffffffffffff1673ffffffffffffffffffffffffffffffffffffffff168152602001915050600060405180830381600087803b158015610c9157600080fd5b505af1158015610ca5573d6000803e3d6000fd5b505050507fb1d7980376ee442938a8f9cdc5c2b484565fdaeab23734357f65d747eaf23c0a60348281548110610cd757fe5b906000526020600020015460358381548110610cef57fe5b9060005260206000200160009054906101000a900473ffffffffffffffffffffffffffffffffffffffff1685610d23611e84565b604051808581526020018473ffffffffffffffffffffffffffffffffffffffff1673ffffffffffffffffffffffffffffffffffffffff1681526020018373ffffffffffffffffffffffffffffffffffffffff1673ffffffffffffffffffffffffffffffffffffffff1681526020018273ffffffffffffffffffffffffffffffffffffffff1673ffffffffffffffffffffffffffffffffffffffff16815260200194505050505060405180910390a18080600101915050610bcc565b505b7f658a0f6969d7663ef009b782e098ec752cdf0beed99b9a188dd1d77d539a1a3e82610e0a611e84565b604051808373ffffffffffffffffffffffffffffffffffffffff1673ffffffffffffffffffffffffffffffffffffffff1681526020018273ffffffffffffffffffffffffffffffffffffffff1673ffffffffffffffffffffffffffffffffffffffff1681526020019250505060405180910390a15050565b610e8a611e84565b60011515610e9782611025565b151514610ea357600080fd5b600160338054905011610eb557600080fd5b600080610ec184611f55565b915091506001151581151514610ed657600080fd5b603360016033805490500381548110610eeb57fe5b9060005260206000200160009054906101000a900473ffffffffffffffffffffffffffffffffffffffff1660338381548110610f2357fe5b9060005260206000200160006101000a81548173ffffffffffffffffffffffffffffffffffffffff021916908373ffffffffffffffffffffffffffffffffffffffff1602179055506033805480919060019003610f8091906123e7565b507fe594d081b4382713733fe631966432c9cea5199afb2db5c3c1931f9f9300367984610fab611e84565b604051808373ffffffffffffffffffffffffffffffffffffffff1673ffffffffffffffffffffffffffffffffffffffff1681526020018273ffffffffffffffffffffffffffffffffffffffff1673ffffffffffffffffffffffffffffffffffffffff1681526020019250505060405180910390a150505050565b60008061103183611f55565b91505080915050919050565b611045611e84565b6001151561105282611025565b15151461105e57600080fd5b600073ffffffffffffffffffffffffffffffffffffffff168373ffffffffffffffffffffffffffffffffffffffff161415611101576040517f08c379a000000000000000000000000000000000000000000000000000000000815260040180806020018281038252601b8152602001807f496e76616c69642062656e65666963696172792061646472657373000000000081525060200191505060405180910390fd5b600073ffffffffffffffffffffffffffffffffffffffff168473ffffffffffffffffffffffffffffffffffffffff1614156111a4576040517f08c379a00000000000000000000000000000000000000000000000000000000081526004018080602001828103825260138152602001807f546f6b656e20776173206e6f742061646465640000000000000000000000000081525060200191505060405180910390fd5b60008490508073ffffffffffffffffffffffffffffffffffffffff1663a9059cbb85856040518363ffffffff1660e01b8152600401808373ffffffffffffffffffffffffffffffffffffffff1673ffffffffffffffffffffffffffffffffffffffff16815260200182815260200192505050602060405180830381600087803b15801561123057600080fd5b505af1158015611244573d6000803e3d6000fd5b505050506040513d602081101561125a57600080fd5b8101908080519060200190929190505050507f037238854fe57fbf51f09946f854fc3916fe83938d6521f09bd05463839f1304858585604051808473ffffffffffffffffffffffffffffffffffffffff1673ffffffffffffffffffffffffffffffffffffffff1681526020018373ffffffffffffffffffffffffffffffffffffffff1673ffffffffffffffffffffffffffffffffffffffff168152602001828152602001935050505060405180910390a15050505050565b6060603480548060200260200160405190810160405280929190818152602001828054801561136057602002820191906000526020600020905b81548152602001906001019080831161134c575b5050505050905090565b600080600061137884611ed6565b91509150600115158115151461138d57600080fd5b6035828154811061139a57fe5b9060005260206000200160009054906101000a900473ffffffffffffffffffffffffffffffffffffffff1692505050919050565b60006003905090565b6113df611e84565b600115156113ec82611025565b1515146113f857600080fd5b816000151561140682611025565b15151461141257600080fd5b60338390806001815401808255809150509060018203906000526020600020016000909192909190916101000a81548173ffffffffffffffffffffffffffffffffffffffff021916908373ffffffffffffffffffffffffffffffffffffffff160217905550507fc82bdbbf677a2462f2a7e22e4ba9abd209496b69cd7b868b3b1d28f76e09a40a836114a2611e84565b604051808373ffffffffffffffffffffffffffffffffffffffff1673ffffffffffffffffffffffffffffffffffffffff1681526020018273ffffffffffffffffffffffffffffffffffffffff1673ffffffffffffffffffffffffffffffffffffffff1681526020019250505060405180910390a1505050565b6000611525612003565b905090565b600061153461151b565b73ffffffffffffffffffffffffffffffffffffffff163373ffffffffffffffffffffffffffffffffffffffff16146115b7576040517f08c379a000000000000000000000000000000000000000000000000000000000815260040180806020018281038252602681526020018061245e6026913960400191505060405180910390fd5b61160483838080601f016020809104026020016040519081016040528093929190818152602001838380828437600081840152601f19601f82011690508083019250505050505050612034565b905092915050565b600060019054906101000a900460ff168061162b575061162a61203b565b5b8061164257506000809054906101000a900460ff16155b611697576040517f08c379a000000000000000000000000000000000000000000000000000000000815260040180806020018281038252602e8152602001806124af602e913960400191505060405180910390fd5b60008060019054906101000a900460ff1615905080156116e7576001600060016101000a81548160ff02191690831515021790555060016000806101000a81548160ff0219169083151502179055505b6116ef61204c565b80156117105760008060016101000a81548160ff0219169083151502179055505b50565b6000606061171f612168565b915091509b509b9950505050505050505050565b61173b611e84565b6001151561174882611025565b15151461175457600080fd5b826000151561176282611ac1565b15151461176e57600080fd5b8273ffffffffffffffffffffffffffffffffffffffff166335950fed306040518263ffffffff1660e01b8152600401808273ffffffffffffffffffffffffffffffffffffffff1673ffffffffffffffffffffffffffffffffffffffff16815260200191505060206040518083038186803b1580156117eb57600080fd5b505afa1580156117ff573d6000803e3d6000fd5b505050506040513d602081101561181557600080fd5b810190808051906020019092919050505061182f57600080fd5b603484908060018154018082558091505090600182039060005260206000200160009091929091909150555060358390806001815401808255809150509060018203906000526020600020016000909192909190916101000a81548173ffffffffffffffffffffffffffffffffffffffff021916908373ffffffffffffffffffffffffffffffffffffffff160217905550507fcbc3c5c4939f7c16221db31308c42ed19507b66ff7a18673a261ba7268bc9cb76118ea611e84565b8585604051808473ffffffffffffffffffffffffffffffffffffffff1673ffffffffffffffffffffffffffffffffffffffff1681526020018381526020018273ffffffffffffffffffffffffffffffffffffffff1673ffffffffffffffffffffffffffffffffffffffff168152602001935050505060405180910390a150505050565b606060338054806020026020016040519081016040528092919081815260200182805480156119f157602002820191906000526020600020905b8160009054906101000a900473ffffffffffffffffffffffffffffffffffffffff1673ffffffffffffffffffffffffffffffffffffffff16815260200190600101908083116119a7575b5050505050905090565b6000611a0561151b565b73ffffffffffffffffffffffffffffffffffffffff166370a08231306040518263ffffffff1660e01b8152600401808273ffffffffffffffffffffffffffffffffffffffff1673ffffffffffffffffffffffffffffffffffffffff16815260200191505060206040518083038186803b158015611a8157600080fd5b505afa158015611a95573d6000803e3d6000fd5b505050506040513d6020811015611aab57600080fd5b8101908080519060200190929190505050905090565b600080611acd83611ed6565b91505080915050919050565b60606040518060400160405280600581526020017f312e302e30000000000000000000000000000000000000000000000000000000815250905090565b600060019054906101000a900460ff1680611b355750611b3461203b565b5b80611b4c57506000809054906101000a900460ff16155b611ba1576040517f08c379a000000000000000000000000000000000000000000000000000000000815260040180806020018281038252602e8152602001806124af602e913960400191505060405180910390fd5b60008060019054906101000a900460ff161590508015611bf1576001600060016101000a81548160ff02191690831515021790555060016000806101000a81548160ff0219169083151502179055505b611bf961160c565b611c028261218c565b8015611c235760008060016101000a81548160ff0219169083151502179055505b5050565b611c2f61151b565b73ffffffffffffffffffffffffffffffffffffffff163373ffffffffffffffffffffffffffffffffffffffff1614611cb2576040517f08c379a000000000000000000000000000000000000000000000000000000000815260040180806020018281038252602681526020018061245e6026913960400191505060405180910390fd5b611d0285858080601f016020809104026020016040519081016040528093929190818152602001838380828437600081840152601f19601f8201169050808301925050505050505084848461232d565b5050505050565b611d11611e84565b60011515611d1e82611025565b151514611d2a57600080fd5b600073ffffffffffffffffffffffffffffffffffffffff168373ffffffffffffffffffffffffffffffffffffffff161415611dcd576040517f08c379a000000000000000000000000000000000000000000000000000000000815260040180806020018281038252601b8152602001807f496e76616c69642062656e65666963696172792061646472657373000000000081525060200191505060405180910390fd5b8273ffffffffffffffffffffffffffffffffffffffff166108fc839081150290604051600060405180830381858888f19350505050158015611e13573d6000803e3d6000fd5b507f884edad9ce6fa2440d8a54cc123490eb96d2768479d49ff9c7366125a94243648383604051808373ffffffffffffffffffffffffffffffffffffffff1673ffffffffffffffffffffffffffffffffffffffff1681526020018281526020019250505060405180910390a1505050565b6000611e8e612003565b73ffffffffffffffffffffffffffffffffffffffff163373ffffffffffffffffffffffffffffffffffffffff1614611ec857339050611ed3565b611ed0612333565b90505b90565b60008060006034805490501415611ef65760008081915091509150611f50565b60008090505b6001603480549050038111611f44578360348281548110611f1957fe5b90600052602060002001541415611f37578060019250925050611f50565b8080600101915050611efc565b50600080819150915091505b915091565b60008060008090505b6001603380549050038111611ff2578373ffffffffffffffffffffffffffffffffffffffff1660338281548110611f9157fe5b9060005260206000200160009054906101000a900473ffffffffffffffffffffffffffffffffffffffff1673ffffffffffffffffffffffffffffffffffffffff161415611fe5578060019250925050611ffe565b8080600101915050611f5e565b50600080819150915091505b915091565b6000807f06b7792c761dcc05af1761f0315ce8b01ac39c16cc934eb0b2f7a8e71414f26260001b9050805491505090565b6000919050565b600080303b90506000811491505090565b600060019054906101000a900460ff168061206b575061206a61203b565b5b8061208257506000809054906101000a900460ff16155b6120d7576040517f08c379a000000000000000000000000000000000000000000000000000000000815260040180806020018281038252602e8152602001806124af602e913960400191505060405180910390fd5b60008060019054906101000a900460ff161590508015612127576001600060016101000a81548160ff02191690831515021790555060016000806101000a81548160ff0219169083151502179055505b61214473d216153c06e857cd7f72665e0af1d7d82172f49461218c565b80156121655760008060016101000a81548160ff0219169083151502179055505b50565b60006060612184604051806020016040528060008152506123ab565b915091509091565b6000612196612003565b9050600073ffffffffffffffffffffffffffffffffffffffff168273ffffffffffffffffffffffffffffffffffffffff16141561221e576040517f08c379a000000000000000000000000000000000000000000000000000000000815260040180806020018281038252602c8152602001806124dd602c913960400191505060405180910390fd5b8073ffffffffffffffffffffffffffffffffffffffff168273ffffffffffffffffffffffffffffffffffffffff1614156122a3576040517f08c379a000000000000000000000000000000000000000000000000000000000815260040180806020018281038252602b815260200180612484602b913960400191505060405180910390fd5b8173ffffffffffffffffffffffffffffffffffffffff168173ffffffffffffffffffffffffffffffffffffffff167fb9f84b8e65164b14439ae3620df0a4d8786d896996c0282b683f9d8c08f046e860405160405180910390a360007f06b7792c761dcc05af1761f0315ce8b01ac39c16cc934eb0b2f7a8e71414f26260001b9050828155505050565b50505050565b600060606000368080601f016020809104026020016040519081016040528093929190818152602001838380828437600081840152601f19601f820116905080830192505050505050509050600080369050905073ffffffffffffffffffffffffffffffffffffffff81830151169250829250505090565b6000606060008391509150915091565b8154818355818111156123e2578183600052602060002091820191016123e19190612413565b5b505050565b81548183558181111561240e5781836000526020600020918201910161240d9190612438565b5b505050565b61243591905b80821115612431576000816000905550600101612419565b5090565b90565b61245a91905b8082111561245657600081600090555060010161243e565b5090565b9056fe47534e426f756e636572426173653a2063616c6c6572206973206e6f742052656c617948756247534e436f6e746578743a206e65772052656c6179487562206973207468652063757272656e74206f6e65436f6e747261637420696e7374616e63652068617320616c7265616479206265656e20696e697469616c697a656447534e436f6e746578743a206e65772052656c617948756220697320746865207a65726f2061646472657373a165627a7a7230582058ec32f448ff9e29a0443e6bc7702afeecab6181d52e3952c7796eee38f75176002947534e426f756e636572426173653a2063616c6c6572206973206e6f742052656c617948756247534e436f6e746578743a206e65772052656c6179487562206973207468652063757272656e74206f6e65436f6e747261637420696e7374616e63652068617320616c7265616479206265656e20696e697469616c697a656447534e436f6e746578743a206e65772052656c617948756220697320746865207a65726f2061646472657373a165627a7a72305820fa6c4f78537930540d0dbf60eef4b215ddffb5f63670f4b0066e227348bb38310029",
  "source": "pragma solidity ^0.5.0;\n\nimport \"./utils/GSN.sol\";\nimport \"./GSNProfile.sol\";\n\n/**\n * @title GSNProfileFactory enables gas-free interactions with Profile from deployment to file management and recovery.\n * @author Lukas Lukac, Lightstreams, 22.9.2019\n */\ncontract GSNProfileFactory is GSN {\n    uint256 public profileFunding;\n\n    event NewProfile(address addr, address owner);\n\n    constructor(uint256 _profileFunding) public {\n        profileFunding = _profileFunding;\n    }\n\n    function() payable external {}\n\n    function newProfile(address _owner) public returns (address) {\n        GSNProfile profile = new GSNProfile(_owner);\n        address addr = address(profile);\n\n        profile.initialize(_getRelayHub());\n        (IRelayHub(_getRelayHub())).depositFor.value(profileFunding)(addr);\n\n        emit NewProfile(addr, _owner);\n\n        return addr;\n    }\n}\n",
  "sourcePath": "/home/ggarrido/lightstreams/workspace/lightstreams-js-sdk/contracts/GSNProfileFactory.sol",
  "compiler": {
    "name": "solc",
    "version": "0.5.8+commit.23d335f2.Emscripten.clang"
  },
  "schemaVersion": "3.0.23",
  "updatedAt": "2020-02-06T12:01:51.070Z",
  "networkType": "ethereum",
  "devdoc": {
    "author": "Lukas Lukac, Lightstreams, 22.9.2019",
    "methods": {
      "postRelayedCall(bytes,bool,uint256,bytes32)": {
        "details": "See `IRelayRecipient.postRelayedCall`.     * This function should not be overriden directly, use `_postRelayedCall` instead.     * * Requirements:     * - the caller must be the `RelayHub` contract."
      },
      "preRelayedCall(bytes)": {
        "details": "See `IRelayRecipient.preRelayedCall`.     * This function should not be overriden directly, use `_preRelayedCall` instead.     * * Requirements:     * - the caller must be the `RelayHub` contract."
      }
    },
    "title": "GSNProfileFactory enables gas-free interactions with Profile from deployment to file management and recovery."
  },
  "userdoc": {
    "methods": {}
  }
}