{
  "contractName": "HelloBlockchainWorld",
  "abi": [
    {
      "inputs": [],
      "payable": false,
      "stateMutability": "nonpayable",
      "type": "constructor"
    },
    {
      "constant": true,
      "inputs": [],
      "name": "sayHello",
      "outputs": [
        {
          "name": "message",
          "type": "string"
        }
      ],
      "payable": false,
      "stateMutability": "pure",
      "type": "function"
    }
  ],
  "bytecode": "0x608060405234801561001057600080fd5b50610139806100206000396000f3fe60806040526004361061003b576000357c010000000000000000000000000000000000000000000000000000000090048063ef5fb05b14610040575b600080fd5b34801561004c57600080fd5b506100556100d0565b6040518080602001828103825283818151815260200191508051906020019080838360005b8381101561009557808201518184015260208101905061007a565b50505050905090810190601f1680156100c25780820380516001836020036101000a031916815260200191505b509250505060405180910390f35b60606040805190810160405280600581526020017f68656c6c6f00000000000000000000000000000000000000000000000000000081525090509056fea165627a7a72305820a4588400fe4d8d1f491fddc52baf334ff52bf76e94c54b376b0b4a3b4f0531ea0029",
  "source": "pragma solidity ^0.5.0;\n\ncontract HelloBlockchainWorld {\n    constructor() public {\n    }\n\n    function sayHello() public pure returns (string memory message) {\n        return \"hello\";\n    }\n}",
  "sourcePath": "/home/ggarrido/lightstreams/workspace/lightstreams-js-sdk/contracts/helloworld.sol",
  "compiler": {
    "name": "solc",
    "version": "0.5.1+commit.c8a2cb62.Emscripten.clang"
  },
  "schemaVersion": "3.0.11",
  "updatedAt": "2019-08-06T13:55:53.748Z",
  "devdoc": {
    "methods": {}
  },
  "userdoc": {
    "methods": {}
  }
}