{
  "contractName": "MultiOwnable",
  "abi": [
    {
      "inputs": [
        {
          "name": "_owner",
          "type": "address"
        }
      ],
      "payable": false,
      "stateMutability": "nonpayable",
      "type": "constructor"
    },
    {
      "anonymous": false,
      "inputs": [
        {
          "indexed": false,
          "name": "newOwner",
          "type": "address"
        },
        {
          "indexed": false,
          "name": "byOwner",
          "type": "address"
        }
      ],
      "name": "OwnerAdded",
      "type": "event"
    },
    {
      "anonymous": false,
      "inputs": [
        {
          "indexed": false,
          "name": "removedOwner",
          "type": "address"
        },
        {
          "indexed": false,
          "name": "byOwner",
          "type": "address"
        }
      ],
      "name": "OwnerRemoved",
      "type": "event"
    },
    {
      "constant": false,
      "inputs": [
        {
          "name": "_newOwner",
          "type": "address"
        }
      ],
      "name": "addOwner",
      "outputs": [],
      "payable": false,
      "stateMutability": "nonpayable",
      "type": "function"
    },
    {
      "constant": false,
      "inputs": [
        {
          "name": "_owner",
          "type": "address"
        }
      ],
      "name": "removeOwner",
      "outputs": [],
      "payable": false,
      "stateMutability": "nonpayable",
      "type": "function"
    },
    {
      "constant": true,
      "inputs": [
        {
          "name": "_owner",
          "type": "address"
        }
      ],
      "name": "hasOwner",
      "outputs": [
        {
          "name": "",
          "type": "bool"
        }
      ],
      "payable": false,
      "stateMutability": "view",
      "type": "function"
    },
    {
      "constant": true,
      "inputs": [],
      "name": "getOwners",
      "outputs": [
        {
          "name": "",
          "type": "address[]"
        }
      ],
      "payable": false,
      "stateMutability": "view",
      "type": "function"
    }
  ],
  "bytecode": "0x608060405234801561001057600080fd5b506040516020806107048339810180604052602081101561003057600080fd5b810190808051906020019092919050505060008190806001815401808255809150509060018203906000526020600020016000909192909190916101000a81548173ffffffffffffffffffffffffffffffffffffffff021916908373ffffffffffffffffffffffffffffffffffffffff160217905550505061064d806100b76000396000f3fe608060405234801561001057600080fd5b5060043610610069576000357c010000000000000000000000000000000000000000000000000000000090048063173825d91461006e578063230b3790146100b25780637065cb481461010e578063a0e67e2b14610152575b600080fd5b6100b06004803603602081101561008457600080fd5b81019080803573ffffffffffffffffffffffffffffffffffffffff1690602001909291905050506101b1565b005b6100f4600480360360208110156100c857600080fd5b81019080803573ffffffffffffffffffffffffffffffffffffffff169060200190929190505050610346565b604051808215151515815260200191505060405180910390f35b6101506004803603602081101561012457600080fd5b81019080803573ffffffffffffffffffffffffffffffffffffffff16906020019092919050505061035e565b005b61015a610494565b6040518080602001828103825283818151815260200191508051906020019060200280838360005b8381101561019d578082015181840152602081019050610182565b505050509050019250505060405180910390f35b33600115156101bf82610346565b1515146101cb57600080fd5b6001600080549050116101dd57600080fd5b6000806101e984610522565b9150915060011515811515146101fe57600080fd5b60006001600080549050038154811061021357fe5b9060005260206000200160009054906101000a900473ffffffffffffffffffffffffffffffffffffffff166000838154811061024b57fe5b9060005260206000200160006101000a81548173ffffffffffffffffffffffffffffffffffffffff021916908373ffffffffffffffffffffffffffffffffffffffff16021790555060008054809190600190036102a891906105d0565b507fe594d081b4382713733fe631966432c9cea5199afb2db5c3c1931f9f930036798433604051808373ffffffffffffffffffffffffffffffffffffffff1673ffffffffffffffffffffffffffffffffffffffff1681526020018273ffffffffffffffffffffffffffffffffffffffff1673ffffffffffffffffffffffffffffffffffffffff1681526020019250505060405180910390a150505050565b60008061035283610522565b91505080915050919050565b336001151561036c82610346565b15151461037857600080fd5b816000151561038682610346565b15151461039257600080fd5b60008390806001815401808255809150509060018203906000526020600020016000909192909190916101000a81548173ffffffffffffffffffffffffffffffffffffffff021916908373ffffffffffffffffffffffffffffffffffffffff160217905550507fc82bdbbf677a2462f2a7e22e4ba9abd209496b69cd7b868b3b1d28f76e09a40a8333604051808373ffffffffffffffffffffffffffffffffffffffff1673ffffffffffffffffffffffffffffffffffffffff1681526020018273ffffffffffffffffffffffffffffffffffffffff1673ffffffffffffffffffffffffffffffffffffffff1681526020019250505060405180910390a1505050565b6060600080548060200260200160405190810160405280929190818152602001828054801561051857602002820191906000526020600020905b8160009054906101000a900473ffffffffffffffffffffffffffffffffffffffff1673ffffffffffffffffffffffffffffffffffffffff16815260200190600101908083116104ce575b5050505050905090565b60008060008090505b60016000805490500381116105bf578373ffffffffffffffffffffffffffffffffffffffff166000828154811061055e57fe5b9060005260206000200160009054906101000a900473ffffffffffffffffffffffffffffffffffffffff1673ffffffffffffffffffffffffffffffffffffffff1614156105b25780600192509250506105cb565b808060010191505061052b565b50600080819150915091505b915091565b8154818355818111156105f7578183600052602060002091820191016105f691906105fc565b5b505050565b61061e91905b8082111561061a576000816000905550600101610602565b5090565b9056fea165627a7a72305820d1f67a030612843a4af647b37e4194e389015c8ab63994049b87503916e683820029",
  "source": "pragma solidity ^0.5.0;\n\n/**\n * @title MultiOwnable manages ownership\n * @author Lukas Lukac, Lightstreams, 11.7.2018\n */\ncontract MultiOwnable {\n    address[] owners;\n\n    event OwnerAdded(address newOwner, address byOwner);\n    event OwnerRemoved(address removedOwner, address byOwner);\n\n    modifier isOwner(address _owner) {\n        require(hasOwner(_owner) == true);\n        _;\n    }\n\n    modifier isNotOwner(address _owner) {\n        require(hasOwner(_owner) == false);\n        _;\n    }\n\n    constructor(address _owner) public {\n        owners.push(_owner);\n    }\n\n    function addOwner(address _newOwner) public isOwner(msg.sender) isNotOwner(_newOwner) {\n        owners.push(_newOwner);\n\n        emit OwnerAdded(_newOwner, msg.sender);\n    }\n\n    function removeOwner(address _owner) public isOwner(msg.sender) {\n        require(owners.length > 1);\n\n        (uint256 ownerIndex, bool exists) = getOwnerIndex(_owner);\n        require(exists == true);\n\n        owners[ownerIndex] = owners[owners.length - 1];\n        owners.length--;\n\n        emit OwnerRemoved(_owner, msg.sender);\n    }\n\n    function hasOwner(address _owner) view public returns (bool) {\n        (, bool exists) = getOwnerIndex(_owner);\n\n        return exists;\n    }\n\n    function getOwners() view public returns (address[] memory) {\n        return owners;\n    }\n\n    function getOwnerIndex(address _owner) internal view returns (uint256 index, bool exists) {\n        for (uint i = 0; i <= owners.length -1; i++) {\n            if (owners[i] == _owner) {\n                return (i, true);\n            }\n        }\n\n        return (0, false);\n    }\n}\n",
  "sourcePath": "/Users/enchanterio/go/src/github.com/lightstreams-network/lightstreams-js-sdk/contracts/utils/MultiOwnable.sol",
  "compiler": {
    "name": "solc",
    "version": "0.5.8+commit.23d335f2.Emscripten.clang"
  },
  "schemaVersion": "3.0.1",
  "updatedAt": "2019-10-16T08:55:53.300Z",
  "devdoc": {
    "author": "Lukas Lukac, Lightstreams, 11.7.2018",
    "methods": {},
    "title": "MultiOwnable manages ownership"
  },
  "userdoc": {
    "methods": {}
  }
}