{
  "contractName": "MultiOwnable",
  "abi": [
    {
      "inputs": [
        {
          "name": "_owner",
          "type": "address"
        }
      ],
      "payable": false,
      "stateMutability": "nonpayable",
      "type": "constructor"
    },
    {
      "anonymous": false,
      "inputs": [
        {
          "indexed": false,
          "name": "newOwner",
          "type": "address"
        },
        {
          "indexed": false,
          "name": "byOwner",
          "type": "address"
        }
      ],
      "name": "OwnerAdded",
      "type": "event"
    },
    {
      "anonymous": false,
      "inputs": [
        {
          "indexed": false,
          "name": "removedOwner",
          "type": "address"
        },
        {
          "indexed": false,
          "name": "byOwner",
          "type": "address"
        }
      ],
      "name": "OwnerRemoved",
      "type": "event"
    },
    {
      "constant": false,
      "inputs": [
        {
          "name": "_newOwner",
          "type": "address"
        }
      ],
      "name": "addOwner",
      "outputs": [],
      "payable": false,
      "stateMutability": "nonpayable",
      "type": "function"
    },
    {
      "constant": false,
      "inputs": [
        {
          "name": "_owner",
          "type": "address"
        }
      ],
      "name": "removeOwner",
      "outputs": [],
      "payable": false,
      "stateMutability": "nonpayable",
      "type": "function"
    },
    {
      "constant": true,
      "inputs": [
        {
          "name": "_owner",
          "type": "address"
        }
      ],
      "name": "hasOwner",
      "outputs": [
        {
          "name": "",
          "type": "bool"
        }
      ],
      "payable": false,
      "stateMutability": "view",
      "type": "function"
    },
    {
      "constant": true,
      "inputs": [],
      "name": "getOwners",
      "outputs": [
        {
          "name": "",
          "type": "address[]"
        }
      ],
      "payable": false,
      "stateMutability": "view",
      "type": "function"
    }
  ],
  "bytecode": "0x608060405234801561001057600080fd5b506040516020806106e78339810180604052602081101561003057600080fd5b810190808051906020019092919050505060008190806001815401808255809150509060018203906000526020600020016000909192909190916101000a81548173ffffffffffffffffffffffffffffffffffffffff021916908373ffffffffffffffffffffffffffffffffffffffff1602179055505050610630806100b76000396000f3fe608060405234801561001057600080fd5b506004361061004c5760003560e01c8063173825d914610051578063230b3790146100955780637065cb48146100f1578063a0e67e2b14610135575b600080fd5b6100936004803603602081101561006757600080fd5b81019080803573ffffffffffffffffffffffffffffffffffffffff169060200190929190505050610194565b005b6100d7600480360360208110156100ab57600080fd5b81019080803573ffffffffffffffffffffffffffffffffffffffff169060200190929190505050610329565b604051808215151515815260200191505060405180910390f35b6101336004803603602081101561010757600080fd5b81019080803573ffffffffffffffffffffffffffffffffffffffff169060200190929190505050610341565b005b61013d610477565b6040518080602001828103825283818151815260200191508051906020019060200280838360005b83811015610180578082015181840152602081019050610165565b505050509050019250505060405180910390f35b33600115156101a282610329565b1515146101ae57600080fd5b6001600080549050116101c057600080fd5b6000806101cc84610505565b9150915060011515811515146101e157600080fd5b6000600160008054905003815481106101f657fe5b9060005260206000200160009054906101000a900473ffffffffffffffffffffffffffffffffffffffff166000838154811061022e57fe5b9060005260206000200160006101000a81548173ffffffffffffffffffffffffffffffffffffffff021916908373ffffffffffffffffffffffffffffffffffffffff160217905550600080548091906001900361028b91906105b3565b507fe594d081b4382713733fe631966432c9cea5199afb2db5c3c1931f9f930036798433604051808373ffffffffffffffffffffffffffffffffffffffff1673ffffffffffffffffffffffffffffffffffffffff1681526020018273ffffffffffffffffffffffffffffffffffffffff1673ffffffffffffffffffffffffffffffffffffffff1681526020019250505060405180910390a150505050565b60008061033583610505565b91505080915050919050565b336001151561034f82610329565b15151461035b57600080fd5b816000151561036982610329565b15151461037557600080fd5b60008390806001815401808255809150509060018203906000526020600020016000909192909190916101000a81548173ffffffffffffffffffffffffffffffffffffffff021916908373ffffffffffffffffffffffffffffffffffffffff160217905550507fc82bdbbf677a2462f2a7e22e4ba9abd209496b69cd7b868b3b1d28f76e09a40a8333604051808373ffffffffffffffffffffffffffffffffffffffff1673ffffffffffffffffffffffffffffffffffffffff1681526020018273ffffffffffffffffffffffffffffffffffffffff1673ffffffffffffffffffffffffffffffffffffffff1681526020019250505060405180910390a1505050565b606060008054806020026020016040519081016040528092919081815260200182805480156104fb57602002820191906000526020600020905b8160009054906101000a900473ffffffffffffffffffffffffffffffffffffffff1673ffffffffffffffffffffffffffffffffffffffff16815260200190600101908083116104b1575b5050505050905090565b60008060008090505b60016000805490500381116105a2578373ffffffffffffffffffffffffffffffffffffffff166000828154811061054157fe5b9060005260206000200160009054906101000a900473ffffffffffffffffffffffffffffffffffffffff1673ffffffffffffffffffffffffffffffffffffffff1614156105955780600192509250506105ae565b808060010191505061050e565b50600080819150915091505b915091565b8154818355818111156105da578183600052602060002091820191016105d991906105df565b5b505050565b61060191905b808211156105fd5760008160009055506001016105e5565b5090565b9056fea165627a7a723058205e1d0188452ad98c2301e7d43a600bbfdb756f65cc7cf5975ae12466e282664e0029",
  "source": "pragma solidity ^0.5.0;\n\n/**\n * @title MultiOwnable manages ownership\n * @author Lukas Lukac, Lightstreams, 11.7.2018\n */\ncontract MultiOwnable {\n    address[] owners;\n\n    event OwnerAdded(address newOwner, address byOwner);\n    event OwnerRemoved(address removedOwner, address byOwner);\n\n    modifier isOwner(address _owner) {\n        require(hasOwner(_owner) == true);\n        _;\n    }\n\n    modifier isNotOwner(address _owner) {\n        require(hasOwner(_owner) == false);\n        _;\n    }\n\n    constructor(address _owner) public {\n        owners.push(_owner);\n    }\n\n    function addOwner(address _newOwner) public isOwner(msg.sender) isNotOwner(_newOwner) {\n        owners.push(_newOwner);\n\n        emit OwnerAdded(_newOwner, msg.sender);\n    }\n\n    function removeOwner(address _owner) public isOwner(msg.sender) {\n        require(owners.length > 1);\n\n        (uint256 ownerIndex, bool exists) = getOwnerIndex(_owner);\n        require(exists == true);\n\n        owners[ownerIndex] = owners[owners.length - 1];\n        owners.length--;\n\n        emit OwnerRemoved(_owner, msg.sender);\n    }\n\n    function hasOwner(address _owner) view public returns (bool) {\n        (, bool exists) = getOwnerIndex(_owner);\n\n        return exists;\n    }\n\n    function getOwners() view public returns (address[] memory) {\n        return owners;\n    }\n\n    function getOwnerIndex(address _owner) internal view returns (uint256 index, bool exists) {\n        for (uint i = 0; i <= owners.length -1; i++) {\n            if (owners[i] == _owner) {\n                return (i, true);\n            }\n        }\n\n        return (0, false);\n    }\n}\n",
  "sourcePath": "/home/ggarrido/lightstreams/workspace/lightstreams-js-sdk/contracts/utils/MultiOwnable.sol",
  "compiler": {
    "name": "solc",
    "version": "0.5.8+commit.23d335f2.Emscripten.clang"
  },
  "schemaVersion": "3.0.15",
  "updatedAt": "2019-10-07T08:02:55.873Z",
  "devdoc": {
    "author": "Lukas Lukac, Lightstreams, 11.7.2018",
    "methods": {},
    "title": "MultiOwnable manages ownership"
  },
  "userdoc": {
    "methods": {}
  }
}