{
  "contractName": "Ownable",
  "abi": [
    {
      "constant": true,
      "inputs": [],
      "name": "owner",
      "outputs": [
        {
          "name": "",
          "type": "address"
        }
      ],
      "payable": false,
      "stateMutability": "view",
      "type": "function"
    },
    {
      "inputs": [
        {
          "name": "_owner",
          "type": "address"
        }
      ],
      "payable": false,
      "stateMutability": "nonpayable",
      "type": "constructor"
    },
    {
      "constant": true,
      "inputs": [],
      "name": "isOwner",
      "outputs": [
        {
          "name": "",
          "type": "bool"
        }
      ],
      "payable": false,
      "stateMutability": "view",
      "type": "function"
    },
    {
      "constant": false,
      "inputs": [
        {
          "name": "_newOwner",
          "type": "address"
        }
      ],
      "name": "transferOwnership",
      "outputs": [],
      "payable": false,
      "stateMutability": "nonpayable",
      "type": "function"
    }
  ],
  "bytecode": "0x608060405234801561001057600080fd5b506040516020806102bd8339810180604052602081101561003057600080fd5b8101908080519060200190929190505050806000806101000a81548173ffffffffffffffffffffffffffffffffffffffff021916908373ffffffffffffffffffffffffffffffffffffffff1602179055505061022c806100916000396000f3fe608060405234801561001057600080fd5b50600436106100415760003560e01c80638da5cb5b146100465780638f32d59b14610090578063f2fde38b146100b2575b600080fd5b61004e6100f6565b604051808273ffffffffffffffffffffffffffffffffffffffff1673ffffffffffffffffffffffffffffffffffffffff16815260200191505060405180910390f35b61009861011b565b604051808215151515815260200191505060405180910390f35b6100f4600480360360208110156100c857600080fd5b81019080803573ffffffffffffffffffffffffffffffffffffffff169060200190929190505050610172565b005b6000809054906101000a900473ffffffffffffffffffffffffffffffffffffffff1681565b60008060009054906101000a900473ffffffffffffffffffffffffffffffffffffffff1673ffffffffffffffffffffffffffffffffffffffff163373ffffffffffffffffffffffffffffffffffffffff1614905090565b61017a61011b565b61018357600080fd5b600073ffffffffffffffffffffffffffffffffffffffff168173ffffffffffffffffffffffffffffffffffffffff1614156101bd57600080fd5b806000806101000a81548173ffffffffffffffffffffffffffffffffffffffff021916908373ffffffffffffffffffffffffffffffffffffffff1602179055505056fea165627a7a72305820a9351711d5edb4c31a898bfb1d58b80573096cd33dd7ad33ab6f1bcc5de0c74a0029",
  "source": "pragma solidity ^0.5.0;\n\ncontract Ownable {\n    address public owner;\n\n    constructor(address _owner) public {\n        owner = _owner;\n    }\n\n    modifier onlyOwner {\n        require(isOwner());\n        _;\n    }\n\n    function isOwner() public view returns (bool) {\n        return msg.sender == owner;\n    }\n\n    function transferOwnership(address _newOwner) public onlyOwner {\n        require(_newOwner != address(0));\n\n        owner = _newOwner;\n    }\n}\n",
  "sourcePath": "/home/ggarrido/lightstreams/workspace/lightstreams-js-sdk/contracts/utils/Ownable.sol",
  "compiler": {
    "name": "solc",
    "version": "0.5.8+commit.23d335f2.Emscripten.clang"
  },
  "schemaVersion": "3.0.15",
  "updatedAt": "2019-10-04T09:44:12.310Z",
  "devdoc": {
    "methods": {}
  },
  "userdoc": {
    "methods": {}
  }
}