{
  "contractName": "Permissioned",
  "abi": [
    {
      "constant": true,
      "inputs": [],
      "name": "owner",
      "outputs": [
        {
          "name": "",
          "type": "address"
        }
      ],
      "payable": false,
      "stateMutability": "view",
      "type": "function"
    },
    {
      "constant": true,
      "inputs": [],
      "name": "isOwner",
      "outputs": [
        {
          "name": "",
          "type": "bool"
        }
      ],
      "payable": false,
      "stateMutability": "view",
      "type": "function"
    },
    {
      "constant": true,
      "inputs": [],
      "name": "isPublic",
      "outputs": [
        {
          "name": "",
          "type": "bool"
        }
      ],
      "payable": false,
      "stateMutability": "view",
      "type": "function"
    },
    {
      "constant": false,
      "inputs": [
        {
          "name": "_newOwner",
          "type": "address"
        }
      ],
      "name": "transferOwnership",
      "outputs": [],
      "payable": false,
      "stateMutability": "nonpayable",
      "type": "function"
    },
    {
      "inputs": [
        {
          "name": "_owner",
          "type": "address"
        },
        {
          "name": "_isPublic",
          "type": "bool"
        }
      ],
      "payable": false,
      "stateMutability": "nonpayable",
      "type": "constructor"
    },
    {
      "anonymous": false,
      "inputs": [
        {
          "indexed": false,
          "name": "account",
          "type": "address"
        },
        {
          "indexed": false,
          "name": "level",
          "type": "uint8"
        }
      ],
      "name": "PermissionGranted",
      "type": "event"
    },
    {
      "constant": false,
      "inputs": [],
      "name": "grantPublicAccess",
      "outputs": [],
      "payable": false,
      "stateMutability": "nonpayable",
      "type": "function"
    },
    {
      "constant": false,
      "inputs": [],
      "name": "revokePublicAccess",
      "outputs": [],
      "payable": false,
      "stateMutability": "nonpayable",
      "type": "function"
    },
    {
      "constant": false,
      "inputs": [
        {
          "name": "account",
          "type": "address"
        }
      ],
      "name": "grantRead",
      "outputs": [],
      "payable": false,
      "stateMutability": "nonpayable",
      "type": "function"
    },
    {
      "constant": false,
      "inputs": [
        {
          "name": "account",
          "type": "address"
        }
      ],
      "name": "grantWrite",
      "outputs": [],
      "payable": false,
      "stateMutability": "nonpayable",
      "type": "function"
    },
    {
      "constant": false,
      "inputs": [
        {
          "name": "account",
          "type": "address"
        }
      ],
      "name": "grantAdmin",
      "outputs": [],
      "payable": false,
      "stateMutability": "nonpayable",
      "type": "function"
    },
    {
      "constant": false,
      "inputs": [
        {
          "name": "account",
          "type": "address"
        }
      ],
      "name": "revokeAccess",
      "outputs": [],
      "payable": false,
      "stateMutability": "nonpayable",
      "type": "function"
    },
    {
      "constant": true,
      "inputs": [
        {
          "name": "account",
          "type": "address"
        }
      ],
      "name": "hasRead",
      "outputs": [
        {
          "name": "hasReadAccess",
          "type": "bool"
        }
      ],
      "payable": false,
      "stateMutability": "view",
      "type": "function"
    },
    {
      "constant": true,
      "inputs": [
        {
          "name": "account",
          "type": "address"
        }
      ],
      "name": "hasAdmin",
      "outputs": [
        {
          "name": "hasAdminAccess",
          "type": "bool"
        }
      ],
      "payable": false,
      "stateMutability": "view",
      "type": "function"
    },
    {
      "constant": true,
      "inputs": [],
      "name": "getOwner",
      "outputs": [
        {
          "name": "",
          "type": "address"
        }
      ],
      "payable": false,
      "stateMutability": "view",
      "type": "function"
    }
  ],
  "bytecode": "0x60806040526000600260006101000a81548160ff02191690831515021790555034801561002b57600080fd5b506040516040806110a38339810180604052604081101561004b57600080fd5b81019080805190602001909291908051906020019092919050505081806000806101000a81548173ffffffffffffffffffffffffffffffffffffffff021916908373ffffffffffffffffffffffffffffffffffffffff1602179055505080600260006101000a81548160ff02191690831515021790555060405180602001604052806003808111156100d957fe5b815250600160008473ffffffffffffffffffffffffffffffffffffffff1673ffffffffffffffffffffffffffffffffffffffff16815260200190815260200160002060008201518160000160006101000a81548160ff0219169083600381111561013f57fe5b02179055509050505050610f4b806101586000396000f3fe608060405234801561001057600080fd5b50600436106100ec576000357c010000000000000000000000000000000000000000000000000000000090048063893d20e8116100a9578063a5bfa74611610083578063a5bfa7461461031d578063c30fc49214610327578063dc9a153514610383578063f2fde38b146103a5576100ec565b8063893d20e8146102675780638da5cb5b146102b15780638f32d59b146102fb576100ec565b806335950fed146100f157806335bb3e161461014d5780633d0e4a1a1461019157806370b8cdd51461019b5780637e048c21146101df57806385e6853114610223575b600080fd5b6101336004803603602081101561010757600080fd5b81019080803573ffffffffffffffffffffffffffffffffffffffff1690602001909291905050506103e9565b604051808215151515815260200191505060405180910390f35b61018f6004803603602081101561016357600080fd5b81019080803573ffffffffffffffffffffffffffffffffffffffff16906020019092919050505061045b565b005b61019961061b565b005b6101dd600480360360208110156101b157600080fd5b81019080803573ffffffffffffffffffffffffffffffffffffffff1690602001909291905050506106f6565b005b610221600480360360208110156101f557600080fd5b81019080803573ffffffffffffffffffffffffffffffffffffffff1690602001909291905050506108b7565b005b6102656004803603602081101561023957600080fd5b81019080803573ffffffffffffffffffffffffffffffffffffffff169060200190929190505050610a78565b005b61026f610c39565b604051808273ffffffffffffffffffffffffffffffffffffffff1673ffffffffffffffffffffffffffffffffffffffff16815260200191505060405180910390f35b6102b9610c62565b604051808273ffffffffffffffffffffffffffffffffffffffff1673ffffffffffffffffffffffffffffffffffffffff16815260200191505060405180910390f35b610303610c87565b604051808215151515815260200191505060405180910390f35b610325610cde565b005b6103696004803603602081101561033d57600080fd5b81019080803573ffffffffffffffffffffffffffffffffffffffff169060200190929190505050610db9565b604051808215151515815260200191505060405180910390f35b61038b610e43565b604051808215151515815260200191505060405180910390f35b6103e7600480360360208110156103bb57600080fd5b81019080803573ffffffffffffffffffffffffffffffffffffffff169060200190929190505050610e56565b005b60006003808111156103f757fe5b600160008473ffffffffffffffffffffffffffffffffffffffff1673ffffffffffffffffffffffffffffffffffffffff16815260200190815260200160002060000160009054906101000a900460ff16600381111561045257fe5b10159050919050565b60038081111561046757fe5b600160003373ffffffffffffffffffffffffffffffffffffffff1673ffffffffffffffffffffffffffffffffffffffff16815260200190815260200160002060000160009054906101000a900460ff1660038111156104c257fe5b1015610519576040517f08c379a000000000000000000000000000000000000000000000000000000000815260040180806020018281038252603b815260200180610ee5603b913960400191505060405180910390fd5b604051806020016040528060038081111561053057fe5b815250600160008373ffffffffffffffffffffffffffffffffffffffff1673ffffffffffffffffffffffffffffffffffffffff16815260200190815260200160002060008201518160000160006101000a81548160ff0219169083600381111561059657fe5b02179055509050507f4bb8f5497a4d4a4036670dab8c94b028b3fedc11ce7fbf55f3f57b3a4d355dc7816003604051808373ffffffffffffffffffffffffffffffffffffffff1673ffffffffffffffffffffffffffffffffffffffff16815260200182600381111561060457fe5b60ff1681526020019250505060405180910390a150565b60038081111561062757fe5b600160003373ffffffffffffffffffffffffffffffffffffffff1673ffffffffffffffffffffffffffffffffffffffff16815260200190815260200160002060000160009054906101000a900460ff16600381111561068257fe5b10156106d9576040517f08c379a000000000000000000000000000000000000000000000000000000000815260040180806020018281038252603b815260200180610ee5603b913960400191505060405180910390fd5b6000600260006101000a81548160ff021916908315150217905550565b60038081111561070257fe5b600160003373ffffffffffffffffffffffffffffffffffffffff1673ffffffffffffffffffffffffffffffffffffffff16815260200190815260200160002060000160009054906101000a900460ff16600381111561075d57fe5b10156107b4576040517f08c379a000000000000000000000000000000000000000000000000000000000815260040180806020018281038252603b815260200180610ee5603b913960400191505060405180910390fd5b6040518060200160405280600160038111156107cc57fe5b815250600160008373ffffffffffffffffffffffffffffffffffffffff1673ffffffffffffffffffffffffffffffffffffffff16815260200190815260200160002060008201518160000160006101000a81548160ff0219169083600381111561083257fe5b02179055509050507f4bb8f5497a4d4a4036670dab8c94b028b3fedc11ce7fbf55f3f57b3a4d355dc7816001604051808373ffffffffffffffffffffffffffffffffffffffff1673ffffffffffffffffffffffffffffffffffffffff1681526020018260038111156108a057fe5b60ff1681526020019250505060405180910390a150565b6003808111156108c357fe5b600160003373ffffffffffffffffffffffffffffffffffffffff1673ffffffffffffffffffffffffffffffffffffffff16815260200190815260200160002060000160009054906101000a900460ff16600381111561091e57fe5b1015610975576040517f08c379a000000000000000000000000000000000000000000000000000000000815260040180806020018281038252603b815260200180610ee5603b913960400191505060405180910390fd5b60405180602001604052806002600381111561098d57fe5b815250600160008373ffffffffffffffffffffffffffffffffffffffff1673ffffffffffffffffffffffffffffffffffffffff16815260200190815260200160002060008201518160000160006101000a81548160ff021916908360038111156109f357fe5b02179055509050507f4bb8f5497a4d4a4036670dab8c94b028b3fedc11ce7fbf55f3f57b3a4d355dc7816002604051808373ffffffffffffffffffffffffffffffffffffffff1673ffffffffffffffffffffffffffffffffffffffff168152602001826003811115610a6157fe5b60ff1681526020019250505060405180910390a150565b600380811115610a8457fe5b600160003373ffffffffffffffffffffffffffffffffffffffff1673ffffffffffffffffffffffffffffffffffffffff16815260200190815260200160002060000160009054906101000a900460ff166003811115610adf57fe5b1015610b36576040517f08c379a000000000000000000000000000000000000000000000000000000000815260040180806020018281038252603b815260200180610ee5603b913960400191505060405180910390fd5b604051806020016040528060006003811115610b4e57fe5b815250600160008373ffffffffffffffffffffffffffffffffffffffff1673ffffffffffffffffffffffffffffffffffffffff16815260200190815260200160002060008201518160000160006101000a81548160ff02191690836003811115610bb457fe5b02179055509050507f4bb8f5497a4d4a4036670dab8c94b028b3fedc11ce7fbf55f3f57b3a4d355dc7816000604051808373ffffffffffffffffffffffffffffffffffffffff1673ffffffffffffffffffffffffffffffffffffffff168152602001826003811115610c2257fe5b60ff1681526020019250505060405180910390a150565b60008060009054906101000a900473ffffffffffffffffffffffffffffffffffffffff16905090565b6000809054906101000a900473ffffffffffffffffffffffffffffffffffffffff1681565b60008060009054906101000a900473ffffffffffffffffffffffffffffffffffffffff1673ffffffffffffffffffffffffffffffffffffffff163373ffffffffffffffffffffffffffffffffffffffff1614905090565b600380811115610cea57fe5b600160003373ffffffffffffffffffffffffffffffffffffffff1673ffffffffffffffffffffffffffffffffffffffff16815260200190815260200160002060000160009054906101000a900460ff166003811115610d4557fe5b1015610d9c576040517f08c379a000000000000000000000000000000000000000000000000000000000815260040180806020018281038252603b815260200180610ee5603b913960400191505060405180910390fd5b6001600260006101000a81548160ff021916908315150217905550565b6000600260009054906101000a900460ff1680610e3c575060016003811115610dde57fe5b600160008473ffffffffffffffffffffffffffffffffffffffff1673ffffffffffffffffffffffffffffffffffffffff16815260200190815260200160002060000160009054906101000a900460ff166003811115610e3957fe5b10155b9050919050565b600260009054906101000a900460ff1681565b610e5e610c87565b610e6757600080fd5b600073ffffffffffffffffffffffffffffffffffffffff168173ffffffffffffffffffffffffffffffffffffffff161415610ea157600080fd5b806000806101000a81548173ffffffffffffffffffffffffffffffffffffffff021916908373ffffffffffffffffffffffffffffffffffffffff1602179055505056fe4f6e6c79207573657220776974682041646d696e207065726d697373696f6e206c766c2063616e2063616c6c20746869732066756e6374696f6e2ea165627a7a723058203face735001bd0eca3c9e63af339d931fab299c71542ff9b12093f67189c3d290029",
  "source": "pragma solidity ^0.5.0;\n\nimport \"./utils/Ownable.sol\";\n\n/**\n * @title Permissioned manages access rights\n * @author Lukas Lukac, Lightstreams, 11.7.2018\n */\ncontract Permissioned is Ownable {\n    /**\n     * The higher permission automatically contains all lower permissions.\n     *\n     * E.g, granting WRITE, automatically grants READ permission.\n     *\n     * Do NOT shuffle these values as business logic in Go codebase is based on their order.\n     *\n     * @see go-lightstreams/lethacl/permission.go\n     *\n     * NO_ACCESS uint value is 0\n     * READ      uint value is 1\n     * WRITE     uint value is 2\n     * ADMIN     uint value is 3\n    */\n    enum Level {NO_ACCESS, READ, WRITE, ADMIN}\n\n    struct Permission {\n        Level level;\n    }\n\n    mapping(address => Permission) permissions;\n    bool public isPublic = false;\n\n    event PermissionGranted(address account, Level level);\n\n    constructor(address _owner, bool _isPublic) Ownable(_owner) public {\n        isPublic = _isPublic;\n\n        permissions[_owner] = Permission({\n            level: Level.ADMIN\n            });\n    }\n\n    modifier onlyAdmin {\n        require(permissions[msg.sender].level >= Level.ADMIN, \"Only user with Admin permission lvl can call this function.\");\n        _;\n    }\n\n    function grantPublicAccess() onlyAdmin public {\n        isPublic = true;\n    }\n\n    function revokePublicAccess() onlyAdmin public {\n        isPublic = false;\n    }\n\n    function grantRead(address account) onlyAdmin public {\n        permissions[account] = Permission({\n            level: Level.READ\n            });\n\n        emit PermissionGranted(account, Level.READ);\n    }\n\n    function grantWrite(address account) onlyAdmin public {\n        permissions[account] = Permission({\n            level: Level.WRITE\n            });\n\n        emit PermissionGranted(account, Level.WRITE);\n    }\n\n    function grantAdmin(address account) onlyAdmin public {\n        permissions[account] = Permission({\n            level: Level.ADMIN\n            });\n\n        emit PermissionGranted(account, Level.ADMIN);\n    }\n\n    function revokeAccess(address account) onlyAdmin public {\n        permissions[account] = Permission({\n            level: Level.NO_ACCESS\n            });\n\n        emit PermissionGranted(account, Level.NO_ACCESS);\n    }\n\n    function hasRead(address account) public view returns (bool hasReadAccess) {\n        return isPublic || permissions[account].level >= Level.READ;\n    }\n\n    function hasAdmin(address account) public view returns (bool hasAdminAccess) {\n        return permissions[account].level >= Level.ADMIN;\n    }\n\n    function getOwner() public view returns (address) {\n        return owner;\n    }\n}\n\n/**\n * @title ACL enables access control and management for every Smart Vault file\n * @author Lukas Lukac, Lightstreams, 11.7.2018\n */\ncontract ACL is Permissioned {\n    constructor(address _owner, bool _isPublic) public Permissioned(_owner, _isPublic) {\n    }\n\n    function version() public pure returns (uint256) {\n        return 2;\n    }\n}\n",
  "sourcePath": "/Users/enchanterio/go/src/github.com/lightstreams-network/lightstreams-js-sdk/contracts/Acl.sol",
  "compiler": {
    "name": "solc",
    "version": "0.5.8+commit.23d335f2.Emscripten.clang"
  },
  "schemaVersion": "3.0.1",
  "updatedAt": "2019-09-27T13:13:42.007Z",
  "devdoc": {
    "author": "Lukas Lukac, Lightstreams, 11.7.2018",
    "methods": {},
    "title": "Permissioned manages access rights"
  },
  "userdoc": {
    "methods": {}
  }
}