{
  "contractName": "Power",
  "abi": [
    {
      "constant": true,
      "inputs": [],
      "name": "version",
      "outputs": [
        {
          "name": "",
          "type": "string"
        }
      ],
      "payable": false,
      "stateMutability": "view",
      "type": "function"
    },
    {
      "inputs": [],
      "payable": false,
      "stateMutability": "nonpayable",
      "type": "constructor"
    }
  ],
  "bytecode": "0x60806040526040518060400160405280600381526020017f302e3300000000000000000000000000000000000000000000000000000000008152506000908051906020019061004f929190610e32565b5034801561005c57600080fd5b50701c35fedd14ffffffffffffffffffffffff600160206080811061007d57fe5b0181905550701b0ce43b323fffffffffffffffffffffff60016021608081106100a257fe5b01819055507019f0028ec1ffffffffffffffffffffffff60016022608081106100c757fe5b01819055507018ded91f0e7fffffffffffffffffffffff60016023608081106100ec57fe5b01819055507017d8ec7f0417ffffffffffffffffffffff600160246080811061011157fe5b01819055507016ddc6556cdbffffffffffffffffffffff600160256080811061013657fe5b01819055507015ecf52776a1ffffffffffffffffffffff600160266080811061015b57fe5b01819055507015060c256cb2ffffffffffffffffffffff600160276080811061018057fe5b0181905550701428a2f98d72ffffffffffffffffffffff60016028608081106101a557fe5b01819055507013545598e5c23fffffffffffffffffffff60016029608081106101ca57fe5b0181905550701288c4161ce1dfffffffffffffffffffff6001602a608081106101ef57fe5b01819055507011c592761c666fffffffffffffffffffff6001602b6080811061021457fe5b018190555070110a688680a757ffffffffffffffffffff6001602c6080811061023957fe5b0181905550701056f1b5bedf77ffffffffffffffffffff6001602d6080811061025e57fe5b0181905550700faadceceeff8bffffffffffffffffffff6001602e6080811061028357fe5b0181905550700f05dc6b27edadffffffffffffffffffff6001602f608081106102a857fe5b0181905550700e67a5a25da4107fffffffffffffffffff60016030608081106102cd57fe5b0181905550700dcff115b14eedffffffffffffffffffff60016031608081106102f257fe5b0181905550700d3e7a392431239fffffffffffffffffff600160326080811061031757fe5b0181905550700cb2ff529eb71e4fffffffffffffffffff600160336080811061033c57fe5b0181905550700c2d415c3db974afffffffffffffffffff600160346080811061036157fe5b0181905550700bad03e7d883f69bffffffffffffffffff600160356080811061038657fe5b0181905550700b320d03b2c343d5ffffffffffffffffff60016036608081106103ab57fe5b0181905550700abc25204e02828dffffffffffffffffff60016037608081106103d057fe5b0181905550700a4b16f74ee4bb207fffffffffffffffff60016038608081106103f557fe5b01819055507009deaf736ac1f569ffffffffffffffffff600160396080811061041a57fe5b0181905550700976bd9952c7aa957fffffffffffffffff6001603a6080811061043f57fe5b01819055507009131271922eaa606fffffffffffffffff6001603b6080811061046457fe5b01819055507008b380f3558668c46fffffffffffffffff6001603c6080811061048957fe5b0181905550700857ddf0117efa215bffffffffffffffff6001603d608081106104ae57fe5b01819055507007ffffffffffffffffffffffffffffffff6001603e608081106104d357fe5b01819055507007abbf6f6abb9d087fffffffffffffffff6001603f608081106104f857fe5b018190555070075af62cbac95f7dfa7fffffffffffffff600160406080811061051d57fe5b018190555070070d7fb7452e187ac13fffffffffffffff600160416080811061054257fe5b01819055507006c3390ecc8af379295fffffffffffffff600160426080811061056757fe5b018190555070067c00a3b07ffc01fd6fffffffffffffff600160436080811061058c57fe5b0181905550700637b647c39cbb9d3d27ffffffffffffff60016044608081106105b157fe5b01819055507005f63b1fc104dbd39587ffffffffffffff60016045608081106105d657fe5b01819055507005b771955b36e12f7235ffffffffffffff60016046608081106105fb57fe5b018190555070057b3d49dda84556d6f6ffffffffffffff600160476080811061062057fe5b018190555070054183095b2c8ececf30ffffffffffffff600160486080811061064557fe5b018190555070050a28be635ca2b888f77fffffffffffff600160496080811061066a57fe5b01819055507004d5156639708c9db33c3fffffffffffff6001604a6080811061068f57fe5b01819055507004a23105873875bd52dfdfffffffffffff6001604b608081106106b457fe5b0181905550700471649d87199aa990756fffffffffffff6001604c608081106106d957fe5b01819055507004429a21a029d4c1457cfbffffffffffff6001604d608081106106fe57fe5b0181905550700415bc6d6fb7dd71af2cb3ffffffffffff6001604e6080811061072357fe5b01819055507003eab73b3bbfe282243ce1ffffffffffff6001604f6080811061074857fe5b01819055507003c1771ac9fb6b4c18e229ffffffffffff600160506080811061076d57fe5b0181905550700399e96897690418f785257fffffffffff600160516080811061079257fe5b0181905550700373fc456c53bb779bf0ea9fffffffffff60016052608081106107b757fe5b018190555070034f9e8e490c48e67e6ab8bfffffffffff60016053608081106107dc57fe5b018190555070032cbfd4a7adc790560b3337ffffffffff600160546080811061080157fe5b018190555070030b50570f6e5d2acca94613ffffffffff600160556080811061082657fe5b01819055507002eb40f9f620fda6b56c2861ffffffffff600160566080811061084b57fe5b01819055507002cc8340ecb0d0f520a6af58ffffffffff600160576080811061087057fe5b01819055507002af09481380a0a35cf1ba02ffffffffff600160586080811061089557fe5b0181905550700292c5bdd3b92ec810287b1b3fffffffff60016059608081106108ba57fe5b0181905550700277abdcdab07d5a77ac6d6b9fffffffff6001605a608081106108df57fe5b018190555070025daf6654b1eaa55fd64df5efffffffff6001605b6080811061090457fe5b0181905550700244c49c648baa98192dce88b7ffffffff6001605c6080811061092957fe5b018190555070022ce03cd5619a311b2471268bffffffff6001605d6080811061094e57fe5b0181905550700215f77c045fbe885654a44a0fffffffff6001605e6080811061097357fe5b01819055507001ffffffffffffffffffffffffffffffff6001605f6080811061099857fe5b01819055507001eaefdbdaaee7421fc4d3ede5ffffffff60016060608081106109bd57fe5b01819055507001d6bd8b2eb257df7e8ca57b09bfffffff60016061608081106109e257fe5b01819055507001c35fedd14b861eb0443f7f133fffffff6001606260808110610a0757fe5b01819055507001b0ce43b322bcde4a56e8ada5afffffff6001606360808110610a2c57fe5b018190555070019f0028ec1fff007f5a195a39dfffffff6001606460808110610a5157fe5b018190555070018ded91f0e72ee74f49b15ba527ffffff6001606560808110610a7657fe5b018190555070017d8ec7f04136f4e5615fd41a63ffffff6001606660808110610a9b57fe5b018190555070016ddc6556cdb84bdc8d12d22e6fffffff6001606760808110610ac057fe5b018190555070015ecf52776a1155b5bd8395814f7fffff6001606860808110610ae557fe5b018190555070015060c256cb23b3b3cc3754cf40ffffff6001606960808110610b0a57fe5b01819055507001428a2f98d728ae223ddab715be3fffff6001606a60808110610b2f57fe5b018190555070013545598e5c23276ccf0ede68034fffff6001606b60808110610b5457fe5b01819055507001288c4161ce1d6f54b7f61081194fffff6001606c60808110610b7957fe5b018190555070011c592761c666aa641d5a01a40f17ffff6001606d60808110610b9e57fe5b0181905550700110a688680a7530515f3e6e6cfdcdffff6001606e60808110610bc357fe5b01819055507001056f1b5bedf75c6bcb2ce8aed428ffff6001606f60808110610be857fe5b01819055506ffaadceceeff8a0890f3875f008277fff6001607060808110610c0c57fe5b01819055506ff05dc6b27edad306388a600f6ba0bfff6001607160808110610c3057fe5b01819055506fe67a5a25da41063de1495d5b18cdbfff6001607260808110610c5457fe5b01819055506fdcff115b14eedde6fc3aa5353f2e4fff6001607360808110610c7857fe5b01819055506fd3e7a3924312399f9aae2e0f868f8fff6001607460808110610c9c57fe5b01819055506fcb2ff529eb71e41582cccd5a1ee26fff6001607560808110610cc057fe5b01819055506fc2d415c3db974ab32a51840c0b67edff6001607660808110610ce457fe5b01819055506fbad03e7d883f69ad5b0a186184e06bff6001607760808110610d0857fe5b01819055506fb320d03b2c343d4829abd6075f0cc5ff6001607860808110610d2c57fe5b01819055506fabc25204e02828d73c6e80bcdb1a95bf6001607960808110610d5057fe5b01819055506fa4b16f74ee4bb2040a1ec6c15fbbf2df6001607a60808110610d7457fe5b01819055506f9deaf736ac1f569deb1b5ae3f36c130f6001607b60808110610d9857fe5b01819055506f976bd9952c7aa957f5937d790ef650376001607c60808110610dbc57fe5b01819055506f9131271922eaa6064b73a22d0bd4f2bf6001607d60808110610de057fe5b01819055506f8b380f3558668c46c91c49a2f8e967b96001607e60808110610e0457fe5b01819055506f857ddf0117efa215952912839f6473e66001607f60808110610e2857fe5b0181905550610ed7565b828054600181600116156101000203166002900490600052602060002090601f016020900481019282601f10610e7357805160ff1916838001178555610ea1565b82800160010185558215610ea1579182015b82811115610ea0578251825591602001919060010190610e85565b5b509050610eae9190610eb2565b5090565b610ed491905b80821115610ed0576000816000905550600101610eb8565b5090565b90565b61017d80610ee66000396000f3fe608060405234801561001057600080fd5b506004361061002b5760003560e01c806354fd4d5014610030575b600080fd5b6100386100b3565b6040518080602001828103825283818151815260200191508051906020019080838360005b8381101561007857808201518184015260208101905061005d565b50505050905090810190601f1680156100a55780820380516001836020036101000a031916815260200191505b509250505060405180910390f35b60008054600181600116156101000203166002900480601f0160208091040260200160405190810160405280929190818152602001828054600181600116156101000203166002900480156101495780601f1061011e57610100808354040283529160200191610149565b820191906000526020600020905b81548152906001019060200180831161012c57829003601f168201915b50505050508156fea165627a7a723058208bd92aa724422123fe469fb3ee84152ab1e116641072611982ce688535fbfbde0029",
  "source": "/* Apache License\nVersion 2.0, January 2004\nhttp://www.apache.org/licenses/\n\nTERMS AND CONDITIONS FOR USE, REPRODUCTION, AND DISTRIBUTION\n\n1. Definitions.\n\n\"License\" shall mean the terms and conditions for use, reproduction,\nand distribution as defined by Sections 1 through 9 of this document.\n\n\"Licensor\" shall mean the copyright owner or entity authorized by\nthe copyright owner that is granting the License.\n\n\"Legal Entity\" shall mean the union of the acting entity and all\nother entities that control, are controlled by, or are under common\ncontrol with that entity. For the purposes of this definition,\n\"control\" means (i) the power, direct or indirect, to cause the\ndirection or management of such entity, whether by contract or\notherwise, or (ii) ownership of fifty percent (50%) or more of the\noutstanding shares, or (iii) beneficial ownership of such entity.\n\n\"You\" (or \"Your\") shall mean an individual or Legal Entity\nexercising permissions granted by this License.\n\n\"Source\" form shall mean the preferred form for making modifications,\nincluding but not limited to software source code, documentation\nsource, and configuration files.\n\n\"Object\" form shall mean any form resulting from mechanical\ntransformation or translation of a Source form, including but\nnot limited to compiled object code, generated documentation,\nand conversions to other media types.\n\n\"Work\" shall mean the work of authorship, whether in Source or\nObject form, made available under the License, as indicated by a\ncopyright notice that is included in or attached to the work\n(an example is provided in the Appendix below).\n\n\"Derivative Works\" shall mean any work, whether in Source or Object\nform, that is based on (or derived from) the Work and for which the\neditorial revisions, annotations, elaborations, or other modifications\nrepresent, as a whole, an original work of authorship. For the purposes\nof this License, Derivative Works shall not include works that remain\nseparable from, or merely link (or bind by name) to the interfaces of,\nthe Work and Derivative Works thereof.\n\n\"Contribution\" shall mean any work of authorship, including\nthe original version of the Work and any modifications or additions\nto that Work or Derivative Works thereof, that is intentionally\nsubmitted to Licensor for inclusion in the Work by the copyright owner\nor by an individual or Legal Entity authorized to submit on behalf of\nthe copyright owner. For the purposes of this definition, \"submitted\"\nmeans any form of electronic, verbal, or written communication sent\nto the Licensor or its representatives, including but not limited to\ncommunication on electronic mailing lists, source code control systems,\nand issue tracking systems that are managed by, or on behalf of, the\nLicensor for the purpose of discussing and improving the Work, but\nexcluding communication that is conspicuously marked or otherwise\ndesignated in writing by the copyright owner as \"Not a Contribution.\"\n\n\"Contributor\" shall mean Licensor and any individual or Legal Entity\non behalf of whom a Contribution has been received by Licensor and\nsubsequently incorporated within the Work.\n\n2. Grant of Copyright License. Subject to the terms and conditions of\nthis License, each Contributor hereby grants to You a perpetual,\nworldwide, non-exclusive, no-charge, royalty-free, irrevocable\ncopyright license to reproduce, prepare Derivative Works of,\npublicly display, publicly perform, sublicense, and distribute the\nWork and such Derivative Works in Source or Object form.\n\n3. Grant of Patent License. Subject to the terms and conditions of\nthis License, each Contributor hereby grants to You a perpetual,\nworldwide, non-exclusive, no-charge, royalty-free, irrevocable\n(except as stated in this section) patent license to make, have made,\nuse, offer to sell, sell, import, and otherwise transfer the Work,\nwhere such license applies only to those patent claims licensable\nby such Contributor that are necessarily infringed by their\nContribution(s) alone or by combination of their Contribution(s)\nwith the Work to which such Contribution(s) was submitted. If You\ninstitute patent litigation against any entity (including a\ncross-claim or counterclaim in a lawsuit) alleging that the Work\nor a Contribution incorporated within the Work constitutes direct\nor contributory patent infringement, then any patent licenses\ngranted to You under this License for that Work shall terminate\nas of the date such litigation is filed.\n\n4. Redistribution. You may reproduce and distribute copies of the\nWork or Derivative Works thereof in any medium, with or without\nmodifications, and in Source or Object form, provided that You\nmeet the following conditions:\n\n(a) You must give any other recipients of the Work or\nDerivative Works a copy of this License; and\n\n(b) You must cause any modified files to carry prominent notices\nstating that You changed the files; and\n\n(c) You must retain, in the Source form of any Derivative Works\nthat You distribute, all copyright, patent, trademark, and\nattribution notices from the Source form of the Work,\nexcluding those notices that do not pertain to any part of\nthe Derivative Works; and\n\n(d) If the Work includes a \"NOTICE\" text file as part of its\ndistribution, then any Derivative Works that You distribute must\ninclude a readable copy of the attribution notices contained\nwithin such NOTICE file, excluding those notices that do not\npertain to any part of the Derivative Works, in at least one\nof the following places: within a NOTICE text file distributed\nas part of the Derivative Works; within the Source form or\ndocumentation, if provided along with the Derivative Works; or,\nwithin a display generated by the Derivative Works, if and\nwherever such third-party notices normally appear. The contents\nof the NOTICE file are for informational purposes only and\ndo not modify the License. You may add Your own attribution\nnotices within Derivative Works that You distribute, alongside\nor as an addendum to the NOTICE text from the Work, provided\nthat such additional attribution notices cannot be construed\nas modifying the License.\n\nYou may add Your own copyright statement to Your modifications and\nmay provide additional or different license terms and conditions\nfor use, reproduction, or distribution of Your modifications, or\nfor any such Derivative Works as a whole, provided Your use,\nreproduction, and distribution of the Work otherwise complies with\nthe conditions stated in this License.\n\n5. Submission of Contributions. Unless You explicitly state otherwise,\nany Contribution intentionally submitted for inclusion in the Work\nby You to the Licensor shall be under the terms and conditions of\nthis License, without any additional terms or conditions.\nNotwithstanding the above, nothing herein shall supersede or modify\nthe terms of any separate license agreement you may have executed\nwith Licensor regarding such Contributions.\n\n6. Trademarks. This License does not grant permission to use the trade\nnames, trademarks, service marks, or product names of the Licensor,\nexcept as required for reasonable and customary use in describing the\norigin of the Work and reproducing the content of the NOTICE file.\n\n7. Disclaimer of Warranty. Unless required by applicable law or\nagreed to in writing, Licensor provides the Work (and each\nContributor provides its Contributions) on an \"AS IS\" BASIS,\nWITHOUT WARRANTIES OR CONDITIONS OF ANY KIND, either express or\nimplied, including, without limitation, any warranties or conditions\nof TITLE, NON-INFRINGEMENT, MERCHANTABILITY, or FITNESS FOR A\nPARTICULAR PURPOSE. You are solely responsible for determining the\nappropriateness of using or redistributing the Work and assume any\nrisks associated with Your exercise of permissions under this License.\n\n8. Limitation of Liability. In no event and under no legal theory,\nwhether in tort (including negligence), contract, or otherwise,\nunless required by applicable law (such as deliberate and grossly\nnegligent acts) or agreed to in writing, shall any Contributor be\nliable to You for damages, including any direct, indirect, special,\nincidental, or consequential damages of any character arising as a\nresult of this License or out of the use or inability to use the\nWork (including but not limited to damages for loss of goodwill,\nwork stoppage, computer failure or malfunction, or any and all\nother commercial damages or losses), even if such Contributor\nhas been advised of the possibility of such damages.\n\n9. Accepting Warranty or Additional Liability. While redistributing\nthe Work or Derivative Works thereof, You may choose to offer,\nand charge a fee for, acceptance of support, warranty, indemnity,\nor other liability obligations and/or rights consistent with this\nLicense. However, in accepting such obligations, You may act only\non Your own behalf and on Your sole responsibility, not on behalf\nof any other Contributor, and only if You agree to indemnify,\ndefend, and hold each Contributor harmless for any liability\nincurred by, or claims asserted against, such Contributor by reason\nof your accepting any such warranty or additional liability.\n\nEND OF TERMS AND CONDITIONS\n\nAPPENDIX: How to apply the Apache License to your work.\n\nTo apply the Apache License to your work, attach the following\nboilerplate notice, with the fields enclosed by brackets \"{}\"\nreplaced with your own identifying information. (Don't include\nthe brackets!)  The text should be enclosed in the appropriate\ncomment syntax for the file format. We also recommend that a\nfile or class name and description of purpose be included on the\nsame \"printed page\" as the copyright notice for easier\nidentification within third-party archives.\n\nCopyright 2017 Bprotocol Foundation\n\nLicensed under the Apache License, Version 2.0 (the \"License\");\nyou may not use this file except in compliance with the License.\nYou may obtain a copy of the License at\n\nhttp://www.apache.org/licenses/LICENSE-2.0\n\nUnless required by applicable law or agreed to in writing, software\ndistributed under the License is distributed on an \"AS IS\" BASIS,\nWITHOUT WARRANTIES OR CONDITIONS OF ANY KIND, either express or implied.\nSee the License for the specific language governing permissions and\nlimitations under the License. */\n\npragma solidity ^0.5.0;\n\n /**\n * @title Power function by Bancor\n * @dev https://github.com/bancorprotocol/contracts\n *\n * Modified from the original by Slava Balasanov & Tarrence van As\n *\n * Split Power.sol out from BancorFormula.sol\n */\ncontract Power {\n  string public version = \"0.3\";\n\n  uint256 private constant ONE = 1;\n  uint8 private constant MIN_PRECISION = 32;\n  uint8 private constant MAX_PRECISION = 127;\n\n  /**\n    The values below depend on MAX_PRECISION. If you choose to change it:\n    Apply the same change in file 'PrintIntScalingFactors.py', run it and paste the results below.\n  */\n  uint256 private constant FIXED_1 = 0x080000000000000000000000000000000;\n  uint256 private constant FIXED_2 = 0x100000000000000000000000000000000;\n  uint256 private constant MAX_NUM = 0x200000000000000000000000000000000;\n\n  /**\n      Auto-generated via 'PrintLn2ScalingFactors.py'\n  */\n  uint256 private constant LN2_NUMERATOR   = 0x3f80fe03f80fe03f80fe03f80fe03f8;\n  uint256 private constant LN2_DENOMINATOR = 0x5b9de1d10bf4103d647b0955897ba80;\n\n  /**\n      Auto-generated via 'PrintFunctionOptimalLog.py' and 'PrintFunctionOptimalExp.py'\n  */\n  uint256 private constant OPT_LOG_MAX_VAL =\n  0x15bf0a8b1457695355fb8ac404e7a79e3;\n  uint256 private constant OPT_EXP_MAX_VAL =\n  0x800000000000000000000000000000000;\n\n  /**\n    The values below depend on MIN_PRECISION and MAX_PRECISION. If you choose to change either one of them:\n    Apply the same change in file 'PrintFunctionBancorFormula.py', run it and paste the results below.\n  */\n  uint256[128] private maxExpArray;\n  constructor() public {\n//  maxExpArray[0] = 0x6bffffffffffffffffffffffffffffffff;\n//  maxExpArray[1] = 0x67ffffffffffffffffffffffffffffffff;\n//  maxExpArray[2] = 0x637fffffffffffffffffffffffffffffff;\n//  maxExpArray[3] = 0x5f6fffffffffffffffffffffffffffffff;\n//  maxExpArray[4] = 0x5b77ffffffffffffffffffffffffffffff;\n//  maxExpArray[5] = 0x57b3ffffffffffffffffffffffffffffff;\n//  maxExpArray[6] = 0x5419ffffffffffffffffffffffffffffff;\n//  maxExpArray[7] = 0x50a2ffffffffffffffffffffffffffffff;\n//  maxExpArray[8] = 0x4d517fffffffffffffffffffffffffffff;\n//  maxExpArray[9] = 0x4a233fffffffffffffffffffffffffffff;\n//  maxExpArray[10] = 0x47165fffffffffffffffffffffffffffff;\n//  maxExpArray[11] = 0x4429afffffffffffffffffffffffffffff;\n//  maxExpArray[12] = 0x415bc7ffffffffffffffffffffffffffff;\n//  maxExpArray[13] = 0x3eab73ffffffffffffffffffffffffffff;\n//  maxExpArray[14] = 0x3c1771ffffffffffffffffffffffffffff;\n//  maxExpArray[15] = 0x399e96ffffffffffffffffffffffffffff;\n//  maxExpArray[16] = 0x373fc47fffffffffffffffffffffffffff;\n//  maxExpArray[17] = 0x34f9e8ffffffffffffffffffffffffffff;\n//  maxExpArray[18] = 0x32cbfd5fffffffffffffffffffffffffff;\n//  maxExpArray[19] = 0x30b5057fffffffffffffffffffffffffff;\n//  maxExpArray[20] = 0x2eb40f9fffffffffffffffffffffffffff;\n//  maxExpArray[21] = 0x2cc8340fffffffffffffffffffffffffff;\n//  maxExpArray[22] = 0x2af09481ffffffffffffffffffffffffff;\n//  maxExpArray[23] = 0x292c5bddffffffffffffffffffffffffff;\n//  maxExpArray[24] = 0x277abdcdffffffffffffffffffffffffff;\n//  maxExpArray[25] = 0x25daf6657fffffffffffffffffffffffff;\n//  maxExpArray[26] = 0x244c49c65fffffffffffffffffffffffff;\n//  maxExpArray[27] = 0x22ce03cd5fffffffffffffffffffffffff;\n//  maxExpArray[28] = 0x215f77c047ffffffffffffffffffffffff;\n//  maxExpArray[29] = 0x1fffffffffffffffffffffffffffffffff;\n//  maxExpArray[30] = 0x1eaefdbdabffffffffffffffffffffffff;\n//  maxExpArray[31] = 0x1d6bd8b2ebffffffffffffffffffffffff;\n    maxExpArray[32] = 0x1c35fedd14ffffffffffffffffffffffff;\n    maxExpArray[33] = 0x1b0ce43b323fffffffffffffffffffffff;\n    maxExpArray[34] = 0x19f0028ec1ffffffffffffffffffffffff;\n    maxExpArray[35] = 0x18ded91f0e7fffffffffffffffffffffff;\n    maxExpArray[36] = 0x17d8ec7f0417ffffffffffffffffffffff;\n    maxExpArray[37] = 0x16ddc6556cdbffffffffffffffffffffff;\n    maxExpArray[38] = 0x15ecf52776a1ffffffffffffffffffffff;\n    maxExpArray[39] = 0x15060c256cb2ffffffffffffffffffffff;\n    maxExpArray[40] = 0x1428a2f98d72ffffffffffffffffffffff;\n    maxExpArray[41] = 0x13545598e5c23fffffffffffffffffffff;\n    maxExpArray[42] = 0x1288c4161ce1dfffffffffffffffffffff;\n    maxExpArray[43] = 0x11c592761c666fffffffffffffffffffff;\n    maxExpArray[44] = 0x110a688680a757ffffffffffffffffffff;\n    maxExpArray[45] = 0x1056f1b5bedf77ffffffffffffffffffff;\n    maxExpArray[46] = 0x0faadceceeff8bffffffffffffffffffff;\n    maxExpArray[47] = 0x0f05dc6b27edadffffffffffffffffffff;\n    maxExpArray[48] = 0x0e67a5a25da4107fffffffffffffffffff;\n    maxExpArray[49] = 0x0dcff115b14eedffffffffffffffffffff;\n    maxExpArray[50] = 0x0d3e7a392431239fffffffffffffffffff;\n    maxExpArray[51] = 0x0cb2ff529eb71e4fffffffffffffffffff;\n    maxExpArray[52] = 0x0c2d415c3db974afffffffffffffffffff;\n    maxExpArray[53] = 0x0bad03e7d883f69bffffffffffffffffff;\n    maxExpArray[54] = 0x0b320d03b2c343d5ffffffffffffffffff;\n    maxExpArray[55] = 0x0abc25204e02828dffffffffffffffffff;\n    maxExpArray[56] = 0x0a4b16f74ee4bb207fffffffffffffffff;\n    maxExpArray[57] = 0x09deaf736ac1f569ffffffffffffffffff;\n    maxExpArray[58] = 0x0976bd9952c7aa957fffffffffffffffff;\n    maxExpArray[59] = 0x09131271922eaa606fffffffffffffffff;\n    maxExpArray[60] = 0x08b380f3558668c46fffffffffffffffff;\n    maxExpArray[61] = 0x0857ddf0117efa215bffffffffffffffff;\n    maxExpArray[62] = 0x07ffffffffffffffffffffffffffffffff;\n    maxExpArray[63] = 0x07abbf6f6abb9d087fffffffffffffffff;\n    maxExpArray[64] = 0x075af62cbac95f7dfa7fffffffffffffff;\n    maxExpArray[65] = 0x070d7fb7452e187ac13fffffffffffffff;\n    maxExpArray[66] = 0x06c3390ecc8af379295fffffffffffffff;\n    maxExpArray[67] = 0x067c00a3b07ffc01fd6fffffffffffffff;\n    maxExpArray[68] = 0x0637b647c39cbb9d3d27ffffffffffffff;\n    maxExpArray[69] = 0x05f63b1fc104dbd39587ffffffffffffff;\n    maxExpArray[70] = 0x05b771955b36e12f7235ffffffffffffff;\n    maxExpArray[71] = 0x057b3d49dda84556d6f6ffffffffffffff;\n    maxExpArray[72] = 0x054183095b2c8ececf30ffffffffffffff;\n    maxExpArray[73] = 0x050a28be635ca2b888f77fffffffffffff;\n    maxExpArray[74] = 0x04d5156639708c9db33c3fffffffffffff;\n    maxExpArray[75] = 0x04a23105873875bd52dfdfffffffffffff;\n    maxExpArray[76] = 0x0471649d87199aa990756fffffffffffff;\n    maxExpArray[77] = 0x04429a21a029d4c1457cfbffffffffffff;\n    maxExpArray[78] = 0x0415bc6d6fb7dd71af2cb3ffffffffffff;\n    maxExpArray[79] = 0x03eab73b3bbfe282243ce1ffffffffffff;\n    maxExpArray[80] = 0x03c1771ac9fb6b4c18e229ffffffffffff;\n    maxExpArray[81] = 0x0399e96897690418f785257fffffffffff;\n    maxExpArray[82] = 0x0373fc456c53bb779bf0ea9fffffffffff;\n    maxExpArray[83] = 0x034f9e8e490c48e67e6ab8bfffffffffff;\n    maxExpArray[84] = 0x032cbfd4a7adc790560b3337ffffffffff;\n    maxExpArray[85] = 0x030b50570f6e5d2acca94613ffffffffff;\n    maxExpArray[86] = 0x02eb40f9f620fda6b56c2861ffffffffff;\n    maxExpArray[87] = 0x02cc8340ecb0d0f520a6af58ffffffffff;\n    maxExpArray[88] = 0x02af09481380a0a35cf1ba02ffffffffff;\n    maxExpArray[89] = 0x0292c5bdd3b92ec810287b1b3fffffffff;\n    maxExpArray[90] = 0x0277abdcdab07d5a77ac6d6b9fffffffff;\n    maxExpArray[91] = 0x025daf6654b1eaa55fd64df5efffffffff;\n    maxExpArray[92] = 0x0244c49c648baa98192dce88b7ffffffff;\n    maxExpArray[93] = 0x022ce03cd5619a311b2471268bffffffff;\n    maxExpArray[94] = 0x0215f77c045fbe885654a44a0fffffffff;\n    maxExpArray[95] = 0x01ffffffffffffffffffffffffffffffff;\n    maxExpArray[96] = 0x01eaefdbdaaee7421fc4d3ede5ffffffff;\n    maxExpArray[97] = 0x01d6bd8b2eb257df7e8ca57b09bfffffff;\n    maxExpArray[98] = 0x01c35fedd14b861eb0443f7f133fffffff;\n    maxExpArray[99] = 0x01b0ce43b322bcde4a56e8ada5afffffff;\n    maxExpArray[100] = 0x019f0028ec1fff007f5a195a39dfffffff;\n    maxExpArray[101] = 0x018ded91f0e72ee74f49b15ba527ffffff;\n    maxExpArray[102] = 0x017d8ec7f04136f4e5615fd41a63ffffff;\n    maxExpArray[103] = 0x016ddc6556cdb84bdc8d12d22e6fffffff;\n    maxExpArray[104] = 0x015ecf52776a1155b5bd8395814f7fffff;\n    maxExpArray[105] = 0x015060c256cb23b3b3cc3754cf40ffffff;\n    maxExpArray[106] = 0x01428a2f98d728ae223ddab715be3fffff;\n    maxExpArray[107] = 0x013545598e5c23276ccf0ede68034fffff;\n    maxExpArray[108] = 0x01288c4161ce1d6f54b7f61081194fffff;\n    maxExpArray[109] = 0x011c592761c666aa641d5a01a40f17ffff;\n    maxExpArray[110] = 0x0110a688680a7530515f3e6e6cfdcdffff;\n    maxExpArray[111] = 0x01056f1b5bedf75c6bcb2ce8aed428ffff;\n    maxExpArray[112] = 0x00faadceceeff8a0890f3875f008277fff;\n    maxExpArray[113] = 0x00f05dc6b27edad306388a600f6ba0bfff;\n    maxExpArray[114] = 0x00e67a5a25da41063de1495d5b18cdbfff;\n    maxExpArray[115] = 0x00dcff115b14eedde6fc3aa5353f2e4fff;\n    maxExpArray[116] = 0x00d3e7a3924312399f9aae2e0f868f8fff;\n    maxExpArray[117] = 0x00cb2ff529eb71e41582cccd5a1ee26fff;\n    maxExpArray[118] = 0x00c2d415c3db974ab32a51840c0b67edff;\n    maxExpArray[119] = 0x00bad03e7d883f69ad5b0a186184e06bff;\n    maxExpArray[120] = 0x00b320d03b2c343d4829abd6075f0cc5ff;\n    maxExpArray[121] = 0x00abc25204e02828d73c6e80bcdb1a95bf;\n    maxExpArray[122] = 0x00a4b16f74ee4bb2040a1ec6c15fbbf2df;\n    maxExpArray[123] = 0x009deaf736ac1f569deb1b5ae3f36c130f;\n    maxExpArray[124] = 0x00976bd9952c7aa957f5937d790ef65037;\n    maxExpArray[125] = 0x009131271922eaa6064b73a22d0bd4f2bf;\n    maxExpArray[126] = 0x008b380f3558668c46c91c49a2f8e967b9;\n    maxExpArray[127] = 0x00857ddf0117efa215952912839f6473e6;\n  }\n\n  /**\n    General Description:\n        Determine a value of precision.\n        Calculate an integer approximation of (_baseN / _baseD) ^ (_expN / _expD) * 2 ^ precision.\n        Return the result along with the precision used.\n     Detailed Description:\n        Instead of calculating \"base ^ exp\", we calculate \"e ^ (log(base) * exp)\".\n        The value of \"log(base)\" is represented with an integer slightly smaller than \"log(base) * 2 ^ precision\".\n        The larger \"precision\" is, the more accurately this value represents the real value.\n        However, the larger \"precision\" is, the more bits are required in order to store this value.\n        And the exponentiation function, which takes \"x\" and calculates \"e ^ x\", is limited to a maximum exponent (maximum value of \"x\").\n        This maximum exponent depends on the \"precision\" used, and it is given by \"maxExpArray[precision] >> (MAX_PRECISION - precision)\".\n        Hence we need to determine the highest precision which can be used for the given input, before calling the exponentiation function.\n        This allows us to compute \"base ^ exp\" with maximum accuracy and without exceeding 256 bits in any of the intermediate computations.\n        This functions assumes that \"_expN < 2 ^ 256 / log(MAX_NUM - 1)\", otherwise the multiplication should be replaced with a \"safeMul\".\n  */\n  function power(\n    uint256 _baseN,\n    uint256 _baseD,\n    uint32 _expN,\n    uint32 _expD\n  ) internal view returns (uint256, uint8)\n  {\n    assert(_baseN < MAX_NUM);\n    require(_baseN >= _baseD, \"Bases < 1 are not supported.\");\n\n    uint256 baseLog;\n    uint256 base = _baseN * FIXED_1 / _baseD;\n    if (base < OPT_LOG_MAX_VAL) {\n      baseLog = optimalLog(base);\n    } else {\n      baseLog = generalLog(base);\n    }\n\n    uint256 baseLogTimesExp = baseLog * _expN / _expD;\n    if (baseLogTimesExp < OPT_EXP_MAX_VAL) {\n      return (optimalExp(baseLogTimesExp), MAX_PRECISION);\n    } else {\n      uint8 precision = findPositionInMaxExpArray(baseLogTimesExp);\n      return (generalExp(baseLogTimesExp >> (MAX_PRECISION - precision), precision), precision);\n    }\n  }\n\n  /**\n      Compute log(x / FIXED_1) * FIXED_1.\n      This functions assumes that \"x >= FIXED_1\", because the output would be negative otherwise.\n  */\n  function generalLog(uint256 _x) internal pure returns (uint256) {\n    uint256 res = 0;\n    uint256 x = _x;\n\n    // If x >= 2, then we compute the integer part of log2(x), which is larger than 0.\n    if (x >= FIXED_2) {\n      uint8 count = floorLog2(x / FIXED_1);\n      x >>= count; // now x < 2\n      res = count * FIXED_1;\n    }\n\n    // If x > 1, then we compute the fraction part of log2(x), which is larger than 0.\n    if (x > FIXED_1) {\n      for (uint8 i = MAX_PRECISION; i > 0; --i) {\n        x = (x * x) / FIXED_1; // now 1 < x < 4\n        if (x >= FIXED_2) {\n          x >>= 1; // now 1 < x < 2\n          res += ONE << (i - 1);\n        }\n      }\n    }\n\n    return res * LN2_NUMERATOR / LN2_DENOMINATOR;\n  }\n\n  /**\n    Compute the largest integer smaller than or equal to the binary logarithm of the input.\n  */\n  function floorLog2(uint256 _n) internal pure returns (uint8) {\n    uint8 res = 0;\n    uint256 n = _n;\n\n    if (n < 256) {\n      // At most 8 iterations\n      while (n > 1) {\n        n >>= 1;\n        res += 1;\n      }\n    } else {\n      // Exactly 8 iterations\n      for (uint8 s = 128; s > 0; s >>= 1) {\n        if (n >= (ONE << s)) {\n          n >>= s;\n          res |= s;\n        }\n      }\n    }\n\n    return res;\n  }\n\n  /**\n      The global \"maxExpArray\" is sorted in descending order, and therefore the following statements are equivalent:\n      - This function finds the position of [the smallest value in \"maxExpArray\" larger than or equal to \"x\"]\n      - This function finds the highest position of [a value in \"maxExpArray\" larger than or equal to \"x\"]\n  */\n  function findPositionInMaxExpArray(uint256 _x)\n  internal view returns (uint8)\n  {\n    uint8 lo = MIN_PRECISION;\n    uint8 hi = MAX_PRECISION;\n\n    while (lo + 1 < hi) {\n      uint8 mid = (lo + hi) / 2;\n      if (maxExpArray[mid] >= _x)\n        lo = mid;\n      else\n        hi = mid;\n    }\n\n    if (maxExpArray[hi] >= _x)\n      return hi;\n    if (maxExpArray[lo] >= _x)\n      return lo;\n\n    assert(false);\n    return 0;\n  }\n\n  /* solium-disable */\n  /**\n       This function can be auto-generated by the script 'PrintFunctionGeneralExp.py'.\n       It approximates \"e ^ x\" via maclaurin summation: \"(x^0)/0! + (x^1)/1! + ... + (x^n)/n!\".\n       It returns \"e ^ (x / 2 ^ precision) * 2 ^ precision\", that is, the result is upshifted for accuracy.\n       The global \"maxExpArray\" maps each \"precision\" to \"((maximumExponent + 1) << (MAX_PRECISION - precision)) - 1\".\n       The maximum permitted value for \"x\" is therefore given by \"maxExpArray[precision] >> (MAX_PRECISION - precision)\".\n   */\n   function generalExp(uint256 _x, uint8 _precision) internal pure returns (uint256) {\n       uint256 xi = _x;\n       uint256 res = 0;\n\n       xi = (xi * _x) >> _precision; res += xi * 0x3442c4e6074a82f1797f72ac0000000; // add x^02 * (33! / 02!)\n       xi = (xi * _x) >> _precision; res += xi * 0x116b96f757c380fb287fd0e40000000; // add x^03 * (33! / 03!)\n       xi = (xi * _x) >> _precision; res += xi * 0x045ae5bdd5f0e03eca1ff4390000000; // add x^04 * (33! / 04!)\n       xi = (xi * _x) >> _precision; res += xi * 0x00defabf91302cd95b9ffda50000000; // add x^05 * (33! / 05!)\n       xi = (xi * _x) >> _precision; res += xi * 0x002529ca9832b22439efff9b8000000; // add x^06 * (33! / 06!)\n       xi = (xi * _x) >> _precision; res += xi * 0x00054f1cf12bd04e516b6da88000000; // add x^07 * (33! / 07!)\n       xi = (xi * _x) >> _precision; res += xi * 0x0000a9e39e257a09ca2d6db51000000; // add x^08 * (33! / 08!)\n       xi = (xi * _x) >> _precision; res += xi * 0x000012e066e7b839fa050c309000000; // add x^09 * (33! / 09!)\n       xi = (xi * _x) >> _precision; res += xi * 0x000001e33d7d926c329a1ad1a800000; // add x^10 * (33! / 10!)\n       xi = (xi * _x) >> _precision; res += xi * 0x0000002bee513bdb4a6b19b5f800000; // add x^11 * (33! / 11!)\n       xi = (xi * _x) >> _precision; res += xi * 0x00000003a9316fa79b88eccf2a00000; // add x^12 * (33! / 12!)\n       xi = (xi * _x) >> _precision; res += xi * 0x0000000048177ebe1fa812375200000; // add x^13 * (33! / 13!)\n       xi = (xi * _x) >> _precision; res += xi * 0x0000000005263fe90242dcbacf00000; // add x^14 * (33! / 14!)\n       xi = (xi * _x) >> _precision; res += xi * 0x000000000057e22099c030d94100000; // add x^15 * (33! / 15!)\n       xi = (xi * _x) >> _precision; res += xi * 0x0000000000057e22099c030d9410000; // add x^16 * (33! / 16!)\n       xi = (xi * _x) >> _precision; res += xi * 0x00000000000052b6b54569976310000; // add x^17 * (33! / 17!)\n       xi = (xi * _x) >> _precision; res += xi * 0x00000000000004985f67696bf748000; // add x^18 * (33! / 18!)\n       xi = (xi * _x) >> _precision; res += xi * 0x000000000000003dea12ea99e498000; // add x^19 * (33! / 19!)\n       xi = (xi * _x) >> _precision; res += xi * 0x00000000000000031880f2214b6e000; // add x^20 * (33! / 20!)\n       xi = (xi * _x) >> _precision; res += xi * 0x000000000000000025bcff56eb36000; // add x^21 * (33! / 21!)\n       xi = (xi * _x) >> _precision; res += xi * 0x000000000000000001b722e10ab1000; // add x^22 * (33! / 22!)\n       xi = (xi * _x) >> _precision; res += xi * 0x0000000000000000001317c70077000; // add x^23 * (33! / 23!)\n       xi = (xi * _x) >> _precision; res += xi * 0x00000000000000000000cba84aafa00; // add x^24 * (33! / 24!)\n       xi = (xi * _x) >> _precision; res += xi * 0x00000000000000000000082573a0a00; // add x^25 * (33! / 25!)\n       xi = (xi * _x) >> _precision; res += xi * 0x00000000000000000000005035ad900; // add x^26 * (33! / 26!)\n       xi = (xi * _x) >> _precision; res += xi * 0x000000000000000000000002f881b00; // add x^27 * (33! / 27!)\n       xi = (xi * _x) >> _precision; res += xi * 0x0000000000000000000000001b29340; // add x^28 * (33! / 28!)\n       xi = (xi * _x) >> _precision; res += xi * 0x00000000000000000000000000efc40; // add x^29 * (33! / 29!)\n       xi = (xi * _x) >> _precision; res += xi * 0x0000000000000000000000000007fe0; // add x^30 * (33! / 30!)\n       xi = (xi * _x) >> _precision; res += xi * 0x0000000000000000000000000000420; // add x^31 * (33! / 31!)\n       xi = (xi * _x) >> _precision; res += xi * 0x0000000000000000000000000000021; // add x^32 * (33! / 32!)\n       xi = (xi * _x) >> _precision; res += xi * 0x0000000000000000000000000000001; // add x^33 * (33! / 33!)\n\n       return res / 0x688589cc0e9505e2f2fee5580000000 + _x + (ONE << _precision); // divide by 33! and then add x^1 / 1! + x^0 / 0!\n   }\n\n   /**\n       Return log(x / FIXED_1) * FIXED_1\n       Input range: FIXED_1 <= x <= LOG_EXP_MAX_VAL - 1\n       Auto-generated via 'PrintFunctionOptimalLog.py'\n   */\n   function optimalLog(uint256 x) internal pure returns (uint256) {\n       uint256 res = 0;\n\n       uint256 y;\n       uint256 z;\n       uint256 w;\n\n       if (x >= 0xd3094c70f034de4b96ff7d5b6f99fcd8) {res += 0x40000000000000000000000000000000; x = x * FIXED_1 / 0xd3094c70f034de4b96ff7d5b6f99fcd8;}\n       if (x >= 0xa45af1e1f40c333b3de1db4dd55f29a7) {res += 0x20000000000000000000000000000000; x = x * FIXED_1 / 0xa45af1e1f40c333b3de1db4dd55f29a7;}\n       if (x >= 0x910b022db7ae67ce76b441c27035c6a1) {res += 0x10000000000000000000000000000000; x = x * FIXED_1 / 0x910b022db7ae67ce76b441c27035c6a1;}\n       if (x >= 0x88415abbe9a76bead8d00cf112e4d4a8) {res += 0x08000000000000000000000000000000; x = x * FIXED_1 / 0x88415abbe9a76bead8d00cf112e4d4a8;}\n       if (x >= 0x84102b00893f64c705e841d5d4064bd3) {res += 0x04000000000000000000000000000000; x = x * FIXED_1 / 0x84102b00893f64c705e841d5d4064bd3;}\n       if (x >= 0x8204055aaef1c8bd5c3259f4822735a2) {res += 0x02000000000000000000000000000000; x = x * FIXED_1 / 0x8204055aaef1c8bd5c3259f4822735a2;}\n       if (x >= 0x810100ab00222d861931c15e39b44e99) {res += 0x01000000000000000000000000000000; x = x * FIXED_1 / 0x810100ab00222d861931c15e39b44e99;}\n       if (x >= 0x808040155aabbbe9451521693554f733) {res += 0x00800000000000000000000000000000; x = x * FIXED_1 / 0x808040155aabbbe9451521693554f733;}\n\n       z = y = x - FIXED_1;\n       w = y * y / FIXED_1;\n       res += z * (0x100000000000000000000000000000000 - y) / 0x100000000000000000000000000000000; z = z * w / FIXED_1;\n       res += z * (0x0aaaaaaaaaaaaaaaaaaaaaaaaaaaaaaaa - y) / 0x200000000000000000000000000000000; z = z * w / FIXED_1;\n       res += z * (0x099999999999999999999999999999999 - y) / 0x300000000000000000000000000000000; z = z * w / FIXED_1;\n       res += z * (0x092492492492492492492492492492492 - y) / 0x400000000000000000000000000000000; z = z * w / FIXED_1;\n       res += z * (0x08e38e38e38e38e38e38e38e38e38e38e - y) / 0x500000000000000000000000000000000; z = z * w / FIXED_1;\n       res += z * (0x08ba2e8ba2e8ba2e8ba2e8ba2e8ba2e8b - y) / 0x600000000000000000000000000000000; z = z * w / FIXED_1;\n       res += z * (0x089d89d89d89d89d89d89d89d89d89d89 - y) / 0x700000000000000000000000000000000; z = z * w / FIXED_1;\n       res += z * (0x088888888888888888888888888888888 - y) / 0x800000000000000000000000000000000;\n\n       return res;\n   }\n\n   /**\n       Return e ^ (x / FIXED_1) * FIXED_1\n       Input range: 0 <= x <= OPT_EXP_MAX_VAL - 1\n       Auto-generated via 'PrintFunctionOptimalExp.py'\n   */\n   function optimalExp(uint256 x) internal pure returns (uint256) {\n       uint256 res = 0;\n\n       uint256 y;\n       uint256 z;\n\n       z = y = x % 0x10000000000000000000000000000000;\n       z = z * y / FIXED_1; res += z * 0x10e1b3be415a0000; // add y^02 * (20! / 02!)\n       z = z * y / FIXED_1; res += z * 0x05a0913f6b1e0000; // add y^03 * (20! / 03!)\n       z = z * y / FIXED_1; res += z * 0x0168244fdac78000; // add y^04 * (20! / 04!)\n       z = z * y / FIXED_1; res += z * 0x004807432bc18000; // add y^05 * (20! / 05!)\n       z = z * y / FIXED_1; res += z * 0x000c0135dca04000; // add y^06 * (20! / 06!)\n       z = z * y / FIXED_1; res += z * 0x0001b707b1cdc000; // add y^07 * (20! / 07!)\n       z = z * y / FIXED_1; res += z * 0x000036e0f639b800; // add y^08 * (20! / 08!)\n       z = z * y / FIXED_1; res += z * 0x00000618fee9f800; // add y^09 * (20! / 09!)\n       z = z * y / FIXED_1; res += z * 0x0000009c197dcc00; // add y^10 * (20! / 10!)\n       z = z * y / FIXED_1; res += z * 0x0000000e30dce400; // add y^11 * (20! / 11!)\n       z = z * y / FIXED_1; res += z * 0x000000012ebd1300; // add y^12 * (20! / 12!)\n       z = z * y / FIXED_1; res += z * 0x0000000017499f00; // add y^13 * (20! / 13!)\n       z = z * y / FIXED_1; res += z * 0x0000000001a9d480; // add y^14 * (20! / 14!)\n       z = z * y / FIXED_1; res += z * 0x00000000001c6380; // add y^15 * (20! / 15!)\n       z = z * y / FIXED_1; res += z * 0x000000000001c638; // add y^16 * (20! / 16!)\n       z = z * y / FIXED_1; res += z * 0x0000000000001ab8; // add y^17 * (20! / 17!)\n       z = z * y / FIXED_1; res += z * 0x000000000000017c; // add y^18 * (20! / 18!)\n       z = z * y / FIXED_1; res += z * 0x0000000000000014; // add y^19 * (20! / 19!)\n       z = z * y / FIXED_1; res += z * 0x0000000000000001; // add y^20 * (20! / 20!)\n       res = res / 0x21c3677c82b40000 + y + FIXED_1; // divide by 20! and then add y^1 / 1! + y^0 / 0!\n\n       if ((x & 0x010000000000000000000000000000000) != 0) res = res * 0x1c3d6a24ed82218787d624d3e5eba95f9 / 0x18ebef9eac820ae8682b9793ac6d1e776;\n       if ((x & 0x020000000000000000000000000000000) != 0) res = res * 0x18ebef9eac820ae8682b9793ac6d1e778 / 0x1368b2fc6f9609fe7aceb46aa619baed4;\n       if ((x & 0x040000000000000000000000000000000) != 0) res = res * 0x1368b2fc6f9609fe7aceb46aa619baed5 / 0x0bc5ab1b16779be3575bd8f0520a9f21f;\n       if ((x & 0x080000000000000000000000000000000) != 0) res = res * 0x0bc5ab1b16779be3575bd8f0520a9f21e / 0x0454aaa8efe072e7f6ddbab84b40a55c9;\n       if ((x & 0x100000000000000000000000000000000) != 0) res = res * 0x0454aaa8efe072e7f6ddbab84b40a55c5 / 0x00960aadc109e7a3bf4578099615711ea;\n       if ((x & 0x200000000000000000000000000000000) != 0) res = res * 0x00960aadc109e7a3bf4578099615711d7 / 0x0002bf84208204f5977f9a8cf01fdce3d;\n       if ((x & 0x400000000000000000000000000000000) != 0) res = res * 0x0002bf84208204f5977f9a8cf01fdc307 / 0x0000003c6ab775dd0b95b4cbee7e65d11;\n\n       return res;\n   }\n   /* solium-enable */\n}\n",
  "sourcePath": "/home/ggarrido/lightstreams/workspace/lightstreams-js-sdk/contracts/bondingcurve/vendor/Power.sol",
  "compiler": {
    "name": "solc",
    "version": "0.5.8+commit.23d335f2.Emscripten.clang"
  },
  "schemaVersion": "3.0.23",
  "updatedAt": "2020-03-05T10:06:52.196Z",
  "devdoc": {
    "details": "https://github.com/bancorprotocol/contracts * Modified from the original by Slava Balasanov & Tarrence van As * Split Power.sol out from BancorFormula.sol",
    "methods": {},
    "title": "Power function by Bancor"
  },
  "userdoc": {
    "methods": {}
  }
}