{
  "contractName": "Profile",
  "abi": [
    {
      "constant": false,
      "inputs": [
        {
          "name": "_owner",
          "type": "address"
        }
      ],
      "name": "removeOwner",
      "outputs": [],
      "payable": false,
      "stateMutability": "nonpayable",
      "type": "function"
    },
    {
      "constant": true,
      "inputs": [
        {
          "name": "_owner",
          "type": "address"
        }
      ],
      "name": "hasOwner",
      "outputs": [
        {
          "name": "",
          "type": "bool"
        }
      ],
      "payable": false,
      "stateMutability": "view",
      "type": "function"
    },
    {
      "constant": false,
      "inputs": [
        {
          "name": "_newOwner",
          "type": "address"
        }
      ],
      "name": "addOwner",
      "outputs": [],
      "payable": false,
      "stateMutability": "nonpayable",
      "type": "function"
    },
    {
      "constant": true,
      "inputs": [],
      "name": "getOwners",
      "outputs": [
        {
          "name": "",
          "type": "address[]"
        }
      ],
      "payable": false,
      "stateMutability": "view",
      "type": "function"
    },
    {
      "inputs": [
        {
          "name": "_owner",
          "type": "address"
        },
        {
          "name": "_recoveryAccount",
          "type": "address"
        }
      ],
      "payable": false,
      "stateMutability": "nonpayable",
      "type": "constructor"
    },
    {
      "anonymous": false,
      "inputs": [
        {
          "indexed": false,
          "name": "owner",
          "type": "address"
        },
        {
          "indexed": false,
          "name": "cid",
          "type": "bytes32"
        },
        {
          "indexed": false,
          "name": "acl",
          "type": "address"
        }
      ],
      "name": "FileAdded",
      "type": "event"
    },
    {
      "anonymous": false,
      "inputs": [
        {
          "indexed": false,
          "name": "owner",
          "type": "address"
        },
        {
          "indexed": false,
          "name": "cid",
          "type": "bytes32"
        },
        {
          "indexed": false,
          "name": "acl",
          "type": "address"
        }
      ],
      "name": "FileRemoved",
      "type": "event"
    },
    {
      "anonymous": false,
      "inputs": [
        {
          "indexed": false,
          "name": "cid",
          "type": "bytes32"
        },
        {
          "indexed": false,
          "name": "acl",
          "type": "address"
        },
        {
          "indexed": false,
          "name": "newOwner",
          "type": "address"
        },
        {
          "indexed": false,
          "name": "byOwner",
          "type": "address"
        }
      ],
      "name": "FileRecovered",
      "type": "event"
    },
    {
      "anonymous": false,
      "inputs": [
        {
          "indexed": false,
          "name": "newOwner",
          "type": "address"
        },
        {
          "indexed": false,
          "name": "byOwner",
          "type": "address"
        }
      ],
      "name": "OwnerRecovered",
      "type": "event"
    },
    {
      "anonymous": false,
      "inputs": [
        {
          "indexed": false,
          "name": "newOwner",
          "type": "address"
        },
        {
          "indexed": false,
          "name": "byOwner",
          "type": "address"
        }
      ],
      "name": "OwnerAdded",
      "type": "event"
    },
    {
      "anonymous": false,
      "inputs": [
        {
          "indexed": false,
          "name": "removedOwner",
          "type": "address"
        },
        {
          "indexed": false,
          "name": "byOwner",
          "type": "address"
        }
      ],
      "name": "OwnerRemoved",
      "type": "event"
    },
    {
      "constant": false,
      "inputs": [
        {
          "name": "_cid",
          "type": "bytes32"
        },
        {
          "name": "_acl",
          "type": "address"
        }
      ],
      "name": "addFile",
      "outputs": [],
      "payable": false,
      "stateMutability": "nonpayable",
      "type": "function"
    },
    {
      "constant": false,
      "inputs": [
        {
          "name": "_cid",
          "type": "bytes32"
        }
      ],
      "name": "removeFile",
      "outputs": [],
      "payable": false,
      "stateMutability": "nonpayable",
      "type": "function"
    },
    {
      "constant": true,
      "inputs": [
        {
          "name": "_cid",
          "type": "bytes32"
        }
      ],
      "name": "hasFile",
      "outputs": [
        {
          "name": "",
          "type": "bool"
        }
      ],
      "payable": false,
      "stateMutability": "view",
      "type": "function"
    },
    {
      "constant": true,
      "inputs": [],
      "name": "getFiles",
      "outputs": [
        {
          "name": "",
          "type": "bytes32[]"
        }
      ],
      "payable": false,
      "stateMutability": "view",
      "type": "function"
    },
    {
      "constant": true,
      "inputs": [
        {
          "name": "_cid",
          "type": "bytes32"
        }
      ],
      "name": "getFileAcl",
      "outputs": [
        {
          "name": "",
          "type": "address"
        }
      ],
      "payable": false,
      "stateMutability": "view",
      "type": "function"
    },
    {
      "constant": false,
      "inputs": [
        {
          "name": "_newOwner",
          "type": "address"
        }
      ],
      "name": "recover",
      "outputs": [],
      "payable": false,
      "stateMutability": "nonpayable",
      "type": "function"
    }
  ],
  "bytecode": "0x60806040523480156200001157600080fd5b5060405160408062001554833981018060405260408110156200003357600080fd5b8101908080519060200190929190805190602001909291905050508160008190806001815401808255809150509060018203906000526020600020016000909192909190916101000a81548173ffffffffffffffffffffffffffffffffffffffff021916908373ffffffffffffffffffffffffffffffffffffffff1602179055505050620000d081620000d8640100000000026401000000009004565b505062000316565b3360011515620000f78262000236640100000000026401000000009004565b15151415156200010657600080fd5b8160001515620001258262000236640100000000026401000000009004565b15151415156200013457600080fd5b60008390806001815401808255809150509060018203906000526020600020016000909192909190916101000a81548173ffffffffffffffffffffffffffffffffffffffff021916908373ffffffffffffffffffffffffffffffffffffffff160217905550507fc82bdbbf677a2462f2a7e22e4ba9abd209496b69cd7b868b3b1d28f76e09a40a8333604051808373ffffffffffffffffffffffffffffffffffffffff1673ffffffffffffffffffffffffffffffffffffffff1681526020018273ffffffffffffffffffffffffffffffffffffffff1673ffffffffffffffffffffffffffffffffffffffff1681526020019250505060405180910390a1505050565b60008062000253836200025f640100000000026401000000009004565b91505080915050919050565b60008060008090505b6001600080549050038111151562000305578373ffffffffffffffffffffffffffffffffffffffff16600082815481101515620002a157fe5b9060005260206000200160009054906101000a900473ffffffffffffffffffffffffffffffffffffffff1673ffffffffffffffffffffffffffffffffffffffff161415620002f757806001925092505062000311565b808060010191505062000268565b50600080819150915091505b915091565b61122e80620003266000396000f3fe6080604052600436106100a4576000357c0100000000000000000000000000000000000000000000000000000000900463ffffffff1680630bef429b146100a95780630cd865ec146100e4578063173825d914610135578063230b3790146101865780632da96d73146101ef5780634e1b1e601461025b5780637065cb48146102d65780639a93e5dd14610327578063a0e67e2b14610382578063ac709051146103ee575b600080fd5b3480156100b557600080fd5b506100e2600480360360208110156100cc57600080fd5b8101908080359060200190929190505050610441565b005b3480156100f057600080fd5b506101336004803603602081101561010757600080fd5b81019080803573ffffffffffffffffffffffffffffffffffffffff169060200190929190505050610682565b005b34801561014157600080fd5b506101846004803603602081101561015857600080fd5b81019080803573ffffffffffffffffffffffffffffffffffffffff169060200190929190505050610987565b005b34801561019257600080fd5b506101d5600480360360208110156101a957600080fd5b81019080803573ffffffffffffffffffffffffffffffffffffffff169060200190929190505050610b26565b604051808215151515815260200191505060405180910390f35b3480156101fb57600080fd5b50610204610b3e565b6040518080602001828103825283818151815260200191508051906020019060200280838360005b8381101561024757808201518184015260208101905061022c565b505050509050019250505060405180910390f35b34801561026757600080fd5b506102946004803603602081101561027e57600080fd5b8101908080359060200190929190505050610b96565b604051808273ffffffffffffffffffffffffffffffffffffffff1673ffffffffffffffffffffffffffffffffffffffff16815260200191505060405180910390f35b3480156102e257600080fd5b50610325600480360360208110156102f957600080fd5b81019080803573ffffffffffffffffffffffffffffffffffffffff169060200190929190505050610bfe565b005b34801561033357600080fd5b506103806004803603604081101561034a57600080fd5b8101908080359060200190929190803573ffffffffffffffffffffffffffffffffffffffff169060200190929190505050610d38565b005b34801561038e57600080fd5b50610397610f86565b6040518080602001828103825283818151815260200191508051906020019060200280838360005b838110156103da5780820151818401526020810190506103bf565b505050509050019250505060405180910390f35b3480156103fa57600080fd5b506104276004803603602081101561041157600080fd5b8101908080359060200190929190505050611014565b604051808215151515815260200191505060405180910390f35b336001151561044f82610b26565b151514151561045d57600080fd5b816001151561046b82611014565b151514151561047957600080fd5b6000806104858561102c565b915091506001151581151514151561049c57600080fd5b60006002838154811015156104ad57fe5b9060005260206000200160009054906101000a900473ffffffffffffffffffffffffffffffffffffffff1690506001808080549050038154811015156104ef57fe5b906000526020600020015460018481548110151561050957fe5b90600052602060002001819055506002600180805490500381548110151561052d57fe5b9060005260206000200160009054906101000a900473ffffffffffffffffffffffffffffffffffffffff1660028481548110151561056757fe5b9060005260206000200160006101000a81548173ffffffffffffffffffffffffffffffffffffffff021916908373ffffffffffffffffffffffffffffffffffffffff16021790555060018054809190600190036105c49190611160565b5060028054809190600190036105da919061118c565b507f18d0c92a01adb859e57b76c53f1801a82dd8f8419fac502b2a9b416c5d3999d4338783604051808473ffffffffffffffffffffffffffffffffffffffff1673ffffffffffffffffffffffffffffffffffffffff1681526020018381526020018273ffffffffffffffffffffffffffffffffffffffff1673ffffffffffffffffffffffffffffffffffffffff168152602001935050505060405180910390a1505050505050565b336001151561069082610b26565b151514151561069e57600080fd5b6106a782610bfe565b600060028054905011156108ec5760008090505b600160028054905003811115156108ea576002818154811015156106db57fe5b9060005260206000200160009054906101000a900473ffffffffffffffffffffffffffffffffffffffff1673ffffffffffffffffffffffffffffffffffffffff166335bb3e16846040518263ffffffff167c0100000000000000000000000000000000000000000000000000000000028152600401808273ffffffffffffffffffffffffffffffffffffffff1673ffffffffffffffffffffffffffffffffffffffff168152602001915050600060405180830381600087803b1580156107a057600080fd5b505af11580156107b4573d6000803e3d6000fd5b505050507fb1d7980376ee442938a8f9cdc5c2b484565fdaeab23734357f65d747eaf23c0a6001828154811015156107e857fe5b906000526020600020015460028381548110151561080257fe5b9060005260206000200160009054906101000a900473ffffffffffffffffffffffffffffffffffffffff168533604051808581526020018473ffffffffffffffffffffffffffffffffffffffff1673ffffffffffffffffffffffffffffffffffffffff1681526020018373ffffffffffffffffffffffffffffffffffffffff1673ffffffffffffffffffffffffffffffffffffffff1681526020018273ffffffffffffffffffffffffffffffffffffffff1673ffffffffffffffffffffffffffffffffffffffff16815260200194505050505060405180910390a180806001019150506106bb565b505b7f658a0f6969d7663ef009b782e098ec752cdf0beed99b9a188dd1d77d539a1a3e8233604051808373ffffffffffffffffffffffffffffffffffffffff1673ffffffffffffffffffffffffffffffffffffffff1681526020018273ffffffffffffffffffffffffffffffffffffffff1673ffffffffffffffffffffffffffffffffffffffff1681526020019250505060405180910390a15050565b336001151561099582610b26565b15151415156109a357600080fd5b60016000805490501115156109b757600080fd5b6000806109c3846110ae565b91509150600115158115151415156109da57600080fd5b60006001600080549050038154811015156109f157fe5b9060005260206000200160009054906101000a900473ffffffffffffffffffffffffffffffffffffffff16600083815481101515610a2b57fe5b9060005260206000200160006101000a81548173ffffffffffffffffffffffffffffffffffffffff021916908373ffffffffffffffffffffffffffffffffffffffff1602179055506000805480919060019003610a88919061118c565b507fe594d081b4382713733fe631966432c9cea5199afb2db5c3c1931f9f930036798433604051808373ffffffffffffffffffffffffffffffffffffffff1673ffffffffffffffffffffffffffffffffffffffff1681526020018273ffffffffffffffffffffffffffffffffffffffff1673ffffffffffffffffffffffffffffffffffffffff1681526020019250505060405180910390a150505050565b600080610b32836110ae565b91505080915050919050565b60606001805480602002602001604051908101604052809291908181526020018280548015610b8c57602002820191906000526020600020905b815481526020019060010190808311610b78575b5050505050905090565b6000806000610ba48461102c565b9150915060011515811515141515610bbb57600080fd5b600282815481101515610bca57fe5b9060005260206000200160009054906101000a900473ffffffffffffffffffffffffffffffffffffffff1692505050919050565b3360011515610c0c82610b26565b1515141515610c1a57600080fd5b8160001515610c2882610b26565b1515141515610c3657600080fd5b60008390806001815401808255809150509060018203906000526020600020016000909192909190916101000a81548173ffffffffffffffffffffffffffffffffffffffff021916908373ffffffffffffffffffffffffffffffffffffffff160217905550507fc82bdbbf677a2462f2a7e22e4ba9abd209496b69cd7b868b3b1d28f76e09a40a8333604051808373ffffffffffffffffffffffffffffffffffffffff1673ffffffffffffffffffffffffffffffffffffffff1681526020018273ffffffffffffffffffffffffffffffffffffffff1673ffffffffffffffffffffffffffffffffffffffff1681526020019250505060405180910390a1505050565b3360011515610d4682610b26565b1515141515610d5457600080fd5b8260001515610d6282611014565b1515141515610d7057600080fd5b8273ffffffffffffffffffffffffffffffffffffffff166335950fed306040518263ffffffff167c0100000000000000000000000000000000000000000000000000000000028152600401808273ffffffffffffffffffffffffffffffffffffffff1673ffffffffffffffffffffffffffffffffffffffff16815260200191505060206040518083038186803b158015610e0957600080fd5b505afa158015610e1d573d6000803e3d6000fd5b505050506040513d6020811015610e3357600080fd5b81019080805190602001909291905050501515610e4f57600080fd5b600184908060018154018082558091505090600182039060005260206000200160009091929091909150555060028390806001815401808255809150509060018203906000526020600020016000909192909190916101000a81548173ffffffffffffffffffffffffffffffffffffffff021916908373ffffffffffffffffffffffffffffffffffffffff160217905550507fcbc3c5c4939f7c16221db31308c42ed19507b66ff7a18673a261ba7268bc9cb7338585604051808473ffffffffffffffffffffffffffffffffffffffff1673ffffffffffffffffffffffffffffffffffffffff1681526020018381526020018273ffffffffffffffffffffffffffffffffffffffff1673ffffffffffffffffffffffffffffffffffffffff168152602001935050505060405180910390a150505050565b6060600080548060200260200160405190810160405280929190818152602001828054801561100a57602002820191906000526020600020905b8160009054906101000a900473ffffffffffffffffffffffffffffffffffffffff1673ffffffffffffffffffffffffffffffffffffffff1681526020019060010190808311610fc0575b5050505050905090565b6000806110208361102c565b91505080915050919050565b6000806000600180549050141561104c57600080819150915091506110a9565b60008090505b60018080549050038111151561109d578360018281548110151561107257fe5b906000526020600020015414156110905780600192509250506110a9565b8080600101915050611052565b50600080819150915091505b915091565b60008060008090505b6001600080549050038111151561114f578373ffffffffffffffffffffffffffffffffffffffff166000828154811015156110ee57fe5b9060005260206000200160009054906101000a900473ffffffffffffffffffffffffffffffffffffffff1673ffffffffffffffffffffffffffffffffffffffff16141561114257806001925092505061115b565b80806001019150506110b7565b50600080819150915091505b915091565b8154818355818111156111875781836000526020600020918201910161118691906111b8565b5b505050565b8154818355818111156111b3578183600052602060002091820191016111b291906111dd565b5b505050565b6111da91905b808211156111d65760008160009055506001016111be565b5090565b90565b6111ff91905b808211156111fb5760008160009055506001016111e3565b5090565b9056fea165627a7a72305820daaf932edc8a6243b5e83910baac298f0581ad6640566e3e2711d5b4b24c90c30029",
  "source": "pragma solidity ^0.5.0;\n\nimport \"./utils/MultiOwnable.sol\";\nimport \"./Acl.sol\";\n\n/**\n * @title Profile groups together all user's SmartVault activities and enables data control recovery\n * @author Lukas Lukac, Lightstreams, 7.8.2019\n */\ncontract Profile is MultiOwnable {\n    // @dev Base58 decoded CID is stored WITHOUT the leading \"Qm\" to optimise storage space for 32 bytes as SmartVault only uses CID v0.\n    bytes32[] files;\n    address[] acls;\n\n    event FileAdded(address owner, bytes32 cid, address acl);\n    event FileRemoved(address owner, bytes32 cid, address acl);\n    event FileRecovered(bytes32 cid, address acl, address newOwner, address byOwner);\n    event OwnerRecovered(address newOwner, address byOwner);\n\n    modifier fileExists(bytes32 _cid) {\n        require(hasFile(_cid) == true);\n        _;\n    }\n\n    modifier fileNotExists(bytes32 _cid) {\n        require(hasFile(_cid) == false);\n        _;\n    }\n\n    constructor(address _owner, address _recoveryAccount) public MultiOwnable(_owner) {\n        addOwner(_recoveryAccount);\n    }\n\n    function addFile(bytes32 _cid, address _acl) public isOwner(msg.sender) fileNotExists(_cid) {\n        require(ACL(_acl).hasAdmin(address(this)));\n\n        files.push(_cid);\n        acls.push(_acl);\n\n        emit FileAdded(msg.sender, _cid, _acl);\n    }\n\n    function removeFile(bytes32 _cid) public isOwner(msg.sender) fileExists(_cid) {\n        (uint256 fileIndex, bool exists) = getFileIndex(_cid);\n        require(exists == true);\n\n        address acl = acls[fileIndex];\n\n        files[fileIndex] = files[files.length - 1];\n        acls[fileIndex] = acls[files.length - 1];\n        files.length--;\n        acls.length--;\n\n        emit FileRemoved(msg.sender, _cid, acl);\n    }\n\n    function hasFile(bytes32 _cid) view public returns (bool) {\n        (, bool exists) = getFileIndex(_cid);\n\n        return exists;\n    }\n\n    function getFiles() view public returns (bytes32[] memory) {\n        return files;\n    }\n\n    function getFileAcl(bytes32 _cid) public view returns (address) {\n        (uint256 fileIndex, bool exists) = getFileIndex(_cid);\n        require(exists == true);\n\n        return acls[fileIndex];\n    }\n\n    function recover(address _newOwner) public isOwner(msg.sender) {\n        addOwner(_newOwner);\n\n        if (acls.length > 0) {\n            for (uint i = 0; i <= acls.length - 1; i++) {\n                ACL(acls[i]).grantAdmin(_newOwner);\n                emit FileRecovered(files[i], acls[i], _newOwner, msg.sender);\n            }\n        }\n\n        emit OwnerRecovered(_newOwner, msg.sender);\n    }\n\n    function getFileIndex(bytes32 _cid) internal view returns (uint256 index, bool exists) {\n        if (files.length == 0) {\n            return (0, false);\n        }\n\n        for (uint i = 0; i <= files.length - 1; i++) {\n            if (files[i] == _cid) {\n                return (i, true);\n            }\n        }\n\n        return (0, false);\n    }\n}\n",
  "sourcePath": "/home/ggarrido/lightstreams/workspace/lightstreams-js-sdk/contracts/Profile.sol",
  "compiler": {
    "name": "solc",
    "version": "0.5.0+commit.1d4f565a.Emscripten.clang"
  },
  "schemaVersion": "3.0.2",
  "updatedAt": "2019-09-03T10:48:26.413Z",
  "devdoc": {
    "author": "Lukas Lukac, Lightstreams, 7.8.2019",
    "methods": {},
    "title": "Profile groups together all user's SmartVault activities and enables data control recovery"
  },
  "userdoc": {
    "methods": {}
  }
}