{
  "contractName": "PublicResolver",
  "abi": [
    {
      "constant": true,
      "inputs": [
        {
          "name": "interfaceID",
          "type": "bytes4"
        }
      ],
      "name": "supportsInterface",
      "outputs": [
        {
          "name": "",
          "type": "bool"
        }
      ],
      "payable": false,
      "stateMutability": "pure",
      "type": "function"
    },
    {
      "constant": false,
      "inputs": [
        {
          "name": "node",
          "type": "bytes32"
        },
        {
          "name": "data",
          "type": "bytes"
        }
      ],
      "name": "setDNSRecords",
      "outputs": [],
      "payable": false,
      "stateMutability": "nonpayable",
      "type": "function"
    },
    {
      "constant": false,
      "inputs": [
        {
          "name": "node",
          "type": "bytes32"
        },
        {
          "name": "key",
          "type": "string"
        },
        {
          "name": "value",
          "type": "string"
        }
      ],
      "name": "setText",
      "outputs": [],
      "payable": false,
      "stateMutability": "nonpayable",
      "type": "function"
    },
    {
      "constant": true,
      "inputs": [
        {
          "name": "node",
          "type": "bytes32"
        },
        {
          "name": "interfaceID",
          "type": "bytes4"
        }
      ],
      "name": "interfaceImplementer",
      "outputs": [
        {
          "name": "",
          "type": "address"
        }
      ],
      "payable": false,
      "stateMutability": "view",
      "type": "function"
    },
    {
      "constant": true,
      "inputs": [
        {
          "name": "node",
          "type": "bytes32"
        },
        {
          "name": "contentTypes",
          "type": "uint256"
        }
      ],
      "name": "ABI",
      "outputs": [
        {
          "name": "",
          "type": "uint256"
        },
        {
          "name": "",
          "type": "bytes"
        }
      ],
      "payable": false,
      "stateMutability": "view",
      "type": "function"
    },
    {
      "constant": false,
      "inputs": [
        {
          "name": "node",
          "type": "bytes32"
        },
        {
          "name": "x",
          "type": "bytes32"
        },
        {
          "name": "y",
          "type": "bytes32"
        }
      ],
      "name": "setPubkey",
      "outputs": [],
      "payable": false,
      "stateMutability": "nonpayable",
      "type": "function"
    },
    {
      "constant": false,
      "inputs": [
        {
          "name": "node",
          "type": "bytes32"
        },
        {
          "name": "hash",
          "type": "bytes"
        }
      ],
      "name": "setContenthash",
      "outputs": [],
      "payable": false,
      "stateMutability": "nonpayable",
      "type": "function"
    },
    {
      "constant": true,
      "inputs": [
        {
          "name": "node",
          "type": "bytes32"
        }
      ],
      "name": "addr",
      "outputs": [
        {
          "name": "",
          "type": "address"
        }
      ],
      "payable": false,
      "stateMutability": "view",
      "type": "function"
    },
    {
      "constant": true,
      "inputs": [
        {
          "name": "node",
          "type": "bytes32"
        },
        {
          "name": "name",
          "type": "bytes32"
        }
      ],
      "name": "hasDNSRecords",
      "outputs": [
        {
          "name": "",
          "type": "bool"
        }
      ],
      "payable": false,
      "stateMutability": "view",
      "type": "function"
    },
    {
      "constant": true,
      "inputs": [
        {
          "name": "node",
          "type": "bytes32"
        },
        {
          "name": "key",
          "type": "string"
        }
      ],
      "name": "text",
      "outputs": [
        {
          "name": "",
          "type": "string"
        }
      ],
      "payable": false,
      "stateMutability": "view",
      "type": "function"
    },
    {
      "constant": false,
      "inputs": [
        {
          "name": "node",
          "type": "bytes32"
        },
        {
          "name": "contentType",
          "type": "uint256"
        },
        {
          "name": "data",
          "type": "bytes"
        }
      ],
      "name": "setABI",
      "outputs": [],
      "payable": false,
      "stateMutability": "nonpayable",
      "type": "function"
    },
    {
      "constant": true,
      "inputs": [
        {
          "name": "node",
          "type": "bytes32"
        }
      ],
      "name": "name",
      "outputs": [
        {
          "name": "",
          "type": "string"
        }
      ],
      "payable": false,
      "stateMutability": "view",
      "type": "function"
    },
    {
      "constant": false,
      "inputs": [
        {
          "name": "node",
          "type": "bytes32"
        },
        {
          "name": "name",
          "type": "string"
        }
      ],
      "name": "setName",
      "outputs": [],
      "payable": false,
      "stateMutability": "nonpayable",
      "type": "function"
    },
    {
      "constant": true,
      "inputs": [
        {
          "name": "node",
          "type": "bytes32"
        },
        {
          "name": "name",
          "type": "bytes32"
        },
        {
          "name": "resource",
          "type": "uint16"
        }
      ],
      "name": "dnsRecord",
      "outputs": [
        {
          "name": "",
          "type": "bytes"
        }
      ],
      "payable": false,
      "stateMutability": "view",
      "type": "function"
    },
    {
      "constant": false,
      "inputs": [
        {
          "name": "node",
          "type": "bytes32"
        }
      ],
      "name": "clearDNSZone",
      "outputs": [],
      "payable": false,
      "stateMutability": "nonpayable",
      "type": "function"
    },
    {
      "constant": true,
      "inputs": [
        {
          "name": "node",
          "type": "bytes32"
        }
      ],
      "name": "contenthash",
      "outputs": [
        {
          "name": "",
          "type": "bytes"
        }
      ],
      "payable": false,
      "stateMutability": "view",
      "type": "function"
    },
    {
      "constant": true,
      "inputs": [
        {
          "name": "node",
          "type": "bytes32"
        }
      ],
      "name": "pubkey",
      "outputs": [
        {
          "name": "x",
          "type": "bytes32"
        },
        {
          "name": "y",
          "type": "bytes32"
        }
      ],
      "payable": false,
      "stateMutability": "view",
      "type": "function"
    },
    {
      "constant": false,
      "inputs": [
        {
          "name": "node",
          "type": "bytes32"
        },
        {
          "name": "addr",
          "type": "address"
        }
      ],
      "name": "setAddr",
      "outputs": [],
      "payable": false,
      "stateMutability": "nonpayable",
      "type": "function"
    },
    {
      "constant": false,
      "inputs": [
        {
          "name": "node",
          "type": "bytes32"
        },
        {
          "name": "interfaceID",
          "type": "bytes4"
        },
        {
          "name": "implementer",
          "type": "address"
        }
      ],
      "name": "setInterface",
      "outputs": [],
      "payable": false,
      "stateMutability": "nonpayable",
      "type": "function"
    },
    {
      "constant": true,
      "inputs": [
        {
          "name": "",
          "type": "bytes32"
        },
        {
          "name": "",
          "type": "address"
        },
        {
          "name": "",
          "type": "address"
        }
      ],
      "name": "authorisations",
      "outputs": [
        {
          "name": "",
          "type": "bool"
        }
      ],
      "payable": false,
      "stateMutability": "view",
      "type": "function"
    },
    {
      "inputs": [
        {
          "name": "_ens",
          "type": "address"
        }
      ],
      "payable": false,
      "stateMutability": "nonpayable",
      "type": "constructor"
    },
    {
      "anonymous": false,
      "inputs": [
        {
          "indexed": true,
          "name": "node",
          "type": "bytes32"
        },
        {
          "indexed": true,
          "name": "owner",
          "type": "address"
        },
        {
          "indexed": true,
          "name": "target",
          "type": "address"
        },
        {
          "indexed": false,
          "name": "isAuthorised",
          "type": "bool"
        }
      ],
      "name": "AuthorisationChanged",
      "type": "event"
    },
    {
      "anonymous": false,
      "inputs": [
        {
          "indexed": true,
          "name": "node",
          "type": "bytes32"
        },
        {
          "indexed": true,
          "name": "indexedKey",
          "type": "string"
        },
        {
          "indexed": false,
          "name": "key",
          "type": "string"
        }
      ],
      "name": "TextChanged",
      "type": "event"
    },
    {
      "anonymous": false,
      "inputs": [
        {
          "indexed": true,
          "name": "node",
          "type": "bytes32"
        },
        {
          "indexed": false,
          "name": "x",
          "type": "bytes32"
        },
        {
          "indexed": false,
          "name": "y",
          "type": "bytes32"
        }
      ],
      "name": "PubkeyChanged",
      "type": "event"
    },
    {
      "anonymous": false,
      "inputs": [
        {
          "indexed": true,
          "name": "node",
          "type": "bytes32"
        },
        {
          "indexed": false,
          "name": "name",
          "type": "string"
        }
      ],
      "name": "NameChanged",
      "type": "event"
    },
    {
      "anonymous": false,
      "inputs": [
        {
          "indexed": true,
          "name": "node",
          "type": "bytes32"
        },
        {
          "indexed": true,
          "name": "interfaceID",
          "type": "bytes4"
        },
        {
          "indexed": false,
          "name": "implementer",
          "type": "address"
        }
      ],
      "name": "InterfaceChanged",
      "type": "event"
    },
    {
      "anonymous": false,
      "inputs": [
        {
          "indexed": true,
          "name": "node",
          "type": "bytes32"
        },
        {
          "indexed": false,
          "name": "name",
          "type": "bytes"
        },
        {
          "indexed": false,
          "name": "resource",
          "type": "uint16"
        },
        {
          "indexed": false,
          "name": "record",
          "type": "bytes"
        }
      ],
      "name": "DNSRecordChanged",
      "type": "event"
    },
    {
      "anonymous": false,
      "inputs": [
        {
          "indexed": true,
          "name": "node",
          "type": "bytes32"
        },
        {
          "indexed": false,
          "name": "name",
          "type": "bytes"
        },
        {
          "indexed": false,
          "name": "resource",
          "type": "uint16"
        }
      ],
      "name": "DNSRecordDeleted",
      "type": "event"
    },
    {
      "anonymous": false,
      "inputs": [
        {
          "indexed": true,
          "name": "node",
          "type": "bytes32"
        }
      ],
      "name": "DNSZoneCleared",
      "type": "event"
    },
    {
      "anonymous": false,
      "inputs": [
        {
          "indexed": true,
          "name": "node",
          "type": "bytes32"
        },
        {
          "indexed": false,
          "name": "hash",
          "type": "bytes"
        }
      ],
      "name": "ContenthashChanged",
      "type": "event"
    },
    {
      "anonymous": false,
      "inputs": [
        {
          "indexed": true,
          "name": "node",
          "type": "bytes32"
        },
        {
          "indexed": false,
          "name": "a",
          "type": "address"
        }
      ],
      "name": "AddrChanged",
      "type": "event"
    },
    {
      "anonymous": false,
      "inputs": [
        {
          "indexed": true,
          "name": "node",
          "type": "bytes32"
        },
        {
          "indexed": true,
          "name": "contentType",
          "type": "uint256"
        }
      ],
      "name": "ABIChanged",
      "type": "event"
    },
    {
      "constant": false,
      "inputs": [
        {
          "name": "node",
          "type": "bytes32"
        },
        {
          "name": "target",
          "type": "address"
        },
        {
          "name": "isAuthorised",
          "type": "bool"
        }
      ],
      "name": "setAuthorisation",
      "outputs": [],
      "payable": false,
      "stateMutability": "nonpayable",
      "type": "function"
    }
  ],
  "bytecode": "0x608060405234801561001057600080fd5b506040516020806130438339810180604052602081101561003057600080fd5b810190808051906020019092919050505080600a60006101000a81548173ffffffffffffffffffffffffffffffffffffffff021916908373ffffffffffffffffffffffffffffffffffffffff16021790555050612fb1806100926000396000f3fe608060405234801561001057600080fd5b50600436106101375760003560e01c806359d1d43c116100b8578063ad5780af1161007c578063ad5780af1461099a578063bc1c58d1146109c8578063c869023314610a6f578063d5fa2b0014610ab8578063e59d895d14610b06578063f86bc87914610b7d57610137565b806359d1d43c14610628578063623195b014610724578063691f3431146107b15780637737221314610858578063a8fa5682146108db57610137565b806329cd62ea116100ff57806329cd62ea1461044b578063304e6ade1461048d5780633b3b57de146105105780633e9ce7941461057e5780634cbf6ba4146105d857610137565b806301ffc9a71461013c5780630af179d7146101a157806310f13a8c14610224578063124a319c146102fc5780632203ab5614610393575b600080fd5b6101876004803603602081101561015257600080fd5b8101908080357bffffffffffffffffffffffffffffffffffffffffffffffffffffffff19169060200190929190505050610c03565b604051808215151515815260200191505060405180910390f35b610222600480360360408110156101b757600080fd5b8101908080359060200190929190803590602001906401000000008111156101de57600080fd5b8201836020820111156101f057600080fd5b8035906020019184600183028401116401000000008311171561021257600080fd5b9091929391929390505050610c64565b005b6102fa6004803603606081101561023a57600080fd5b81019080803590602001909291908035906020019064010000000081111561026157600080fd5b82018360208201111561027357600080fd5b8035906020019184600183028401116401000000008311171561029557600080fd5b9091929391929390803590602001906401000000008111156102b657600080fd5b8201836020820111156102c857600080fd5b803590602001918460018302840111640100000000831117156102ea57600080fd5b9091929391929390505050610edd565b005b6103516004803603604081101561031257600080fd5b810190808035906020019092919080357bffffffffffffffffffffffffffffffffffffffffffffffffffffffff19169060200190929190505050610fc3565b604051808273ffffffffffffffffffffffffffffffffffffffff1673ffffffffffffffffffffffffffffffffffffffff16815260200191505060405180910390f35b6103c9600480360360408110156103a957600080fd5b8101908080359060200190929190803590602001909291905050506114c0565b6040518083815260200180602001828103825283818151815260200191508051906020019080838360005b8381101561040f5780820151818401526020810190506103f4565b50505050905090810190601f16801561043c5780820380516001836020036101000a031916815260200191505b50935050505060405180910390f35b61048b6004803603606081101561046157600080fd5b8101908080359060200190929190803590602001909291908035906020019092919050505061160f565b005b61050e600480360360408110156104a357600080fd5b8101908080359060200190929190803590602001906401000000008111156104ca57600080fd5b8201836020820111156104dc57600080fd5b803590602001918460018302840111640100000000831117156104fe57600080fd5b90919293919293905050506116a7565b005b61053c6004803603602081101561052657600080fd5b8101908080359060200190929190505050611747565b604051808273ffffffffffffffffffffffffffffffffffffffff1673ffffffffffffffffffffffffffffffffffffffff16815260200191505060405180910390f35b6105d66004803603606081101561059457600080fd5b8101908080359060200190929190803573ffffffffffffffffffffffffffffffffffffffff169060200190929190803515159060200190929190505050611784565b005b61060e600480360360408110156105ee57600080fd5b810190808035906020019092919080359060200190929190505050611898565b604051808215151515815260200191505060405180910390f35b6106a96004803603604081101561063e57600080fd5b81019080803590602001909291908035906020019064010000000081111561066557600080fd5b82018360208201111561067757600080fd5b8035906020019184600183028401116401000000008311171561069957600080fd5b9091929391929390505050611900565b6040518080602001828103825283818151815260200191508051906020019080838360005b838110156106e95780820151818401526020810190506106ce565b50505050905090810190601f1680156107165780820380516001836020036101000a031916815260200191505b509250505060405180910390f35b6107af6004803603606081101561073a57600080fd5b8101908080359060200190929190803590602001909291908035906020019064010000000081111561076b57600080fd5b82018360208201111561077d57600080fd5b8035906020019184600183028401116401000000008311171561079f57600080fd5b90919293919293905050506119dc565b005b6107dd600480360360208110156107c757600080fd5b8101908080359060200190929190505050611a69565b6040518080602001828103825283818151815260200191508051906020019080838360005b8381101561081d578082015181840152602081019050610802565b50505050905090810190601f16801561084a5780820380516001836020036101000a031916815260200191505b509250505060405180910390f35b6108d96004803603604081101561086e57600080fd5b81019080803590602001909291908035906020019064010000000081111561089557600080fd5b8201836020820111156108a757600080fd5b803590602001918460018302840111640100000000831117156108c957600080fd5b9091929391929390505050611b1e565b005b61091f600480360360608110156108f157600080fd5b810190808035906020019092919080359060200190929190803561ffff169060200190929190505050611bbe565b6040518080602001828103825283818151815260200191508051906020019080838360005b8381101561095f578082015181840152602081019050610944565b50505050905090810190601f16801561098c5780820380516001836020036101000a031916815260200191505b509250505060405180910390f35b6109c6600480360360208110156109b057600080fd5b8101908080359060200190929190505050611cc3565b005b6109f4600480360360208110156109de57600080fd5b8101908080359060200190929190505050611d2a565b6040518080602001828103825283818151815260200191508051906020019080838360005b83811015610a34578082015181840152602081019050610a19565b50505050905090810190601f168015610a615780820380516001836020036101000a031916815260200191505b509250505060405180910390f35b610a9b60048036036020811015610a8557600080fd5b8101908080359060200190929190505050611ddf565b604051808381526020018281526020019250505060405180910390f35b610b0460048036036040811015610ace57600080fd5b8101908080359060200190929190803573ffffffffffffffffffffffffffffffffffffffff169060200190929190505050611e19565b005b610b7b60048036036060811015610b1c57600080fd5b810190808035906020019092919080357bffffffffffffffffffffffffffffffffffffffffffffffffffffffff19169060200190929190803573ffffffffffffffffffffffffffffffffffffffff169060200190929190505050611ee7565b005b610be960048036036060811015610b9357600080fd5b8101908080359060200190929190803573ffffffffffffffffffffffffffffffffffffffff169060200190929190803573ffffffffffffffffffffffffffffffffffffffff169060200190929190505050612025565b604051808215151515815260200191505060405180910390f35b60006359d1d43c60e01b7bffffffffffffffffffffffffffffffffffffffffffffffffffffffff1916827bffffffffffffffffffffffffffffffffffffffffffffffffffffffff19161480610c5d5750610c5c82612061565b5b9050919050565b82610c6e816120c2565b610c7757600080fd5b600080905060008090506060806000610c8e612d29565b610ce660008a8a8080601f016020809104026020016040519081016040528093929190818152602001838380828437600081840152601f19601f8201169050808301925050505050505061224e90919063ffffffff16565b90505b610cf281612278565b610e6a5760008661ffff161415610d995780604001519550610d138161228e565b9350836040516020018082805190602001908083835b60208310610d4c5780518252602082019150602081019050602083039250610d29565b6001836020036101000a038019825116818451168082178552505050505050905001915050604051602081830303815290604052805190602001209150610d92816122c5565b9250610e5c565b6060610da48261228e565b9050816040015161ffff168761ffff16141580610dd15750610dcf81866122f590919063ffffffff16565b155b15610e5a57610e338b86898d8d8080601f016020809104026020016040519081016040528093929190818152602001838380828437600081840152601f19601f820116905080830192505050505050508a8b88602001510360008b511461231c565b816040015196508160200151955080945084805190602001209250610e57826122c5565b93505b505b610e658161279d565b610ce9565b50600083511115610ed257610ed18984878b8b8080601f016020809104026020016040519081016040528093929190818152602001838380828437600081840152601f19601f8201169050808301925050505050505088898e8e905003600089511461231c565b5b505050505050505050565b84610ee7816120c2565b610ef057600080fd5b828260096000898152602001908152602001600020878760405180838380828437808301925050509250505090815260200160405180910390209190610f37929190612d74565b5084846040518083838082843780830192505050925050506040518091039020867fd8c9334b1a9c2f9da342a0a2b32629c1a229b6445dad78947f674b44444a7550878760405180806020018281038252848482818152602001925080828437600081840152601f19601f820116905080830192505050935050505060405180910390a3505050505050565b600080600660008581526020019081526020016000206000847bffffffffffffffffffffffffffffffffffffffffffffffffffffffff19167bffffffffffffffffffffffffffffffffffffffffffffffffffffffff1916815260200190815260200160002060009054906101000a900473ffffffffffffffffffffffffffffffffffffffff169050600073ffffffffffffffffffffffffffffffffffffffff168173ffffffffffffffffffffffffffffffffffffffff161461108857809150506114ba565b600061109385611747565b9050600073ffffffffffffffffffffffffffffffffffffffff168173ffffffffffffffffffffffffffffffffffffffff1614156110d5576000925050506114ba565b600060608273ffffffffffffffffffffffffffffffffffffffff166301ffc9a760e01b60405160240180827bffffffffffffffffffffffffffffffffffffffffffffffffffffffff19167bffffffffffffffffffffffffffffffffffffffffffffffffffffffff191681526020019150506040516020818303038152906040527f01ffc9a7000000000000000000000000000000000000000000000000000000007bffffffffffffffffffffffffffffffffffffffffffffffffffffffff19166020820180517bffffffffffffffffffffffffffffffffffffffffffffffffffffffff83818316178352505050506040518082805190602001908083835b602083106111f657805182526020820191506020810190506020830392506111d3565b6001836020036101000a038019825116818451168082178552505050505050905001915050600060405180830381855afa9150503d8060008114611256576040519150601f19603f3d011682016040523d82523d6000602084013e61125b565b606091505b509150915081158061126e575060208151105b806112b55750600060f81b81601f8151811061128657fe5b602001015160f81c60f81b7effffffffffffffffffffffffffffffffffffffffffffffffffffffffffffff1916145b156112c75760009450505050506114ba565b8273ffffffffffffffffffffffffffffffffffffffff168660405160240180827bffffffffffffffffffffffffffffffffffffffffffffffffffffffff19167bffffffffffffffffffffffffffffffffffffffffffffffffffffffff191681526020019150506040516020818303038152906040527f01ffc9a7000000000000000000000000000000000000000000000000000000007bffffffffffffffffffffffffffffffffffffffffffffffffffffffff19166020820180517bffffffffffffffffffffffffffffffffffffffffffffffffffffffff83818316178352505050506040518082805190602001908083835b602083106113dd57805182526020820191506020810190506020830392506113ba565b6001836020036101000a038019825116818451168082178552505050505050905001915050600060405180830381855afa9150503d806000811461143d576040519150601f19603f3d011682016040523d82523d6000602084013e611442565b606091505b508092508193505050811580611459575060208151105b806114a05750600060f81b81601f8151811061147157fe5b602001015160f81c60f81b7effffffffffffffffffffffffffffffffffffffffffffffffffffffffffffff1916145b156114b25760009450505050506114ba565b829450505050505b92915050565b60006060600080600086815260200190815260200160002090506000600190505b8481116115ec5760008582161415801561152157506000826000838152602001908152602001600020805460018160011615610100020316600290049050115b156115e05780826000838152602001908152602001600020808054600181600116156101000203166002900480601f0160208091040260200160405190810160405280929190818152602001828054600181600116156101000203166002900480156115ce5780601f106115a3576101008083540402835291602001916115ce565b820191906000526020600020905b8154815290600101906020018083116115b157829003601f168201915b50505050509050935093505050611608565b600181901b90506114e1565b5060006040518060200160405280600081525081915092509250505b9250929050565b82611619816120c2565b61162257600080fd5b604051806040016040528084815260200183815250600860008681526020019081526020016000206000820151816000015560208201518160010155905050837f1d6f5e03d3f63eb58751986629a5439baee5079ff04f345becb66e23eb154e468484604051808381526020018281526020019250505060405180910390a250505050565b826116b1816120c2565b6116ba57600080fd5b82826002600087815260200190815260200160002091906116dc929190612df4565b50837fe379c1624ed7e714cc0937528a32359d69d5281337765313dba4e081b72d7578848460405180806020018281038252848482818152602001925080828437600081840152601f19601f820116905080830192505050935050505060405180910390a250505050565b60006001600083815260200190815260200160002060009054906101000a900473ffffffffffffffffffffffffffffffffffffffff169050919050565b80600b600085815260200190815260200160002060003373ffffffffffffffffffffffffffffffffffffffff1673ffffffffffffffffffffffffffffffffffffffff16815260200190815260200160002060008473ffffffffffffffffffffffffffffffffffffffff1673ffffffffffffffffffffffffffffffffffffffff16815260200190815260200160002060006101000a81548160ff0219169083151502179055508173ffffffffffffffffffffffffffffffffffffffff163373ffffffffffffffffffffffffffffffffffffffff16847fe1c5610a6e0cbe10764ecd182adcef1ec338dc4e199c99c32ce98f38e12791df84604051808215151515815260200191505060405180910390a4505050565b60008060056000858152602001908152602001600020600060036000878152602001908152602001600020548152602001908152602001600020600084815260200190815260200160002060009054906101000a900461ffff1661ffff161415905092915050565b606060096000858152602001908152602001600020838360405180838380828437808301925050509250505090815260200160405180910390208054600181600116156101000203166002900480601f0160208091040260200160405190810160405280929190818152602001828054600181600116156101000203166002900480156119ce5780601f106119a3576101008083540402835291602001916119ce565b820191906000526020600020905b8154815290600101906020018083116119b157829003601f168201915b505050505090509392505050565b836119e6816120c2565b6119ef57600080fd5b600084600186031614611a0157600080fd5b828260008088815260200190815260200160002060008781526020019081526020016000209190611a33929190612df4565b5083857faa121bbeef5f32f5961a2a28966e769023910fc9479059ee3495d4c1a696efe360405160405180910390a35050505050565b6060600760008381526020019081526020016000208054600181600116156101000203166002900480601f016020809104026020016040519081016040528092919081815260200182805460018160011615610100020316600290048015611b125780601f10611ae757610100808354040283529160200191611b12565b820191906000526020600020905b815481529060010190602001808311611af557829003601f168201915b50505050509050919050565b82611b28816120c2565b611b3157600080fd5b8282600760008781526020019081526020016000209190611b53929190612d74565b50837fb7d29e911041e8d9b843369e890bcb72c9388692ba48b65ac54e7214c4c348f7848460405180806020018281038252848482818152602001925080828437600081840152601f19601f820116905080830192505050935050505060405180910390a250505050565b606060046000858152602001908152602001600020600060036000878152602001908152602001600020548152602001908152602001600020600084815260200190815260200160002060008361ffff1661ffff1681526020019081526020016000208054600181600116156101000203166002900480601f016020809104026020016040519081016040528092919081815260200182805460018160011615610100020316600290048015611cb55780601f10611c8a57610100808354040283529160200191611cb5565b820191906000526020600020905b815481529060010190602001808311611c9857829003601f168201915b505050505090509392505050565b80611ccd816120c2565b611cd657600080fd5b6003600083815260200190815260200160002060008154809291906001019190505550817fb757169b8492ca2f1c6619d9d76ce22803035c3b1d5f6930dffe7b127c1a198360405160405180910390a25050565b6060600260008381526020019081526020016000208054600181600116156101000203166002900480601f016020809104026020016040519081016040528092919081815260200182805460018160011615610100020316600290048015611dd35780601f10611da857610100808354040283529160200191611dd3565b820191906000526020600020905b815481529060010190602001808311611db657829003601f168201915b50505050509050919050565b6000806008600084815260200190815260200160002060000154600860008581526020019081526020016000206001015491509150915091565b81611e23816120c2565b611e2c57600080fd5b816001600085815260200190815260200160002060006101000a81548173ffffffffffffffffffffffffffffffffffffffff021916908373ffffffffffffffffffffffffffffffffffffffff160217905550827f52d7d861f09ab3d26239d492e8968629f95e9e318cf0b73bfddc441522a15fd283604051808273ffffffffffffffffffffffffffffffffffffffff1673ffffffffffffffffffffffffffffffffffffffff16815260200191505060405180910390a2505050565b82611ef1816120c2565b611efa57600080fd5b81600660008681526020019081526020016000206000857bffffffffffffffffffffffffffffffffffffffffffffffffffffffff19167bffffffffffffffffffffffffffffffffffffffffffffffffffffffff1916815260200190815260200160002060006101000a81548173ffffffffffffffffffffffffffffffffffffffff021916908373ffffffffffffffffffffffffffffffffffffffff160217905550827bffffffffffffffffffffffffffffffffffffffffffffffffffffffff1916847f7c69f06bea0bdef565b709e93a147836b0063ba2dd89f02d0b7e8d931e6a6daa84604051808273ffffffffffffffffffffffffffffffffffffffff1673ffffffffffffffffffffffffffffffffffffffff16815260200191505060405180910390a350505050565b600b602052826000526040600020602052816000526040600020602052806000526040600020600092509250509054906101000a900460ff1681565b600063c869023360e01b7bffffffffffffffffffffffffffffffffffffffffffffffffffffffff1916827bffffffffffffffffffffffffffffffffffffffffffffffffffffffff191614806120bb57506120ba826128b1565b5b9050919050565b600080600a60009054906101000a900473ffffffffffffffffffffffffffffffffffffffff1673ffffffffffffffffffffffffffffffffffffffff166302571be3846040518263ffffffff1660e01b81526004018082815260200191505060206040518083038186803b15801561213857600080fd5b505afa15801561214c573d6000803e3d6000fd5b505050506040513d602081101561216257600080fd5b810190808051906020019092919050505090503373ffffffffffffffffffffffffffffffffffffffff168173ffffffffffffffffffffffffffffffffffffffff1614806122465750600b600084815260200190815260200160002060008273ffffffffffffffffffffffffffffffffffffffff1673ffffffffffffffffffffffffffffffffffffffff16815260200190815260200160002060003373ffffffffffffffffffffffffffffffffffffffff1673ffffffffffffffffffffffffffffffffffffffff16815260200190815260200160002060009054906101000a900460ff165b915050919050565b612256612d29565b828160000181905250818160c00181815250506122728161279d565b92915050565b6000816000015151826020015110159050919050565b60606122be82602001516122aa84600001518560200151612912565b846000015161296d9092919063ffffffff16565b9050919050565b60606122ee8260a001518360a001518460c0015103846000015161296d9092919063ffffffff16565b9050919050565b600081518351148015612314575061231383600084600087516129e0565b5b905092915050565b600060036000898152602001908152602001600020549050600087805190602001209050606061235786868961296d9092919063ffffffff16565b9050831561253f576000600460008c81526020019081526020016000206000858152602001908152602001600020600084815260200190815260200160002060008a61ffff1661ffff1681526020019081526020016000208054600181600116156101000203166002900490501461243357600560008b815260200190815260200160002060008481526020019081526020016000206000838152602001908152602001600020600081819054906101000a900461ffff16809291906001900391906101000a81548161ffff021916908361ffff160217905550505b600460008b81526020019081526020016000206000848152602001908152602001600020600083815260200190815260200160002060008961ffff1661ffff168152602001908152602001600020600061248d9190612e74565b897f03528ed0c2a3ebc993b12ce3c16bb382f9c7d88ef7d8a1bf290eaf35955a12078a8a60405180806020018361ffff1661ffff168152602001828103825284818151815260200191508051906020019080838360005b838110156124ff5780820151818401526020810190506124e4565b50505050905090810190601f16801561252c5780820380516001836020036101000a031916815260200191505b50935050505060405180910390a2612791565b6000600460008c81526020019081526020016000206000858152602001908152602001600020600084815260200190815260200160002060008a61ffff1661ffff168152602001908152602001600020805460018160011615610100020316600290049050141561261357600560008b815260200190815260200160002060008481526020019081526020016000206000838152602001908152602001600020600081819054906101000a900461ffff168092919060010191906101000a81548161ffff021916908361ffff160217905550505b80600460008c81526020019081526020016000206000858152602001908152602001600020600084815260200190815260200160002060008a61ffff1661ffff1681526020019081526020016000209080519060200190612675929190612ebc565b50897f52a608b3303a48862d07a73d82fa221318c0027fbbcfb1b2329bface3f19ff2b8a8a8460405180806020018461ffff1661ffff16815260200180602001838103835286818151815260200191508051906020019080838360005b838110156126ed5780820151818401526020810190506126d2565b50505050905090810190601f16801561271a5780820380516001836020036101000a031916815260200191505b50838103825284818151815260200191508051906020019080838360005b83811015612753578082015181840152602081019050612738565b50505050905090810190601f1680156127805780820380516001836020036101000a031916815260200191505b509550505050505060405180910390a25b50505050505050505050565b8060c001518160200181815250508060000151518160200151106127c0576128ae565b60006127d482600001518360200151612912565b82602001510190506127f3818360000151612a0490919063ffffffff16565b826040019061ffff16908161ffff1681525050600281019050612823818360000151612a0490919063ffffffff16565b826060019061ffff16908161ffff1681525050600281019050612853818360000151612a2a90919063ffffffff16565b826080019063ffffffff16908163ffffffff16815250506004810190506000612889828460000151612a0490919063ffffffff16565b61ffff169050600282019150818360a00181815250508082018360c001818152505050505b50565b600063691f343160e01b7bffffffffffffffffffffffffffffffffffffffffffffffffffffffff1916827bffffffffffffffffffffffffffffffffffffffffffffffffffffffff1916148061290b575061290a82612a52565b5b9050919050565b6000808290505b600115612961578351811061292a57fe5b600061293f8286612ac490919063ffffffff16565b60ff1690506001810182019150600081141561295b5750612961565b50612919565b82810391505092915050565b60608351828401111561297f57600080fd5b6060826040519080825280601f01601f1916602001820160405280156129b45781602001600182028038833980820191505090505b50905060008060208301915085602088010190506129d3828287612ae8565b8293505050509392505050565b60006129ed848484612b31565b6129f8878785612b31565b14905095945050505050565b60008251600283011115612a1757600080fd5b61ffff8260028501015116905092915050565b60008251600483011115612a3d57600080fd5b63ffffffff8260048501015116905092915050565b60006040518080612f6260249139602401905060405180910390207bffffffffffffffffffffffffffffffffffffffffffffffffffffffff1916827bffffffffffffffffffffffffffffffffffffffffffffffffffffffff19161480612abd5750612abc82612b54565b5b9050919050565b6000828281518110612ad257fe5b602001015160f81c60f81b60f81c905092915050565b5b60208110612b0c5781518352602083019250602082019150602081039050612ae9565b60006001826020036101000a0390508019835116818551168181178652505050505050565b600083518284011115612b4357600080fd5b818360208601012090509392505050565b600063a8fa568260e01b7bffffffffffffffffffffffffffffffffffffffffffffffffffffffff1916827bffffffffffffffffffffffffffffffffffffffffffffffffffffffff19161480612bae5750612bad82612bb5565b5b9050919050565b600063bc1c58d160e01b7bffffffffffffffffffffffffffffffffffffffffffffffffffffffff1916827bffffffffffffffffffffffffffffffffffffffffffffffffffffffff19161480612c0f5750612c0e82612c16565b5b9050919050565b6000633b3b57de60e01b7bffffffffffffffffffffffffffffffffffffffffffffffffffffffff1916827bffffffffffffffffffffffffffffffffffffffffffffffffffffffff19161480612c705750612c6f82612c77565b5b9050919050565b6000632203ab5660e01b7bffffffffffffffffffffffffffffffffffffffffffffffffffffffff1916827bffffffffffffffffffffffffffffffffffffffffffffffffffffffff19161480612cd15750612cd082612cd8565b5b9050919050565b60006301ffc9a760e01b7bffffffffffffffffffffffffffffffffffffffffffffffffffffffff1916827bffffffffffffffffffffffffffffffffffffffffffffffffffffffff1916149050919050565b6040518060e001604052806060815260200160008152602001600061ffff168152602001600061ffff168152602001600063ffffffff16815260200160008152602001600081525090565b828054600181600116156101000203166002900490600052602060002090601f016020900481019282601f10612db557803560ff1916838001178555612de3565b82800160010185558215612de3579182015b82811115612de2578235825591602001919060010190612dc7565b5b509050612df09190612f3c565b5090565b828054600181600116156101000203166002900490600052602060002090601f016020900481019282601f10612e3557803560ff1916838001178555612e63565b82800160010185558215612e63579182015b82811115612e62578235825591602001919060010190612e47565b5b509050612e709190612f3c565b5090565b50805460018160011615610100020316600290046000825580601f10612e9a5750612eb9565b601f016020900490600052602060002090810190612eb89190612f3c565b5b50565b828054600181600116156101000203166002900490600052602060002090601f016020900481019282601f10612efd57805160ff1916838001178555612f2b565b82800160010185558215612f2b579182015b82811115612f2a578251825591602001919060010190612f0f565b5b509050612f389190612f3c565b5090565b612f5e91905b80821115612f5a576000816000905550600101612f42565b5090565b9056fe696e74657266616365496d706c656d656e74657228627974657333322c62797465733429a165627a7a7230582053e4993420bdae09e6ffd353e9f9e40b02b8f7ed16abae6a40d51786b6dad42d0029",
  "source": "pragma solidity ^0.5.0;\n\nimport \"@ensdomains/ens/contracts/ENS.sol\";\nimport \"./profiles/ABIResolver.sol\";\nimport \"./profiles/AddrResolver.sol\";\nimport \"./profiles/ContentHashResolver.sol\";\nimport \"./profiles/DNSResolver.sol\";\nimport \"./profiles/InterfaceResolver.sol\";\nimport \"./profiles/NameResolver.sol\";\nimport \"./profiles/PubkeyResolver.sol\";\nimport \"./profiles/TextResolver.sol\";\n\n/**\n * A simple resolver anyone can use; only allows the owner of a node to set its\n * address.\n */\ncontract PublicResolver is ABIResolver, AddrResolver, ContentHashResolver, DNSResolver, InterfaceResolver, NameResolver, PubkeyResolver, TextResolver {\n    ENS ens;\n\n    /**\n     * A mapping of authorisations. An address that is authorised for a name\n     * may make any changes to the name that the owner could, but may not update\n     * the set of authorisations.\n     * (node, owner, caller) => isAuthorised\n     */\n    mapping(bytes32=>mapping(address=>mapping(address=>bool))) public authorisations;\n\n    event AuthorisationChanged(bytes32 indexed node, address indexed owner, address indexed target, bool isAuthorised);\n\n    constructor(ENS _ens) public {\n        ens = _ens;\n    }\n\n    /**\n     * @dev Sets or clears an authorisation.\n     * Authorisations are specific to the caller. Any account can set an authorisation\n     * for any name, but the authorisation that is checked will be that of the\n     * current owner of a name. Thus, transferring a name effectively clears any\n     * existing authorisations, and new authorisations can be set in advance of\n     * an ownership transfer if desired.\n     *\n     * @param node The name to change the authorisation on.\n     * @param target The address that is to be authorised or deauthorised.\n     * @param isAuthorised True if the address should be authorised, or false if it should be deauthorised.\n     */\n    function setAuthorisation(bytes32 node, address target, bool isAuthorised) external {\n        authorisations[node][msg.sender][target] = isAuthorised;\n        emit AuthorisationChanged(node, msg.sender, target, isAuthorised);\n    }\n\n    function isAuthorised(bytes32 node) internal view returns(bool) {\n        address owner = ens.owner(node);\n        return owner == msg.sender || authorisations[node][owner][msg.sender];\n    }\n}\n",
  "sourcePath": "/home/ggarrido/lightstreams/workspace/lightstreams-js-sdk/node_modules/@ensdomains/resolver/contracts/PublicResolver.sol",
  "compiler": {
    "name": "solc",
    "version": "0.5.8+commit.23d335f2.Emscripten.clang"
  },
  "schemaVersion": "3.0.15",
  "updatedAt": "2019-09-13T13:56:13.983Z",
  "devdoc": {
    "methods": {
      "ABI(bytes32,uint256)": {
        "params": {
          "contentTypes": "A bitwise OR of the ABI formats accepted by the caller.",
          "node": "The ENS node to query"
        },
        "return": "contentType The content type of the return valuedata The ABI data"
      },
      "addr(bytes32)": {
        "params": {
          "node": "The ENS node to query."
        },
        "return": "The associated address."
      },
      "clearDNSZone(bytes32)": {
        "params": {
          "node": "the namehash of the node for which to clear the zone"
        }
      },
      "contenthash(bytes32)": {
        "params": {
          "node": "The ENS node to query."
        },
        "return": "The associated contenthash."
      },
      "dnsRecord(bytes32,bytes32,uint16)": {
        "params": {
          "name": "the keccak-256 hash of the fully-qualified name for which to fetch the record",
          "node": "the namehash of the node for which to fetch the record",
          "resource": "the ID of the resource as per https://en.wikipedia.org/wiki/List_of_DNS_record_types"
        },
        "return": "the DNS record in wire format if present, otherwise empty"
      },
      "hasDNSRecords(bytes32,bytes32)": {
        "params": {
          "name": "the namehash of the node for which to check the records",
          "node": "the namehash of the node for which to check the records"
        }
      },
      "interfaceImplementer(bytes32,bytes4)": {
        "params": {
          "interfaceID": "The EIP 168 interface ID to check for.",
          "node": "The ENS node to query."
        },
        "return": "The address that implements this interface, or 0 if the interface is unsupported."
      },
      "name(bytes32)": {
        "params": {
          "node": "The ENS node to query."
        },
        "return": "The associated name."
      },
      "pubkey(bytes32)": {
        "params": {
          "node": "The ENS node to query"
        },
        "return": "x, y the X and Y coordinates of the curve point for the public key."
      },
      "setABI(bytes32,uint256,bytes)": {
        "params": {
          "contentType": "The content type of the ABI",
          "data": "The ABI data.",
          "node": "The node to update."
        }
      },
      "setAddr(bytes32,address)": {
        "params": {
          "addr": "The address to set.",
          "node": "The node to update."
        }
      },
      "setAuthorisation(bytes32,address,bool)": {
        "details": "Sets or clears an authorisation. Authorisations are specific to the caller. Any account can set an authorisation for any name, but the authorisation that is checked will be that of the current owner of a name. Thus, transferring a name effectively clears any existing authorisations, and new authorisations can be set in advance of an ownership transfer if desired.",
        "params": {
          "isAuthorised": "True if the address should be authorised, or false if it should be deauthorised.",
          "node": "The name to change the authorisation on.",
          "target": "The address that is to be authorised or deauthorised."
        }
      },
      "setContenthash(bytes32,bytes)": {
        "params": {
          "hash": "The contenthash to set",
          "node": "The node to update."
        }
      },
      "setDNSRecords(bytes32,bytes)": {
        "params": {
          "data": "the DNS wire format records to set",
          "node": "the namehash of the node for which to set the records"
        }
      },
      "setInterface(bytes32,bytes4,address)": {
        "params": {
          "implementer": "The address of a contract that implements this interface for this node.",
          "interfaceID": "The EIP 168 interface ID.",
          "node": "The node to update."
        }
      },
      "setName(bytes32,string)": {
        "params": {
          "name": "The name to set.",
          "node": "The node to update."
        }
      },
      "setPubkey(bytes32,bytes32,bytes32)": {
        "params": {
          "node": "The ENS node to query",
          "x": "the X coordinate of the curve point for the public key.",
          "y": "the Y coordinate of the curve point for the public key."
        }
      },
      "setText(bytes32,string,string)": {
        "params": {
          "key": "The key to set.",
          "node": "The node to update.",
          "value": "The text data value to set."
        }
      },
      "text(bytes32,string)": {
        "params": {
          "key": "The text data key to query.",
          "node": "The ENS node to query."
        },
        "return": "The associated text data."
      }
    }
  },
  "userdoc": {
    "methods": {
      "ABI(bytes32,uint256)": {
        "notice": "Returns the ABI associated with an ENS node. Defined in EIP205."
      },
      "addr(bytes32)": {
        "notice": "Returns the address associated with an ENS node."
      },
      "clearDNSZone(bytes32)": {
        "notice": "Clear all information for a DNS zone."
      },
      "contenthash(bytes32)": {
        "notice": "Returns the contenthash associated with an ENS node."
      },
      "dnsRecord(bytes32,bytes32,uint16)": {
        "notice": "Obtain a DNS record."
      },
      "hasDNSRecords(bytes32,bytes32)": {
        "notice": "Check if a given node has records."
      },
      "interfaceImplementer(bytes32,bytes4)": {
        "notice": "Returns the address of a contract that implements the specified interface for this name. If an implementer has not been set for this interfaceID and name, the resolver will query the contract at `addr()`. If `addr()` is set, a contract exists at that address, and that contract implements EIP168 and returns `true` for the specified interfaceID, its address will be returned."
      },
      "name(bytes32)": {
        "notice": "Returns the name associated with an ENS node, for reverse records. Defined in EIP181."
      },
      "pubkey(bytes32)": {
        "notice": "Returns the SECP256k1 public key associated with an ENS node. Defined in EIP 619."
      },
      "setABI(bytes32,uint256,bytes)": {
        "notice": "Sets the ABI associated with an ENS node. Nodes may have one ABI of each content type. To remove an ABI, set it to the empty string."
      },
      "setAddr(bytes32,address)": {
        "notice": "Sets the address associated with an ENS node. May only be called by the owner of that node in the ENS registry."
      },
      "setContenthash(bytes32,bytes)": {
        "notice": "Sets the contenthash associated with an ENS node. May only be called by the owner of that node in the ENS registry."
      },
      "setDNSRecords(bytes32,bytes)": {
        "notice": "Set one or more DNS records.  Records are supplied in wire-format. Records with the same node/name/resource must be supplied one after the other to ensure the data is updated correctly. For example, if the data was supplied:    a.example.com IN A 1.2.3.4    a.example.com IN A 5.6.7.8    www.example.com IN CNAME a.example.com. then this would store the two A records for a.example.com correctly as a single RRSET, however if the data was supplied:    a.example.com IN A 1.2.3.4    www.example.com IN CNAME a.example.com.    a.example.com IN A 5.6.7.8 then this would store the first A record, the CNAME, then the second A record which would overwrite the first."
      },
      "setInterface(bytes32,bytes4,address)": {
        "notice": "Sets an interface associated with a name. Setting the address to 0 restores the default behaviour of querying the contract at `addr()` for interface support."
      },
      "setName(bytes32,string)": {
        "notice": "Sets the name associated with an ENS node, for reverse records. May only be called by the owner of that node in the ENS registry."
      },
      "setPubkey(bytes32,bytes32,bytes32)": {
        "notice": "Sets the SECP256k1 public key associated with an ENS node."
      },
      "setText(bytes32,string,string)": {
        "notice": "Sets the text data associated with an ENS node and key. May only be called by the owner of that node in the ENS registry."
      },
      "text(bytes32,string)": {
        "notice": "Returns the text data associated with an ENS node and key."
      }
    },
    "notice": "A simple resolver anyone can use; only allows the owner of a node to set its address."
  }
}